:0720620090014BE4F0A3F034
:20207300AF83E582900100F0EFA3F0900102E4F0A3F0A3F0A3F0900100E0FEA3E0FF900907
:20209300C9EEF0EFA3F09003E8C007C00612504BAC82AD83D006D007900102E0F8A3E0F95D
:2020B300A3E0FAA3E0FBC006C0077E007F00C3E89CE99DEA9EEB9FD007D0065023900102F6
:2020D300E0FAA3E0FBA3E0FCA3E0FD90010274012AF0E43BA3F0E43CA3F0E43DA3F0809E3D
:2020F3002290038DE4F075821F123AFAE5824408FF900384741FF0900385EFF0758200021F
:202113003984AF83E582900108F0EFA3F0900108E0FEA3E0FF8E059003847404F090038528
:20213300EDF0758200C007C006123984D006D0078F069003847405F0900385EEF0758200AD
:20215300123984900106E0FEA3E0FF8E059003847406F0900385EDF0758200C007C0061207
:202173003984D006D0078F069003847407F0900385EEF0758200023984AF83E58290010AEB
:20219300F0EFA3F090010AE0FEA3E0FF7C007D00C3EC9EED9F504190038DE4F075821FC092
:2021B30007C006C005C004123AFAE582D004D005D006D00720E30475820122900001C0073A
:2021D300C006C005C004122073D004D005D006D0070CBC00BB0D80B87582002290038DE4BD
:2021F300F075821D123AFAE582035401B401009200E433F5822290010C7402F090010D74B7
:2022130011F090010E23F090010F7433F09001107444F09001117455F090011274F8F0908E
:2022330001137475F090011474A4F0900115748CF09001167441F09001177431F090011829
:2022530074C0F090011974A8F090011A7401F090011B7464F090011C74C0F090011D74A872
:20227300F090011E7401F090011FF0900120740EF07E007F00C3EE9406EF648094805048BD
:202293008E05ED04FC3395E0FBEC2420FCEB3401FBEE2412F582EF3401F583E08C828B838E
:2022B300F074072DFD3395E0FCED2420FDEC3401FCEE240CF582EF3401F583E08D828C8358
:2022D300F00EBE00B00F80AD90012D7408F090012E7406F090012FE4F090013004F0900116
:2022F300317408F0900132E4F09001337406F09001347404F0900135E4F090013604F07E69
:20231300007F00C3EE9406EF6480948050298E0574172DFD3395E0FCED2420FDEC3401FC49
:20233300EE240CF582EF3401F583E08D828C83F00EBE00CF0F80CC7E007F00C3EE9404EF40
:202353006480948050298E05741D2DFD3395E0FCED2420FDEC3401FCEE2418F582EF3401F7
:20237300F583E08D828C83F00EBE00CF0F80CC7F00BF060050198F0674212EFE3395E0FD46
:20239300EE2420F582ED3401F583E4F00F80E27E007F00C3EE9404EF6480948050298E0569
:2023B30074272DFD3395E0FCED2420FDEC3401FCEE241CF582EF3401F583E08D828C83F027
:2023D3000EBE00CF0F80CC90039EE4F0740CA3F09003A07420F07401A3F0E4A3F090002CEA
:2023F300123F0D900106742BF0740CA3F0900C001221151220F49001F412218CE5826033EB
:202413001221EFE58260167415C0E0745CC0E07480C0E0125198158115811581227436C034
:20243300E0745CC0E07480C0E0125198158115811581227464C0E0745CC0E07480C0E01238
:20245300519815811581158122C021C0E0C0F0C082C083C007C006C005C004C003C002C08B
:2024730001C000C0D075D00074A7C0E0745CC0E07480C0E012519815811581158190014B5B
:20249300E02401F0A3E03400F0D0D0D000D001D002D003D004D005D006D007D083D082D0DC
:2024B300F0D0E0D02132AF83E58290014FF0EFA3F090014FE0FEA3E0FFC374FF9E741F9F15
:2024D300401590014DE0FCA3E0FD8C028D03C374FF9A741F9B502A90014DE0C0E0A3E0C023
:2024F300E090014FE0C0E0A3E0C0E074CEC0E0745CC0E07480C0E0125198E58124F9F5818C
:20251300225306FE90014FEEF0EFA3F090014FE0FEA3E0FF8E03900384E4F0900385EBF040
:20253300758200C007C006C005C004C003123984D003D004D005D006D0078F0290038474A4
:2025530001F0900385EAF0758200C007C006C005C004C003C002123984D002D003D004D0DB
:2025730005D006D0079003847408F0900385EBF0758200C007C006C005C004C003C002127C
:202593003984D002D003D004D005D006D0079003847409F0900385EAF0758200C007C00676
:2025B300C005C004C003C002123984D002D003D004D005D006D0078C01900384740AF0908E
:2025D3000385E9F0758200C007C006C005C004C003C002123984D002D003D004D005D00602
:2025F300D0078D01900384740BF0900385E9F0758200C007C006C005C004C003C00212390F
:2026130084D002D003D004D005D006D007900384740CF0900385EBF0758200C007C006C06A
:2026330005C004C002123984D002D004D005D006D007900384740DF0900385EAF075820094
:20265300C007C006C005C004123984D004D005D006D007C004C005C006C00774FFC0E0748F
:202673005CC0E07480C0E0125198E58124F9F58122AFF0AE83E582900151F0EEA3F0EFA385
:20269300F01239FE90038DE4F075821D123AFAE58230E0F090014D74FFF0740BA3F0900056
:2026B300001224B99003847402F09003857470F07582021239849003847403F090038574DD
:2026D30040F0758202123984900384740AF090038574EEF0758202123984900384740BF0B2
:2026F3009003857405F07582021239849003847404F09003857412F0758202123984900316
:20271300847406F09003857412F07582021239849003847407F0900385740CF0758202124D
:202733003984900151E0FDA3E0FEA3E0FF74052DF508E43EF5098F0A850882850983850AFC
:20275300F0125BBAF99003847401F0900385E9F0758203C007C006C005123984D005D00623
:20277300D00774042DF50BE43EF50C8F0D850B82850C83850DF0125BBAFB900384E4F090C6
:202793000385EBF0758203C007C006C005123984D005D006D00774032DF50EE43EF50F8FCA
:2027B30010850E82850F838510F0125BBAF99003847403F0900385E9F0758203C007C0062F
:2027D300C005123984D005D006D00774022DF511E43EF5128F138511828512838513F01290
:2027F3005BBAFB9003847402F0900385EBF0758203C007C006C005123984D005D006D007A9
:2028130074012DFAE43EFB8F048A828B838CF0125BBAF99003847405F0900385E9F075823B
:2028330003C007C006C005C004C003C002123984D002D003D004D005D006D0078D828E83FD
:202853008FF0125BBAF99003847404F0900385E9F0758203C007C006C005C004C003C002C1
:20287300123984D002D003D004D005D006D0079003847418F09003857480F0758201C0072D
:20289300C006C005C004C003C002123984D002D003D004D005D006D00790038D7402F0758C
:2028B3008203C007C006C005C004C003C002123AFAE582D002D003D004D005D006D00744F9
:2028D30001F99003847403F0900385E9F0758202C007C006C005C004C003C002123984D049
:2028F30002D003D004D005D006D00790038D7402F0758200C007C006C005C004C003C00282
:20291300123AFAE582D002D003D004D005D006D0074401F9900384E4F0900385E9F07582EB
:2029330002C007C006C005C004C003C002123984D002D003D004D005D006D00790038AE41C
:20295300F004A3F0758200C007C006C005C004C003C002123A77D002D003D004D005D00664
:20297300D00790038A7422F07434A3F0758214C007C006C005C004C003C002123A77D00254
:20299300D003D004D005D006D007900384741FF09003857404F0758200C007C006C005C0D8
:2029B30004C003C002123984742EC0E0745DC0E07480C0E0125198158115811581D002D006
:2029D30003D004D005D006D007850882850983850AF0125BBAF98908750900850B82850C1A
:2029F30083850DF0125BBAF9890B750C00850E82850F838510F0125BBAF9890E750F008519
:202A130011828512838513F0125BBAF879008A828B838CF0125BBAFA7C008D828E838FF004
:202A3300125BBAFD7F00C008C009C00BC00CC00EC00FC000C001C002C004C005C0077452C2
:202A5300C0E0745DC0E07480C0E0125198E58124F1F5812290038D7401F0758219023AFAE5
:202A7300AF83E582900154F0EFA3F0900154E0FEA3E0FFFD8E04900384740CF0900385ECF4
:202A9300F0758200C007C006C005123984D005D006D007900384740DF0900385EDF0758225
:202AB30000C007C006123984D006D007C006C007747EC0E0745DC0E07480C0E0125198E5F6
:062AD3008124FBF58122C5
:205BDA000A496E76616C6964204275666665722053697A652E20427566666572206578639D
:205BFA00656564732076616C696420616464726573732072616E67652E0A004152502072DA
:205C1A006571756573742073656E74207375636365737366756C6C792E0A0D00415250206C
:205C3A007472616E736D697373696F6E206661696C65642E20436865636B206572726F7225
:205C5A0020666C6167732E0A0D005472616E736D697373696F6E2074696D656F75742E2039
:205C7A00454E4332384A3630206D6179206E6F742062652066756E6374696F6E696E672077
:205C9A00636F72726563746C792E0A0D00496E74657272727272727272757575757575757B
:205CBA0075757070707070707070747474747474740A0D000A496E76616C6964204275660F
:205CDA006665722052616E67653A205374617274203078253034582C20456E6420307825FF
:205CFA003034580A000A42756666657220496E697469616C697A65643A2053746172742042
:205D1A003078253034582C20456E64203078253034580A000A454E4332384A363020496EF9
:205D3A00697469616C697A6174696F6E20436F6D706C6574652E0A004D414320416464723B
:205D5A006573733A20253032583A253032583A253032583A253032583A253032583A2530B2
:1F5D7A0032580A0055706461746564204552585244505420746F203078253034580A00B0
:0620000002200902245C2D
:0A20690090037BE4F0A3F0022006D0
:03200600022D1791
:202AD900AFF0AE83E582900156F0EEA3F0EFA3F0900159E4F0A3F0900156E0FDA3E0FEA393
:202AF900E0FF8D028E038F048D398E3A8F3B78007900C002C003C004E82539FAE9353AFB06
:202B1900AC3B8A828B838CF0125BBAF53CD004D003D002E53C7003022C87C002C003C004BC
:202B3900853C3D753E0090015BE53DF0E53EA3F0900159E0FBA3E0C454F0CBC4CB6BCB54E3
:202B5900F0CB6BFC900159EBF0ECA3F0C3E53D9430E53E64809480D004D003D002403F74C6
:202B790039953D7480853EF063F08095F0402FC002C003C004E53D24D0F53DE53E34FFF5E7
:202B99003E900159E0FAA3E0FC900159E53D2AF0E53E3CA3F0D004D003D002022C7F9001CC
:202BB9005BE0F53DA3E0F53EC3E53D9441E53E64809480404E7446953D7480853EF063F0F0
:202BD9008095F0403EC005C006C007E82AFDE93BFE8C078D828E838FF0125BBA7F0024C911
:202BF900F53DEF34FFF53E900159E0FEA3E0FF900159E53D2EF0E53E3FA3F0D007D006D04F
:202C190005806390015BE0F53DA3E0F53EC3E53D9461E53E64809480404C7466953D7480DE
:202C3900853EF063F08095F0403CC002C003C004E82DFAE93EFB8F048A828B838CF0125BE4
:202C5900BA7C0024A9F53DEC34FFF53E900159E0FBA3E0FC900159E53D2BF0E53E3CA3F077
:202C7900D004D003D00208B8000109022B0B900159E0FEA3E08E82F583227E007F00C00707
:202C9900C006124B0BAC82D006D007BC0A02803ABC0D028035C3EE9409EF64809480502A61
:202CB9008C037D008B828D83C007C006C004124AECD004D006D007EE245DF582EF3401F5B9
:202CD90083ECF00EBE00B70F80B4EE245DF582EF3401F583E4F090015DF5F0122AD9AE8248
:202CF900AF83C007C0067499C0E0745DC0E0124D9D15811581D006D0078E828F8322900134
:202D1900677402F09001687411F090016923F090016A7433F090016B7444F090016C745556
:202D3900F090016D74F8F090016E7475F090016F74A4F0900170748CF09001717441F09028
:202D590001727431F090017374C0F090017474A8F09001757401F09001767464F0900177D7
:202D790074C0F090017874A8F09001797401F090017AF0749CC0E0745DC0E07480C0E012D0
:202D990051981581158115811239E090016775F00012268474B5C0E0745DC0E07480C0E05D
:202DB90012519815811581158174CCC0E0745DC0E07480C0E012519815811581158174E245
:202DD900C0E0745DC0E07480C0E012519815811581158174F7C0E0745DC0E07480C0E01256
:202DF9005198158115811581740BC0E0745EC0E07480C0E01251981581158115817425C0D4
:202E1900E0745EC0E07480C0E0125198158115811581743BC0E0745EC0E07480C0E012513E
:202E3900981581158115817450C0E0745EC0E07480C0E01251981581158115817462C0E082
:202E5900745EC0E07480C0E0125198158115811581747CC0E0745EC0E07480C0E012519805
:202E79001581158115817491C0E0745EC0E07480C0E012519815811581158174AAC0E074DD
:202E99005EC0E07480C0E012519815811581158174C2C0E0745EC0E07480C0E012519815DE
:202EB900811581158174E1C0E0745EC0E07480C0E012519815811581158174F5C0E0745EB9
:202ED900C0E07480C0E01251981581158115817411C0E0745FC0E07480C0E012519815812B
:202EF90015811581124B0BAE828E057F008D828F83C006124AEC7499C0E0745DC0E07480A2
:202F1900C0E0125198158115811581D006BE31005003023851EE24B95003023851EE24CF0E
:202F3900FE240A83F582EE241A83F583E47373DBD9389A05405BBD515151515151517DAD1D
:202F5900B5E7F02B2F2F3031313232323238383838383838332D373737387430C0E0745F0D
:202F7900C0E07480C0E0125198158115811581122C93AE82C0067455C0E0745FC0E07480B0
:202F9900C0E0125198158115811581122C93AD82C0057482C0E0745FC0E07480C0E01251F6
:202FB90098158115811581122C93AC82D005D006900384EDF0900385ECF08E82123984022B
:202FD9002DAD74A6C0E0745FC0E07480C0E0125198158115811581122C93AE82AF83C00786
:202FF900C00674CCC0E0745FC0E07480C0E0125198158115811581122C93AC82AD83D00649
:20301900D007C007C006C005C004C006C00774EAC0E0745FC0E07480C0E0125198E5812493
:20303900FBF581D004D005D006D0077A007B00C3EA9EEB64808FF063F08095F05063C00453
:20305900C005C007C006C005C004C003C002C002C003740DC0E07460C0E07480C0E01251E6
:2030790098E58124FBF581D002D003D004D005EA247BF8EB3401F9C003C002C001C00012A4
:203099002C93AC82D000D001D002D003D006D00788828983ECF00ABA00010BD005D004804C
:2030B9008E90039EECF0EDA3F09003A0747BF07401A3F0E4A3F08E828F83123F0D022DADEF
:2030D9007417C0E07460C0E07480C0E0125198158115811581122C93AE82AF83C007C00627
:2030F90074CCC0E0745FC0E07480C0E0125198158115811581122C93AC82AD83D006D00737
:20311900900395ECF0EDA3F0900397747BF07402A3F0E4A3F08E828F83123D34022DAD7494
:203139003CC0E07460C0E07480C0E0125198158115811581122C93AE82C0067465C0E07421
:2031590060C0E07480C0E0125198158115811581122C93AD82D00690038DEEF08D82123AD6
:20317900FAAF827E00C007C006748EC0E07460C0E07480C0E0125198E58124FBF581022D31
:20319900AD74AAC0E07460C0E07480C0E0125198158115811581122C93AE82C00674CCC01F
:2031B900E07460C0E07480C0E0125198158115811581122C93AD82AF83D00690038AEDF04F
:2031D900EFA3F08E82C007C005123A77D005D007C005C00774EEC0E07460C0E07480C0E0B3
:2031F900125198E58124FBF581022DAD7407C0E07461C0E07480C0E0125198158115811584
:2032190081122C93123B3DAE82AF83C006C0077431C0E07461C0E07480C0E0125198E5811B
:2032390024FBF581022DAD7449C0E07461C0E07480C0E01251981581158115811239FE0296
:203259002DAD7461C0E07461C0E07480C0E0125198158115811581122C93AE82C006748B7A
:20327900C0E07461C0E07480C0E0125198158115811581122C93AD82D006900388EDF08E73
:2032990082123A09AF827E00C007C00674A6C0E07461C0E07480C0E0125198E58124FBF5CA
:2032B90081022DAD74B5C0E0745DC0E07480C0E012519815811581158174CCC0E0745DC09C
:2032D900E07480C0E012519815811581158174E2C0E0745DC0E07480C0E012519815811503
:2032F90081158174F7C0E0745DC0E07480C0E0125198158115811581740BC0E0745EC0E040
:203319007480C0E01251981581158115817425C0E0745EC0E07480C0E012519815811581DD
:203339001581743BC0E0745EC0E07480C0E01251981581158115817450C0E0745EC0E07482
:2033590080C0E01251981581158115817462C0E0745EC0E07480C0E01251981581158115BF
:2033790081022DAD122209122A67E58260F990037BE0FEA3E0FF90037BE0F5F0A3E045F03E
:203399007008900BFF122A73800C1EBEFF011F8E828F83122A73900006124EE2AE82AD83C3
:2033B9007F0090037BE0FBA3E0FC900395EBF0ECA3F0900397EEF0EDA3F0EFA3F0900006EB
:2033D900C007C006C005123D34D005D006D00774012EFAE43DFB8F048A828B838CF0125B2E
:2033F900BAFC7A008E828D838FF0125BBA7B004202EB42048A2A8C2B74032EF8E43DF98F1D
:2034190003888289838BF0125BBAF87B0088238B2274022EF8E43DF98F03888289838BF034
:20343900125BBAF87B00E523420388228B2374052EF8E43DF98F03888289838BF0125BBA31
:20345900F87B0088258B2474042EF8E43DF98F03888289838BF0125BBAF87B00E5254203C0
:2034790088248B25A922AB23E924FCF9EB34FFFB89288B29852826852927852682852783BA
:20349900C007C006C005124EE2A882AB83D005D006D007882C8B2D752E0090037BE0FAA30B
:2034B900E0FC74062AFAE43CFC900395EAF0ECA3F0900397E52CF0E52DA3F0E52EA3F085E1
:2034D9002882852983C007C006C005123D3490037DE4F0A3F0AA2CAB2DFC9009CB7467F0D3
:2034F9007401A3F0E4A3F09009CE7406F0E4A3F08A828B838CF012506BE5828583F0D00555
:20351900D006D00745F060030235B5C007C006C00574C2C0E07461C0E07480C0E012519835
:20353900158115811581D005D006D007740C252CFAE4352DFBAC2E8A828B838CF0125BBA8B
:20355900FABA0858740D252CFAE4352DFBAC2E8A828B838CF0125BBA7042C007C006C00596
:2035790074E0C0E07461C0E07480C0E0125198158115811581D005D006D0077417252CFA20
:20359900E4352DFBAC2E8A828B838CF0125BBAFABA060990037D7401F0E4A3F090037DE09B
:2035B900F5F0A3E045F070030236EC74082526FBE43527FC9003B2EBF0ECA3F09003B47466
:2035D9007FF07403A3F0E4A3F0852C82852D83852EF0C007C006C00512423CAA82AB83ACEF
:2035F900F0D005D006D007EA4B70030236A8C007C006C005C004C003C002740AC0E0746229
:20361900C0E07480C0E0125198158115811581D002D003D004D005D006D00790037FE0F8BB
:20363900A3E0F9900997E8F0E9A3F08A828B838CF0C007C006C005C004C003C002124618D0
:20365900D002D003D004D005D006D00790037FE0F8A3E0F9740428F8E439F99009A2E8F02F
:20367900E9A3F08A828B838CF0C007C006C005C004C003C002124A08D002D003D0048A829B
:203699008B838CF0124B8FD005D006D0078021C007C006C0057425C0E07462C0E07480C0C3
:2036B900E0125198158115811581D005D006D007C007C006C0057457C0E07462C0E07480AB
:2036D900C0E0125198158115811581D005D006D0078021C007C006C005745FC0E07462C0F6
:2036F900E07480C0E0125198158115811581D005D006D00790037BE52AF0E52BA3F0C00787
:20371900C006C005C02AC02B7466C0E07462C0E07480C0E0125198E58124FBF581C022C014
:2037390023747AC0E07462C0E07480C0E0125198E58124FBF581C024C0257489C0E0746283
:20375900C0E07480C0E0125198E58124FBF581D005D006D00790038DE4F075821EC007C014
:2037790006C005123AFAE582D005D006D0074440FC900384741EF0900385ECF0758202C070
:2037990007C006C005123984D005D006D0077F008E828D838FF0124B8F0233807499C0E0C1
:2037B9007462C0E07480C0E0125198158115811581C2907E007F00C3EE9470EF6480949727
:2037D90050070EBE00F10F80EED290022DAD900846124723022DADD288D2A8D2AF90038D56
:2037F900E4F075821E123AFA74CCC0E07462C0E07480C0E0125198158115811581900384C3
:20381900741BF090038574C0F0758200123984022DAD74DFC0E07462C0E07480C0E01251D2
:2038390098158115811581900384741BF0900385E4F075820012398474F3C0E07462C0E050
:103859007480C0E0125198158115811581022DAD32
:205D99000A0D00535049204F7065726174696F6E73206F6E20383035310A0D000A0D4368DF
:205DB9006F6F736520616E20616374696F6E3A200A0D0031202D2D3E20436F6E74726F6C2C
:205DD9002057726974650A0D0032202D2D3E204275666665722057726974650A0D0033206F
:205DF9002D2D3E2042756666657220526561640A0D0034202D2D3E204D4143205265676941
:205E19007374657220526561640A0D0035202D2D3E20504859205350492057726974650AB9
:205E39000D0036202D2D3E205048592053504920526561640A0D0037202D2D3E20454E4399
:205E59002052657365740A0D0038202D2D3E205265616420455448205265676973746572FD
:205E79000A0D0039202D2D3E20446973706C6179204D656E750A0D0041202D2D3E2053656E
:205E99006E642041525020526571756573740A0D0042202D2D3E20496E69742052582062FA
:205EB9007566666572730A0D0043202D2D3E2048617264205265736574286E524553455451
:205ED9002070696E290A0D0044202D2D3E2050726F63657373205443500A0D0045202D2D2A
:205EF9003E20456E61626C6520545820696E746572727570740A0D0046202D2D3E20446929
:205F19007361626C696E6720545820696E746572727570740A0D00456E7465722074686539
:205F39002072656769737465722062616E6B20746F2073656C6563743A0A0D00456E746587
:205F590072207468652061646472657373206F662074686520436F6E74726F6C20526567BA
:205F790069737465723A0A0D00456E74657220746865206461746120796F752077616E7420
:205F990020746F2077726974653A0A0D00456E74657220746865206E756D626572206F664C
:205FB90020627974657320746F2077726974653A0A0D00456E74657220746865207374611B
:205FD9007274696E6720616464726573733A0A0D00456E746572202564206279746573201F
:205FF9006F6620646174612028696E20686578293A0A0D00427974652025643A2000456EB1
:2060190074657220746865206E756D626572206F6620627974657320746F20726561643ADD
:206039000A0D00456E74657220746865204D41432072656769737465722062616E6B20740B
:206059006F2073656C6563743A0A0D00456E746572207468652061646472657373206F666D
:2060790020746865204D41432052656769737465723A0A0D004D414320526567697374653B
:206099007220446174613A203078253032580A0D00456E74657220746865205048592072E1
:2060B9006567697374657220616464726573733A0A0D00456E746572207468652031362D6A
:2060D900626974206461746120746F2077726974653A0A0D0050485920577269746520448F
:2060F9006174613A203078253034580A0D00456E7465722074686520504859207265676920
:2061190073746572206164647265737320746F20726561643A0A0D00504859205265616405
:2061390020446174613A203078253034580A0D00526573657474696E6720454E4332384A53
:2061590036302E2E2E0A0D00456E74657220746865204554482072656769737465722061B9
:2061790064647265737320746F20726561643A0A0D00456E746572207468652062616E6B56
:20619900202830206F722031293A0A0D0045544820526567697374657220446174613A2068
:2061B9003078253032580A0D004D4143206D6174636865640A2E2E2E2E2E2E2E2E2E2E2E5D
:2061D9002E2E2E2E2E0D0056616C6964204554484552207061636B65742E2E2E2E2E2E2E51
:2061F9002E2E2E2E2E2E2E2E2E2E2E2E2E2E0A0D000A50726F63657373656420726573705F
:206219006F6E736520646174613A0A000A4E6F20726573706F6E73652067656E6572617456
:20623900656420627920544350207061636B65742070726F63657373696E672E0A005945AF
:20625900535353530A004E4F4F4F4F0A006E6578745061636B65743A203078253034580A37
:206279000062797465436F756E743A2025640A007374617475733A203078253032580A00CC
:2062990020526573657474696E6720454E43207573696E672052455345542070696E206941
:2062B9006E2048617264776172652850315F30290A0D00456E61626C696E67205458504B0A
:2062D9005449450A0D0044697361626C696E67205458504B5449450A0D00496E76616C695C
:2062F90064206F7074696F6E2E20506C656173652073656C65637420612076616C6964204F
:0A631900616374696F6E2E0A0D00B7
:1467AA00021122334455F875A48C4131C0A80164C0A8010194
:2038690075825F1239EF7582021239EF7582541239EF7582141239EF7582561239EF758234
:20388900001239EF7582571239EF75820A0239EF22C29175825F1239EF7582021239EFD228
:2038A90091C2917582541239EF7582141239EFD291C2917582561239EF7582A81239EFD269
:1338C90091C2917582571239EF75823A1239EFD29122226E
:2038DC0075C5FFE5C430E7FB900381E5C5F0E0F58222C29175825E1239EF7582801239EF1E
:2038FC00D29122E582900382F0C29175821F1239EF1238DCAF82D2915307FC900382E0FE15
:20391C0024FC4030EE2E903926738006800B80128019900383EFF0803190038374014FF0D1
:20393C00802890038374024FF0801F90038374034FF080167423C0E07463C0E07480C0E0B5
:20395C00125198158115811581227F00BF100050030F80F8C29175825F1239EF900383E06B
:20397C00F5821239EFD29122E582900386F0900384E02440F0900386E0F5821238FFC2912E
:20399C00900384E0FFF582C0071239EFD007900385E0FEF582C007C0061239EFD006D007E5
:2039BC00D2917D007C00C006C005C007C004742EC0E07463C0E07480C0E0125198E58124A7
:2039DC00F9F58122D29175C30043C32043C31043C34022E582900387F0E0F5C5E5C430E730
:2039FC00FB22C2917582FF1239EFD29122E582900389F0E0FF24E050197453C0E07463C0C9
:203A1C00E07480C0E012519815811581158175820022900388E0F582C0071238FFD007C225
:203A3C00918F82C0071239EF1238DCAE82D007D2918E047D007B00C006C004C005C007C0D7
:203A5C0003748DC0E07463C0E07480C0E0125198E58124F9F581D0068E8222E58290038C19
:203A7C00F0E0FF9003847414F0900385EFF0758202C007123984D00790038AE0FDA3E0FEF4
:203A9C008D049003847416F0900385ECF0758202C007C006C005123984D005D006D0078ECA
:203ABC00049003847417F0900385ECF0758202C007C006C005123984D005D006D0077C0048
:203ADC00C005C006C007C00474B1C0E07463C0E07480C0E0125198E58124F9F58122E58267
:203AFC0090038EF0E0FF24E050197453C0E07463C0E07480C0E012519815811581158175A9
:203B1C0082002290038DE0F582C0071238FFD007C2918F821239EF1238DCAF82D2918F821E
:203B3C0022E58290038FF0E0FF9003847414F0900385EFF0758202C007123984D007900370
:203B5C00847412F09003857401F0758202C007123984123BEAD0079003847412F090038590
:203B7C00E4F0758202C007123984D00790038D7402F0758218C007123AFAAE82D0077D00C9
:203B9C0090038D7402F0758219C007C006C005123AFAAC82D005D006D0078C03E44206EB85
:203BBC0042057C00C006C005C006C005C007C00474DAC0E07463C0E07480C0E0125198E5AC
:203BDC008124F9F581D005D0068E828D832290038D7403F075820A123AFAE582900390F080
:203BFC00900390E030E01490038D7403F075820A123AFAE582900390F080E522AF83E5821A
:203C1C00900393F0EFA3F0900393E0FEA3E0FF8E048F05C374FF9C741F9D4017900391E0E7
:203C3C00FAA3E0FBEA2EF8EB3FF9C374FF98741F99502A900391E0C0E0A3E0C0E09003935C
:203C5C00E0C0E0A3E0C0E07402C0E07464C0E07480C0E0125198E58124F9F581225304FE18
:203C7C00EA2EFEEB3FFF1EBEFF011F5306FE8D039003847408F0900385EBF0758200C007D3
:203C9C00C006C005C004123984D004D005D006D0078C039003847409F0900385EBF0758297
:203CBC0000C007C006C005C004123984D004D005D006D0078F03900384740AF0900385EB93
:203CDC00F0758200C007C006C005C004123984D004D005D006D0078E03900384740BF090FF
:203CFC000385EBF0758200C007C006C005C004123984D004D005D006D007C006C007C004C2
:203D1C00C0057440C0E07464C0E07480C0E0125198E58124F9F58122AF83E58290039AF096
:203D3C00EFA3F090039AE0FEA3E0FFC3EE9401EF64809480501AC006C0077471C0E07464D7
:203D5C00C0E07480C0E0125198E58124FBF58122900395E0FCA3E0FD8C028D03C374FF9A89
:203D7C00741F9B501AC004C0057491C0E07464C0E07480C0E0125198E58124FBF581228EAF
:203D9C00008F01E82AFAE93BFBC374FF9A740B9B5021C006C007C004C00574ABC0E0746444
:203DBC00C0E07480C0E0125198E58124F9F58190000022C374019E74808FF063F08095F06C
:203DDC00500BC005C0041238EED004D0058D078C069003847401F0900385EFF0758200C0B2
:203DFC0006C005C004123984D004D005D006900384E4F0900385EEF0758200C005C0041257
:203E1C003984C29175823A1239EFD004D00590039AE0FEA3E0FFC007C006C004C005C006F9
:203E3C00C00774D7C0E07464C0E07480C0E0125198E58124F9F581D006D00790039CE4F004
:203E5C00A3F0900397E0FBA3E0FCA3E0FD90039CE0F9A3E0FAC3E99EEA64808FF063F080C0
:203E7C0095F04003023F06C006C007C007C006C005C004C003C002C0011238DCA882D0010D
:203E9C00D002D003D004D005D006D0078B828C838DF0E8124D82A3AB82AC837F0009B90069
:203EBC00010AC007C006C005C004C003C002C001C000C007C001C0027412C0E07465C0E0D6
:203EDC007480C0E0125198E58124F9F581D001D002D003D004D005D006D00790039CE9F06A
:203EFC00EAA3F0D007D006023E69D2918E828F8322AF83E5829003A3F0EFA3F09003A3E0D5
:203F1C00FEA3E0FFC3EE9401EF64809480501AC006C0077471C0E07464C0E07480C0E0123E
:203F3C005198E58124FBF5812290039EE0FCA3E0FD8C028D03C374FF9A741F9B501AC00488
:203F5C00C0057491C0E07464C0E07480C0E0125198E58124FBF58122C374019E74808FF06E
:203F7C0063F08095F0500BC005C0041238EED004D0058D078C069003847403F0900385EF5D
:203F9C00F0758200C006C005C004123984D004D005D0069003847402F0900385EEF0758217
:203FBC0000C005C004123984C29175827A1239EFD004D0059003A3E0FEA3E0FFC007C006C3
:203FDC00C004C005C006C0077424C0E07465C0E07480C0E0125198E58124F9F581D006D0D0
:203FFC00079003A5E4F0A3F09003A0E0FBA3E0FCA3E0FD9003A5E0F9A3E0FAC3E99EEA64CC
:20401C00808FF063F08095F040030240B6C006C0078B828C838DF0125BBAF87F0009B9006C
:20403C00010AC007C006C005C004C003C002C001C000C007C001C0027412C0E07465C0E054
:20405C007480C0E0125198E58124F9F581D001D002D003D004D005D006D0078B828C838D47
:20407C00F0125BBAFFA3AB82AC838F82C007C006C005C004C003C002C0011239EFD001D0C7
:1D409C0002D003D004D005D006D0079003A5E9F0EAA3F0D007D00602400FD29122CB
:2063230077726F6E672062616E6B0057726974653A2041646472657373203078253032589F
:206343002C2044617461203078253032580A0D000A0D496E76616C69642061646472657345
:20636300733A204D414320726567697374657220616464726573732072616E6765205B3019
:206383002C20307831465D0A0D00526561643A2041646472657373203078253032582C208C
:2063A30044617461203078253032580A0D005048592057726974653A204164647265737366
:2063C300203078253032582C2044617461203078253034580A0D0050485920526561643AC6
:2063E3002041646472657373203078253032582C2044617461203078253034580A0D000A7D
:206403000D496E76616C6964204275666665722041646472657373206F722053697A653A4F
:20642300205374617274203078253034582C2053697A65203078253034580A0D000A0D4282
:20644300756666657220496E697469616C697A65643A205374617274203078253034582C4E
:2064630020456E64203078253034580A0D000A0D496E76616C6964206E756D626572206F0C
:20648300662062797465733A2025640A0D000A0D496E76616C696420616464726573733A34
:2064A30020253034580A0D000A496E76616C696420525820416464726573733A20537461BE
:2064C3007274203078253034582C2053697A652025640A0052656164696E672025642062AB
:2064E300797465732066726F6D20627566666572207374617274696E67206174206164649C
:2065030072657373203078253034583A0A0D00427974652025643A203078253032580A0D8C
:206523000057726974696E6720256420627974657320746F2062756666657220737461720D
:1A65430074696E672061742061646472657373203078253034583A0A0D0097
:2040B900AFF0AE83E5829003A9F0EEA3F0EFA3F09003ACE4F0A3F0A3F0A3F09003B0F0A3DF
:2040D900F09003A9E0FDA3E0FEA3E0FF9003A7E0F539A3E0F53A9003B0E0F9A3E0FAC3E97C
:2040F9009539EA953A40030241EFE92DF8EA3EFB8F0488828B838CF0125BBAFC7B00C005F0
:20411900C006C007740129F8E43AFFC3E89539EF953AD007D006D005501B09B900010AE96C
:204139002DF9EA3EF88F02898288838AF0125BBAF97A00800479007A00C005C006C007E9B3
:204159002BFBEA3CFC9003ACE0F8A3E0F9A3E0FAA3E0FF7E007D009003ACEB28F0EC39A367
:20417900F0EE3AA3F0ED3FA3F09003ACE0F53BA3E0F53CA3E0F53DA3E0F53EC374FF953B48
:2041990074FF953CE4953DE4953ED007D006D005502A853B3F853C40754100754200A83D07
:2041B900AA3E7B007C009003ACE8253FF0EA3540A3F0EB3541A3F0EC3542A3F09003B0E08D
:2041D900FBA3E0FC74022BFBE43CFC9003B0EBF0ECA3F00240EF9003ACE0FCA3E0FDA3E0A8
:2041F900FEA3E0FF8C008D017A007B008E048F057E007F009003ACEC28F0ED39A3F0EE3AD0
:20421900A3F0EF3BA3F09003ACE0FCA3E0FDA3E0FEA3E0FFECF4FCEDF4FDEEF4EFF48C820A
:204239008D8322AFF0AE83E5829003B7F0EEA3F0EFA3F09009BDE4F09009BE74DDF0740584
:20425900A3F09003BA75F000124D5A9003BA740EF09003B7E0FDA3E0FEA3E0FF8D028E033E
:204279008F049009B5EAF0EBA3F0ECA3F09009B8740EF0E4A3F09003BBF5F0C007C006C0B3
:2042990005124CE6D005D006D00774062DFAE43EFB8F049009B5EAF0EBA3F0ECA3F090092B
:2042B900B87406F0E4A3F09003BBF5F0C007C006C005124CE6D005D006D0078D028E038F52
:2042D900049009B5EAF0EBA3F0ECA3F09009B87406F0E4A3F09003C1F5F0C007C006C005DF
:2042F900124CE6D005D006D007740E2DFAE43EFB8F049009B5EAF0EBA3F0ECA3F09009B810
:204319007414F0E4A3F09003C9F5F0C007C006C005124CE6D005D006D007741E2DFAE43E61
:20433900FB8F048A828B838CF0125BBAFA9003D575F000EA124D82741F2DFAE43EFB8F041D
:204359008A828B838CF0125BBAFA9003D675F000EA124D8274202DFAE43EFB8F048A828BF2
:20437900838CF0125BBAFA9003D775F000EA124D8274212DFAE43EFB8F048A828B838CF068
:20439900125BBAFA9003D875F000EA124D82741A2DFAE43EFB8F048A828B838CF0125BBA26
:2043B900FA9003D975F000EA124D82741B2DFAE43EFB8F048A828B838CF0125BBAFA90039E
:2043D900DA75F000EA124D82741C2DFAE43EFB8F048A828B838CF0125BBAFA9003DB75F0C9
:2043F90000EA124D82741D2DFAE43EFB8F048A828B838CF0125BBAFA9003DC75F000EA12EA
:204419004D829003D3E4124D829003D4F5F0124D8274222DF514E43EF5158F16A814A91545
:20443900AC169009B5E8F0E9A3F0ECA3F09009B87414F0E4A3F09003DDF5F0C007C006C09E
:2044590005124CE6D005D006D00774242DFAE43EFB8F048A828B838CF0125BBAFA9003DDE2
:2044790075F000EA124D8274252DFAE43EFB8F048A828B838CF0125BBAFA9003DE75F000F6
:20449900EA124D828514828515838516F0125BBAFC9003DF75F000EC124D8274232DFAE40C
:2044B9003EFB8F048A828B838CF0125BBAFA9003E075F000EA124D829003E1E4124D8290F4
:2044D90003E2F5F0124D829003E3F5F0124D829003E4F5F0124D8274262DFAE43EFB8F042E
:2044F9008A828B838CF0125BBAFA74272DF9E43EFB8F0489828B838CF0125BBAF974282DFD
:20451900F8E43EFB8F0488828B838CF0125BBAF874292DFDE43EFE8D828E838FF0125BBA7A
:20453900FD9003E575F000EA124D829003E6E9124D829003E7E8124D820D9003E8ED124D63
:20455900829003E97450124D829003EA7412124D829003EFE4124D829003F0F5F0124D822B
:204579009003CBF5F0124D829003CCF5F07428124D829003A703F0E4A3F09003C9F5F01246
:2045990040B9AE82AF838F059003D375F000ED124D829003D4EE124D829003A77428F0E49A
:2045B900A3F09003C9F5F01240B9AE82AF838F059003ED75F000ED124D829003EEEE124D8C
:2045D900829003F17402124D829003F223124D829003F304124D829003F4E4124D82900392
:2045F900B4E0FDA3E0FEA3E0FF8D828E838FF0743B124D82A3E4124D829003BAF5F022AF74
:20461900F0AE83E582900999F0EEA3F0EFA3F0900997E0FEA3E0FFC007C006C006C00774B6
:204639005DC0E07465C0E07480C0E0125198E58124FBF581D006D007900999E0FBA3E0FC28
:20465900A3E0FD79007A00C3E99EEA9F4003024708C006C007E92BF8EA3CFE8D0788828E7E
:20467900838FF0125BBAF87F00C007C006C005C004C003C002C001C000C0077473C0E074A3
:2046990065C0E07480C0E0125198E58124FBF581D001D002D003D004D005D006D007890617
:2046B9008A070EBE00010FEE540F6006D007D0068035D007D006C007C006C005C004C003D5
:2046D900C002C0017479C0E07465C0E07480C0E0125198158115811581D001D002D003D0A1
:2046F90004D005D006D00709B900010A024660EE540F60157479C0E07465C0E07480C0E046
:2047190012519815811581158122AF83E58290099CF0EFA3F090099CE0FEA3E0FF8E048FAB
:2047390005C374FF9C741F9D501AC006C007747BC0E07465C0E07480C0E0125198E5812441
:20475900FBF58122900395EEF0EFA3F0900397749EF07409A3F0E4A3F0900002C007C00653
:20477900C005C004123D34AA82AB83D004D005D006D007BA0205BB00028016749BC0E0742D
:2047990065C0E07480C0E01251981581158115812290099FE0FA7B0090099EE07900420326
:2047B900E94202C3EB9EEA9F501AC003C00274C9C0E07465C0E07480C0E0125198E5812480
:2047D900FBF5812274062CFEE43DFFEBC39EFEEA9FFF8E008F0188828983C007C006C00511
:2047F900C004C003C002124EE2A882A983D002D003D004D005D006D00788178918751900F6
:20481900E5174518701AC006C00774F0C0E07465C0E07480C0E0125198E58124FBF58122E6
:204839008E008F0174062CFCE43DFD900395ECF0EDA3F0900397E517F0E518A3F0E519A3B6
:20485900F088828983C007C006C003C002123D34AC82AD83D002D003D006D007ECB5060647
:20487900EDB5070280247421C0E07466C0E07480C0E0125198158115811581AC17A9187DCF
:20489900008C8289838DF0024B8F9003B2EEF0EFA3F09003B474A0F07409A3F0E4A3F08590
:2048B90017828518838519F0C007C006C003C00212423CA982AC83ADF0D002D003D006D0B4
:2048D90007E94C7003024997C003C002C007C006C005C004C003C002C0017440C0E074661F
:2048F900C0E07480C0E0125198158115811581D001D002D003D004D005D006D0079009A0A9
:20491900E0F8A3E0FB900997E8F0EBA3F089828C838DF0C007C006C005C004C003C002C0B0
:2049390001124618D001D002D003D004D005D006D0079009A0E0FAA3E0FB9009A2EAF0EB90
:20495900A3F089828C838DF0C007C006C005C004C003C002C001124A08D001D002D003D00E
:2049790004D00589828C838DF0C003C002124B8FD002D003D006D007D002D0038025C007DA
:20499900C006C003C002745BC0E07466C0E07480C0E0125198158115811581D002D003D004
:2049B90006D007AC17A9187D008C8289838DF0C007C006C003C002124B8FD002D003D006F0
:2049D900D0071BBBFF011AC003C00290099CE0C0E0A3E0C0E0C006C007748DC0E07466C0D2
:2049F900E07480C0E0125198E58124F7F58122AFF0AE83E5829009A4F0EEA3F0EFA3F0901F
:204A190009A2E0FEA3E0FF8E04740C2FFD1CBCFF011DC374FF9C741F9D501674D0C0E0747F
:204A390066C0E07480C0E0125198158115811581228E04740C2FFD1CBCFF011D9009A4E094
:204A5900F9A3E0FAA3E0FB90039EE4F0740CA3F09003A0E9F0EAA3F0EBA3F08E828F83C048
:204A790005C004123F0DD004D005900106ECF0EDA3F0900C001221151220F49001F4122198
:204A99008CE58260381221EFE5828583F045F06016740BC0E07467C0E07480C0E01251981D
:204AB90015811581158122742CC0E07467C0E07480C0E012519815811581158122745AC03D
:134AD900E07467C0E07480C0E012519815811581158122FC
:20655D000A48657864756D70202853697A653A202564293A0A002530325820000A000A0DE6
:20657D00496E76616C696420737461727420616464726573733A20253034580A0D000A0D7A
:20659D004661696C656420746F2072656164207061636B6574207374617274206164647239
:2065BD006573732062797465730A0D000A0D496E76616C6964206E6578742073746172740A
:2065DD0020616464726573733A203078253034580A0D000A0D4D656D6F727920616C6C6F46
:2065FD00636174696F6E206661696C656420666F72207061636B65742073697A653A202522
:20661D00640A0D000A0D4661696C656420746F2072656164207061636B6574206461746175
:20663D000A0D000A50726F63657373656420726573706F6E736520646174613A0A000A4E8F
:20665D006F20726573706F6E73652067656E65726174656420627920544350207061636B8F
:20667D0065742070726F63657373696E672E0A000A0D5375636365737366756C6C792070E3
:20669D00726F636573736564207061636B6574206F662073697A652025642066726F6D2080
:2066BD0030782530345820746F203078253034580A0D000A496E76616C69642042756666FD
:2066DD0065722053697A652E2042756666657220657863656564732076616C69642061644D
:2066FD0064726573732072616E67652E0A0054435020726571756573742073656E7420737A
:20671D0075636365737366756C6C792E0A0D00544350207472616E736D697373696F6E2014
:20673D006661696C65642E20436865636B206572726F7220666C6167732E0A0D00547261C8
:20675D006E736D697373696F6E2074696D656F75742E20454E4332384A3630206D6179204D
:20677D006E6F742062652066756E6374696F6E696E6720636F72726563746C792E0A0D00C4
:204AEC00AF83E5829009A7F0EFA3F03099FD9009A7E0FEA3E0FF8E99C2998E828F83221023
:204B0C00980280FBAE997F008E828F8322AFF0AE83E5829009A9F0EEA3F0EFA3F09009A9BC
:204B2C00E0FDA3E0FEA3E0FF7B007C008D828E838FF0125BBAFA60360DBD00010E9009A921
:204B4C00EDF0EEA3F0EFA3F08A017A0089828A83C007C006C005C004C003124AECD003D088
:204B6C0004D005D006D0070BBB00C10C80BE9009A9EDF0EEA3F0EFA3F00BBB00010C8B82D0
:034B8C008C8322F5
:204B8F00AFF0AE83E5829009ACF0EEA3F0EFA3F09009ACE0FDA3E0FEA3E09009ACE0F5F067
:204BAF00A3E045F07001229009B1E4F0A3F09009C1E0FBA3E0FC9009AFEBF0ECA3F09009FB
:204BCF00B374C1F07409A3F09009AFE0FBA3E0FC4B60418B018C02C003C0048D008E04C3CD
:204BEF00E998EA9CD004D003502A9009B1EBF0ECA3F074022BFBE43CFC9009B3EBF0ECA36C
:204C0F00F08B828C83E0FBA3E0FC9009AFEBF0ECA3F080B49009AFE0FEA3E0FF9009ACE07C
:204C2F00FBA3E0FCA3E0EB24FEFBEC34FFFC74022BFAE43CFD8A828D83EEF0EFA3F0900978
:204C4F00B3E0F8A3E0F988828983EBF0ECA3F08B828C83E0F8A3E0F9EEB50033EFB5012FB4
:204C6F0088828983A3A3E0FEA3E0FF8A828D83EEF0EFA3F08B828C83E0FEA3E0FF8E828FD2
:204C8F0083E0FEA3E0FF8B828C83EEF0EFA3F09009B1E0FEA3E0FF4E603C8E828F83E0F818
:204CAF00A3E0F9E8B5032FE9B5042B8B828C83E0FBA3E0FC8E828F83EBF0ECA3F074022E37
:174CCF00FEE43FFF8A828D83E0FAA3E0FD8E828F83EAF0EDA3F0229A
:06203800E478FFF6D8FD7C
:204CE600AFF0AE83E5829009BAF0EEA3F0EFA3F09009BAE0F539A3E0F53AA3E0F53BAA3988
:204D0600AB3AAC3B9009B5E0F8A3E0F9A3E0FF9009B8E0F53CA3E0F53DAD3CAE3D153C74ED
:204D2600FFB53C02153DED4E6020888289838FF0125BBAFEA3A882A9838A828B838CF0EE37
:144D4600124D82A3AA82AB8380CF853982853A83853BF022D8
:204D5A00AC82AD839009BEE0FEA3E0FFBE000360121F0F9009BDE08C828D83124D82A3DE0D
:084D7A00FADFF88C828D832220
:202016007914E94400601B7A019067AA780A75A00EE493F2A308B8000205A0D9F4DAF27533
:02203600A0FF09
:1B4D820020F71130F6138883A88220F509F6A8837583002280FEF280F5F02230
:204D9D00C01C85811CE51C24FDF8868318868218E493A324DB600C24256005124E8B80F00F
:204DBD00024EA3D2D5E493A3C083C082B4731486F018868318868218125BBA6054A3124EB5
:204DDD008B80F5B4630818E618124E8B8043B46417E630E74618E6F42401F608E6F434003E
:204DFD00F6742D124E8B8033B4782D868318868218E4124E7CE583124E7BE583124E7CE59B
:204E1D0082124E7BE582124E7C30D5057430124E8BD082D083024DADB475F6E6FA18E6F9A5
:204E3D00187C107D27124E66FF7CE87D03124E66C4F5837C647D00124E664283E975F00A22
:204E5D0084C445F0F582EF80A97B000BC3E99CF9EA9DFA50F61BE92CF9EA3DFAEB22C4542C
:204E7D000F700320D51FC2D52490D43440D4C083C082C0F0F582E8C0E0124AECD0E0F8D024
:094E9D00F0D082D08322D01C2247
:204EA6009009C1740AF0740AA3F09067A8E493FE740193FF1EBEFF011FEE240AFEEF340AB6
:204EC600FF900A0AEEF0EFA3F09009C1E0FEA3E0FF8E828F83A3A3E4F0A3F022AF83E58285
:204EE6009009C3F0EFA3F09009C1E0F5F0A3E045F07003124EA69009C3E0FEA3E0FF4E6024
:204F06000E74022EFCE43FFDC3EC9EED9F5004900000229009C374022EF0E43FA3F090099F
:204F2600C3E0FEA3E0FFC3EE9404EF940050099009C37404F0E4A3F09009C1E0FEA3E0FF2E
:204F46009009C5EEF0EFA3F09009C774C1F07409A3F09009C5E0FEA3E0FF4E7003025047E0
:204F66008E828F83E0FCA3E0FD8C028D038E008F01EAC398FAEB99FB8A008B019009C3E061
:204F8600F51AA3E0F51BC3E8951AE9951B50030250247404251AF8E4351BF9C3EA98EB9908
:204FA600404C8E028F03E51A2AFAE51B3BFB8A828B83ECF0EDA3F074022AFCE43BFD8E82A6
:204FC6008F83A3A3E0F8A3E0F98C828D83E8F0E9A3F09009C7E0FCA3E0FD8C828D83EAF0F9
:204FE600EBA3F08E828F83EAF0EBA3F0801C9009C7E0FCA3E0FD8E828F83A3A3E0FAA3E096
:20500600FB8C828D83EAF0EBA3F09009C5E0FCA3E0FD74022CFCE43DFD8C828D83227402ED
:205026002EFEE43FFF9009C7EEF0EFA3F08E828F83E0FEA3E0FF9009C5EEF0EFA3F0024FCB
:0550460058900000225B
:20504B00AA83AB828BF09009C9E0A4F8A9F08AF0E0A429F98BF0A3E0A429F5838882222248
:20506B00AFF0AE83E5829009D0F0EEA3F0EFA3F09009CEE0FEA3E0FF9009CEE0F5F0A3E01C
:20508B0045F07004900000221EBEFF011FEE4F6075C006C0079009D0E0FBA3E0FCA3E0FDCD
:2050AB008B008C018D02888289838AF0125BBAF89009CBE0F539A3E0F53AA3E0F53BA939D6
:2050CB00AA3AAF3B89828A838FF0125BBAF9E8B501028006D007D006802CD007D0060BBB4E
:2050EB0000010C9009D0EBF0ECA3F0EDA3F0AB39AC3AAD3B0BBB00010C9009CBEBF0ECA302
:20510B00F0EDA3F080829009D0E0FDA3E0FEA3E0FF8D828E838FF0125BBAFD7F009009CB23
:1F512B00E0FBA3E0FCA3E0FE8B828C838EF0125BBAFB7E00EDC39BFDEF9E8D82F58322D2
:20203E007800E84400600A790075A001E4F309D8FC780AE8440D600C790E900100E4F0A37B
:04205E00D8FCD9FAD7
:20514A00C01C85811C7E008E83124AECD01C22AFF0AE83E5829009D4F0EEA3F0EFA3F0903B
:20516A0009D4E0FDA3E0FEA3E0FF9009D3E0FC9009E8E4F0A3F0A3F09009EBEDF0EEA3F0C3
:20518A00EFA3F09009EEECF090514A02529EC01CE581F51C24FBFF9009E8E4F0A3F0A3F017
:2051AA00E51C24FBF89009EBE6F008E6A3F008E6A3F09009EEEFF090514A12529ED01C22D0
:2051CA00E5829009E4F0E0FF9009DAE0C0E0A3E0C0E0A3E0C0E01251E5800D9009D8E0C0F3
:2051EA00E0A3E0C0E08F82221581158115819009E2E02401F0A3E03400F022E5829009E58F
:20520A00F0E02430FF24C6500D74072FFF9009D7E060034307208F820251CAE5829009E640
:20522A00F0E0FFC4540FF582C007125205D00753070F8F82025205E5829009E7F09009DDD0
:20524A00E0FCA3E0FDA3E0FEA3E0FF9009E1E0FB9009E7E0FA79208B00E828F539EF23546E
:20526A00014539FBEC2CFCED33FDEE33FEEF33FFC3EB9A4007EBC39AFB43040119E970D7D6
:20528A009009DDECF0EDA3F0EEA3F0EFA3F09009E1EBF022AF83E5829009EFF0EFA3F09095
:2052AA0009EFE0FEA3E0FF9009D8EEF0EFA3F09009E8E0FDA3E0FEA3E0FF9009DAEDF0EE1C
:2052CA00A3F0EFA3F09009E2E4F0A3F09009EBE0FDA3E0FEA3E0FF8D828E838FF0125BBAA3
:2052EA00FC9009EB74012DF0E43EA3F0EFA3F0EC7003025B96BC25028003025B8E9009F12E
:20530A00E4F09009F2F09009F3F09009F4F09009F5F09009F6F09009F7F09009F8F09009A4
:20532A00FAF09009FBF0A3F09009FD14F0A3F09009EBE0FDA3E0FEA3E0FF8D828E838FF032
:20534A00125BBAFBA3AD82AE839009EBEDF0EEA3F0EFA3F0900A01EBF0BB25088B821251EC
:20536A00CA0252D6BB30005003025437EB24C650030254379009FDE0F52FA3E0F53074FFFA
:20538A00B52F63B53060C005C006C0079009FBE0FAA3E0FF9009C9EAF0EFA3F090000AC01D
:2053AA0005C00312504BAE82AF83D003D0058B057A00ED2EFEEA3FFFEE24D0FEEF34FFFF18
:2053CA009009FBEEF0EFA3F0D007D006D0059009FBE0F5F0A3E045F060030253449009F2B5
:2053EA007401F0025344C005C006C0079009C9E52FF0E530A3F090000AC006C005C003124B
:20540A00504BAA82AF83D003D005D0067E00EB2AFAEE3FFFEA24D0FAEF34FFFF9009FDEAD9
:20542A00F0EFA3F0D007D006D005025344900A01E0FBBB2E2FC005C006C0079009FDE0FA85
:20544A00A3E0FFBAFF05BFFF028009D007D006D005025344D007D006D0059009FDE4F0A30F
:20546A00F0025344BB61004014EB2485400F900A0174DF5BF09009D77401F080059009D743
:20548A00E4F0900A01E0FBBB20028075BB2B028067BB2D028059BB4202806FBB4302807C6A
:2054AA00BB440302572EBB4603025754BB4803025344BB490302572EBB4A03025344BB4CD3
:2054CA00028050BB4F0302573CBB500302569CBB53028077BB5403025344BB5503025744EA
:2054EA00BB580302574CBB5A0302534402575C9009F17401F00253449009F37401F00253B3
:20550A00449009F47401F00253449009F67401F00253449009F77401F00253449009F6E028
:20552A00600E9009EEE014F9F0900A01E7F0800F9009EEE024FEFFF08F01900A01E7F09084
:20554A000A01E0F5821251CA02576B9009EEE024FDFFF08F0187050987060987071919906C
:20556A0009DDEDF0EEA3F0EFA3F08D828E838FF0125BA285822F8583309009FDE0FAA3E04C
:20558A00FDBAFF0DBDFF0A9009FDE52FF0E530A3F09009F1E0704B9009FBE0FAA3E0FDC360
:2055AA00E52F9AE5309D503A9009FBEAC3952FF0ED9530A3F09009FBE0FAA3E0FD8A068DB2
:2055CA00071ABAFF011DEE4F6010758220C005C0021251CAD002D00580E39009FBEAF0EDEC
:2055EA00A3F09009FDE0F532A3E0F5339009DDE0FAA3E0FDA3E0FF8A828D838FF0125BBAB2
:20560A00F531603CC3E4953274808533F063F08095F0502C153274FFB532021533853182BD
:20562A001251CA9009DDE0FAA3E0FDA3E0FF0ABA00010D9009DDEAF0EDA3F0EFA3F080AC91
:20564A009009F1E0700302576B9009FBE0FEA3E0FFC3E52F9EE5309F400302576B9009FBE7
:20566A00EEC3952FF0EF9530A3F09009FBE0FEA3E0FF8E028F051EBEFF011FEA4D700302B5
:20568A005763758220C007C0061251CAD006D00780E09009EEE024FDFDF08D01873409871A
:2056AA003509873619199009DDE534F0E535A3F0E536A3F09009DFE0FDBD80004008900A65
:2056CA00017443F08020BD60004008900A017450F08013BD40004008900A017449F080061E
:2056EA00900A017458F0900A01E0FDF582C0051251CA75823A1251CA7582301251CA7582BF
:20570A00781251CAD005BD4902800EBD500280099009DEE0F5821252259009DDE0F58212A1
:20572A005225803D9009F57401F09009FA740AF0802F9009FA7408F080279009FA740AF0E1
:20574A00801F9009FA7410F080179009F87401F0800F8B821251CA80089009FBEEF0EFA3B7
:20576A00F09009F8E060719009EEE024FCFFF08F01870309870509870609870719191990C0
:20578A0009DDEBF0EDA3F0EEA3F0EFA3F09009DD749DF07467A3F07480A3F09009DDE0F504
:2057AA0034A3E0F535A3E0F53674012534FAE43535FBAF369009DDEAF0EBA3F0EFA3F08585
:2057CA0034828535838536F0125BBAFF70030252D68F821251CA80C39009FAE070030252A3
:2057EA00D69009F6E060479009EEE014F9F087077E007D007B009009DDEFF0EEA3F0EDA3E5
:20580A00F0EBA3F09009F5E060030258AE9009DDE0FBA3E0A3E0A3E07D007E007F0090094A
:20582A00DDEBF0EDA3F0EEA3F0EFA3F080769009F7E060289009EEE024FCFFF08F018703A5
:20584A000987050987060987071919199009DDEBF0EDA3F0EEA3F0EFA3F080489009EEE02E
:20586A0024FEFFF08F01870609870719EF3395E0FDFB9009DDEEF0EFA3F0EDA3F0EBA3F0DD
:20588A009009F5E0701E9009DDE0FBA3E0FDA3E0A3E07E007F009009DDEBF0EDA3F0EEA3CC
:2058AA00F0EFA3F09009F5E0603D9009DDE0A3E0A3E0A3E030E72B9009DDE0FBA3E0FDA3CC
:2058CA00E0FEA3E0FFC3E49BFBE49DFDE49EFEE49FFF9009DDEBF0EDA3F0EEA3F0EFA3F0CD
:2058EA0080059009F5E4F09009F97401F09009FAE0F53275370775380AE4F52FF5309009F6
:20590A00E1E4F08532821252419009F9E070339009E1E0C454F0F5349009E1E0C4540F4584
:20592A0034F534853782853883E0FFE5344207853782853883EFF0153774FFB537021538EA
:20594A00800B9009E1E0853782853883F0052FE4B52F0205309009F9E0B40100E433F090F9
:20596A0009DDE0FAA3E0FBA3E0FEA3E0FFEA4B4E4F708B900A08E537F0E538A3F09009FF19
:20598A00E52FF0E530A3F09009FBE0F5F0A3E045F070099009FB7401F0E4A3F09009F2E0EC
:2059AA00FFE070479009F1E07041852F378530389009FBE0FAA3E0FBC007AF370F8F067F98
:2059CA0000C3EE9AEF9BD0075019758220C007C003C0021251CAD002D003D0071ABAFF01C8
:2059EA001B80D59009FBEAF0EBA3F09009F5E0602075822DC0071251CAD0079009FBE024CC
:205A0A00FFFDA3E034FFFE9009FBEDF0EEA3F080569009FFE0F5F0A3E045F0604A9009F3B9
:205A2A00E0602075822BC0071251CAD0079009FBE024FFFDA3E034FFFE9009FBEDF0EEA3C5
:205A4A00F080249009F4E0601E758220C0071251CAD0079009FBE024FFFDA3E034FFFE9003
:205A6A0009FBEDF0EEA3F09009F1E070449009FFE0F537A3E0F5389009FBE0FAA3E0FBC09C
:205A8A00078A068B071ABAFF011BC3E5379EE5389FD007504FEF60047E3080027E208E8204
:205AAA00C007C003C0021251CAD002D003D00780CE9009FBE0FEA3E0FF9009FFE0F537A35E
:205ACA00E0F538C3E5379EE5389F500F9009FBEEC39537F0EF9538A3F080119009FBE4F0CE
:205AEA00A3F080089009FBEAF0EBA3F0900A08E0FEA3E0FF9009FFE0F537A3E0F538AA375E
:205B0A00AD38153774FFB537021538EA4D60449009F9E0B40100E433F09009F9E070130E90
:205B2A00BE00010F8E828F83E0C4540F9009E1F0800E8E828F83E0FD53050F9009E1EDF0AF
:205B4A009009E1E0F582C007C006125205D006D00780AB9009F1E070030252D69009FBE021
:205B6A00FEA3E0FF8E038F051EBEFF011FEB4D70030252D6758220C007C0061251CAD006FF
:185B8A00D00780E08C821251CA0252D69009E2E0FEA3E08E82F58322E1
:0B679D003C4E4F20464C4F41543E0044
:185BA200AA82AB83125BBA6003A380F8C3E5829AF582E5839BF5832214
:0267A8000004EB
:0D200900758142125BD6E58260030220065D
:1C5BBA0020F71430F6148883A88220F507E6A88375830022E280F7E49322E022FA
:045BD60075820022B2
:00000001FF
