:10206500AF83E582900100F0EFA3F0900102E4F068
:10207500A3F0A3F0A3F0900100E0FEA3E0FF90031E
:102085008FEEF0EFA3F09003E8C007C006123CDE28
:10209500AC82AD83D006D007900102E0F8A3E0F949
:1020A500A3E0FAA3E0FBC006C0077E007F00C3E8FB
:1020B5009CE99DEA9EEB9FD007D006502390010234
:1020C500E0FAA3E0FBA3E0FCA3E0FD9001027401AC
:1020D5002AF0E43BA3F0E43CA3F0E43DA3F0809EAA
:1020E5002290036FE4F075821F123565E58244087E
:1020F500FF900366741FF0900367EFF0758200028E
:1021050033EFAF83E582900108F0EFA3F09001086B
:10211500E0FEA3E0FF8E059003667404F09003676C
:10212500EDF0758200C007C0061233EFD006D00768
:102135008F069003667405F0900367EEF0758200D4
:102145001233EF900106E0FEA3E0FF8E05900366D3
:102155007406F0900367EDF0758200C007C00612A3
:1021650033EFD006D0078F069003667407F090030F
:1021750067EEF07582000233EFAF83E58290010AC6
:10218500F0EFA3F090010AE0FEA3E0FF7C007D00E4
:10219500C3EC9EED9F504190036FE4F075821FC024
:1021A50007C006C005C004123565E582D004D00518
:1021B500D006D00720E30475820122900001C007F4
:1021C500C006C005C004122065D004D005D006D0D5
:1021D500070CBC00BB0D80B87582002290036FE42C
:1021E500F075821D123565E582035401B401009234
:1021F50000E433F5822290036FE4F075821F1235F7
:1022050065E58254FBFF900366741FF0900367EF4A
:10221500F07582000233EF90036FE4F075821F12B0
:102225003565E5824404FF900366741FF0900367EB
:10223500EFF07582000233EF90010C7402F090010B
:102245000D7411F090010E23F090010F7433F0908E
:1022550001107444F09001117455F090011274F856
:10226500F09001137475F090011474A4F0900115A9
:10227500748CF09001167441F09001177431F09050
:10228500011874C0F090011974A8F090011A740136
:10229500F090011B7464F090011C74C0F090011D56
:1022A50074A8F090011E7401F090011FF0900120B8
:1022B500740EF07E007F00C3EE9406EF6480948078
:1022C50050488E05ED04FC3395E0FBEC2420FCEB37
:1022D5003401FBEE2412F582EF3401F583E08C82A4
:1022E5008B83F074072DFD3395E0FCED2420FDEC88
:1022F5003401FCEE240CF582EF3401F583E08D8288
:102305008C83F00EBE00B00F80AD90012D7408F0E7
:1023150090012E7406F090012FE4F090013004F046
:102325009001317408F0900132E4F09001337406A5
:10233500F09001347404F0900135E4F09001360416
:10234500F07E007F00C3EE9406EF648094805029F0
:102355008E0574172DFD3395E0FCED2420FDEC343E
:1023650001FCEE240CF582EF3401F583E08D828CBF
:1023750083F00EBE00CF0F80CC7E007F00C3EE94AD
:1023850004EF6480948050298E05741D2DFD3395CE
:10239500E0FCED2420FDEC3401FCEE2418F582EF81
:1023A5003401F583E08D828C83F00EBE00CF0F8063
:1023B500CC7F00BF060050198F0674212EFE339581
:1023C500E0FDEE2420F582ED3401F583E4F00F8085
:1023D500E27E007F00C3EE9404EF64809480502970
:1023E5008E0574272DFD3395E0FCED2420FDEC349E
:1023F50001FCEE241CF582EF3401F583E08D828C1F
:1024050083F00EBE00CF0F80CC900380E4F0A3F0E4
:102415009003827420F07401A3F0E4A3F090002CE3
:1024250012396B900106742BF0E4A3F090000012B2
:10243500210712221C1220E69001F412217EE5826A
:1024450060331221E1E582601674C9C0E07447C0AB
:10245500E07480C0E0123D4C158115811581227410
:10246500EAC0E07447C0E07480C0E0123D4C1581BD
:1024750015811581227418C0E07448C0E07480C0CD
:10248500E0123D4C15811581158122C021C0E0C0A7
:10249500F0C082C083C007C006C005C004C003C029
:1024A50002C001C000C0D075D00090036FE4F07584
:1024B500821C123565745BC0E07448C0E07480C04E
:1024C500E0123D4C158115811581D0D0D000D00189
:1024D500D002D003D004D005D006D007D083D08257
:1024E500D0F0D0E0D02132AF83E58290014DF0EFFE
:1024F500A3F090014DE0FEA3E0FFC374FF9E741F9F
:102505009F401590014BE0FCA3E0FD8C028D03C3B9
:1025150074FF9A741F9B502A90014BE0C0E0A3E022
:10252500C0E090014DE0C0E0A3E0C0E07482C0E0EF
:102535007448C0E07480C0E0123D4CE58124F9F593
:1025450081225306FE90014DEEF0EFA3F090014D70
:10255500E0FEA3E0FF8E03900366E4F0900367EBD3
:10256500F0758200C007C006C005C004C003123361
:10257500EFD003D004D005D006D0078F02900366B4
:102585007401F0900367EAF0758200C007C006C0C9
:1025950005C004C003C0021233EFD002D003D0043B
:1025A500D005D006D0079003667408F0900367EB5A
:1025B500F0758200C007C006C005C004C003C00294
:1025C5001233EFD002D003D004D005D006D0079047
:1025D50003667409F0900367EAF0758200C007C0CE
:1025E50006C005C004C003C0021233EFD002D003F9
:1025F500D004D005D006D0078C01900366740AF08C
:10260500900367E9F0758200C007C006C005C004E5
:10261500C003C0021233EFD002D003D004D005D0DE
:1026250006D0078D01900366740BF0900367E9F0FF
:10263500758200C007C006C005C004C003C00212F1
:1026450033EFD002D003D004D005D006D0079003D5
:1026550066740CF0900367EBF0758200C007C00646
:10266500C005C004C0021233EFD002D004D005D09B
:1026750006D007900366740DF0900367EAF0758243
:1026850000C007C006C005C0041233EFD004D00552
:10269500D006D007C004C005C006C00774B3C0E0AB
:1026A5007448C0E07480C0E0123D4CE58124F9F522
:1026B5008122AFF0AE83E58290014FF0EEA3F0EFFB
:1026C500A3F012346990036FE4F075821D1235652D
:1026D500E58230E0F090014B74FFF0741FA3F09099
:1026E50008001224EC9003667402F090036774707E
:1026F500F07582021233EF9003667403F09003675E
:102705007440F07582021233EF900366740AF090FC
:10271500036774EEF07582021233EF900366740B53
:10272500F09003677405F07582021233EF9003662B
:102735007404F09003677412F07582021233EF90FF
:1027450003667406F09003677412F0758202123303
:10275500EF9003667407F0900367740CF0758202BE
:102765001233EF90014FE0FDA3E0FEA3E0FF7405F7
:102775002DF508E43EF5098F0A85088285098385CC
:102785000AF012476EF99003667401F0900367E949
:10279500F0758203C007C006C0051233EFD005D01F
:1027A50006D00774042DF50BE43EF50C8F0D850B53
:1027B50082850C83850DF012476EFB900366E4F06D
:1027C500900367EBF0758203C007C006C00512339E
:1027D500EFD005D006D00774032DF50EE43EF50FB6
:1027E5008F10850E82850F838510F012476EF99044
:1027F50003667403F0900367E9F0758203C007C0B0
:1028050006C0051233EFD005D006D00774022DF5AA
:1028150011E43EF5128F138511828512838513F01D
:1028250012476EFB9003667402F0900367EBF07538
:102835008203C007C006C0051233EFD005D006D00D
:102845000774012DFAE43EFB8F048A828B838CF09A
:1028550012476EF99003667405F0900367E9F07509
:102865008203C007C006C005C004C003C0021233FE
:10287500EFD002D003D004D005D006D0078D828ECC
:10288500838FF012476EF99003667404F090036726
:10289500E9F0758203C007C006C005C004C003C0C7
:1028A500021233EFD002D003D004D005D006D007F2
:1028B5009003667418F09003677480F0758201C008
:1028C50007C006C005C004C003C0021233EFD00222
:1028D500D003D004D005D006D00790036F7402F062
:1028E500758203C007C006C005C004C003C002123C
:1028F5003565E582D002D003D004D005D006D007D7
:102905004401F99003667403F0900367E9F075825A
:1029150002C007C006C005C004C003C0021233EFE1
:10292500D002D003D004D005D006D00790036F7431
:1029350002F0758200C007C006C005C004C003C010
:1029450002123565E582D002D003D004D005D00649
:10295500D0074401F9900366E4F0900367E9F07548
:102965008202C007C006C005C004C003C0021233FE
:10297500EFD002D003D004D005D006D00790036C69
:10298500E4F004A3F0758200C007C006C005C004CA
:10299500C003C0021234E2D002D003D004D005D067
:1029A50006D00790036C7422F07434A3F07582147A
:1029B500C007C006C005C004C003C0021234E2D07F
:1029C50002D003D004D005D006D007900366741F4B
:1029D500F09003677404F0758200C007C006C00557
:1029E500C004C003C0021233EF74E2C0E07448C0F3
:1029F500E07480C0E0123D4C158115811581D0022F
:102A0500D003D004D005D006D00785088285098378
:102A1500850AF012476EF98908750900850B8285CC
:102A25000C83850DF012476EF9890B750C00850E28
:102A350082850F838510F012476EF9890E750F0098
:102A45008511828512838513F012476EF879008A05
:102A5500828B838CF012476EFA7C008D828E838F79
:102A6500F012476EFD7F00C008C009C00BC00CC046
:102A75000EC00FC000C001C002C004C005C007746D
:102A850006C0E07449C0E07480C0E0123D4CE581A9
:052A950024F1F581228F
:10478E000A496E76616C69642042756666657220B0
:10479E0053697A652E204275666665722065786368
:1047AE00656564732076616C69642061646472650A
:1047BE0073732072616E67652E0A0041525020722B
:1047CE006571756573742073656E7420737563639C
:1047DE0065737366756C6C792E0A0D00415250200C
:1047EE007472616E736D697373696F6E2066616941
:1047FE006C65642E20436865636B206572726F7200
:10480E0020666C6167732E0A0D005472616E736DB3
:10481E00697373696F6E2074696D656F75742E2080
:10482E00454E4332384A3630206D6179206E6F74B2
:10483E002062652066756E6374696F6E696E67209F
:10484E00636F72726563746C792E0A0D00496E7413
:10485E006572727272727272727575757575757522
:10486E007575707070707070707074747474747418
:10487E00740A0D000A496E76616C69642042756691
:10488E006665722052616E67653A20537461727468
:10489E00203078253034582C20456E642030782511
:1048AE003034580A000A42756666657220496E6990
:1048BE007469616C697A65643A205374617274200C
:1048CE003078253034582C20456E642030782530D1
:1048DE0034580A000A454E4332384A363020496E63
:1048EE00697469616C697A6174696F6E20436F6D6A
:1048FE00706C6574652E0A004D41432041646472EC
:10490E006573733A20253032583A253032583A259D
:10491E003032583A253032583A253032583A25300E
:04492E0032580A00F1
:06200000022009022490F9
:0320620002200653
:03200600022CD8D1
:102A9A00AFF0AE83E582900152F0EEA3F0EFA3F01F
:102AAA00900155E4F0A3F0900152E0FDA3E0FEA3EB
:102ABA00E0FF8D028E038F048D228E238F247800EF
:102ACA007900C002C003C004E82522FAE93523FBD5
:102ADA00AC248A828B838CF012476EF525D004D001
:102AEA0003D002E5257003022C48C002C003C004CB
:102AFA00852526752700900157E526F0E527A3F0DE
:102B0A00900155E0FBA3E0C454F0CBC4CB6BCB548B
:102B1A00F0CB6BFC900155EBF0ECA3F0C3E52694E7
:102B2A0030E52764809480D004D003D002403F74FB
:102B3A0039952674808527F063F08095F0402FC080
:102B4A0002C003C004E52624D0F526E52734FFF5A4
:102B5A0027900155E0FAA3E0FC900155E5262AF0FA
:102B6A00E5273CA3F0D004D003D002022C40900108
:102B7A0057E0F526A3E0F527C3E5269441E5276447
:102B8A00809480404E7446952674808527F063F0C1
:102B9A008095F0403EC005C006C007E82AFDE93B23
:102BAA00FE8C078D828E838FF012476E7F0024C9B8
:102BBA00F526EF34FFF527900155E0FEA3E0FF90DC
:102BCA000155E5262EF0E5273FA3F0D007D006D021
:102BDA00058063900157E0F526A3E0F527C3E526B3
:102BEA009461E52764809480404C746695267480CD
:102BFA008527F063F08095F0403CC002C003C00412
:102C0A00E82DFAE93EFB8F048A828B838CF0124707
:102C1A006E7C0024A9F526EC34FFF527900155E0D7
:102C2A00FBA3E0FC900155E5262BF0E5273CA3F039
:102C3A00D004D003D00208B8000109022ACC9001BE
:102C4A0055E0FEA3E08E82F583227E007F00C00756
:102C5A00C006123B36AC82D006D007BC0A02803AC4
:102C6A00BC0D028035C3EE9409EF64809480502A2B
:102C7A008C037D008B828D83C007C006C004123B83
:102C8A0017D004D006D007EE2459F582EF3401F5A7
:102C9A0083ECF00EBE00B70F80B4EE2459F582EF34
:102CAA003401F583E4F0900159F5F0122A9AAE82C4
:102CBA00AF83C007C0067432C0E07449C0E0123B5B
:102CCA00D515811581D006D0078E828F832274355F
:102CDA00C0E07449C0E07480C0E0123D4C15811513
:102CEA0081158112344B9003C875F0001226B7740F
:102CFA004EC0E07449C0E07480C0E0123D4C1581BA
:102D0A00158115817465C0E07449C0E07480C0E023
:102D1A00123D4C158115811581747BC0E07449C040
:102D2A00E07480C0E0123D4C1581158115817490C4
:102D3A00C0E07449C0E07480C0E0123D4C158115B2
:102D4A0081158174A4C0E07449C0E07480C0E012A7
:102D5A003D4C15811581158174BEC0E07449C0E0EF
:102D6A007480C0E0123D4C15811581158174D4C060
:102D7A00E07449C0E07480C0E0123D4C15811581B1
:102D8A00158174E9C0E07449C0E07480C0E0123D66
:102D9A004C15811581158174FBC0E07449C0E0743B
:102DAA0080C0E0123D4C1581158115817415C0E073
:102DBA00744AC0E07480C0E0123D4C15811581153B
:102DCA0081742AC0E0744AC0E07480C0E0123D4CAD
:102DDA001581158115817443C0E0744AC0E074807E
:102DEA00C0E0123D4C158115811581745BC0E074F9
:102DFA004AC0E07480C0E0123D4C158115811581EE
:102E0A00123B36AE828E057F008D828F83C00612FA
:102E1A003B177432C0E07449C0E07480C0E0123DD0
:102E2A004C158115811581D006BE3100500302323E
:102E3A00BCEE24BC50030232BCEE24CFFE240A832B
:102E4A00F582EE241783F583E4737AE2E03FA10C5E
:102E5A004762C4BCBCBCBCBCBCBC84F98A2E2E2F45
:102E6A0030303131313132323232323232322C3246
:102E7A00747AC0E0744AC0E07480C0E0123D4C1518
:102E8A008115811581122C54AE82C006749FC0E050
:102E9A00744AC0E07480C0E0123D4C15811581155A
:102EAA0081122C54AD82C00574CCC0E0744AC0E0D3
:102EBA007480C0E0123D4C158115811581122C5485
:102ECA00AC82D005D006900366EDF0900367ECF073
:102EDA008E821233EF022CF974F0C0E0744AC0E01B
:102EEA007480C0E0123D4C158115811581122C5455
:102EFA00AE82AF83C007C0067416C0E0744BC0E050
:102F0A007480C0E0123D4C158115811581122C5434
:102F1A00AC82AD83D006D007C007C006C005C00486
:102F2A00C006C0077434C0E0744BC0E07480C0E0CF
:102F3A00123D4CE58124FBF581D004D005D006D0A2
:102F4A00077A007B00C3EA9EEB64808FF063F0800F
:102F5A0095F05063C004C005C007C006C005C00490
:102F6A00C003C002C002C0037457C0E0744BC0E083
:102F7A007480C0E0123D4CE58124FBF581D002D07B
:102F8A0003D004D005EA2463F8EB3401F9C003C086
:102F9A0002C001C000122C54AC82D000D001D00271
:102FAA00D003D006D00788828983ECF00ABA0001E0
:102FBA000BD005D004808E900380ECF0EDA3F09046
:102FCA0003827463F07401A3F0E4A3F08E828F830A
:102FDA0012396B022CF97461C0E0744BC0E0748042
:102FEA00C0E0123D4C158115811581122C54AE8218
:102FFA00AF83C007C0067416C0E0744BC0E074808B
:10300A00C0E0123D4C158115811581122C54AC82F9
:10301A00AD83D006D007900377ECF0EDA3F09003D0
:10302A00797463F07402A3F0E4A3F08E828F8312A2
:10303A0037CA022CF97486C0E0744BC0E07480C0B1
:10304A00E0123D4C158115811581122C54AE82C0B7
:10305A000674AFC0E0744BC0E07480C0E0123D4C0F
:10306A00158115811581122C54AD82D00690036FFB
:10307A00EEF08D82123565AF827E00C007C00674FD
:10308A00D8C0E0744BC0E07480C0E0123D4CE581CA
:10309A0024FBF581022CF974F4C0E0744BC0E0748F
:1030AA0080C0E0123D4C158115811581122C54AE59
:1030BA0082C0067416C0E0744CC0E07480C0E0128E
:1030CA003D4C158115811581122C54AD82AF83D0E8
:1030DA000690036CEDF0EFA3F08E82C007C00512D4
:1030EA0034E2D005D007C005C0077438C0E0744C7C
:1030FA00C0E07480C0E0123D4CE58124FBF58102FA
:10310A002CF97451C0E0744CC0E07480C0E0123DE8
:10311A004C158115811581122C541235D3AE82AF0C
:10312A0083C006C007747BC0E0744CC0E07480C0E2
:10313A00E0123D4CE58124FBF581022CF97493C021
:10314A00E0744CC0E07480C0E0123D4C15811581DA
:10315A001581123469022CF974ABC0E0744CC0E0DA
:10316A007480C0E0123D4C158115811581122C54D2
:10317A00AE82C00674D5C0E0744CC0E07480C0E072
:10318A00123D4C158115811581122C54AD82D00641
:10319A0090036AEDF08E82123474AF827E00C0070B
:1031AA00C00674F0C0E0744CC0E07480C0E0123D08
:1031BA004CE58124FBF581022CF9744EC0E0744978
:1031CA00C0E07480C0E0123D4C15811581158174F0
:1031DA0065C0E07449C0E07480C0E0123D4C1581BE
:1031EA0015811581747BC0E07449C0E07480C0E029
:1031FA00123D4C1581158115817490C0E07449C047
:10320A00E07480C0E0123D4C15811581158174A4CB
:10321A00C0E07449C0E07480C0E0123D4C158115CD
:10322A0081158174BEC0E07449C0E07480C0E012A8
:10323A003D4C15811581158174D4C0E07449C0E0F4
:10324A007480C0E0123D4C15811581158174E9C066
:10325A00E07449C0E07480C0E0123D4C15811581CC
:10326A00158174FBC0E07449C0E07480C0E0123D6F
:10327A004C158115811581022CF912223D022CF977
:10328A00740CC0E0744DC0E07480C0E0123D4C156F
:10329A008115811581C2907E007F00C3EE9470EF84
:1032AA006480949750070EBE00F10F80EED2900210
:1032BA002CF9743FC0E0744DC0E07480C0E0123D48
:0A32CA004C158115811581022CF9C5
:104932000A0D00535049204F7065726174696F6EA1
:1049420073206F6E20383035310A0D000A0D43682E
:104952006F6F736520616E20616374696F6E3A20B8
:104962000A0D0031202D2D3E20436F6E74726F6C44
:104972002057726974650A0D0032202D2D3E2042A7
:1049820075666665722057726974650A0D00332078
:104992002D2D3E2042756666657220526561640A5D
:1049A2000D0034202D2D3E204D4143205265676974
:1049B2007374657220526561640A0D0035202D2DD5
:1049C2003E20504859205350492057726974650A55
:1049D2000D0036202D2D3E2050485920535049209D
:1049E200526561640A0D0037202D2D3E20454E434D
:1049F2002052657365740A0D0038202D2D3E205219
:104A02006561642045544820526567697374657214
:104A12000A0D0039202D2D3E20446973706C617996
:104A2200204D656E750A0D0041202D2D3E205365E7
:104A32006E642041525020526571756573740A0D7F
:104A42000042202D2D3E20496E697420525820626A
:104A52007566666572730A0D0043202D2D3E20484F
:104A6200617264205265736574286E5245534554D1
:104A72002070696E290A0D00456E74657220746893
:104A8200652072656769737465722062616E6B205E
:104A9200746F2073656C6563743A0A0D00456E7419
:104AA2006572207468652061646472657373206F37
:104AB200662074686520436F6E74726F6C20526555
:104AC2006769737465723A0A0D00456E74657220E7
:104AD200746865206461746120796F752077616EF6
:104AE2007420746F2077726974653A0A0D00456EFE
:104AF20074657220746865206E756D626572206FD0
:104B02006620627974657320746F207772697465A8
:104B12003A0A0D00456E74657220746865207374DC
:104B2200617274696E6720616464726573733A0AB4
:104B32000D00456E74657220256420627974657378
:104B4200206F6620646174612028696E2068657830
:104B5200293A0A0D00427974652025643A200045FD
:104B62006E74657220746865206E756D6265722060
:104B72006F6620627974657320746F207265616458
:104B82003A0A0D00456E74657220746865204D41C5
:104B9200432072656769737465722062616E6B206F
:104BA200746F2073656C6563743A0A0D00456E7408
:104BB2006572207468652061646472657373206F26
:104BC2006620746865204D4143205265676973749D
:104BD20065723A0A0D004D4143205265676973744C
:104BE200657220446174613A203078253032580A67
:104BF2000D00456E74657220746865205048592016
:104C02007265676973746572206164647265737337
:104C12003A0A0D00456E746572207468652031365B
:104C22002D626974206461746120746F20777269E7
:104C320074653A0A0D00504859205772697465200C
:104C4200446174613A203078253034580A0D0045A9
:104C52006E746572207468652050485920726567C9
:104C62006973746572206164647265737320746F12
:104C720020726561643A0A0D0050485920526561FC
:104C82006420446174613A203078253034580A0D2A
:104C920000526573657474696E6720454E433238FD
:104CA2004A36302E2E2E0A0D00456E74657220741F
:104CB200686520455448207265676973746572207F
:104CC2006164647265737320746F20726561643A03
:104CD2000A0D00456E746572207468652062616E0B
:104CE2006B202830206F722031293A0A0D0045547A
:104CF2004820526567697374657220446174613A31
:104D0200203078253032580A0D00205265736574C0
:104D120074696E6720454E43207573696E67205231
:104D2200455345542070696E20696E204861726453
:104D3200776172652850315F30290A0D00496E761D
:104D4200616C6964206F7074696F6E2E20506C659F
:104D52006173652073656C65637420612076616C94
:0D4D6200696420616374696F6E2E0A0D0094
:104FAB00021122334455F875A48C4131C0A8016419
:044FBB00C0A8010188
:1032D40075825F12345A75820212345A75825412FE
:1032E400345A75821412345A75825612345A7582BD
:1032F4000012345A75825712345A75820A02345AAB
:1033040022C29175825F12345A75820212345AD2E3
:1033140091C29175825412345A75821412345AD25D
:1033240091C29175825612345A7582A812345AD2B7
:1033340091C29175825712345A75823A12345AD214
:1033440091222275C5FFE5C430E7FB900363E5C510
:10335400F0E0F58222C29175825E12345A75828041
:1033640012345AD29122E582900364F0C29175829C
:103374001F12345A123347AF82D2915307FC900381
:1033840064E0FE24FC4030EE2E903391738006807E
:103394000B80128019900365EFF0803190036574FF
:1033A400014FF0802890036574024FF0801F900352
:1033B4006574034FF08016746FC0E0744DC0E07400
:1033C40080C0E0123D4C158115811581227F00BF1C
:1033D400100050030F80F8C29175825F12345A9026
:1033E4000365E0F58212345AD29122E58290036893
:1033F400F0900366E02440F0900368E0F582123315
:103404006AC291900366E0FFF582C00712345AD075
:1034140007900367E0FEF582C007C00612345AD055
:1034240006D007D2917D007C00C006C005C007C04D
:1034340004747AC0E0744DC0E07480C0E0123D4C66
:10344400E58124F9F58122D29175C30043C3204359
:10345400C31043C34022E582900369F0E0F5C5E55B
:10346400C430E7FB22C2917582FF12345AD29122F2
:10347400E58290036BF0E0FF24E05019749FC0E0F4
:10348400744DC0E07480C0E0123D4C158115811567
:10349400817582002290036AE0F582C00712336AC4
:1034A400D007C2918F82C00712345A123347AE82BA
:1034B400D007D2918E047D007B00C006C004C005F5
:1034C400C007C00374D9C0E0744DC0E07480C0E08C
:1034D400123D4CE58124F9F581D0068E8222E582E5
:1034E40090036EF0E0FF9003667414F0900367EFAE
:1034F400F0758202C0071233EFD00790036CE0FD31
:10350400A3E0FE8D049003667416F0900367ECF05C
:10351400758202C007C006C0051233EFD005D0067D
:10352400D0078E049003667417F0900367ECF0756F
:103534008202C007C006C0051233EFD005D006D002
:10354400077C00C005C006C007C00474FDC0E07459
:103554004DC0E07480C0E0123D4CE58124F9F58152
:1035640022E582900370F0E0FF24E05019749FC0BC
:10357400E0744DC0E07480C0E0123D4C15811581AB
:1035840015817582002290036FE0F582C007123323
:103594006AD007C2918F82C00712345A123347AEE1
:1035A40082D007D2918E047D007B00C006C004C087
:1035B40005C007C0037426C0E0744EC0E07480C028
:1035C400E0123D4CE58124F9F581D0068E8222E596
:1035D40082900371F0E0FF9003667414F090036727
:1035E400EFF0758202C0071233EFD00790036674C0
:1035F40012F09003677401F0758202C0071233EF72
:10360400123680D0079003667412F0900367E4F0DA
:10361400758202C0071233EFD00790036F7402F073
:10362400758218C007123565AE82D0077D009003FD
:103634006F7402F0758219C007C006C005123565A3
:10364400AC82D005D006D0078C03E44206EB4205D9
:103654007C00C006C005C006C005C007C00474498C
:10366400C0E0744EC0E07480C0E0123D4CE581249B
:10367400F9F581D005D0068E828D832290036F7474
:1036840003F075820A123565E582900372F09003A7
:1036940072E030E01490036F7403F075820A1235FF
:1036A40065E582900372F080E522AF83E5829003A2
:1036B40075F0EFA3F0900375E0FEA3E0FF8E048F96
:1036C40005C374FF9C741F9D4017900373E0FAA315
:1036D400E0FBEA2EF8EB3FF9C374FF98741F99508E
:1036E4002A900373E0C0E0A3E0C0E0900375E0C05B
:1036F400E0A3E0C0E07471C0E0744EC0E07480C028
:10370400E0123D4CE58124F9F581225304FEEA2EB2
:10371400FEEB3FFF1EBEFF011F5306FE8D03900309
:10372400667408F0900367EBF0758200C007C0066A
:10373400C005C0041233EFD004D005D006D0078CE6
:10374400039003667409F0900367EBF0758200C080
:1037540007C006C005C0041233EFD004D005D0065C
:10376400D0078F03900366740AF0900367EBF0753B
:103774008200C007C006C005C0041233EFD004D0D5
:1037840005D006D0078E03900366740BF090036790
:10379400EBF0758200C007C006C005C0041233EF09
:1037A400D004D005D006D007C006C007C004C005A9
:1037B40074AFC0E0744EC0E07480C0E0123D4CE5CC
:1037C4008124F9F58122AF83E58290037CF0EFA395
:1037D400F090037CE0FEA3E0FFC3EE9401EF64806D
:1037E4009480501AC006C00774E0C0E0744EC0E074
:1037F4007480C0E0123D4CE58124FBF581229003E6
:1038040077E0FCA3E0FD8C028D03C374FF9A741F60
:103814009B501AC004C0057400C0E0744FC0E0742B
:1038240080C0E0123D4CE58124FBF58122C3740184
:103834009E74808FF063F08095F0500BC005C00437
:10384400123359D004D0058D078C06900366740199
:10385400F0900367EFF0758200C006C005C0041243
:1038640033EFD004D005D006900366E4F0900367EC
:10387400EEF0758200C005C0041233EFC291758268
:103884003A12345AD004D00590037CE0FEA3E0FF42
:10389400C007C006C004C005C006C007741AC0E053
:1038A400744FC0E07480C0E0123D4CE58124F9F50A
:1038B40081D006D00790037EE4F0A3F0900379E072
:1038C400FBA3E0FCA3E0FD90037EE0F9A3E0FAC3D0
:1038D400E99EEA64808FF063F08095F0400302393A
:1038E40068C006C007C007C006C005C004C003C046
:1038F40002C001123347A882D001D002D003D00401
:10390400D005D006D0078B828C838DF0E8123BBAA9
:10391400A3AB82AC837F0009B900010AC007C006CB
:10392400C005C004C003C002C001C000C007C0017C
:10393400C0027455C0E0744FC0E07480C0E0123D12
:103944004CE58124F9F581D001D002D003D004D014
:1039540005D006D00790037EE9F0EAA3F0D007D0A3
:10396400060238CBD29122AF83E582900385F0EF33
:10397400A3F0900385E0FEA3E0FFC3EE9401EF649F
:10398400809480501AC006C00774E0C0E0744EC032
:10399400E07480C0E0123D4CE58124FBF581229067
:1039A4000380E0FCA3E0FD8C028D03C374FF9A74D2
:1039B4001F9B501AC004C0057400C0E0744FC0E0DF
:1039C4007480C0E0123D4CE58124FBF58122C37470
:1039D400019E74808FF063F08095F0500BC005C099
:1039E40004123359D004D0058D078C0690036674F5
:1039F40003F0900367EFF0758200C006C005C004B1
:103A04001233EFD004D005D0069003667402F09010
:103A14000367EEF0758200C005C0041233EFC29153
:103A240075827A12345AD004D005900385E0FEA33F
:103A3400E0FFC007C006C004C005C006C007746725
:103A4400C0E0744FC0E07480C0E0123D4CE58124B6
:103A5400F9F581D006D007900387E4F0A3F0900332
:103A640082E0FBA3E0FCA3E0FD900387E0F9A3E080
:103A7400FAC3E99EEA64808FF063F08095F0400316
:103A8400023B14C006C0078B828C838DF012476EF4
:103A9400F87F0009B900010AC007C006C005C004C8
:103AA400C003C002C001C000C007C001C0027455F9
:103AB400C0E0744FC0E07480C0E0123D4CE5812446
:103AC400F9F581D001D002D003D004D005D006D0BE
:103AD400078B828C838DF012476EFFA3AB82AC837D
:103AE4008F82C007C006C005C004C003C002C00165
:103AF40012345AD001D002D003D004D005D006D05D
:103B040007900387E9F0EAA3F0D007D006023A6DE4
:033B1400D2912229
:104D6F0077726F6E672062616E6B00577269746540
:104D7F003A2041646472657373203078253032585D
:104D8F002C2044617461203078253032580A0D0090
:104D9F000A0D496E76616C69642061646472657393
:104DAF00733A204D414320726567697374657220B1
:104DBF00616464726573732072616E6765205B3026
:104DCF002C20307831465D0A0D00526561643A201F
:104DDF0041646472657373203078253032582C200B
:104DEF0044617461203078253032580A0D005048E4
:104DFF00592057726974653A204164647265737300
:104E0F00203078253032582C20446174612030785E
:104E1F00253034580A0D00526561643A20416464AC
:104E2F0072657373203078253032582C20446174AA
:104E3F0061203078253032580A0050485920526589
:104E4F0061643A2041646472657373203078253051
:104E5F0032582C2044617461203078253034580A40
:104E6F000D000A0D496E76616C69642042756666A5
:104E7F0065722041646472657373206F7220536989
:104E8F007A653A2053746172742030782530345823
:104E9F002C2053697A65203078253034580A0D005C
:104EAF000A0D42756666657220496E697469616C98
:104EBF00697A65643A2053746172742030782530B2
:104ECF0034582C20456E64203078253034580A0D24
:104EDF00000A0D496E76616C6964206E756D6265AE
:104EEF0072206F662062797465733A2025640A0D0B
:104EFF00000A0D496E76616C6964206164647265A5
:104F0F0073733A20253034580A0D00526561646975
:104F1F006E672025642062797465732066726F6DE9
:104F2F0020627566666572207374617274696E674C
:104F3F00206174206164647265737320307825304A
:104F4F0034583A0A0D00427974652025643A2030AE
:104F5F0078253032580A0D0057726974696E6720D0
:104F6F00256420627974657320746F20627566669C
:104F7F006572207374617274696E67206174206149
:104F8F00646472657373203078253034583A0A0D93
:014F9F000011
:103B1700AF83E582900389F0EFA3F03099FD90031E
:103B270089E0FEA3E0FF8E99C2998E828F832210CF
:103B3700980280FBAE997F008E828F8322AFF0AE12
:103B470083E58290038BF0EEA3F0EFA3F090038B55
:103B5700E0FDA3E0FEA3E0FF7B007C008D828E8367
:103B67008FF012476EFA60360DBD00010E90038B81
:103B7700EDF0EEA3F0EFA3F08A017A0089828A8341
:103B8700C007C006C005C004C003123B17D003D04E
:103B970004D005D006D0070BBB00C10C80BE900334
:103BA7008BEDF0EEA3F0EFA3F00BBB00010C8B82C3
:033BB7008C8322DA
:06203800E478FFF6D8FD7C
:102016007914E94400601B7A01904FAB78C875A02B
:1020260003E493F2A308B8000205A0D9F4DAF27526
:02203600A0FF09
:103BBA0020F71130F6138883A88220F509F6A88326
:103BCA007583002280FEF280F5F022C014858114EC
:103BDA00E51424FDF8868318868218E493A324DB6F
:103BEA00600C24256005123CC380F0023CDBD2D570
:103BFA00E493A3C083C082B4731486F01886831832
:103C0A0086821812476E6054A3123CC380F5B463CF
:103C1A000818E618123CC38043B46417E630E74636
:103C2A0018E6F42401F608E6F43400F6742D123C82
:103C3A00C38033B4782D868318868218E4123CB484
:103C4A00E583123CB3E583123CB4E582123CB3E54A
:103C5A0082123CB430D5057430123CC3D082D08372
:103C6A00023BE5B475F6E6FA18E6F9187C107D27EA
:103C7A00123C9EFF7CE87D03123C9EC4F5837C6463
:103C8A007D00123C9E4283E975F00A84C445F0F532
:103C9A0082EF80A97B000BC3E99CF9EA9DFA50F6F2
:103CAA001BE92CF9EA3DFAEB22C4540F700320D524
:103CBA001FC2D52490D43440D4C083C082C0F0F54A
:103CCA0082E8C0E0123B17D0E0F8D0F0D082D0836F
:103CDA0022D01422AA83AB828BF090038FE0A4F83F
:103CEA00A9F08AF0E0A429F98BF0A3E0A429F583CE
:043CFA008882222278
:10203E007800E84400600A790075A001E4F309D83D
:10204E00FC78C8E84402600C7903900100E4F0A328
:04205E00D8FCD9FAD7
:103CFE00C0148581147E008E83123B17D01422AF20
:103D0E00F0AE83E582900392F0EEA3F0EFA3F09075
:103D1E000392E0FDA3E0FEA3E0FF900391E0FC9090
:103D2E0003A6E4F0A3F0A3F09003A9EDF0EEA3F048
:103D3E00EFA3F09003ACECF0903CFE023E52C014A8
:103D4E00E581F51424FBFF9003A6E4F0A3F0A3F0A5
:103D5E00E51424FBF89003A9E6F008E6A3F008E6C4
:103D6E00A3F09003ACEFF0903CFE123E52D0142222
:103D7E00E5829003A2F0E0FF900398E0C0E0A3E09C
:103D8E00C0E0A3E0C0E0123D99800D900396E0C024
:103D9E00E0A3E0C0E08F822215811581158190038A
:103DAE00A0E02401F0A3E03400F022E5829003A30A
:103DBE00F0E02430FF24C6500D74072FFF900395BA
:103DCE00E060034307208F82023D7EE5829003A4CC
:103DDE00F0E0FFC4540FF582C007123DB9D007536F
:103DEE00070F8F82023DB9E5829003A5F090039BE9
:103DFE00E0FCA3E0FDA3E0FEA3E0FF90039FE0FB49
:103E0E009003A5E0FA79208B00E828F522EF2354E1
:103E1E00014522FBEC2CFCED33FDEE33FEEF33FFC0
:103E2E00C3EB9A4007EBC39AFB43040119E970D721
:103E3E0090039BECF0EDA3F0EEA3F0EFA3F0900354
:103E4E009FEBF022AF83E5829003ADF0EFA3F090ED
:103E5E0003ADE0FEA3E0FF900396EEF0EFA3F0902B
:103E6E0003A6E0FDA3E0FEA3E0FF900398EDF0EEC5
:103E7E00A3F0EFA3F09003A0E4F0A3F09003A9E069
:103E8E00FDA3E0FEA3E0FF8D828E838FF012476EBE
:103E9E00FC9003A974012DF0E43EA3F0EFA3F0EC27
:103EAE00700302474ABC250280030247429003AFCB
:103EBE00E4F09003B0F09003B1F09003B2F09003F1
:103ECE00B3F09003B4F09003B5F09003B6F0900306
:103EDE00B8F09003B9F0A3F09003BB14F0A3F090E8
:103EEE0003A9E0FDA3E0FEA3E0FF8D828E838FF099
:103EFE0012476EFBA3AD82AE839003A9EDF0EEA345
:103F0E00F0EFA3F09003BFEBF0BB25088B82123DC0
:103F1E007E023E8ABB30005003023FEBEB24C650BC
:103F2E0003023FEB9003BBE0F515A3E0F51674FF1B
:103F3E00B51563B51660C005C006C0079003B9E09D
:103F4E00FAA3E0FF90038FEAF0EFA3F090000AC00F
:103F5E0005C003123CDEAE82AF83D003D0058B05C5
:103F6E007A00ED2EFEEA3FFFEE24D0FEEF34FFFF87
:103F7E009003B9EEF0EFA3F0D007D006D005900372
:103F8E00B9E0F5F0A3E045F06003023EF89003B00F
:103F9E007401F0023EF8C005C006C00790038FE51D
:103FAE0015F0E516A3F090000AC006C005C0031276
:103FBE003CDEAA82AF83D003D005D0067E00EB2A6A
:103FCE00FAEE3FFFEA24D0FAEF34FFFF9003BBEA8C
:103FDE00F0EFA3F0D007D006D005023EF89003BF55
:103FEE00E0FBBB2E2FC005C006C0079003BBE0FA56
:103FFE00A3E0FFBAFF05BFFF028009D007D006D0AD
:10400E0005023EF8D007D006D0059003BBE4F0A31E
:10401E00F0023EF8BB61004014EB2485400F900384
:10402E00BF74DF5BF09003957401F08005900395EB
:10403E00E4F09003BFE0FBBB20028075BB2B028037
:10404E0067BB2D028059BB4202806FBB4302807C4E
:10405E00BB44030242E2BB4603024308BB480302D1
:10406E003EF8BB49030242E2BB4A03023EF8BB4C98
:10407E00028050BB4F030242F0BB5003024250BBC2
:10408E0053028077BB5403023EF8BB55030242F83D
:10409E00BB5803024300BB5A03023EF80243109082
:1040AE0003AF7401F0023EF89003B17401F0023ECA
:1040BE00F89003B27401F0023EF89003B47401F06C
:1040CE00023EF89003B57401F0023EF89003B4E09E
:1040DE00600E9003ACE014F9F09003BFE7F0800F90
:1040EE009003ACE024FEFFF08F019003BFE7F09049
:1040FE0003BFE0F582123D7E02431F9003ACE02425
:10410E00FDFFF08F018705098706098707191990AA
:10411E00039BEDF0EEA3F0EFA3F08D828E838FF074
:10412E001247568582158583169003BBE0FAA3E0ED
:10413E00FDBAFF0DBDFF0A9003BBE515F0E516A312
:10414E00F09003AFE0704B9003B9E0FAA3E0FDC32B
:10415E00E5159AE5169D503A9003B9EAC39515F008
:10416E00ED9516A3F09003B9E0FAA3E0FD8A068D53
:10417E00071ABAFF011DEE4F6010758220C005C0F0
:10418E0002123D7ED002D00580E39003B9EAF0ED35
:10419E00A3F09003BBE0F518A3E0F51990039BE0A4
:1041AE00FAA3E0FDA3E0FF8A828D838FF012476EA3
:1041BE00F517603CC3E4951874808519F063F080A0
:1041CE0095F0502C151874FFB51802151985178225
:1041DE00123D7E90039BE0FAA3E0FDA3E0FF0ABA36
:1041EE0000010D90039BEAF0EDA3F0EFA3F080AC7D
:1041FE009003AFE0700302431F9003B9E0FEA3E00B
:10420E00FFC3E5159EE5169F400302431F9003B9B9
:10421E00EEC39515F0EF9516A3F09003B9E0FEA34B
:10422E00E0FF8E028F051EBEFF011FEA4D700302D6
:10423E004317758220C007C006123D7ED006D007F8
:10424E0080E09003ACE024FDFDF08D01871A098714
:10425E001B09871C191990039BE51AF0E51BA3F0A7
:10426E00E51CA3F090039DE0FDBD80004008900387
:10427E00BF7443F08020BD600040089003BF7450AF
:10428E00F08013BD400040089003BF7449F08006D3
:10429E009003BF7458F09003BFE0FDF582C0051285
:1042AE003D7E75823A123D7E758230123D7E75825C
:1042BE0078123D7ED005BD4902800EBD50028009A8
:1042CE0090039CE0F582123DD990039BE0F582129B
:1042DE003DD9803D9003B37401F09003B8740AF099
:1042EE00802F9003B87408F080279003B8740AF0FA
:1042FE00801F9003B87410F080179003B67401F00D
:10430E00800F8B82123D7E80089003B9EEF0EFA3F2
:10431E00F09003B6E060719003ACE024FCFFF08FE8
:10432E000187030987050987060987071919199057
:10433E00039BEBF0EDA3F0EEA3F0EFA3F090039B45
:10434E0074A0F0744FA3F07480A3F090039BE0F57B
:10435E001AA3E0F51BA3E0F51C7401251AFAE43547
:10436E001BFBAF1C90039BEAF0EBA3F0EFA3F085D1
:10437E001A82851B83851CF012476EFF7003023E66
:10438E008A8F82123D7E80C39003B8E07003023E96
:10439E008A9003B4E060479003ACE014F9F087070D
:1043AE007E007D007B0090039BEFF0EEA3F0EDA36B
:1043BE00F0EBA3F09003B3E0600302446290039B22
:1043CE00E0FBA3E0A3E0A3E07D007E007F0090036E
:1043DE009BEBF0EDA3F0EEA3F0EFA3F0807690034D
:1043EE00B5E060289003ACE024FCFFF08F0187035A
:1043FE0009870509870609870719191990039BEB89
:10440E00F0EDA3F0EEA3F0EFA3F080489003ACE044
:10441E0024FEFFF08F01870609870719EF3395E019
:10442E00FDFB90039BEEF0EFA3F0EDA3F0EBA3F0FA
:10443E009003B3E0701E90039BE0FBA3E0FDA3E0AE
:10444E00A3E07E007F0090039BEBF0EDA3F0EEA3C4
:10445E00F0EFA3F09003B3E0603D90039BE0A3E088
:10446E00A3E0A3E030E72B90039BE0FBA3E0FDA3CA
:10447E00E0FEA3E0FFC3E49BFBE49DFDE49EFEE4AF
:10448E009FFF90039BEBF0EDA3F0EEA3F0EFA3F0F4
:10449E0080059003B3E4F09003B77401F09003B875
:1044AE00E0F518751DC5751E03E4F515F516900398
:1044BE009FE4F0851882123DF59003B7E0703390BB
:1044CE00039FE0C454F0F51A90039FE0C4540F45C7
:1044DE001AF51A851D82851E83E0FFE51A420785AF
:1044EE001D82851E83EFF0151D74FFB51D02151E6E
:1044FE00800B90039FE0851D82851E83F00515E4D9
:10450E00B5150205169003B7E0B40100E433F09040
:10451E00039BE0FAA3E0FBA3E0FEA3E0FFEA4B4E11
:10452E004F708B9003C6E51DF0E51EA3F09003BD02
:10453E00E515F0E516A3F09003B9E0F5F0A3E0451C
:10454E00F070099003B97401F0E4A3F09003B0E0A9
:10455E00FFE070479003AFE0704185151D85161E74
:10456E009003B9E0FAA3E0FBC007AF1D0F8F067FE3
:10457E0000C3EE9AEF9BD0075019758220C007C07A
:10458E0003C002123D7ED002D003D0071ABAFF013B
:10459E001B80D59003B9EAF0EBA3F09003B3E06073
:1045AE002075822DC007123D7ED0079003B9E024FE
:1045BE00FFFDA3E034FFFE9003B9EDF0EEA3F08013
:1045CE00569003BDE0F5F0A3E045F0604A9003B1CC
:1045DE00E0602075822BC007123D7ED0079003B994
:1045EE00E024FFFDA3E034FFFE9003B9EDF0EEA34F
:1045FE00F080249003B2E0601E758220C007123D49
:10460E007ED0079003B9E024FFFDA3E034FFFE90B7
:10461E0003B9EDF0EEA3F09003AFE070449003BD4C
:10462E00E0F51DA3E0F51E9003B9E0FAA3E0FBC090
:10463E00078A068B071ABAFF011BC3E51D9EE51EEE
:10464E009FD007504FEF60047E3080027E208E8216
:10465E00C007C003C002123D7ED002D003D0078037
:10466E00CE9003B9E0FEA3E0FF9003BDE0F51DA3DD
:10467E00E0F51EC3E51D9EE51E9F500F9003B9EE9B
:10468E00C3951DF0EF951EA3F080119003B9E4F0D1
:10469E00A3F080089003B9EAF0EBA3F09003C6E014
:1046AE00FEA3E0FF9003BDE0F51DA3E0F51EAA1DDD
:1046BE00AD1E151D74FFB51D02151EEA4D6044900A
:1046CE0003B7E0B40100E433F09003B7E070130ECB
:1046DE00BE00010F8E828F83E0C4540F90039FF0B3
:1046EE00800E8E828F83E0FD53050F90039FEDF0B9
:1046FE0090039FE0F582C007C006123DB9D006D0E8
:10470E000780AB9003AFE07003023E8A9003B9E0DE
:10471E00FEA3E0FF8E038F051EBEFF011FEB4D7043
:10472E0003023E8A758220C007C006123D7ED00667
:10473E00D00780E08C82123D7E023E8A9003A0E07C
:08474E00FEA3E08E82F5832238
:0B4FA0003C4E4F20464C4F41543E0059
:10475600AA82AB8312476E6003A380F8C3E5829AF0
:08476600F582E5839BF5832237
:0D20090075812712478AE5826003022006D8
:10476E0020F71430F6148883A88220F507E6A88374
:10477E0075830022E280F7E49322E0227582002204
:00000001FF
