:202065009003627401F090036304F0758203122FCE900362E4F09003637411F075820312CE
:202085002FCE9003627403F09003637422F0758203122FCE9003627402F09003637433F075
:2020A500758203122FCE9003627405F09003637444F0758203122FCE9003627404F090031D
:2020C500637455F0758203022FCEAF83E582900100F0EFA3F0900102E4F0A3F0A3F0A3F02A
:2020E500900100E0FEA3E0FF90038BEEF0EFA3F09003E8C007C006123975AC82AD83D00670
:20210500D007900102E0F8A3E0F9A3E0FAA3E0FBC006C0077E007F00C3E89CE99DEA9EEB37
:202125009FD007D0065023900102E0FAA3E0FBA3E0FCA3E0FD90010274012AF0E43BA3F01D
:20214500E43CA3F0E43DA3F0809E2290036BE4F075821F123144E5824408FF900362741F2A
:20216500F0900363EFF0758200022FCEAF83E582900108F0EFA3F0900108E0FEA3E0FF9072
:202185000106E0FCA3E0FDC3EE9CEF9D500D8C028D03C374FF9A741F9B50167425C0E07472
:2021A50044C0E07480C0E01239E3158115811581228E039003627408F0900363EBF07582D6
:2021C50000C007C006C005C004C003122FCED003D004D005D006D0078F029003627409F0F6
:2021E500900363EAF0758200C007C006C005C004C003C002122FCED002D003D004D005D04B
:2022050006D0078C01900362740AF0900363E9F0758200C007C006C005C004C003C0021279
:202225002FCED002D003D004D005D006D0078D01900362740BF0900363E9F0758200C00722
:20224500C006C005C004C003C002122FCED002D003D004D005D006D007900362740CF090A6
:202265000363EBF0758200C007C006C005C004C002122FCED002D004D005D006D00790037F
:2022850062740DF0900363EAF0758200C007C006C005C004122FCED004D005D006D007C064
:2022A50004C005C006C007743FC0E07444C0E07480C0E01239E3E58124F9F58122AF83E524
:2022C5008290010CF0EFA3F090010CE0FEA3E0FF8E059003627404F0900363EDF0758200B1
:2022E500C007C006122FCED006D0078F069003627405F0900363EEF0758200122FCE900132
:202305000AE0FEA3E0FF8E059003627406F0900363EDF0758200C007C006122FCED006D050
:20232500078F069003627407F0900363EEF0758200022FCEAF83E58290010EF0EFA3F09098
:20234500010EE0FEA3E0FF7C007D00C3EC9EED9F504190036BE4F075821FC007C006C0056C
:20236500C004123144E582D004D005D006D00720E30475820122900001C007C006C005C08C
:20238500041220CFD004D005D006D0070CBC00BB0D80B87582002290036BE4F075821D1204
:2023A5003144E582035401B401009200E433F582229001107402F09001117411F09001122C
:2023C50023F09001137433F09001147444F09001157455F090011674F8F09001177475F07A
:2023E50090011874A4F0900119748CF090011A7441F090011B7431F090011C74C0F090019A
:202405001D74A8F090011E7401F090011F7464F090012074C0F090012174A8F09001227448
:2024250001F0900123F0900124740EF090011075F0001220657E007F00C3EE9406EF648023
:20244500948050488E05ED04FC3395E0FBEC2424FCEB3401FBEE2416F582EF3401F583E042
:202465008C828B83F074072DFD3395E0FCED2424FDEC3401FCEE2410F582EF3401F583E09E
:202485008D828C83F00EBE00B00F80AD9001317408F09001327406F0900133E4F0900134B9
:2024A50004F09001357408F0900136E4F09001377406F09001387404F0900139E4F09001C4
:2024C5003A04F07E007F00C3EE9406EF6480948050298E0574172DFD3395E0FCED2424FD03
:2024E500EC3401FCEE2410F582EF3401F583E08D828C83F00EBE00CF0F80CC7E007F00C3E1
:20250500EE9404EF6480948050298E05741D2DFD3395E0FCED2424FDEC3401FCEE241CF56C
:2025250082EF3401F583E08D828C83F00EBE00CF0F80CC7F00BF060050198F0674212EFE91
:202545003395E0FDEE2424F582ED3401F583E4F00F80E27E007F00C3EE9404EF6480948018
:2025650050298E0574272DFD3395E0FCED2424FDEC3401FCEE2420F582EF3401F583E08DE0
:20258500828C83F00EBE00CF0F80CC90037CE4F07403A3F090037E7424F07401A3F0E4A3AA
:2025A500F090002C12354A90010A742BF07403A3F09003001222C21221509001F4122339A6
:2025C500E582603312239CE582601674A4C0E07444C0E07480C0E01239E3158115811581BA
:2025E5002274C5C0E07444C0E07480C0E01239E31581158115812274F3C0E07444C0E0740A
:2026050080C0E01239E315811581158122C021C0E0C0F0C082C083C007C006C005C004C0F7
:2026250003C002C001C000C0D075D00090036BE4F075821C1231447436C0E07445C0E074F7
:2026450080C0E01239E3158115811581D0D0D000D001D002D003D004D005D006D007D083D6
:09266500D082D0F0D0E0D0213287
:20442500496E76616C6964205258206275666665722072616E67652E0A00525820627566E0
:2044450066657220696E697469616C697A65643A2030782530345820746F2030782530342D
:20446500582E0A000A496E76616C6964204275666665722053697A652E20427566666572F9
:2044850020657863656564732076616C696420616464726573732072616E67652E0A00413A
:2044A500525020726571756573742073656E74207375636365737366756C6C792E0A0D00C8
:2044C500415250207472616E736D697373696F6E206661696C65642E20436865636B206574
:2044E50072726F7220666C6167732E0A0D005472616E736D697373696F6E2074696D656F38
:2045050075742E20454E4332384A3630206D6179206E6F742062652066756E6374696F6E2A
:20452500696E6720636F72726563746C792E0A0D00496E746572727272727272727575757D
:184545007575757575757070707070707070747474747474740A0D00DD
:144BEA00021122334455FFFFFFFFFFFFC0A80164C0A8010185
:0620000002200902261275
:0320620002200653
:032006000228AC01
:20266E00AFF0AE83E58290014FF0EEA3F0EFA3F0900152E4F0A3F090014FE0FDA3E0FEA317
:20268E00E0FF8D028E038F048D138E148F1578007900C002C003C004E82513FAE93514FB33
:2026AE00AC158A828B838CF0124405F516D004D003D002E516700302281CC002C003C004D9
:2026CE00851617751800900154E517F0E518A3F0900152E0FBA3E0C454F0CBC4CB6BCB541F
:2026EE00F0CB6BFC900152EBF0ECA3F0C3E5179430E51864809480D004D003D002403F7489
:20270E0039951774808518F063F08095F0402FC002C003C004E51724D0F517E51834FFF514
:20272E0018900152E0FAA3E0FC900152E5172AF0E5183CA3F0D004D003D00202281490012A
:20274E0054E0F517A3E0F518C3E5179441E51864809480404E7446951774808518F063F04A
:20276E008095F0403EC005C006C007E82AFDE93BFE8C078D828E838FF01244057F0024C94C
:20278E00F517EF34FFF518900152E0FEA3E0FF900152E5172EF0E5183FA3F0D007D006D064
:2027AE00058063900154E0F517A3E0F518C3E5179461E51864809480404C74669517748013
:2027CE008518F063F08095F0403CC002C003C004E82DFAE93EFB8F048A828B838CF0124491
:2027EE00057C0024A9F517EC34FFF518900152E0FBA3E0FC900152E5172BF0E5183CA3F042
:20280E00D004D003D00208B80001090226A0900152E0FEA3E08E82F583227E007F00C007ED
:20282E00C0061237CDAC82D006D007BC0A02803ABC0D028035C3EE9409EF64809480502A22
:20284E008C037D008B828D83C007C006C0041237AED004D006D007EE2456F582EF3401F580
:20286E0083ECF00EBE00B70F80B4EE2456F582EF3401F583E4F0900156F5F012266EAE8234
:20288E00AF83C007C006745DC0E07445C0E012386C15811581D006D0078E828F8322D2906C
:2028AE007460C0E07445C0E07480C0E01239E315811581158112302A7479C0E07445C0E067
:2028CE007480C0E01239E31581158115817490C0E07445C0E07480C0E01239E3158115817B
:2028EE00158174A6C0E07445C0E07480C0E01239E315811581158174BBC0E07445C0E07401
:20290E0080C0E01239E315811581158174CFC0E07445C0E07480C0E01239E315811581155A
:20292E008174E9C0E07445C0E07480C0E01239E315811581158174FFC0E07445C0E07480CE
:20294E00C0E01239E31581158115817414C0E07446C0E07480C0E01239E3158115811581D3
:20296E007426C0E07446C0E07480C0E01239E31581158115817440C0E07446C0E07480C0CF
:20298E00E01239E31581158115817455C0E07446C0E07480C0E01239E3158115811581749E
:2029AE006EC0E07446C0E07480C0E01239E31581158115817486C0E07446C0E07480C0E095
:2029CE001239E31581158115811237CDAE828E057F008D828F83C0061237AE745DC0E074DE
:2029EE0045C0E07480C0E01239E3158115811581D006BE31005003022F04EE24BC500302F0
:202A0E002F04EE24CFFE240A83F582EE241783F583E47347AFAD7EE04B86A103040404046D
:202A2E00040404C3CCD22A2A2B2C2C2D2D2D2E2F2F2F2F2F2F2F2E2E2E74A5C0E07446C089
:202A4E00E07480C0E01239E3158115811581122828AE82C00674CAC0E07446C0E07480C0C0
:202A6E00E01239E3158115811581122828AD82C00574F7C0E07446C0E07480C0E01239E3FB
:202A8E00158115811581122828AC82D005D006900362EDF0900363ECF08E82122FCE02283E
:202AAE00C6741BC0E07447C0E07480C0E01239E3158115811581122828AE82AF83C007C0E9
:202ACE00067441C0E07447C0E07480C0E01239E3158115811581122828AC82AD83D006D048
:202AEE0007C007C006C005C004C006C007745FC0E07447C0E07480C0E01239E3E58124FB09
:202B0E00F581D004D005D006D0077A007B00C3EA9EEB64808FF063F08095F05063C004C0BE
:202B2E0005C007C006C005C004C003C002C002C0037482C0E07447C0E07480C0E01239E3AF
:202B4E00E58124FBF581D002D003D004D005EA2460F8EB3401F9C003C002C001C00012285F
:202B6E0028AC82D000D001D002D003D006D00788828983ECF00ABA00010BD005D004808E85
:202B8E0090037CECF0EDA3F090037E7460F07401A3F0E4A3F08E828F8312354A0228C67451
:202BAE008CC0E07447C0E07480C0E01239E3158115811581122828AE82AF83C007C0067437
:202BCE0041C0E07447C0E07480C0E01239E3158115811581122828AC82AD83D006D007902A
:202BEE000373ECF0EDA3F09003757460F07402A3F0E4A3F08E828F83C007C0061233A97498
:202C0E00B1C0E07447C0E07480C0E01239E3158115811581D006D0077C007D00C3EC9EED96
:202C2E0064808FF063F08095F040030228C6EC2460F582ED3402F583E0FB7A00C007C00634
:202C4E00C005C004C003C002C004C00574BEC0E07447C0E07480C0E01239E3E58124F9F568
:202C6E0081D004D005D006D0070CBC00AF0D80AC74D0C0E07447C0E07480C0E01239E315A9
:202C8E008115811581122828AE82C00674F9C0E07447C0E07480C0E01239E31581158115B6
:202CAE0081122828AD82D00690036BEEF08D82123144AF827E00C007C0067422C0E074487E
:202CCE00C0E07480C0E01239E3E58124FBF5810228C6743EC0E07448C0E07480C0E012390C
:202CEE00E3158115811581122828AE82C0067460C0E07448C0E07480C0E01239E31581158C
:202D0E00811581122828AD82AF83D006900368EDF0EFA3F08E82C007C0051230C1D005D057
:202D2E0007C005C0077482C0E07448C0E07480C0E01239E3E58124FBF5810228C6749BC084
:202D4E00E07448C0E07480C0E01239E31581158115811228281231B2AE82AF83C006C0075F
:202D6E0074C5C0E07448C0E07480C0E01239E3E58124FBF5810228C674DDC0E07448C0E016
:202D8E007480C0E01239E31581158115811230480228C674F5C0E07448C0E07480C0E0121C
:202DAE0039E3158115811581122828AE82C006741FC0E07449C0E07480C0E01239E31581E7
:202DCE0015811581122828AD82D006900366EDF08E82123053AF827E00C007C006743AC02D
:202DEE00E07449C0E07480C0E01239E3E58124FBF5810228C67479C0E07445C0E07480C041
:202E0E00E01239E31581158115817490C0E07445C0E07480C0E01239E315811581158174DF
:202E2E00A6C0E07445C0E07480C0E01239E315811581158174BBC0E07445C0E07480C0E0A5
:202E4E001239E315811581158174CFC0E07445C0E07480C0E01239E315811581158174E957
:202E6E00C0E07445C0E07480C0E01239E315811581158174FFC0E07445C0E07480C0E012B5
:202E8E0039E31581158115817414C0E07446C0E07480C0E01239E31581158115817426C0E6
:202EAE00E07446C0E07480C0E01239E31581158115810228C61236F61223B60228C61236F5
:202ECE00F60228C67456C0E07449C0E07480C0E01239E3158115811581C2907E007F00C3A1
:202EEE00EE9470EF6480949750070EBE00F10F80EED2900228C67489C0E07449C0E0748003
:0E2F0E00C0E01239E31581158115810228C635
:20455D000A0D00535049204F7065726174696F6E73206F6E20383035310A0D000A0D436833
:20457D006F6F736520616E20616374696F6E3A200A0D0031202D2D3E20436F6E74726F6C80
:20459D002057726974650A0D0032202D2D3E204275666665722057726974650A0D003320C3
:2045BD002D2D3E2042756666657220526561640A0D0034202D2D3E204D4143205265676995
:2045DD007374657220526561640A0D0035202D2D3E20504859205350492057726974650A0E
:2045FD000D0036202D2D3E205048592053504920526561640A0D0037202D2D3E20454E43EE
:20461D002052657365740A0D0038202D2D3E20526561642045544820526567697374657251
:20463D000A0D0039202D2D3E20446973706C6179204D656E750A0D0041202D2D3E205365C2
:20465D006E642041525020526571756573740A0D0042202D2D3E20496E697420525820624E
:20467D007566666572730A0D0043202D2D3E2048617264205265736574286E5245534554A5
:20469D002070696E290A0D00456E746572207468652072656769737465722062616E6B2096
:2046BD00746F2073656C6563743A0A0D00456E746572207468652061646472657373206F15
:2046DD00662074686520436F6E74726F6C2052656769737465723A0A0D00456E7465722021
:2046FD00746865206461746120796F752077616E7420746F2077726974653A0A0D00456EF9
:20471D0074657220746865206E756D626572206F6620627974657320746F2077726974659D
:20473D003A0A0D00456E74657220746865207374617274696E6720616464726573733A0AD6
:20475D000D00456E746572202564206279746573206F6620646174612028696E206865780E
:20477D00293A0A0D00427974652025643A2000456E74657220746865206E756D62657220E3
:20479D006F6620627974657320746F20726561643A0A0D005265616420446174613A0A0D69
:2047BD0000427974652025643A203078253032580A0D00456E74657220746865204D414357
:2047DD002072656769737465722062616E6B20746F2073656C6563743A0A0D00456E7465FB
:2047FD0072207468652061646472657373206F6620746865204D4143205265676973746589
:20481D00723A0A0D004D414320526567697374657220446174613A203078253032580A0DF0
:20483D0000456E746572207468652050485920726567697374657220616464726573733A26
:20485D000A0D00456E746572207468652031362D626974206461746120746F20777269742F
:20487D00653A0A0D0050485920577269746520446174613A203078253034580A0D00456E02
:20489D007465722074686520504859207265676973746572206164647265737320746F2090
:2048BD00726561643A0A0D00504859205265616420446174613A203078253034580A0D00CD
:2048DD00526573657474696E6720454E4332384A36302E2E2E0A0D00456E7465722074685B
:2048FD006520455448207265676973746572206164647265737320746F20726561643A0AA7
:20491D000D00456E746572207468652062616E6B202830206F722031293A0A0D004554482D
:20493D0020526567697374657220446174613A203078253032580A0D0020526573657474CC
:20495D00696E6720454E43207573696E672052455345542070696E20696E204861726477A9
:20497D006172652850315F30290A0D00496E76616C6964206F7074696F6E2E20506C65611A
:1C499D0073652073656C65637420612076616C696420616374696F6E2E0A0D00F2
:202F1C0075825F123039758202123039758254123039758214123039758256123039758245
:202F3C000012303975825712303975820A02303922C29175825F123039758202123039D239
:202F5C0091C291758254123039758214123039D291C2917582561230397582A8123039D2BB
:132F7C0091C29175825712303975823A123039D291222242
:202F8F0075C5FFE5C430E7FB900360E5C5F0E0F58222C29175825E12303975828012303913
:202FAF00D29122E582900361F0C29175825F123039900361E02404F582123039D29122E5B6
:202FCF0082900364F0900362E02440F0900364E0F582122FB2C291900362E0FFF582C007AA
:202FEF00123039D007900363E0FEF582C007C006123039D006D007D2917D007C00C006C08E
:20300F0005C007C00474B9C0E07449C0E07480C0E01239E3E58124F9F58122D29175C3006F
:20302F0043C32043C31043C34022E582900365F0E0F5C5E5C430E7FB22C2917582FF12308C
:20304F0039D29122E582900367F0E0FF24E0501974DEC0E07449C0E07480C0E01239E315E0
:20306F00811581158175820022900366E0F582C007122FB2D007C2918F82C00712303912E2
:20308F002F8FAE82D007D2918E047D007B00C006C004C005C007C0037418C0E0744AC0E00C
:2030AF007480C0E01239E3E58124F9F581D0068E8222E58290036AF0E0FF9003627414F09E
:2030CF00900363EFF0758202C007122FCED007900368E0FDA3E0FE8D049003627416F0907D
:2030EF000363ECF0758202C007C006C005122FCED005D006D0078E049003627417F090030E
:20310F0063ECF0758202C007C006C005122FCED005D006D0077C00C005C006C007C004747F
:20312F003CC0E0744AC0E07480C0E01239E3E58124F9F58122E58290036CF0E0FF24E050E0
:20314F001974DEC0E07449C0E07480C0E01239E31581158115817582002290036BE0F58206
:20316F00C007122FB2D007C2918F82C007123039122F8FAE82D007D2918E047D007B00C085
:20318F0006C004C005C007C0037465C0E0744AC0E07480C0E01239E3E58124F9F581D0069F
:2031AF008E8222E58290036DF0E0FF9003627414F0900363EFF0758202C007122FCED007B0
:2031CF009003627412F09003637401F0758202C007122FCE12325FD0079003627412F090D6
:2031EF000363E4F0758202C007122FCED00790036B7402F0758218C007123144AE82D00718
:20320F007D0090036B7402F0758219C007C006C005123144AC82D005D006D0078C03E44270
:20322F0006EB42057C00C006C005C006C005C007C0047488C0E0744AC0E07480C0E0123951
:20324F00E3E58124F9F581D005D0068E828D832290036B7403F075820A123144E5829003AF
:20326F006EF090036EE030E01490036B7403F075820A123144E58290036EF080E522AF83DE
:20328F00E582900371F0EFA3F0900371E0FEA3E0FF8E048F05C374FF9C741F9D40179003CC
:2032AF006FE0FAA3E0FBEA2EF8EB3FF9C374FF98741F99502A90036FE0C0E0A3E0C0E0905C
:2032CF000371E0C0E0A3E0C0E074B0C0E0744AC0E07480C0E01239E3E58124F9F581225376
:2032EF0004FEEA2EFEEB3FFF1EBEFF011F5306FE8D039003627408F0900363EBF075820073
:20330F00C007C006C005C004122FCED004D005D006D0078C039003627409F0900363EBF061
:20332F00758200C007C006C005C004122FCED004D005D006D0078F03900362740AF0900384
:20334F0063EBF0758200C007C006C005C004122FCED004D005D006D0078E03900362740BA9
:20336F00F0900363EBF0758200C007C006C005C004122FCED004D005D006D007C006C0077E
:20338F00C004C00574EEC0E0744AC0E07480C0E01239E3E58124F9F58122AF83E58290032C
:2033AF0078F0EFA3F0900378E0FEA3E0FFC3EE9401EF64809480501AC006C007741FC0E052
:2033CF00744BC0E07480C0E01239E3E58124FBF58122900373E0FCA3E0FD8C028D03C374E9
:2033EF00FF9A741F9B501AC004C005743FC0E0744BC0E07480C0E01239E3E58124FBF58195
:20340F0022C374019E74808FF063F08095F0500BC005C004122FA1D004D0058D078C0690B5
:20342F0003627401F0900363EFF0758200C006C005C004122FCED004D005D006900362E431
:20344F00F0900363EEF0758200C005C004122FCEC29175823A123039D004D005900378E077
:20346F00FEA3E0FFC007C006C004C005C006C0077459C0E0744BC0E07480C0E01239E3E5A7
:20348F008124F9F581D006D00790037AE4F0A3F0900375E0FBA3E0FCA3E0FD90037AE0F920
:2034AF00A3E0FAC3E99EEA64808FF063F08095F04003023547C006C007C007C006C005C031
:2034CF0004C003C002C001122F8FA882D001D002D003D004D005D006D0078B828C838DF034
:2034EF00E8123851A3AB82AC837F0009B900010AC007C006C005C004C003C002C001C000D3
:20350F00C007C001C0027494C0E0744BC0E07480C0E01239E3E58124F9F581D001D002D01D
:20352F0003D004D005D006D00790037AE9F0EAA3F0D007D0060234AAD29122AF83E5829085
:20354F000381F0EFA3F0900381E0FEA3E0FFC3EE9401EF64809480501AC006C007741FC07B
:20356F00E0744BC0E07480C0E01239E3E58124FBF5812290037CE0FCA3E0FD8C028D03C3D2
:20358F0074FF9A741F9B501AC004C005743FC0E0744BC0E07480C0E01239E3E58124FBF500
:2035AF008122C374019E74808FF063F08095F0500BC005C004122FA1D004D0058D078C0623
:2035CF009003627403F0900363EFF0758200C006C005C004122FCED004D005D006900362E2
:2035EF007402F0900363EEF0758200C005C004122FCEC29175827A123039D004D005900378
:20360F0081E0FEA3E0FFC007C006C004C005C006C00774A6C0E0744BC0E07480C0E012391F
:20362F00E3E58124F9F581D006D007900383E4F0A3F090037EE0FBA3E0FCA3E0FD90038374
:20364F00E0F9A3E0FAC3E99EEA64808FF063F08095F040030236F3C006C0078B828C838D72
:20366F00F0124405F87F0009B900010AC007C006C005C004C003C002C001C000C007C00108
:20368F00C0027494C0E0744BC0E07480C0E01239E3E58124F9F581D001D002D003D004D07D
:2036AF0005D006D0078B828C838DF0124405FFA3AB82AC838F82C007C006C005C004C0036D
:2036CF00C002C001123039D001D002D003D004D005D006D007900383E9F0EAA3F0D007D0FE
:2036EF000602364CD291229003627418F09003637441F0758201122FCE90010674FFF0E4BB
:20370F00A3F0900000122171D288D2A8D2AF9003627402F09003637470F0758202122FCE51
:20372F009003627403F09003637440F0758202122FCE900362740AF090036374EEF07582DA
:20374F0002122FCE900362740BF09003637405F0758202122FCE9003627404F090036374B7
:20376F0012F0758202122FCE9003627406F09003637412F0758202122FCE9003627407F0FD
:1F378F00900363740CF0758202122FCE900362741BF090036374C0F0758200022FCE2207
:2049B90057726974653A2041646472657373203078253032582C2044617461203078253029
:2049D90032580A0D000A0D496E76616C696420616464726573733A204D4143207265676947
:2049F9007374657220616464726573732072616E6765205B302C20307831465D0A0D0052D1
:204A19006561643A2041646472657373203078253032582C2044617461203078253032581F
:204A39000A0D005048592057726974653A2041646472657373203078253032582C20446172
:204A59007461203078253034580A0D00526561643A20416464726573732030782530325865
:204A79002C2044617461203078253032580A0050485920526561643A2041646472657373F9
:204A9900203078253032582C2044617461203078253034580A0D000A0D496E76616C6964F2
:204AB900204275666665722041646472657373206F722053697A653A205374617274203009
:204AD90078253034582C2053697A65203078253034580A0D000A0D42756666657220496E75
:204AF900697469616C697A65643A205374617274203078253034582C20456E64203078257D
:204B19003034580A0D000A0D496E76616C6964206E756D626572206F662062797465733AAC
:204B39002025640A0D000A0D496E76616C696420616464726573733A20253034580A0D0066
:204B590052656164696E672025642062797465732066726F6D2062756666657220737461BC
:204B79007274696E672061742061646472657373203078253034583A0A0D0042797465204F
:204B990025643A203078253032580A0D0057726974696E6720256420627974657320746FA4
:204BB90020627566666572207374617274696E67206174206164647265737320307825309E
:064BD90034583A0A0D00F9
:2037AE00AF83E582900385F0EFA3F03099FD900385E0FEA3E0FF8E99C2998E828F832210C4
:2037CE00980280FBAE997F008E828F8322AFF0AE83E582900387F0EEA3F0EFA3F09003875E
:2037EE00E0FDA3E0FEA3E0FF7B007C008D828E838FF0124405FA60360DBD00010E90038767
:20380E00EDF0EEA3F0EFA3F08A017A0089828A83C007C006C005C004C0031237AED003D02A
:20382E0004D005D006D0070BBB00C10C80BE900387EDF0EEA3F0EFA3F00BBB00010C8B8249
:03384E008C832246
:06203800E478FFF6D8FD7C
:202016007914E94400601B7A01904BEA78C475A003E493F2A308B8000205A0D9F4DAF27560
:02203600A0FF09
:1B38510020F71130F6138883A88220F509F6A8837583002280FEF280F5F02276
:20386C00C008858108E50824FDF8868318868218E493A324DB600C2425600512395A80F0D7
:20388C00023972D2D5E493A3C083C082B4731486F0188683188682181244056054A3123922
:2038AC005A80F5B4630818E61812395A8043B46417E630E74618E6F42401F608E6F43400FB
:2038CC00F6742D12395A8033B4782D868318868218E412394BE58312394AE58312394BE5F9
:2038EC008212394AE58212394B30D505743012395AD082D08302387CB475F6E6FA18E6F904
:20390C00187C107D27123935FF7CE87D03123935C4F5837C647D001239354283E975F00A3A
:20392C0084C445F0F582EF80A97B000BC3E99CF9EA9DFA50F61BE92CF9EA3DFAEB22C45472
:20394C000F700320D51FC2D52490D43440D4C083C082C0F0F582E8C0E01237AED0E0F8D0BB
:09396C00F0D082D08322D00822A1
:20397500AA83AB828BF090038BE0A4F8A9F08AF0E0A429F98BF0A3E0A429F5838882222279
:20203E007800E84400600A790075A001E4F309D8FC78C4E84402600C7903900100E4F0A3D7
:04205E00D8FCD9FAD7
:20399500C0088581087E008E831237AED00822AFF0AE83E58290038EF0EEA3F0EFA3F090E1
:2039B500038EE0FDA3E0FEA3E0FF90038DE0FC9003A2E4F0A3F0A3F09003A5EDF0EEA3F0C0
:2039D500EFA3F09003A8ECF0903995023AE9C008E581F50824FBFF9003A2E4F0A3F0A3F03E
:2039F500E50824FBF89003A5E6F008E6A3F008E6A3F09003A8EFF0903995123AE9D00822F7
:203A1500E58290039EF0E0FF900394E0C0E0A3E0C0E0A3E0C0E0123A30800D900392E0C06F
:203A3500E0A3E0C0E08F822215811581158190039CE02401F0A3E03400F022E58290039FF3
:203A5500F0E02430FF24C6500D74072FFF900391E060034307208F82023A15E5829003A071
:203A7500F0E0FFC4540FF582C007123A50D00753070F8F82023A50E5829003A1F0900397CF
:203A9500E0FCA3E0FDA3E0FEA3E0FF90039BE0FB9003A1E0FA79208B00E828F513EF2354F9
:203AB500014513FBEC2CFCED33FDEE33FEEF33FFC3EB9A4007EBC39AFB43040119E970D7C9
:203AD500900397ECF0EDA3F0EEA3F0EFA3F090039BEBF022AF83E5829003A9F0EFA3F09046
:203AF50003A9E0FEA3E0FF900392EEF0EFA3F09003A2E0FDA3E0FEA3E0FF900394EDF0EE19
:203B1500A3F0EFA3F090039CE4F0A3F09003A5E0FDA3E0FEA3E0FF8D828E838FF0124405D3
:203B3500FC9003A574012DF0E43EA3F0EFA3F0EC70030243E1BC250280030243D99003AB2C
:203B5500E4F09003ACF09003ADF09003AEF09003AFF09003B0F09003B1F09003B2F090038B
:203B7500B4F09003B5F0A3F09003B714F0A3F09003A5E0FDA3E0FEA3E0FF8D828E838FF029
:203B9500124405FBA3AD82AE839003A5EDF0EEA3F0EFA3F09003BBEBF0BB25088B82123A35
:203BB50015023B21BB30005003023C82EB24C65003023C829003B7E0F509A3E0F50A74FF7A
:203BD500B50963B50A60C005C006C0079003B5E0FAA3E0FF90038BEAF0EFA3F090000AC0C6
:203BF50005C003123975AE82AF83D003D0058B057A00ED2EFEEA3FFFEE24D0FEEF34FFFFD2
:203C15009003B5EEF0EFA3F0D007D006D0059003B5E0F5F0A3E045F06003023B8F9003AC32
:203C35007401F0023B8FC005C006C00790038BE509F0E50AA3F090000AC006C005C0031274
:203C55003975AA82AF83D003D005D0067E00EB2AFAEE3FFFEA24D0FAEF34FFFF9003B7EADF
:203C7500F0EFA3F0D007D006D005023B8F9003BBE0FBBB2E2FC005C006C0079003B7E0FAB8
:203C9500A3E0FFBAFF05BFFF028009D007D006D005023B8FD007D006D0059003B7E4F0A3F5
:203CB500F0023B8FBB61004014EB2485400F9003BB74DF5BF09003917401F08005900391C2
:203CD500E4F09003BBE0FBBB20028075BB2B028067BB2D028059BB4202806FBB4302807C84
:203CF500BB4403023F79BB4603023F9FBB4803023B8FBB4903023F79BB4A03023B8FBB4CA1
:203D1500028050BB4F03023F87BB5003023EE7BB53028077BB5403023B8FBB5503023F8FEA
:203D3500BB5803023F97BB5A03023B8F023FA79003AB7401F0023B8F9003AD7401F0023B63
:203D55008F9003AE7401F0023B8F9003B07401F0023B8F9003B17401F0023B8F9003B0E041
:203D7500600E9003A8E014F9F09003BBE7F0800F9003A8E024FEFFF08F019003BBE7F09083
:203D950003BBE0F582123A15023FB69003A8E024FDFFF08F0187050987060987071919906B
:203DB5000397EDF0EEA3F0EFA3F08D828E838FF01243ED85820985830A9003B7E0FAA3E0CA
:203DD500FDBAFF0DBDFF0A9003B7E509F0E50AA3F09003ABE0704B9003B5E0FAA3E0FDC35D
:203DF500E5099AE50A9D503A9003B5EAC39509F0ED950AA3F09003B5E0FAA3E0FD8A068DAF
:203E1500071ABAFF011DEE4F6010758220C005C002123A15D002D00580E39003B5EAF0EDD0
:203E3500A3F09003B7E0F50CA3E0F50D900397E0FAA3E0FDA3E0FF8A828D838FF01244052E
:203E5500F50B603CC3E4950C7480850DF063F08095F0502C150C74FFB50C02150D850B8294
:203E7500123A15900397E0FAA3E0FDA3E0FF0ABA00010D900397EAF0EDA3F0EFA3F080ACC2
:203E95009003ABE07003023FB69003B5E0FEA3E0FFC3E5099EE50A9F4003023FB69003B57E
:203EB500EEC39509F0EF950AA3F09003B5E0FEA3E0FF8E028F051EBEFF011FEA4D7003021A
:203ED5003FAE758220C007C006123A15D006D00780E09003A8E024FDFDF08D01870E0987F2
:203EF5000F0987101919900397E50EF0E50FA3F0E510A3F0900399E0FDBD8000400890038F
:203F1500BB7443F08020BD600040089003BB7450F08013BD400040089003BB7449F08006CA
:203F35009003BB7458F09003BBE0FDF582C005123A1575823A123A15758230123A15758289
:203F550078123A15D005BD4902800EBD50028009900398E0F582123A70900397E0F582129F
:203F75003A70803D9003AF7401F09003B4740AF0802F9003B47408F080279003B4740AF0AB
:203F9500801F9003B47410F080179003B27401F0800F8B82123A1580089003B5EEF0EFA334
:203FB500F09003B2E060719003A8E024FCFFF08F0187030987050987060987071919199025
:203FD5000397EBF0EDA3F0EEA3F0EFA3F090039774DFF0744BA3F07480A3F0900397E0F58F
:203FF5000EA3E0F50FA3E0F5107401250EFAE4350FFBAF10900397EAF0EBA3F0EFA3F08582
:204015000E82850F838510F0124405FF7003023B218F82123A1580C39003B4E07003023BA8
:20403500219003B0E060479003A8E014F9F087077E007D007B00900397EFF0EEA3F0EDA34A
:20405500F0EBA3F09003AFE060030240F9900397E0FBA3E0A3E0A3E07D007E007F00900382
:2040750097EBF0EDA3F0EEA3F0EFA3F080769003B1E060289003A8E024FCFFF08F01870350
:20409500098705098706098707191919900397EBF0EDA3F0EEA3F0EFA3F080489003A8E093
:2040B50024FEFFF08F01870609870719EF3395E0FDFB900397EEF0EFA3F0EDA3F0EBA3F0F6
:2040D5009003AFE0701E900397E0FBA3E0FDA3E0A3E07E007F00900397EBF0EDA3F0EEA37D
:2040F500F0EFA3F09003AFE0603D900397E0A3E0A3E0A3E030E72B900397E0FBA3E0FDA37D
:20411500E0FEA3E0FFC3E49BFBE49DFDE49EFEE49FFF900397EBF0EDA3F0EEA3F0EFA3F0E5
:2041350080059003AFE4F09003B37401F09003B4E0F50C7511C1751203E4F509F50A9003B7
:204155009BE4F0850C82123A8C9003B3E0703390039BE0C454F0F50E90039BE0C4540F4594
:204175000EF50E851182851283E0FFE50E4207851182851283EFF0151174FFB51102151233
:20419500800B90039BE0851182851283F00509E4B50902050A9003B3E0B40100E433F0901C
:2041B5000397E0FAA3E0FBA3E0FEA3E0FFEA4B4E4F708B9003C2E511F0E512A3F09003B917
:2041D500E509F0E50AA3F09003B5E0F5F0A3E045F070099003B57401F0E4A3F09003ACE0E9
:2041F500FFE070479003ABE07041850911850A129003B5E0FAA3E0FBC007AF110F8F067FBB
:2042150000C3EE9AEF9BD0075019758220C007C003C002123A15D002D003D0071ABAFF0160
:204235001B80D59003B5EAF0EBA3F09003AFE0602075822DC007123A15D0079003B5E02448
:20425500FFFDA3E034FFFE9003B5EDF0EEA3F080569003B9E0F5F0A3E045F0604A9003AD6A
:20427500E0602075822BC007123A15D0079003B5E024FFFDA3E034FFFE9003B5EDF0EEA3F6
:20429500F080249003AEE0601E758220C007123A15D0079003B5E024FFFDA3E034FFFE9034
:2042B50003B5EDF0EEA3F09003ABE070449003B9E0F511A3E0F5129003B5E0FAA3E0FBC0E5
:2042D500078A068B071ABAFF011BC3E5119EE5129FD007504FEF60047E3080027E208E821D
:2042F500C007C003C002123A15D002D003D00780CE9003B5E0FEA3E0FF9003B9E0F511A3B5
:20431500E0F512C3E5119EE5129F500F9003B5EEC39511F0EF9512A3F080119003B5E4F0F0
:20433500A3F080089003B5EAF0EBA3F09003C2E0FEA3E0FF9003B9E0F511A3E0F512AA1181
:20435500AD12151174FFB511021512EA4D60449003B3E0B40100E433F09003B3E070130E8D
:20437500BE00010F8E828F83E0C4540F90039BF0800E8E828F83E0FD53050F90039BEDF014
:2043950090039BE0F582C007C006123A50D006D00780AB9003ABE07003023B219003B5E06B
:2043B500FEA3E0FF8E038F051EBEFF011FEB4D7003023B21758220C007C006123A15D00664
:1843D500D00780E08C82123A15023B2190039CE0FEA3E08E82F5832292
:0B4BDF003C4E4F20464C4F41543E001E
:1843ED00AA82AB831244056003A380F8C3E5829AF582E5839BF58322AD
:0D200900758121124421E58260030220064A
:1C44050020F71430F6148883A88220F507E6A88375830022E280F7E49322E022C6
:04442100758200227E
:00000001FF
