:03200000022006B5
:03205F0002200359
:032003000222A016
:10206200AFF0AE83E582900100F0EEA3F0EFA3F0B3
:10207200900103E4F0A3F0900100E0FDA3E0FEA3D1
:10208200E0FF8D028E038F048D138E148F1578005E
:102092007900C002C003C004E82513FAE93514FB35
:1020A200AC158A828B838CF0123CFBF516D004D0DF
:1020B20003D002E5167003022210C002C003C0045E
:1020C200851617751800900105E517F0E518A3F0BD
:1020D200900103E0FBA3E0C454F0CBC4CB6BCB5420
:1020E200F0CB6BFC900103EBF0ECA3F0C3E517948B
:1020F20030E51864809480D004D003D002403F744D
:1021020039951774808518F063F08095F0402FC0E0
:1021120002C003C004E51724D0F517E51834FFF513
:1021220018900103E0FAA3E0FC900103E5172AF0FE
:10213200E5183CA3F0D004D003D00202220890019B
:1021420005E0F517A3E0F518C3E5179441E5186417
:10215200809480404E7446951774808518F063F021
:102162008095F0403EC005C006C007E82AFDE93B65
:10217200FE8C078D828E838FF0123CFB7F0024C978
:10218200F517EF34FFF518900103E0FEA3E0FF908E
:102192000103E5172EF0E5183FA3F0D007D006D0D3
:1021A200058063900105E0F517A3E0F518C3E51774
:1021B2009461E51864809480404C7466951774802D
:1021C2008518F063F08095F0403CC002C003C00463
:1021D200E82DFAE93EFB8F048A828B838CF0123C55
:1021E200FB7C0024A9F517EC34FFF518900103E0FD
:1021F200FBA3E0FC900103E5172BF0E5183CA3F0EC
:10220200D004D003D00208B8000109022094900142
:1022120003E0FEA3E08E82F583227E007F00C007EA
:10222200C0061230C3AC82D006D007BC0A02803A84
:10223200BC0D028035C3EE9409EF64809480502A6D
:102242008C037D008B828D83C007C006C0041230D0
:10225200A4D004D006D007EE2407F582EF3401F5AE
:1022620083ECF00EBE00B70F80B4EE2407F582EFC8
:102272003401F583E4F0900107F5F0122062AE829A
:10228200AF83C007C006741BC0E0743DC0E01231CA
:102292006215811581D006D0078E828F8322741E2B
:1022A200C0E0743DC0E07480C0E01232B9158115FF
:1022B2008115811229867437C0E0743DC0E07480B4
:1022C200C0E01232B9158115811581744EC0E074D7
:1022D2003DC0E07480C0E01232B9158115811581CC
:1022E2007464C0E0743DC0E07480C0E01232B9157D
:1022F20081158115817479C0E0743DC0E07480C09D
:10230200E01232B9158115811581748DC0E0743DDA
:10231200C0E07480C0E01232B91581158115817454
:10232200A7C0E0743DC0E07480C0E01232B91581EC
:102332001581158174BDC0E0743DC0E07480C0E0B9
:102342001232B915811581158174D2C0E0743DC075
:10235200E07480C0E01232B915811581158174E4F0
:10236200C0E0743DC0E07480C0E01232B91581153E
:1023720081158174FEC0E0743DC0E07480C0E0123B
:1023820032B91581158115811230C3AE828E057F57
:10239200008D828F83C0061230A4741BC0E0743D8E
:1023A200C0E07480C0E01232B9158115811581D068
:1023B20006BE31005003022862EE24C650030228F2
:1023C20062EE24CFFE240A83F582EE240D83F58388
:1023D200E473E64E4C1D7FEA2540A22324252626DF
:1023E200262727277413C0E0743EC0E07480C0E043
:1023F2001232B915811581158112221CAE82C006D6
:102402007438C0E0743EC0E07480C0E01232B91586
:10241200811581158112221CAD82C0057465C0E050
:10242200743EC0E07480C0E01232B9158115811586
:102432008112221CAC82D005D006900313EDF090DD
:102442000314ECF08E8212292A0222B87489C0E0A9
:10245200743EC0E07480C0E01232B9158115811556
:102462008112221CAE82AF83C007C00674AFC0E0E7
:10247200743EC0E07480C0E01232B9158115811536
:102482008112221CAC82AD83D006D007C007C006E1
:10249200C005C004C006C00774CDC0E0743EC0E0F1
:1024A2007480C0E01232B9E58124FBF581D004D0FA
:1024B20005D006D0077A007B00C3EA9EEB64808FCA
:1024C200F063F08095F05063C004C005C007C006F9
:1024D200C005C004C003C002C002C00374F0C0E063
:1024E200743EC0E07480C0E01232B9E58124FBF58D
:1024F20081D002D003D004D005EA2411F8EB3401D4
:10250200F9C003C002C001C00012221CAC82D0007C
:10251200D001D002D003D006D00788828983ECF0A4
:102522000ABA00010BD005D004808E90032DECF086
:10253200EDA3F090032F7411F07401A3F0E4A3F063
:102542008E828F83122ED50222B874FAC0E0743EB6
:10255200C0E07480C0E01232B91581158115811274
:10256200221CAE82AF83C007C00674AFC0E0743EC7
:10257200C0E07480C0E01232B91581158115811254
:10258200221CAC82AD83D006D007900324ECF0ED80
:10259200A3F09003267411F07402A3F0E4A3F08E6A
:1025A200828F83C007C006122D05741FC0E0743FDE
:1025B200C0E07480C0E01232B9158115811581D056
:1025C20006D0077C007D00C3EC9EED64808FF06333
:1025D200F08095F040030222B8EC2411F582ED342C
:1025E20002F583E0FB7A00C007C006C005C004C044
:1025F20003C002C004C005742CC0E0743FC0E07484
:1026020080C0E01232B9E58124F9F581D004D00509
:10261200D006D0070CBC00AF0D80AC743EC0E07495
:102622003FC0E07480C0E01232B915811581158176
:1026320012221CAE82C0067467C0E0743FC0E07410
:1026420080C0E01232B915811581158112221CADAC
:1026520082D00690031CEEF08D82122AA0AF827EF9
:1026620000C007C0067490C0E0743FC0E07480C030
:10267200E01232B9E58124FBF5810222B874ACC0C4
:10268200E0743FC0E07480C0E01232B91581158158
:10269200158112221CAE82C00674CEC0E0743FC007
:1026A200E07480C0E01232B91581158115811222C1
:1026B2001CAD82AF83D006900319EDF0EFA3F08E2C
:1026C20082C007C005122A1DD005D007C005C00769
:1026D20074F0C0E0743FC0E07480C0E01232B9E52B
:1026E2008124FBF5810222B87409C0E07440C0E085
:1026F2007480C0E01232B915811581158112221C35
:10270200122B0EAE82AF83C006C0077433C0E074D2
:1027120040C0E07480C0E01232B9E58124FBF5814B
:102722000222B8744BC0E07440C0E07480C0E01272
:1027320032B91581158115811229A40222B8746358
:10274200C0E07440C0E07480C0E01232B915811557
:1027520081158112221CAE82C006748DC0E07440C5
:10276200C0E07480C0E01232B91581158115811262
:10277200221CAD82D006900317EDF08E821229AF93
:10278200AF827E00C007C00674A8C0E07440C0E0FB
:102792007480C0E01232B9E58124FBF5810222B8CF
:1027A2007437C0E0743DC0E07480C0E01232B915E5
:1027B2008115811581744EC0E0743DC0E07480C003
:1027C200E01232B91581158115817464C0E0743D3F
:1027D200C0E07480C0E01232B91581158115817490
:1027E20079C0E0743DC0E07480C0E01232B9158156
:1027F20015811581748DC0E0743DC0E07480C0E025
:102802001232B915811581158174A7C0E0743DC0DB
:10281200E07480C0E01232B915811581158174BD52
:10282200C0E0743DC0E07480C0E01232B915811579
:1028320081158174D2C0E0743DC0E07480C0E012A2
:1028420032B915811581158174E4C0E0743DC0E090
:102852007480C0E01232B91581158115810222B847
:1028620074C4C0E07440C0E07480C0E01232B91594
:0828720081158115810222B8D5
:103D1B000A0D00535049204F7065726174696F6EC4
:103D2B0073206F6E20383035310A0D000A0D436851
:103D3B006F6F736520616E20616374696F6E3A20DB
:103D4B000A0D0031202D2D3E20436F6E74726F6C67
:103D5B002057726974650A0D0032202D2D3E2042CA
:103D6B0075666665722057726974650A0D0033209B
:103D7B002D2D3E2042756666657220526561640A80
:103D8B000D0034202D2D3E204D4143205265676997
:103D9B007374657220526561640A0D0035202D2DF8
:103DAB003E20504859205350492057726974650A78
:103DBB000D0036202D2D3E205048592053504920C0
:103DCB00526561640A0D0037202D2D3E20454E4370
:103DDB002052657365740A0D0038202D2D3E20523C
:103DEB006561642045544820526567697374657238
:103DFB000A0D0039202D2D3E20446973706C6179BA
:103E0B00204D656E750A0D00456E746572207468E1
:103E1B00652072656769737465722062616E6B20D1
:103E2B00746F2073656C6563743A0A0D00456E748C
:103E3B006572207468652061646472657373206FAA
:103E4B00662074686520436F6E74726F6C205265C8
:103E5B006769737465723A0A0D00456E746572205A
:103E6B00746865206461746120796F752077616E69
:103E7B007420746F2077726974653A0A0D00456E71
:103E8B0074657220746865206E756D626572206F43
:103E9B006620627974657320746F2077726974651C
:103EAB003A0A0D00456E7465722074686520737450
:103EBB00617274696E6720616464726573733A0A28
:103ECB000D00456E746572202564206279746573EC
:103EDB00206F6620646174612028696E20686578A4
:103EEB00293A0A0D00427974652025643A20004571
:103EFB006E74657220746865206E756D62657220D4
:103F0B006F6620627974657320746F2072656164CB
:103F1B003A0A0D005265616420446174613A0A0DDE
:103F2B0000427974652025643A2030782530325868
:103F3B000A0D00456E74657220746865204D41430F
:103F4B002072656769737465722062616E6B207491
:103F5B006F2073656C6563743A0A0D00456E74656A
:103F6B0072207468652061646472657373206F6678
:103F7B0020746865204D41432052656769737465F1
:103F8B00723A0A0D004D414320526567697374659F
:103F9B007220446174613A203078253032580A0D12
:103FAB0000456E7465722074686520504859207204
:103FBB006567697374657220616464726573733AC3
:103FCB000A0D00456E746572207468652031362DBC
:103FDB00626974206461746120746F2077726974F4
:103FEB00653A0A0D00504859205772697465204490
:103FFB006174613A203078253034580A0D00456ED3
:10400B007465722074686520504859207265676921
:10401B0073746572206164647265737320746F20AE
:10402B00726561643A0A0D0050485920526561640B
:10403B0020446174613A203078253034580A0D00E1
:10404B00526573657474696E6720454E4332384A06
:10405B0036302E2E2E0A0D00456E74657220746854
:10406B0065204554482072656769737465722061D9
:10407B0064647265737320746F20726561643A0AAD
:10408B000D00456E746572207468652062616E6BFD
:10409B00202830206F722031293A0A0D00455448F0
:1040AB0020526567697374657220446174613A20AC
:1040BB003078253032580A0D00496E76616C696490
:1040CB00206F7074696F6E2E20506C656173652064
:1040DB0073656C65637420612076616C6964206123
:0940EB006374696F6E2E0A0D006A
:10287A0075825F1229957582021229957582541202
:10288A002995758214122995758256122995758291
:10289A000012299575825712299575820A0229957F
:1028AA0022C29175825F122995758202122995D2E8
:1028BA0091C291758254122995758214122995D262
:1028CA0091C2917582561229957582A8122995D2BC
:1028DA0091C29175825712299575823A122995D219
:1028EA0091222275C5FFE5C430E7FB900311E5C5C7
:1028FA00F0E0F58222C29175825E12299575828076
:10290A00122995D29122E582900312F0C291758222
:10291A005F122995900312E0F582122995D291222D
:10292A00E582900315F0900313E02440F09003151C
:10293A00E0F582122910C291900313E0FFF582C0DC
:10294A0007122995D007900314E0FEF582C007C04C
:10295A0006122995D006D007D2917D007C00C006C8
:10296A00C005C007C00474F4C0E07440C0E07480BD
:10297A00C0E01232B9E58124F9F58122D29175C3FA
:10298A000043C32043C31043C34022E58290031689
:10299A00F0E0F5C5E5C430E7FB22C2917582FF126B
:1029AA002995D29122E582900318F0E0FF24E050A5
:1029BA00197419C0E07441C0E07480C0E01232B9E1
:1029CA0015811581158175820022900317E0F58221
:1029DA00C007122910D007C2918F82C00712299509
:1029EA001228EDAE82D007D2918E047D007B00C002
:1029FA0006C004C005C007C0037453C0E07441C0D8
:102A0A00E07480C0E01232B9E58124F9F581D0067C
:102A1A008E8222E58290031BF0E0FF900313741468
:102A2A00F0900314EFF0758202C00712292AD0072A
:102A3A00900319E0FDA3E0FE8D049003137416F0D1
:102A4A00900314ECF0758202C007C006C005122973
:102A5A002AD005D006D0078E049003137417F0907D
:102A6A000314ECF0758202C007C006C00512292AB9
:102A7A00D005D006D0077C00C005C006C007C00438
:102A8A007477C0E07441C0E07480C0E01232B9E5E6
:102A9A008124F9F58122E58290031DF0E0FF24E00C
:102AAA0050197419C0E07441C0E07480C0E0123259
:102ABA00B91581158115817582002290031CE0F5F4
:102ACA0082C007122910D007C2918F82C00712292B
:102ADA00951228EDAE82D007D2918E047D007B003C
:102AEA00C006C004C005C007C00374A0C0E074419A
:102AFA00C0E07480C0E01232B9E58124F9F581D0D2
:102B0A00068E8222E58290031EF0E0FF9003137482
:102B1A0014F0900314EFF0758202C00712292AD02C
:102B2A00079003137412F09003147401F075820273
:102B3A00C00712292A122BBBD0079003137412F074
:102B4A00900314E4F0758202C00712292AD0079074
:102B5A00031C7402F0758218C007122AA0AE82D034
:102B6A00077D0090031C7402F0758219C007C00625
:102B7A00C005122AA0AC82D005D006D0078C03E487
:102B8A004206EB42057C00C006C005C006C005C06F
:102B9A0007C00474C3C0E07441C0E07480C0E0128E
:102BAA0032B9E58124F9F581D005D0068E828D836C
:102BBA002290031C7403F075820A122AA0E58290FF
:102BCA00031FF090031FE030E01490031C7403F01D
:102BDA0075820A122AA0E58290031FF080E522AFCF
:102BEA0083E582900322F0EFA3F0900322E0FEA394
:102BFA00E0FF8E048F05C374FF9C741F9D401790DD
:102C0A000320E0FAA3E0FBEA2EF8EB3FF9C374FFD6
:102C1A0098741F99502A900320E0C0E0A3E0C0E016
:102C2A00900322E0C0E0A3E0C0E074EBC0E074418E
:102C3A00C0E07480C0E01232B9E58124F9F581223E
:102C4A005304FEEA2EFEEB3FFF1EBEFF011F530692
:102C5A00FE8D039003137408F0900314EBF0758251
:102C6A0000C007C006C005C00412292AD004D00536
:102C7A00D006D0078C039003137409F0900314EB69
:102C8A00F0758200C007C006C005C00412292AD008
:102C9A0004D005D006D0078F03900313740AF0906E
:102CAA000314EBF0758200C007C006C005C0041209
:102CBA00292AD004D005D006D0078E0390031374B6
:102CCA000BF0900314EBF0758200C007C006C00534
:102CDA00C00412292AD004D005D006D007C006C0E5
:102CEA0007C004C0057429C0E07442C0E07480C003
:102CFA00E01232B9E58124F9F58122AF83E58290A9
:102D0A000329F0EFA3F0900329E0FEA3E0FFC3EE4E
:102D1A009401EF64809480501AC006C007745AC0A8
:102D2A00E07442C0E07480C0E01232B9E58124FB4D
:102D3A00F58122900324E0FCA3E0FD8C028D03C3FD
:102D4A0074FF9A741F9B501AC004C005747AC0E0BD
:102D5A007442C0E07480C0E01232B9E58124FBF508
:102D6A008122C374019E74808FF063F08095F050C5
:102D7A000BC005C0041228FFD004D005900329E037
:102D8A00FEA3E0FF900320EEF0EFA3F08C828D8388
:102D9A00C007C006C005C004122BE9D004D005D074
:102DAA0006D0078D038C029003137401F09003146C
:102DBA00EBF0758200C007C006C005C004C002124D
:102DCA00292AD002D004D005D006D007900313E4F4
:102DDA00F0900314EAF0758200C007C006C005C06F
:102DEA000412292AC29175823A122995D004D00573
:102DFA00D006D007C007C006C004C005C006C00779
:102E0A007494C0E07442C0E07480C0E01232B9E544
:102E1A008124F9F581D006D00790032BE4F0A3F0C2
:102E2A00900326E0FBA3E0FCA3E0FD90032BE0F96E
:102E3A00A3E0FAC3E99EEA64808FF063F08095F01C
:102E4A004003022ED2C006C007C007C006C005C094
:102E5A0004C003C002C0011228EDA882D001D0022A
:102E6A00D003D004D005D006D0078B828C838DF096
:102E7A00E8123147A3AB82AC837F0009B900010A8B
:102E8A00C007C006C005C004C003C002C001C0001C
:102E9A00C007C001C00274CFC0E07442C0E07480B1
:102EAA00C0E01232B9E58124F9F581D001D002D00F
:102EBA0003D004D005D006D00790032BE9F0EAA38B
:102ECA00F0D007D006022E35D29122AF83E5829048
:102EDA000332F0EFA3F0900332E0FEA3E0FFC3EE6B
:102EEA009401EF64809480501AC006C007745AC0D7
:102EFA00E07442C0E07480C0E01232B9E58124FB7C
:102F0A00F5812290032DE0FCA3E0FD8C028D03C322
:102F1A0074FF9A741F9B501AC004C005747AC0E0EB
:102F2A007442C0E07480C0E01232B9E58124FBF536
:102F3A0081221ABAFF011B900320EAF0EBA3F0905A
:102F4A000000C007C006C005C004122BE9D004D097
:102F5A0005D006D007C374019E74808FF063F08099
:102F6A0095F0500BC005C0041228FFD004D0058D7F
:102F7A00078C069003137403F0900314EFF0758224
:102F8A0000C006C005C00412292AD004D005D00604
:102F9A009003137402F0900314EEF0758200C005DA
:102FAA00C00412292AC29175827A122995D004D0B6
:102FBA0005900332E0FEA3E0FFC007C006C004C0CC
:102FCA0005C006C00774E1C0E07442C0E07480C066
:102FDA00E01232B9E58124F9F581D006D0079003D1
:102FEA0034E4F0A3F090032FE0FBA3E0FCA3E0FDA0
:102FFA00900334E0F9A3E0FAC3E99EEA64808FF013
:10300A0063F08095F040030230A1C006C0078B82AE
:10301A008C838DF0123CFBF87F0009B900010AC0CD
:10302A0007C006C005C004C003C002C001C000C07A
:10303A0007C001C00274CFC0E07442C0E07480C00F
:10304A00E01232B9E58124F9F581D001D002D0032A
:10305A00D004D005D006D0078B828C838DF0123C29
:10306A00FBFFA3AB82AC838F82C007C006C005C03A
:10307A0004C003C002C001122995D001D002D003B6
:10308A00D004D005D006D007900334E9F0EAA3F0C3
:0A309A00D007D006022FFAD29122CF
:1040F40057726974653A2041646472657373203041
:1041040078253032582C2044617461203078253071
:1041140032580A0D000A0D496E76616C696420619B
:104124006464726573733A204D4143207265676914
:104134007374657220616464726573732072616E56
:104144006765205B302C20307831465D0A0D0052C3
:104154006561643A20416464726573732030782524
:104164003032582C20446174612030782530325824
:104174000A0D005048592057726974653A20416409
:104184006472657373203078253032582C20446172
:104194007461203078253034580A0D00526561640A
:1041A4003A20416464726573732030782530325844
:1041B4002C2044617461203078253032580A005034
:1041C400485920526561643A20416464726573738E
:1041D400203078253032582C2044617461203078A6
:1041E400253034580A0D000A0D496E76616C6964F5
:1041F400204275666665722041646472657373203B
:104204006F722053697A653A205374617274203056
:1042140078253034582C2053697A6520307825303D
:1042240034580A0D000A0D42756666657220496E9F
:10423400697469616C697A65643A20537461727453
:10424400203078253034582C20456E642030782571
:104254003034580A0D000A0D496E76616C69642089
:104264006E756D626572206F662062797465733A4B
:104274002025640A0D000A0D496E76616C6964207C
:10428400616464726573733A20253034580A0D00F2
:1042940052656164696E6720256420627974657370
:1042A4002066726F6D206275666665722073746134
:1042B4007274696E672061742061646472657373DB
:1042C400203078253034583A0A0D0042797465203C
:1042D40025643A203078253032580A0D0057726927
:1042E40074696E6720256420627974657320746F25
:1042F40020627566666572207374617274696E6794
:104304002061742061646472657373203078253091
:0643140034583A0A0D00C6
:1030A400AF83E582900336F0EFA3F03099FD9003EF
:1030B40036E0FEA3E0FF8E99C2998E828F832210A0
:1030C400980280FBAE997F008E828F8322AFF0AE90
:1030D40083E582900338F0EEA3F0EFA3F090033879
:1030E400E0FDA3E0FEA3E0FF7B007C008D828E83E5
:1030F4008FF0123CFBFA60360DBD00010E900338D0
:10310400EDF0EEA3F0EFA3F08A017A0089828A83BE
:10311400C007C006C005C004C0031230A4D003D049
:1031240004D005D006D0070BBB00C10C80BE9003B1
:1031340038EDF0EEA3F0EFA3F00BBB00010C8B8293
:033144008C832257
:06203500E478FFF6D8FD7F
:102013007900E94400601B7A00904325787575A028
:1020230003E493F2A308B8000205A0D9F4DAF27529
:02203300A0FF0C
:1031470020F71130F6138883A88220F509F6A883A3
:103157007583002280FEF280F5F022C00885810881
:10316700E50824FDF8868318868218E493A324DBF8
:10317700600C2425600512325080F0023268D2D5E7
:10318700E493A3C083C082B4731486F018868318AF
:10319700868218123CFB6054A312325080F5B46348
:1031A7000818E6181232508043B46417E630E74631
:1031B70018E6F42401F608E6F43400F6742D12320A
:1031C700508033B4782D868318868218E4123241F2
:1031D700E583123240E583123241E582123240E53F
:1031E7008212324130D5057430123250D082D083EA
:1031F700023172B475F6E6FA18E6F9187C107D27E5
:1032070012322BFF7CE87D0312322BC4F5837C64DA
:103217007D0012322B4283E975F00A84C445F0F52C
:1032270082EF80A97B000BC3E99CF9EA9DFA50F66F
:103237001BE92CF9EA3DFAEB22C4540F700320D5A1
:103247001FC2D52490D43440D4C083C082C0F0F5C7
:1032570082E8C0E01230A4D0E0F8D0F0D082D0836A
:0432670022D0082247
:10203B007800E84400600A790075A001E4F309D840
:10204B00FC7875E84402600C7903900100E4F0A37E
:04205B00D8FCD9FADA
:10326B00C0088581087E008E831230A4D00822AF5F
:10327B00F0AE83E58290033DF0EEA3F0EFA3F09068
:10328B00033DE0FDA3E0FEA3E0FF90033CE0FC90D8
:10329B000351E4F0A3F0A3F0900354EDF0EEA3F090
:1032AB00EFA3F0900357ECF090326B0233BFC008E2
:1032BB00E581F50824FBFF900351E4F0A3F0A3F0A4
:1032CB00E50824FBF8900354E6F008E6A3F008E6C3
:1032DB00A3F0900357EFF090326B1233BFD008225C
:1032EB00E58290034DF0E0FF900343E0C0E0A3E0E4
:1032FB00C0E0A3E0C0E0123306800D900341E0C0B4
:10330B00E0A3E0C0E08F8222158115811581900327
:10331B004BE02401F0A3E03400F022E58290034E51
:10332B00F0E02430FF24C6500D74072FFF900340AC
:10333B00E060034307208F820232EBE58290034F5C
:10334B00F0E0FFC4540FF582C007123326D00753A9
:10335B00070F8F82023326E582900350F0900346CD
:10336B00E0FCA3E0FDA3E0FEA3E0FF90034AE0FB3B
:10337B00900350E0FA79208B00E828F513EF2354E3
:10338B00014513FBEC2CFCED33FDEE33FEEF33FF6D
:10339B00C3EB9A4007EBC39AFB43040119E970D7BF
:1033AB00900346ECF0EDA3F0EEA3F0EFA3F0900347
:1033BB004AEBF022AF83E582900358F0EFA3F09035
:1033CB000358E0FEA3E0FF900341EEF0EFA3F09073
:1033DB000351E0FDA3E0FEA3E0FF900343EDF0EE0D
:1033EB00A3F0EFA3F090034BE4F0A3F0900354E0B1
:1033FB00FDA3E0FEA3E0FF8D828E838FF0123CFBDA
:10340B00FC90035474012DF0E43EA3F0EFA3F0EC19
:10341B007003023CB7BC25028003023CAF90035AF9
:10342B00E4F090035BF090035CF090035DF090038D
:10343B005EF090035FF0900360F0900361F09003F7
:10344B0063F0900364F0A3F090036614F0A3F09084
:10345B000354E0FDA3E0FEA3E0FF8D828E838FF08B
:10346B00123CFBFBA3AD82AE83900354EDF0EEA3B5
:10347B00F0EFA3F090036AEBF0BB25088B821232BE
:10348B00EB0233F7BB30005003023558EB24C65028
:10349B0003023558900366E0F509A3E0F50A74FFC3
:1034AB00B50963B50A60C005C006C007900364E0A8
:1034BB00FAA3E0FF900373EAF0EFA3F090000AC0C9
:1034CB0005C003123CDBAE82AF83D003D0058B0566
:1034DB007A00ED2EFEEA3FFFEE24D0FEEF34FFFF25
:1034EB00900364EEF0EFA3F0D007D006D005900365
:1034FB0064E0F5F0A3E045F0600302346590035BF4
:10350B007401F0023465C005C006C007900373E573
:10351B0009F0E50AA3F090000AC006C005C003122B
:10352B003CDBAA82AF83D003D005D0067E00EB2A0A
:10353B00FAEE3FFFEA24D0FAEF34FFFF900366EA7E
:10354B00F0EFA3F0D007D006D00502346590036AE4
:10355B00E0FBBB2E2FC005C006C007900366E0FA48
:10356B00A3E0FFBAFF05BFFF028009D007D006D04A
:10357B0005023465D007D006D005900366E4F0A3AE
:10358B00F0023465BB61004014EB2485400F9003BF
:10359B006A74DF5BF09003407401F0800590034088
:1035AB00E4F090036AE0FBBB20028075BB2B02802A
:1035BB0067BB2D028059BB4202806FBB4302807CEC
:1035CB00BB440302384FBB4603023875BB480302AA
:1035DB003465BB490302384FBB4A03023465BB4C0D
:1035EB00028050BB4F0302385DBB50030237BDBB9B
:1035FB0053028077BB5403023465BB550302386515
:10360B00BB580302386DBB5A0302346502387D90F8
:10361B00035A7401F002346590035C7401F00234B8
:10362B006590035D7401F002346590035F7401F0E3
:10363B000234659003607401F002346590035FE01F
:10364B00600E900357E014F9F090036AE7F0800FD7
:10365B00900357E024FEFFF08F0190036AE7F09090
:10366B00036AE0F5821232EB02388C900357E024A8
:10367B00FDFFF08F01870509870609870719199048
:10368B000346EDF0EEA3F0EFA3F08D828E838FF067
:10369B00123CC385820985830A900366E0FAA3E096
:1036AB00FDBAFF0DBDFF0A900366E509F0E50AA31D
:1036BB00F090035AE0704B900364E0FAA3E0FDC373
:1036CB00E5099AE50A9D503A900364EAC39509F01F
:1036DB00ED950AA3F0900364E0FAA3E0FD8A068D52
:1036EB00071ABAFF011DEE4F6010758220C005C08E
:1036FB00021232EBD002D00580E3900364EAF0EDC6
:10370B00A3F0900366E0F50CA3E0F50D900346E003
:10371B00FAA3E0FDA3E0FF8A828D838FF0123CFBBE
:10372B00F50B603CC3E4950C7480850DF063F08061
:10373B0095F0502C150C74FFB50C02150D850B82F2
:10374B001232EB900346E0FAA3E0FDA3E0FF0ABAC6
:10375B0000010D900346EAF0EDA3F0EFA3F080AC6F
:10376B0090035AE0700302388C900364E0FEA3E0F0
:10377B00FFC3E5099EE50A9F400302388C90036462
:10378B00EEC39509F0EF950AA3F0900364E0FEA356
:10379B00E0FF8E028F051EBEFF011FEA4D70030274
:1037AB003884758220C007C0061232EBD006D007D2
:1037BB0080E0900357E024FDFDF08D01870E098713
:1037CB000F0987101919900346E50EF0E50FA3F0CA
:1037DB00E510A3F0900348E0FDBD80004008900386
:1037EB006A7443F08020BD6000400890036A7450F7
:1037FB00F08013BD4000400890036A7449F08006C6
:10380B0090036A7458F090036AE0FDF582C00512CC
:10381B0032EB75823A1232EB7582301232EB7582D3
:10382B00781232EBD005BD4902800EBD50028009E3
:10383B00900347E0F582123346900346E0F582127F
:10384B003346803D90035E7401F0900363740AF07D
:10385B00802F9003637408F08027900363740AF041
:10386B00801F9003637410F080179003617401F054
:10387B00800F8B821232EB8008900364EEF0EFA383
:10388B00F0900361E06071900357E024FCFFF08F30
:10389B0001870309870509870609870719191990F5
:1038AB000346EBF0EDA3F0EEA3F0EFA3F09003468D
:1038BB00741AF07443A3F07480A3F0900346E0F500
:1038CB000EA3E0F50FA3E0F5107401250EFAE43515
:1038DB000FFBAF10900346EAF0EBA3F0EFA3F085DC
:1038EB000E82850F838510F0123CFBFF70030233B1
:1038FB00F78F821232EB80C3900363E070030233C5
:10390B00F790035FE06047900357E014F9F08707E7
:10391B007E007D007B00900346EFF0EEA3F0EDA35D
:10392B00F0EBA3F090035EE060030239CF90034607
:10393B00E0FBA3E0A3E0A3E07D007E007F0090030B
:10394B0046EBF0EDA3F0EEA3F0EFA3F0807690033F
:10395B0060E06028900357E024FCFFF08F018703A1
:10396B00098705098706098707191919900346EB7B
:10397B00F0EDA3F0EEA3F0EFA3F08048900357E037
:10398B0024FEFFF08F01870609870719EF3395E0B7
:10399B00FDFB900346EEF0EFA3F0EDA3F0EBA3F0ED
:1039AB0090035EE0701E900346E0FBA3E0FDA3E0F6
:1039BB00A3E07E007F00900346EBF0EDA3F0EEA3B7
:1039CB00F0EFA3F090035EE0603D900346E0A3E0D0
:1039DB00A3E0A3E030E72B900346E0FBA3E0FDA3BD
:1039EB00E0FEA3E0FFC3E49BFBE49DFDE49EFEE44D
:1039FB009FFF900346EBF0EDA3F0EEA3F0EFA3F0E7
:103A0B00800590035EE4F09003627401F090036311
:103A1B00E0F50C751170751203E4F509F50A9003C6
:103A2B004AE4F0850C82123362900362E0703390AB
:103A3B00034AE0C454F0F50E90034AE0C4540F451A
:103A4B000EF50E851182851283E0FFE50E42078588
:103A5B001182851283EFF0151174FFB51102151247
:103A6B00800B90034AE0851182851283F00509E4EF
:103A7B00B50902050A900362E0B40100E433F0904B
:103A8B000346E0FAA3E0FBA3E0FEA3E0FFEA4B4E04
:103A9B004F708B900371E511F0E512A3F090036862
:103AAB00E509F0E50AA3F0900364E0F5F0A3E04527
:103ABB00F070099003647401F0E4A3F090035BE0F1
:103ACB00FFE0704790035AE07041850911850A1297
:103ADB00900364E0FAA3E0FBC007AF110F8F067FE2
:103AEB0000C3EE9AEF9BD0075019758220C007C018
:103AFB0003C0021232EBD002D003D0071ABAFF0177
:103B0B001B80D5900364EAF0EBA3F090035EE060BA
:103B1B002075822DC0071232EBD007900364E0248E
:103B2B00FFFDA3E034FFFE900364EDF0EEA3F08005
:103B3B0056900368E0F5F0A3E045F0604A90035C13
:103B4B00E0602075822BC0071232EBD00790036424
:103B5B00E024FFFDA3E034FFFE900364EDF0EEA341
:103B6B00F0802490035DE0601E758220C007123246
:103B7B00EBD007900364E024FFFDA3E034FFFE903D
:103B8B000364EDF0EEA3F090035AE07044900368E9
:103B9B00E0F511A3E0F512900364E0FAA3E0FBC09B
:103BAB00078A068B071ABAFF011BC3E5119EE512A4
:103BBB009FD007504FEF60047E3080027E208E82B4
:103BCB00C007C003C0021232EBD002D003D0078073
:103BDB00CE900364E0FEA3E0FF900368E0F511A331
:103BEB00E0F512C3E5119EE5129F500F900364EEB2
:103BFB00C39511F0EF9512A3F08011900364E4F0DC
:103C0B00A3F08008900364EAF0EBA3F0900371E05B
:103C1B00FEA3E0FF900368E0F511A3E0F512AA11F3
:103C2B00AD12151174FFB511021512EA4D604490D7
:103C3B000362E0B40100E433F0900362E070130E12
:103C4B00BE00010F8E828F83E0C4540F90034AF0A5
:103C5B00800E8E828F83E0FD53050F90034AEDF0AB
:103C6B0090034AE0F582C007C006123326D006D077
:103C7B000780AB90035AE070030233F7900364E0C4
:103C8B00FEA3E0FF8E038F051EBEFF011FEB4D70E1
:103C9B00030233F7758220C007C0061232EBD00641
:103CAB00D00780E08C821232EB0233F790034BE0AB
:083CBB00FEA3E08E82F58322D6
:0B431A003C4E4F20464C4F41543E00EB
:103CC300AA82AB83123CFB6003A380F8C3E5829A0C
:103CD300F582E5839BF58322AA83AB828BF0900365
:103CE30073E0A4F8A9F08AF0E0A429F98BF0A3E02B
:083CF300A429F5838882222236
:0D200600758118123D17E58260030220036A
:103CFB0020F71430F6148883A88220F507E6A883F2
:103D0B0075830022E280F7E49322E0227582002281
:00000001FF
