:03200000022006B5
:03205F0002200359
:032003000222A016
:10206200AFF0AE83E582900100F0EEA3F0EFA3F0B3
:10207200900103E4F0A3F0900100E0FDA3E0FEA3D1
:10208200E0FF8D028E038F048D138E148F1578005E
:102092007900C002C003C004E82513FAE93514FB35
:1020A200AC158A828B838CF0123188F516D004D05D
:1020B20003D002E5167003022210C002C003C0045E
:1020C200851617751800900105E517F0E518A3F0BD
:1020D200900103E0FBA3E0C454F0CBC4CB6BCB5420
:1020E200F0CB6BFC900103EBF0ECA3F0C3E517948B
:1020F20030E51864809480D004D003D002403F744D
:1021020039951774808518F063F08095F0402FC0E0
:1021120002C003C004E51724D0F517E51834FFF513
:1021220018900103E0FAA3E0FC900103E5172AF0FE
:10213200E5183CA3F0D004D003D00202220890019B
:1021420005E0F517A3E0F518C3E5179441E5186417
:10215200809480404E7446951774808518F063F021
:102162008095F0403EC005C006C007E82AFDE93B65
:10217200FE8C078D828E838FF01231887F0024C9F6
:10218200F517EF34FFF518900103E0FEA3E0FF908E
:102192000103E5172EF0E5183FA3F0D007D006D0D3
:1021A200058063900105E0F517A3E0F518C3E51774
:1021B2009461E51864809480404C7466951774802D
:1021C2008518F063F08095F0403CC002C003C00463
:1021D200E82DFAE93EFB8F048A828B838CF0123160
:1021E200887C0024A9F517EC34FFF518900103E070
:1021F200FBA3E0FC900103E5172BF0E5183CA3F0EC
:10220200D004D003D00208B8000109022094900142
:1022120003E0FEA3E08E82F583227E007F00C007EA
:10222200C00612256BAC82D006D007BC0A02803AE7
:10223200BC0D028035C3EE9409EF64809480502A6D
:102242008C037D008B828D83C007C006C0041225DB
:102252004CD004D006D007EE2407F582EF3401F506
:1022620083ECF00EBE00B70F80B4EE2407F582EFC8
:102272003401F583E4F0900107F5F0122062AE829A
:10228200AF83C007C00674A8C0E07431C0E0122555
:10229200EF15811581D006D0078E828F832274AB11
:1022A200C0E07431C0E07480C0E012274615811589
:1022B2008115811223CE74B2C0E07431C0E0748003
:1022C200C0E012274615811581158112256BAE8259
:1022D2008E057F008D828F83C00612254C74A8C0A4
:1022E200E07431C0E07480C0E01227461581158188
:1022F2001581D006BE4C02800ABE5202800ABE5729
:10230200B5802212238C80AE74D8C0E07431C0E054
:102312007480C0E012274615811581158112221C96
:1023220012243980917413C0E07432C0E07480C00A
:10233200E0122746158115811581C2919000021283
:10234200251B75825F1223DD7582021223DD900048
:092352000212251BD2910222B8EF
:1031A8000A0D00746573740A0D0043686F6F7365C8
:1031B80020616374696F6E3A204C2D2D3E4C454456
:1031C800204F4E0A0D522D2D3E526561640A0D00A6
:1031D800456E7465722074686520436F6E74726FF3
:1031E8006C207265676973746572206164647265C6
:1031F800737320796F752077616E7420746F2072F5
:103208006561642066726F6D0A0D00456E746572A3
:1032180020746865203136206269742064617461A5
:093228002077726974650A0D003B
:10235B0075825F1223DD7582021223DD75825412A2
:10236B0023DD7582141223DD7582561223DD7582EF
:10237B00001223DD7582571223DD75820A0223DDDD
:10238B0022C29175825F1223DD7582021223DDD288
:10239B0091C2917582541223DD7582141223DDD202
:1023AB0091C2917582561223DD7582A81223DDD25C
:1023BB0091C2917582571223DD75823A1223DDD2B9
:1023CB00912222D29175C30043C32043C31043C350
:1023DB004022E582900111F0E0F5C5E5C430E7FB42
:1023EB0022E582900112F0E0F5C5E5C430E7FB90E1
:1023FB000113E5C5F0E0F5822275825F1223DD75CE
:10240B0082031223DD75820A1223EC75820A1223D2
:10241B00ECE58230E0177431C0E07432C0E07480B8
:10242B00C0E012274615811581158180DE22E582D9
:10243B00900114F0C29190000212251B900114E040
:10244B00FFF582C0071223ECD0078F821223EC908A
:10245B00000212251BD29190006402251B75825F2E
:10246B001223DD7582021223DD7582541223DD7572
:10247B0082141223DD7582521223DD758201122321
:10248B00DD1224047582521223DD7582001223DDC6
:10249B007582181223EC7582181223ECAF827582A9
:1024AB0019C0071223ECAE82D0078E05E4FEFCEFB9
:1024BB004206EC42058E828D832275C300D297C2F1
:1024CB0096D29122E582900115F0E0FF7E00C007C5
:1024DB00C006743DC0E07432C0E07480C0E01227C7
:1024EB0046E58124FBF581C2917F00BF0800501D9A
:1024FB00900115E030E704D2978002C297D29690F4
:10250B000115E025E0F0C296C2970F80DED2912232
:10251B00AF83E582900116F0EFA3F0900116E0FE79
:10252B00A3E0FF8E048F051EBEFF011F900116EE68
:10253B00F0EFA3F0EC4D70EB900116EEF0EFA3F083
:01254B00226D
:1032310042757379207761697421210053656E6449
:10324100696E6720424220646174613A2025780AE0
:023251000D006E
:10254C00AF83E582900118F0EFA3F03099FD900174
:10255C0018E0FEA3E0FF8E99C2998E828F83221021
:10256C00980280FBAE997F008E828F8322AFF0AEF3
:10257C0083E58290011AF0EEA3F0EFA3F090011A1C
:10258C00E0FDA3E0FEA3E0FF7B007C008D828E8348
:10259C008FF0123188FA60360DBD00010E90011AD1
:1025AC00EDF0EEA3F0EFA3F08A017A0089828A8322
:1025BC00C007C006C005C004C00312254CD003D010
:1025CC0004D005D006D0070BBB00C10C80BE900117
:1025DC001AEDF0EEA3F0EFA3F00BBB00010C8B8215
:0325EC008C8322BB
:06203500E478FFF6D8FD7F
:102013007900E94400601B7A0090325E785675A01F
:1020230001E493F2A308B8000205A0D9F4DAF2752B
:02203300A0FF0C
:1025EF00C008858108E50824FDF8868318868218BF
:1025FF00E493A324DB600C242560051226DD80F014
:10260F000226F5D2D5E493A3C083C082B473148697
:10261F00F0188683188682181231886054A3122608
:10262F00DD80F5B4630818E6181226DD8043B46424
:10263F0017E630E74618E6F42401F608E6F434000E
:10264F00F6742D1226DD8033B4782D86831886829A
:10265F0018E41226CEE5831226CDE5831226CEE5A9
:10266F00821226CDE5821226CE30D5057430122681
:10267F00DDD082D0830225FFB475F6E6FA18E6F9AD
:10268F00187C107D271226B8FF7CE87D031226B830
:10269F00C4F5837C647D001226B84283E975F00A85
:1026AF0084C445F0F582EF80A97B000BC3E99CF948
:1026BF00EA9DFA50F61BE92CF9EA3DFAEB22C454D5
:1026CF000F700320D51FC2D52490D43440D4C083BB
:1026DF00C082C0F0F582E8C0E012254CD0E0F8D0FF
:0926EF00F0D082D08322D0082231
:10203B007800E84400600A790075A001E4F309D840
:10204B00FC7856E84400600C7901900100E4F0A3A1
:04205B00D8FCD9FADA
:1026F800C0088581087E008E8312254CD00822AF41
:10270800F0AE83E58290011EF0EEA3F0EFA3F09007
:10271800011EE0FDA3E0FEA3E0FF90011DE0FC9098
:102728000132E4F0A3F0A3F0900135EDF0EEA3F050
:10273800EFA3F0900138ECF09026F802284CC0087E
:10274800E581F50824FBFF900132E4F0A3F0A3F043
:10275800E50824FBF8900135E6F008E6A3F008E662
:10276800A3F0900138EFF09026F812284CD00822F8
:10277800E58290012EF0E0FF900124E0C0E0A3E0A4
:10278800C0E0A3E0C0E0122793800D900122E0C0D2
:10279800E0A3E0C0E08F82221581158115819001A8
:1027A8002CE02401F0A3E03400F022E58290012F10
:1027B800F0E02430FF24C6500D74072FFF9001214C
:1027C800E060034307208F82022778E5829001307A
:1027D800F0E0FFC4540FF582C0071227B3D00753A7
:1027E800070F8F820227B3E582900131F09001270D
:1027F800E0FCA3E0FDA3E0FEA3E0FF90012BE0FBDB
:10280800900131E0FA79208B00E828F513EF235482
:10281800014513FBEC2CFCED33FDEE33FEEF33FFEB
:10282800C3EB9A4007EBC39AFB43040119E970D73D
:10283800900127ECF0EDA3F0EEA3F0EFA3F09001E8
:102848002BEBF022AF83E582900139F0EFA3F090F3
:102858000139E0FEA3E0FF900122EEF0EFA3F09033
:102868000132E0FDA3E0FEA3E0FF900124EDF0EECD
:10287800A3F0EFA3F090012CE4F0A3F0900135E071
:10288800FDA3E0FEA3E0FF8D828E838FF0123188D6
:10289800FC90013574012DF0E43EA3F0EFA3F0ECB9
:1028A8007003023144BC2502800302313C90013B95
:1028B800E4F090013CF090013DF090013EF0900171
:1028C8003FF0900140F0900141F0900142F09001FA
:1028D80044F0900145F0A3F090014714F0A3F09064
:1028E8000135E0FDA3E0FEA3E0FF8D828E838FF02B
:1028F800123188FBA3AD82AE83900135EDF0EEA3D3
:10290800F0EFA3F090014BEBF0BB25088B82122768
:1029180078022884BB300050030229E5EB24C65016
:10292800030229E5900147E0F509A3E0F50A74FFE1
:10293800B50963B50A60C005C006C007900145E047
:10294800FAA3E0FF900154EAF0EFA3F090000AC068
:1029580005C003123168AE82AF83D003D0058B0562
:102968007A00ED2EFEEA3FFFEE24D0FEEF34FFFFA3
:10297800900145EEF0EFA3F0D007D006D005900106
:1029880045E0F5F0A3E045F060030228F290013C31
:102998007401F00228F2C005C006C007900154E592
:1029A80009F0E50AA3F090000AC006C005C00312AA
:1029B8003168AA82AF83D003D005D0067E00EB2A07
:1029C800FAEE3FFFEA24D0FAEF34FFFF900147EA1E
:1029D800F0EFA3F0D007D006D0050228F290014B03
:1029E800E0FBBB2E2FC005C006C007900147E0FAE8
:1029F800A3E0FFBAFF05BFFF028009D007D006D0C9
:102A0800050228F2D007D006D005900147E4F0A3CC
:102A1800F00228F2BB61004014EB2485400F9001BE
:102A28004B74DF5BF09001217401F0800590012167
:102A3800E4F090014BE0FBBB20028075BB2B0280C9
:102A480067BB2D028059BB4202806FBB4302807C6A
:102A5800BB4403022CDCBB4603022D02BB48030225
:102A680028F2BB4903022CDCBB4A030228F2BB4C08
:102A7800028050BB4F03022CEABB5003022C4ABB16
:102A880053028077BB54030228F2BB5503022CF291
:102A9800BB5803022CFABB5A030228F2022D0A90F3
:102AA800013B7401F00228F290013D7401F0022804
:102AB800F290013E7401F00228F29001407401F096
:102AC8000228F29001417401F00228F2900140E0DE
:102AD800600E900138E014F9F090014BE7F0800F98
:102AE800900138E024FEFFF08F0190014BE7F09051
:102AF800014BE0F582122778022D19900138E02465
:102B0800FDFFF08F018705098706098707191990C6
:102B18000127EDF0EEA3F0EFA3F08D828E838FF006
:102B280012315085820985830A900147E0FAA3E0B3
:102B3800FDBAFF0DBDFF0A900147E509F0E50AA3BC
:102B4800F090013BE0704B900145E0FAA3E0FDC333
:102B5800E5099AE50A9D503A900145EAC39509F0BE
:102B6800ED950AA3F0900145E0FAA3E0FD8A068DF1
:102B7800071ABAFF011DEE4F6010758220C005C00C
:102B880002122778D002D00580E3900145EAF0EDE3
:102B9800A3F0900147E0F50CA3E0F50D900127E0C4
:102BA800FAA3E0FDA3E0FF8A828D838FF0123188BB
:102BB800F50B603CC3E4950C7480850DF063F080E0
:102BC80095F0502C150C74FFB50C02150D850B8271
:102BD800122778900127E0FAA3E0FDA3E0FF0ABAE4
:102BE80000010D900127EAF0EDA3F0EFA3F080AC0F
:102BF80090013BE07003022D19900145E0FEA3E02F
:102C0800FFC3E5099EE50A9F4003022D199001457F
:102C1800EEC39509F0EF950AA3F0900145E0FEA3F5
:102C2800E0FF8E028F051EBEFF011FEA4D700302F2
:102C38002D11758220C007C006122778D006D0074C
:102C480080E0900138E024FDFDF08D01870E0987B2
:102C58000F0987101919900127E50EF0E50FA3F069
:102C6800E510A3F0900129E0FDBD80004008900127
:102C78004B7443F08020BD6000400890014B7450B5
:102C8800F08013BD4000400890014B7449F0800665
:102C980090014B7458F090014BE0FDF582C005128D
:102CA800277875823A1227787582301227787582CC
:102CB80078122778D005BD4902800EBD50028009E0
:102CC800900128E0F5821227D3900127E0F58212BF
:102CD80027D3803D90013F7401F0900144740AF0BD
:102CE800802F9001447408F08027900144740AF002
:102CF800801F9001447410F080179001427401F015
:102D0800800F8B821227788008900145EEF0EFA3A0
:102D1800F0900142E06071900138E024FCFFF08FF0
:102D28000187030987050987060987071919199073
:102D38000127EBF0EDA3F0EEA3F0EFA3F09001274D
:102D48007453F07432A3F07480A3F0900127E0F577
:102D58000EA3E0F50FA3E0F5107401250EFAE43593
:102D68000FFBAF10900127EAF0EBA3F0EFA3F0857B
:102D78000E82850F838510F0123188FF70030228B8
:102D8800848F8212277880C3900144E07003022860
:102D980084900140E06047900138E014F9F087071B
:102DA8007E007D007B00900127EFF0EEA3F0EDA3FD
:102DB800F0EBA3F090013FE06003022E5C90012746
:102DC800E0FBA3E0A3E0A3E07D007E007F0090018C
:102DD80027EBF0EDA3F0EEA3F0EFA3F080769001DF
:102DE80041E06028900138E024FCFFF08F01870360
:102DF800098705098706098707191919900127EB1B
:102E0800F0EDA3F0EEA3F0EFA3F08048900138E0D6
:102E180024FEFFF08F01870609870719EF3395E035
:102E2800FDFB900127EEF0EFA3F0EDA3F0EBA3F08C
:102E380090013FE0701E900127E0FBA3E0FDA3E0B6
:102E4800A3E07E007F00900127EBF0EDA3F0EEA356
:102E5800F0EFA3F090013FE0603D900127E0A3E090
:102E6800A3E0A3E030E72B900127E0FBA3E0FDA35C
:102E7800E0FEA3E0FFC3E49BFBE49DFDE49EFEE4CB
:102E88009FFF900127EBF0EDA3F0EEA3F0EFA3F086
:102E9800800590013FE4F09001437401F0900144F3
:102EA800E0F50C751151751201E4F509F50A900168
:102EB8002BE4F0850C821227EF900143E0703390E9
:102EC800012BE0C454F0F50E90012BE0C4540F45DB
:102ED8000EF50E851182851283E0FFE50E42078507
:102EE8001182851283EFF0151174FFB511021512C6
:102EF800800B90012BE0851182851283F00509E48F
:102F0800B50902050A900143E0B40100E433F090EA
:102F18000127E0FAA3E0FBA3E0FEA3E0FFEA4B4EA3
:102F28004F708B900152E511F0E512A3F090014922
:102F3800E509F0E50AA3F0900145E0F5F0A3E045C6
:102F4800F070099001457401F0E4A3F090013CE0B1
:102F5800FFE0704790013BE07041850911850A1236
:102F6800900145E0FAA3E0FBC007AF110F8F067F81
:102F780000C3EE9AEF9BD0075019758220C007C096
:102F880003C002122778D002D003D0071ABAFF0173
:102F98001B80D5900145EAF0EBA3F090013FE0607B
:102FA8002075822DC007122778D007900145E024AC
:102FB800FFFDA3E034FFFE900145EDF0EEA3F080A5
:102FC80056900149E0F5F0A3E045F0604A90013DD4
:102FD800E0602075822BC007122778D00790014542
:102FE800E024FFFDA3E034FFFE900145EDF0EEA3E1
:102FF800F0802490013EE0601E758220C0071227F1
:1030080078D007900145E024FFFDA3E034FFFE904F
:103018000145EDF0EEA3F090013BE07044900149CA
:10302800E0F511A3E0F512900145E0FAA3E0FBC03A
:10303800078A068B071ABAFF011BC3E5119EE51222
:103048009FD007504FEF60047E3080027E208E8232
:10305800C007C003C002122778D002D003D007806F
:10306800CE900145E0FEA3E0FF900149E0F511A3F1
:10307800E0F512C3E5119EE5129F500F900145EE51
:10308800C39511F0EF9512A3F08011900145E4F07B
:10309800A3F08008900145EAF0EBA3F0900152E01C
:1030A800FEA3E0FF900149E0F511A3E0F512AA1193
:1030B800AD12151174FFB511021512EA4D60449056
:1030C8000143E0B40100E433F0900143E070130ED3
:1030D800BE00010F8E828F83E0C4540F90012BF045
:1030E800800E8E828F83E0FD53050F90012BEDF04B
:1030F80090012BE0F582C007C0061227B3D006D096
:103108000780AB90013BE07003022884900145E002
:10311800FEA3E0FF8E038F051EBEFF011FEB4D705F
:1031280003022884758220C007C006122778D006BB
:10313800D00780E08C8212277802288490012CE046
:08314800FEA3E08E82F5832254
:0B3253003C4E4F20464C4F41543E00C3
:10315000AA82AB831231886003A380F8C3E5829A08
:10316000F582E5839BF58322AA83AB828BF09001E5
:1031700054E0A4F8A9F08AF0E0A429F98BF0A3E0C8
:08318000A429F58388822222B4
:0D2006007581181231A4E5826003022003E9
:1031880020F71430F6148883A88220F507E6A88370
:1031980075830022E280F7E49322E0227582002200
:00000001FF
