:0720620090014BE4F0A3F034
:10207300AF83E582900100F0EFA3F0900102E4F05A
:10208300A3F0A3F0A3F0900100E0FEA3E0FF90090A
:10209300C9EEF0EFA3F09003E8C007C006124FBCEF
:1020A300AC82AD83D006D007900102E0F8A3E0F93B
:1020B300A3E0FAA3E0FBC006C0077E007F00C3E8ED
:1020C3009CE99DEA9EEB9FD007D006502390010226
:1020D300E0FAA3E0FBA3E0FCA3E0FD90010274019E
:1020E3002AF0E43BA3F0E43CA3F0E43DA3F0809E9C
:1020F3002290038DE4F075821F123AF3E5824408BF
:10210300FF900384741FF0900385EFF07582000243
:10211300397DAF83E582900108F0EFA3F0900108C9
:10212300E0FEA3E0FF8E059003847404F090038522
:10213300EDF0758200C007C00612397DD006D007C6
:102143008F069003847405F0900385EEF07582008A
:1021530012397D900106E0FEA3E0FF8E0590038413
:102163007406F0900385EDF0758200C007C0061277
:10217300397DD006D0078F069003847407F090034F
:1021830085EEF075820002397DAF83E58290010A06
:10219300F0EFA3F090010AE0FEA3E0FF7C007D00D6
:1021A300C3EC9EED9F504190038DE4F075821FC0F8
:1021B30007C006C005C004123AF3E582D004D00577
:1021C300D006D00720E30475820122900001C007E6
:1021D300C006C005C004122073D004D005D006D0B9
:1021E300070CBC00BB0D80B87582002290038DE400
:1021F300F075821D123AF3E582035401B401009293
:1022030000E433F5822290010C7402F090010D7406
:1022130011F090010E23F090010F7433F090011030
:102223007444F09001117455F090011274F8F09019
:1022330001137475F090011474A4F0900115748C5B
:10224300F09001167441F09001177431F090011869
:1022530074C0F090011974A8F090011A7401F09001
:10226300011B7464F090011C74C0F090011D74A8EC
:10227300F090011E7401F090011FF0900120740E84
:10228300F07E007F00C3EE9406EF64809480504894
:102293008E05ED04FC3395E0FBEC2420FCEB3401CC
:1022A300FBEE2412F582EF3401F583E08C828B83FD
:1022B300F074072DFD3395E0FCED2420FDEC340193
:1022C300FCEE240CF582EF3401F583E08D828C83E0
:1022D300F00EBE00B00F80AD90012D7408F0900198
:1022E3002E7406F090012FE4F090013004F0900179
:1022F300317408F0900132E4F09001337406F090E9
:1023030001347404F0900135E4F090013604F07E5A
:10231300007F00C3EE9406EF6480948050298E05FD
:1023230074172DFD3395E0FCED2420FDEC3401FC06
:10233300EE240CF582EF3401F583E08D828C83F07B
:102343000EBE00CF0F80CC7E007F00C3EE9404EF5F
:102353006480948050298E05741D2DFD3395E0FC17
:10236300ED2420FDEC3401FCEE2418F582EF34015A
:10237300F583E08D828C83F00EBE00CF0F80CC7F7F
:1023830000BF060050198F0674212EFE3395E0FD21
:10239300EE2420F582ED3401F583E4F00F80E27E34
:1023A300007F00C3EE9404EF6480948050298E056F
:1023B30074272DFD3395E0FCED2420FDEC3401FC66
:1023C300EE241CF582EF3401F583E08D828C83F0DB
:1023D3000EBE00CF0F80CC90039EE4F0740CA3F0EC
:1023E3009003A07420F07401A3F0E4A3F090002CF8
:1023F300123F06900106742BF0740CA3F0900C00AE
:102403001221151220F49001F412218CE58260331D
:102413001221EFE58260167486C0E0745BC0E0743D
:1024230080C0E01251091581158115812274A7C05E
:10243300E0745BC0E07480C0E0125109158115811E
:1024430015812274D5C0E0745BC0E07480C0E012D3
:10245300510915811581158122C021C0E0C0F0C04A
:1024630082C083C007C006C005C004C003C002C049
:1024730001C000C0D075D0007418C0E0745CC0E027
:102483007480C0E012510915811581158190014BAB
:10249300E02401F0A3E03400F0D0D0D000D001D08C
:1024A30002D003D004D005D006D007D083D082D089
:1024B300F0D0E0D02132AF83E58290014FF0EFA35B
:1024C300F090014FE0FEA3E0FFC374FF9E741F9FD3
:1024D300401590014DE0FCA3E0FD8C028D03C37415
:1024E300FF9A741F9B502A90014DE0C0E0A3E0C007
:1024F300E090014FE0C0E0A3E0C0E0743FC0E074AF
:102503005CC0E07480C0E0125109E58124F9F581D3
:10251300225306FE90014FEEF0EFA3F090014FE03F
:10252300FEA3E0FF8E03900384E4F0900385EBF0B9
:10253300758200C007C006C005C004C00312397D00
:10254300D003D004D005D006D0078F029003847443
:1025530001F0900385EAF0758200C007C006C0054C
:10256300C004C003C00212397DD002D003D004D00E
:1025730005D006D0079003847408F0900385EBF030
:10258300758200C007C006C005C004C003C00212A4
:10259300397DD002D003D004D005D006D0079003F4
:1025A300847409F0900385EAF0758200C007C006C1
:1025B300C005C004C003C00212397DD002D003D0CD
:1025C30004D005D006D0078C01900384740AF090E0
:1025D3000385E9F0758200C007C006C005C004C0CA
:1025E30003C00212397DD002D003D004D005D00637
:1025F300D0078D01900384740BF0900385E9F07587
:102603008200C007C006C005C004C003C00212395F
:102613007DD002D003D004D005D006D00790038428
:10262300740CF0900385EBF0758200C007C006C000
:1026330005C004C00212397DD002D004D005D006F3
:10264300D007900384740DF0900385EAF07582003F
:10265300C007C006C005C00412397DD004D005D020
:1026630006D007C004C005C006C0077470C0E0747C
:102673005CC0E07480C0E0125109E58124F9F58162
:1026830022AFF0AE83E582900151F0EEA3F0EFA309
:10269300F01239F790038DE4F075821D123AF3E5D9
:1026A3008230E0F090014D74FFF0740BA3F09000C2
:1026B300001224B99003847402F09003857470F0BF
:1026C30075820212397D9003847403F0900385743C
:1026D30040F075820212397D900384740AF09003EE
:1026E3008574EEF075820212397D900384740BF0C9
:1026F3009003857405F075820212397D900384740A
:1027030004F09003857412F075820212397D9003F0
:10271300847406F09003857412F075820212397D79
:102723009003847407F0900385740CF07582021291
:10273300397D900151E0FDA3E0FEA3E0FF74052D78
:10274300F508E43EF5098F0A850882850983850A21
:10275300F0125B2BF99003847401F0900385E9F088
:10276300758203C007C006C00512397DD005D006A7
:10277300D00774042DF50BE43EF50C8F0D850B8209
:10278300850C83850DF0125B2BFB900384E4F090A2
:102793000385EBF0758203C007C006C00512397DBF
:1027A300D005D006D00774032DF50EE43EF50F8F48
:1027B30010850E82850F838510F0125B2BF9900331
:1027C300847403F0900385E9F0758203C007C006A3
:1027D300C00512397DD005D006D00774022DF5113E
:1027E300E43EF5128F138511828512838513F0124F
:1027F3005B2BFB9003847402F0900385EBF07582EE
:1028030003C007C006C00512397DD005D006D00726
:1028130074012DFAE43EFB8F048A828B838CF012C1
:102823005B2BF99003847405F0900385E9F07582BE
:1028330003C007C006C005C004C003C00212397D2F
:10284300D002D003D004D005D006D0078D828E836A
:102853008FF0125B2BF99003847404F0900385E9E5
:10286300F0758203C007C006C005C004C003C002E0
:1028730012397DD002D003D004D005D006D0079002
:1028830003847418F09003857480F0758201C00787
:10289300C006C005C004C003C00212397DD002D0F7
:1028A30003D004D005D006D00790038D7402F075D1
:1028B3008203C007C006C005C004C003C002123AA9
:1028C300F3E582D002D003D004D005D006D007446C
:1028D30001F99003847403F0900385E9F075820293
:1028E300C007C006C005C004C003C00212397DD0B2
:1028F30002D003D004D005D006D00790038D740214
:10290300F0758200C007C006C005C004C003C00242
:10291300123AF3E582D002D003D004D005D006D01A
:10292300074401F9900384E4F0900385E9F075828C
:1029330002C007C006C005C004C003C00212397D2F
:10294300D002D003D004D005D006D00790038AE488
:10295300F004A3F0758200C007C006C005C004C020
:1029630003C002123A70D002D003D004D005D006BF
:10297300D00790038A7422F07434A3F0758214C0D4
:1029830007C006C005C004C003C002123A70D002DB
:10299300D003D004D005D006D007900384741FF071
:1029A3009003857404F0758200C007C006C005C09B
:1029B30004C003C00212397D749FC0E0745CC0E0A0
:1029C3007480C0E0125109158115811581D002D0A0
:1029D30003D004D005D006D00785088285098385F6
:1029E3000AF0125B2BF98908750900850B82850CA7
:1029F30083850DF0125B2BF9890B750C00850E8214
:102A0300850F838510F0125B2BF9890E750F0085F6
:102A130011828512838513F0125B2BF879008A8269
:102A23008B838CF0125B2BFA7C008D828E838FF06C
:102A3300125B2BFD7F00C008C009C00BC00CC00E89
:102A4300C00FC000C001C002C004C005C00774C3EA
:102A5300C0E0745CC0E07480C0E0125109E58124D9
:102A6300F1F5812290038D7401F0758219023AF316
:102A7300AF83E582900154F0EFA3F0900154E0FEA0
:102A8300A3E0FFFD8E04900384740CF0900385ECA7
:102A9300F0758200C007C006C00512397DD005D08D
:102AA30006D007900384740DF0900385EDF07582D2
:102AB30000C007C00612397DD006D007C006C00784
:102AC30074EFC0E0745CC0E07480C0E0125109E5AB
:062AD3008124FBF58122C5
:105B4B000A496E76616C69642042756666657220DF
:105B5B0053697A652E204275666665722065786397
:105B6B00656564732076616C696420616464726539
:105B7B0073732072616E67652E0A0041525020725A
:105B8B006571756573742073656E742073756363CB
:105B9B0065737366756C6C792E0A0D00415250203B
:105BAB007472616E736D697373696F6E2066616970
:105BBB006C65642E20436865636B206572726F722F
:105BCB0020666C6167732E0A0D005472616E736DE3
:105BDB00697373696F6E2074696D656F75742E20B0
:105BEB00454E4332384A3630206D6179206E6F74E2
:105BFB002062652066756E6374696F6E696E6720CF
:105C0B00636F72726563746C792E0A0D00496E7442
:105C1B006572727272727272727575757575757551
:105C2B007575707070707070707074747474747447
:105C3B00740A0D000A496E76616C696420427566C0
:105C4B006665722052616E67653A20537461727497
:105C5B00203078253034582C20456E642030782540
:105C6B003034580A000A42756666657220496E69BF
:105C7B007469616C697A65643A205374617274203B
:105C8B003078253034582C20456E64203078253000
:105C9B0034580A000A454E4332384A363020496E92
:105CAB00697469616C697A6174696F6E20436F6D99
:105CBB00706C6574652E0A004D414320416464721B
:105CCB006573733A20253032583A253032583A25CD
:105CDB003032583A253032583A253032583A25303E
:105CEB0032580A00557064617465642045525852ED
:0F5CFB0044505420746F203078253034580A00FC
:0620000002200902245C2D
:0A20690090037BE4F0A3F0022006D0
:03200600022D1791
:102AD900AFF0AE83E582900156F0EEA3F0EFA3F0DC
:102AE900900159E4F0A3F0900156E0FDA3E0FEA3A4
:102AF900E0FF8D028E038F048D398E3A8F3B78006B
:102B09007900C002C003C004E82539FAE9353AFB67
:102B1900AC3B8A828B838CF0125B2BF53CD004D0C2
:102B290003D002E53C7003022C87C002C003C00435
:102B3900853C3D753E0090015BE53DF0E53EA3F027
:102B4900900159E0FBA3E0C454F0CBC4CB6BCB5448
:102B5900F0CB6BFC900159EBF0ECA3F0C3E53D948D
:102B690030E53E64809480D004D003D002403F74A5
:102B790039953D7480853EF063F08095F0402FC013
:102B890002C003C004E53D24D0F53DE53E34FFF520
:102B99003E900159E0FAA3E0FC900159E53D2AF085
:102BA900E53E3CA3F0D004D003D002022C7F900173
:102BB9005BE0F53DA3E0F53EC3E53D9441E53E64A8
:102BC900809480404E7446953D7480853EF063F054
:102BD9008095F0403EC005C006C007E82AFDE93BE4
:102BE900FE8C078D828E838FF0125B2B7F0024C9A8
:102BF900F53DEF34FFF53E900159E0FEA3E0FF906B
:102C09000159E53D2EF0E53E3FA3F0D007D006D0AF
:102C190005806390015BE0F53DA3E0F53EC3E53D2A
:102C29009461E53E64809480404C7466953D74805F
:102C3900853EF063F08095F0403CC002C003C004BB
:102C4900E82DFAE93EFB8F048A828B838CF0125BB4
:102C59002B7C0024A9F53DEC34FFF53E900159E0A9
:102C6900FBA3E0FC900159E53D2BF0E53E3CA3F0C8
:102C7900D004D003D00208B8000109022B0B90013F
:102C890059E0FEA3E08E82F583227E007F00C00713
:102C9900C006124A7CAC82D006D007BC0A02803A30
:102CA900BC0D028035C3EE9409EF64809480502AEC
:102CB9008C037D008B828D83C007C006C004124A35
:102CC9005DD004D006D007EE245DF582EF3401F51E
:102CD90083ECF00EBE00B70F80B4EE245DF582EFF1
:102CE9003401F583E4F090015DF5F0122AD9AE8242
:102CF900AF83C007C006740AC0E0745DC0E0124D1E
:102D09000E15811581D006D0078E828F83229001FE
:102D1900677402F09001687411F090016923F090D2
:102D2900016A7433F090016B7444F090016C74552E
:102D3900F090016D74F8F090016E7475F090016F68
:102D490074A4F0900170748CF09001717441F0904A
:102D590001727431F090017374C0F090017474A819
:102D6900F09001757401F09001767464F090017728
:102D790074C0F090017874A8F09001797401F09012
:102D8900017AF0740DC0E0745DC0E07480C0E01297
:102D990051091581158115811239D990016775F08D
:102DA900001226847426C0E0745DC0E07480C0E01F
:102DB900125109158115811581743DC0E0745DC0FA
:102DC900E07480C0E0125109158115811581745391
:102DD900C0E0745DC0E07480C0E01251091581152E
:102DE9008115817468C0E0745DC0E07480C0E01230
:102DF9005109158115811581747CC0E0745DC0E0AD
:102E09007480C0E01251091581158115817496C02D
:102E1900E0745DC0E07480C0E0125109158115812C
:102E2900158174ACC0E0745DC0E07480C0E01251DB
:102E39000915811581158174C1C0E0745DC0E07404
:102E490080C0E012510915811581158174D3C0E044
:102E5900745DC0E07480C0E01251091581158115B7
:102E69008174EDC0E0745DC0E07480C0E012510966
:102E79001581158115817402C0E0745EC0E074800B
:102E8900C0E0125109158115811581741BC0E074C8
:102E99005EC0E07480C0E012510915811581158169
:102EA9007433C0E0745EC0E07480C0E0125109154B
:102EB90081158115817452C0E0745EC0E07480C0D0
:102EC900E01251091581158115817466C0E0745E9F
:102ED900C0E07480C0E01251091581158115817413
:102EE90082C0E0745EC0E07480C0E01251091581AF
:102EF90015811581124A7CAE828E057F008D828FE5
:102F090083C006124A5D740AC0E0745DC0E0748033
:102F1900C0E0125109158115811581D006BE310015
:102F2900500302384AEE24B9500302384AEE24CF3E
:102F3900FE240A83F582EE241A83F583E47373DB96
:102F4900D9389A05405BBD4A4A4A4A4A4A4A7DAD40
:102F5900AEE0E9242F2F303131323232323838386D
:102F690038383838332D3737373874A1C0E0745EB4
:102F7900C0E07480C0E012510915811581158112D4
:102F89002C93AE82C00674C6C0E0745EC0E0748043
:102F9900C0E0125109158115811581122C93AD825A
:102FA900C00574F3C0E0745EC0E07480C0E01251E3
:102FB90009158115811581122C93AC82D005D00693
:102FC900900384EDF0900385ECF08E8212397D0236
:102FD9002DAD7417C0E0745FC0E07480C0E0125179
:102FE90009158115811581122C93AE82AF83C00713
:102FF900C006743DC0E0745FC0E07480C0E0125147
:1030090009158115811581122C93AC82AD83D006E7
:10301900D007C007C006C005C004C006C007745B5E
:10302900C0E0745FC0E07480C0E0125109E58124FA
:10303900FBF581D004D005D006D0077A007B00C308
:10304900EA9EEB64808FF063F08095F05063C004D2
:10305900C005C007C006C005C004C003C002C00245
:10306900C003747EC0E0745FC0E07480C0E0125198
:1030790009E58124FBF581D002D003D004D005EA0B
:10308900247BF8EB3401F9C003C002C001C000126F
:103099002C93AC82D000D001D002D003D006D00747
:1030A90088828983ECF00ABA00010BD005D004802C
:1030B9008E90039EECF0EDA3F09003A0747BF07466
:1030C90001A3F0E4A3F08E828F83123F06022DAD97
:1030D9007488C0E0745FC0E07480C0E012510915C3
:1030E9008115811581122C93AE82AF83C007C0066A
:1030F900743DC0E0745FC0E07480C0E012510915EE
:103109008115811581122C93AC82AD83D006D0072D
:10311900900395ECF0EDA3F0900397747BF07402A3
:10312900A3F0E4A3F08E828F83123D2D022DAD749E
:10313900ADC0E0745FC0E07480C0E0125109158130
:1031490015811581122C93AE82C00674D6C0E07425
:103159005FC0E07480C0E0125109158115811581A5
:10316900122C93AD82D00690038DEEF08D82123A27
:10317900F3AF827E00C007C00674FFC0E0745FC071
:10318900E07480C0E0125109E58124FBF581022D2C
:10319900AD741BC0E07460C0E07480C0E0125109D6
:1031A900158115811581122C93AE82C006743DC01C
:1031B900E07460C0E07480C0E01251091581158186
:1031C9001581122C93AD82AF83D00690038AEDF05E
:1031D900EFA3F08E82C007C005123A70D005D00760
:1031E900C005C007745FC0E07460C0E07480C0E0CF
:1031F900125109E58124FBF581022DAD7478C0E0F7
:103209007460C0E07480C0E0125109158115811500
:1032190081122C93123B36AE82AF83C006C007746D
:10322900A2C0E07460C0E07480C0E0125109E58179
:1032390024FBF581022DAD74BAC0E07460C0E0745E
:1032490080C0E01251091581158115811239F702E3
:103259002DAD74D2C0E07460C0E07480C0E012513A
:1032690009158115811581122C93AE82C00674FC53
:10327900C0E07460C0E07480C0E012510915811586
:10328900811581122C93AD82D006900388EDF08EC2
:1032990082123A02AF827E00C007C0067417C0E0EE
:1032A9007461C0E07480C0E0125109E58124FBF526
:1032B90081022DAD7426C0E0745DC0E07480C0E069
:1032C900125109158115811581743DC0E0745DC0E5
:1032D900E07480C0E012510915811581158174537C
:1032E900C0E0745DC0E07480C0E012510915811519
:1032F9008115817468C0E0745DC0E07480C0E0121B
:103309005109158115811581747CC0E0745DC0E097
:103319007480C0E01251091581158115817496C018
:10332900E0745DC0E07480C0E01251091581158117
:10333900158174ACC0E0745DC0E07480C0E01251C6
:103349000915811581158174C1C0E0745DC0E074EF
:1033590080C0E012510915811581158174D3C0E02F
:10336900745DC0E07480C0E01251091581158115A2
:1033790081022DAD122209122A67E58260F99003B4
:103389007BE0FEA3E0FF90037BE0F5F0A3E045F0CE
:103399007008900BFF122A73800C1EBEFF011F8E4E
:1033A900828F83122A73900006124E53AE82AD8328
:1033B9007F0090037BE0FBA3E0FC900395EBF0EC2E
:1033C900A3F0900397EEF0EDA3F0EFA3F0900006C1
:1033D900C007C006C005123D2DD005D006D0077420
:1033E900012EFAE43DFB8F048A828B838CF0125BF9
:1033F9002BFC7A008E828D838FF0125B2B7B00422F
:1034090002EB42048A2A8C2B74032EF8E43DF98FCF
:1034190003888289838BF0125B2BF87B0088238BCE
:103429002274022EF8E43DF98F03888289838BF098
:10343900125B2BF87B00E523420388228B2374055A
:103449002EF8E43DF98F03888289838BF0125B2B78
:10345900F87B0088258B2474042EF8E43DF98F034A
:10346900888289838BF0125B2BF87B00E525420368
:1034790088248B25A922AB23E924FCF9EB34FFFB33
:1034890089288B29852826852927852682852783CA
:10349900C007C006C005124E53A882AB83D005D021
:1034A90006D007882C8B2D752E0090037BE0FAA39C
:1034B900E0FC74062AFAE43CFC900395EAF0ECA3DC
:1034C900F0900397E52CF0E52DA3F0E52EA3F08508
:1034D9002882852983C007C006C005123D2D9003A7
:1034E9007DE4F0A3F0AA2CAB2DFC9009CB7467F016
:1034F9007401A3F0E4A3F09009CE7406F0E4A3F0FC
:103509008A828B838CF0124FDCE5828583F0D005AB
:10351900D006D00745F060030235B5C007C006C024
:10352900057433C0E07461C0E07480C0E0125109D1
:10353900158115811581D005D006D007740C252C6D
:10354900FAE4352DFBAC2E8A828B838CF0125B2B2F
:10355900FABA0858740D252CFAE4352DFBAC2E8ADD
:10356900828B838CF0125B2B7042C007C006C005AA
:103579007451C0E07461C0E07480C0E01251091553
:103589008115811581D005D006D0077417252CFA2D
:10359900E4352DFBAC2E8A828B838CF0125B2BFADF
:1035A900BA060990037D7401F0E4A3F090037DE06D
:1035B900F5F0A3E045F070030236E574042526FB17
:1035C900E43527FC9003B2EBF0ECA3F09003B4745C
:1035D9007FF07403A3F0E4A3F0852C82852D838505
:1035E9002EF0C007C006C005124235AA82AB83ACD3
:1035F900F0D005D006D007EA4B70030236A1C00708
:10360900C006C005C004C003C002747BC0E0746179
:10361900C0E07480C0E0125109158115811581D06F
:1036290002D003D004D005D006D00790037FE0F87C
:10363900A3E0F9900997E8F0E9A3F08A828B838CDB
:10364900F0C007C006C005C004C003C00212458906
:10365900D002D003D004D005D006D00790037FE074
:10366900F8A3E0F99009A2E8F0E9A3F08A828B8334
:103679008CF0C007C006C005C004C003C0021249CF
:1036890079D002D003D0048A828B838CF0124B004C
:10369900D005D006D0078021C007C006C0057496A2
:1036A900C0E07461C0E07480C0E012510915811551
:1036B900811581D005D006D007C007C006C00574A2
:1036C900C8C0E07461C0E07480C0E012510915817E
:1036D90015811581D005D006D0078021C007C00605
:1036E900C00574D0C0E07461C0E07480C0E01251BC
:1036F90009158115811581D005D006D00790037B66
:10370900E52AF0E52BA3F0C007C006C005C02AC012
:103719002B74D7C0E07461C0E07480C0E012510915
:10372900E58124FBF581C022C02374EBC0E07461FC
:10373900C0E07480C0E0125109E58124FBF581C025
:1037490024C02574FAC0E07461C0E07480C0E0123E
:103759005109E58124FBF581D005D006D0079003F6
:103769008DE4F075821EC007C006C005123AF3E564
:1037790082D005D006D0074440FC900384741EF023
:10378900900385ECF0758202C007C006C0051239A6
:103799007DD005D006D0077F008E828D838FF012F1
:1037A9004B00023380740AC0E07462C0E07480C0C8
:1037B900E0125109158115811581C2907E007F00A3
:1037C900C3EE9470EF6480949750070EBE00F10F1A
:1037D90080EED290022DAD900846124694022DAD8E
:1037E900D288D2A8D2AF90038DE4F075821E123A26
:1037F900F3743DC0E07462C0E07480C0E012510906
:10380900158115811581900384741BF090038574CB
:10381900C0F075820012397D022DAD7450C0E0747C
:1038290062C0E07480C0E0125109158115811581CB
:10383900900384741BF0900385E4F07582001239BB
:103849007D7464C0E07462C0E07480C0E012510904
:09385900158115811581022DADC8
:105D0A000A0D00535049204F7065726174696F6EB5
:105D1A0073206F6E20383035310A0D000A0D436842
:105D2A006F6F736520616E20616374696F6E3A20CC
:105D3A000A0D0031202D2D3E20436F6E74726F6C58
:105D4A002057726974650A0D0032202D2D3E2042BB
:105D5A0075666665722057726974650A0D0033208C
:105D6A002D2D3E2042756666657220526561640A71
:105D7A000D0034202D2D3E204D4143205265676988
:105D8A007374657220526561640A0D0035202D2DE9
:105D9A003E20504859205350492057726974650A69
:105DAA000D0036202D2D3E205048592053504920B1
:105DBA00526561640A0D0037202D2D3E20454E4361
:105DCA002052657365740A0D0038202D2D3E20522D
:105DDA006561642045544820526567697374657229
:105DEA000A0D0039202D2D3E20446973706C6179AB
:105DFA00204D656E750A0D0041202D2D3E205365FC
:105E0A006E642041525020526571756573740A0D93
:105E1A000042202D2D3E20496E697420525820627E
:105E2A007566666572730A0D0043202D2D3E204863
:105E3A00617264205265736574286E5245534554E5
:105E4A002070696E290A0D0044202D2D3E205072C3
:105E5A006F63657373205443500A0D0045202D2D3E
:105E6A003E20456E61626C6520545820696E7465E7
:105E7A0072727570740A0D0046202D2D3E204469F9
:105E8A007361626C696E6720545820696E7465721A
:105E9A00727570740A0D00456E74657220746865B7
:105EAA002072656769737465722062616E6B207413
:105EBA006F2073656C6563743A0A0D00456E7465EC
:105ECA0072207468652061646472657373206F66FA
:105EDA002074686520436F6E74726F6C2052656718
:105EEA0069737465723A0A0D00456E74657220749E
:105EFA006865206461746120796F752077616E74BA
:105F0A0020746F2077726974653A0A0D00456E74C1
:105F1A00657220746865206E756D626572206F66A1
:105F2A0020627974657320746F2077726974653A98
:105F3A000A0D00456E746572207468652073746179
:105F4A007274696E6720616464726573733A0A0DCC
:105F5A0000456E7465722025642062797465732029
:105F6A006F6620646174612028696E2068657829EB
:105F7A003A0A0D00427974652025643A2000456E7C
:105F8A0074657220746865206E756D626572206F23
:105F9A006620627974657320746F20726561643A51
:105FAA000A0D00456E74657220746865204D414380
:105FBA002072656769737465722062616E6B207402
:105FCA006F2073656C6563743A0A0D00456E7465DB
:105FDA0072207468652061646472657373206F66E9
:105FEA0020746865204D4143205265676973746562
:105FFA00723A0A0D004D4143205265676973746510
:10600A007220446174613A203078253032580A0D82
:10601A0000456E7465722074686520504859207274
:10602A006567697374657220616464726573733A33
:10603A000A0D00456E746572207468652031362D2C
:10604A00626974206461746120746F207772697464
:10605A00653A0A0D00504859205772697465204400
:10606A006174613A203078253034580A0D00456E43
:10607A007465722074686520504859207265676992
:10608A0073746572206164647265737320746F201F
:10609A00726561643A0A0D0050485920526561647C
:1060AA0020446174613A203078253034580A0D0052
:1060BA00526573657474696E6720454E4332384A77
:1060CA0036302E2E2E0A0D00456E746572207468C5
:1060DA00652045544820726567697374657220614A
:1060EA0064647265737320746F20726561643A0A1E
:1060FA000D00456E746572207468652062616E6B6E
:10610A00202830206F722031293A0A0D0045544860
:10611A0020526567697374657220446174613A201C
:10612A003078253032580A0D004D4143206D617494
:10613A00636865640A2E2E2E2E2E2E2E2E2E2E2EBD
:10614A002E2E2E2E2E0D0056616C69642045544861
:10615A004552207061636B65742E2E2E2E2E2E2EC4
:10616A002E2E2E2E2E2E2E2E2E2E2E2E2E2E0A0D8A
:10617A00000A50726F636573736564207265737089
:10618A006F6E736520646174613A0A000A4E6F206B
:10619A00726573706F6E73652067656E6572617480
:1061AA00656420627920544350207061636B657482
:1061BA002070726F63657373696E672E0A005945A2
:1061CA00535353530A004E4F4F4F4F0A006E657890
:1061DA00745061636B65743A203078253034580AFC
:1061EA000062797465436F756E743A2025640A00FB
:1061FA007374617475733A203078253032580A0006
:10620A0020526573657474696E6720454E43207524
:10621A0073696E672052455345542070696E206930
:10622A006E2048617264776172652850315F302947
:10623A000A0D00456E61626C696E67205458504BB6
:10624A005449450A0D0044697361626C696E67209E
:10625A005458504B5449450A0D00496E76616C6991
:10626A0064206F7074696F6E2E20506C656173655F
:10627A002073656C65637420612076616C696420A3
:0A628A00616374696F6E2E0A0D0047
:10671B00021122334455F875A48C4131C0A8016491
:04672B00C0A8010100
:1038620075825F1239E87582021239E87582541244
:1038720039E87582141239E87582561239E8758270
:10388200001239E87582571239E875820A0239E85E
:1038920022C29175825F1239E87582021239E8D22A
:1038A20091C2917582541239E87582141239E8D2A4
:1038B20091C2917582561239E87582A81239E8D2FE
:1038C20091C2917582571239E875823A1239E8D25B
:1038D20091222275C5FFE5C430E7FB900381E5C55F
:1038E200F0E0F58222C29175825E1239E87582801B
:1038F2001239E8D29122E582900382F0C291758258
:103902001F1239E81238D5AF82D2915307FC9003C7
:1039120082E0FE24FC4030EE2E90391F7380068038
:103922000B80128019900383EFF08031900383742F
:10393200014FF0802890038374024FF0801F9003A0
:103942008374034FF080167494C0E07462C0E07414
:1039520080C0E0125109158115811581227F00BFB7
:10396200100050030F80F8C29175825F1239E890FF
:103972000383E0F5821239E8D29122E58290038630
:10398200F0900384E02440F0900386E0F582123840
:10399200F8C291900384E0FFF582C0071239E8D0A3
:1039A20007900385E0FEF582C007C0061239E8D011
:1039B20006D007D2917D007C00C006C005C007C0BA
:1039C20004749FC0E07462C0E07480C0E0125109C8
:1039D200E58124F9F58122D29175C30043C32043C6
:1039E200C31043C34022E582900387F0E0F5C5E5AA
:1039F200C430E7FB22C2917582FF1239E8D29122CC
:103A0200E582900389F0E0FF24E0501974C4C0E01D
:103A12007462C0E07480C0E01251091581158115ED
:103A22008175820022900388E0F582C0071238F87F
:103A3200D007C2918F82C0071239E81238D5AE8200
:103A4200D007D2918E047D007B00C006C004C00561
:103A5200C007C00374FEC0E07462C0E07480C0E0BE
:103A6200125109E58124F9F581D0068E8222E58280
:103A720090038CF0E0FF9003847414F0900385EFC0
:103A8200F0758202C00712397DD00790038AE0FDEB
:103A9200A3E0FE8D049003847416F0900385ECF08D
:103AA200758202C007C006C00512397DD005D00656
:103AB200D0078E049003847417F0900385ECF075A0
:103AC2008202C007C006C00512397DD005D006D0DB
:103AD200077C00C005C006C007C0047422C0E074A1
:103AE20063C0E07480C0E0125109E58124F9F581D8
:103AF20022E58290038EF0E0FF24E0501974C4C0E6
:103B0200E07462C0E07480C0E01251091581158131
:103B120015817582002290038DE0F582C00712386C
:103B2200F8D007C2918F821239E81238D5AF82D20B
:103B3200918F8222E58290038FF0E0FF90038474DC
:103B420014F0900385EFF0758202C00712397DD020
:103B5200079003847412F09003857401F075820259
:103B6200C00712397D123BE3D0079003847412F030
:103B7200900385E4F0758202C00712397DD0079068
:103B8200038D7402F0758218C007123AF3AE82D028
:103B9200077D0090038D7402F0758219C007C0067C
:103BA200C005123AF3AC82D005D006D0078C03E4EC
:103BB2004206EB42057C00C006C005C006C005C037
:103BC20007C004744BC0E07463C0E07480C0E012AC
:103BD2005109E58124F9F581D005D0068E828D83C5
:103BE2002290038D7403F075820A123AF3E58290F3
:103BF2000390F0900390E030E01490038D7403F092
:103C020075820A123AF3E582900390F080E522AFC2
:103C120083E582900393F0EFA3F0900393E0FEA379
:103C2200E0FF8E048F05C374FF9C741F9D401790A4
:103C32000391E0FAA3E0FBEA2EF8EB3FF9C374FF2D
:103C420098741F99502A900391E0C0E0A3E0C0E06D
:103C5200900393E0C0E0A3E0C0E07473C0E074633B
:103C6200C0E07480C0E0125109E58124F9F5812297
:103C72005304FEEA2EFEEB3FFF1EBEFF011F53065A
:103C8200FE8D039003847408F0900385EBF0758237
:103C920000C007C006C005C00412397DD004D0059B
:103CA200D006D0078C039003847409F0900385EB4F
:103CB200F0758200C007C006C005C00412397DD06D
:103CC20004D005D006D0078F03900384740AF090C5
:103CD2000385EBF0758200C007C006C005C0041260
:103CE200397DD004D005D006D0078E0390038474AA
:103CF2000BF0900385EBF0758200C007C006C0058B
:103D0200C00412397DD004D005D006D007C006C049
:103D120007C004C00574B1C0E07463C0E07480C021
:103D2200E0125109E58124F9F58122AF83E5829001
:103D3200039AF0EFA3F090039AE0FEA3E0FFC3EE34
:103D42009401EF64809480501AC006C00774E2C0E8
:103D5200E07463C0E07480C0E0125109E58124FB85
:103D6200F58122900395E0FCA3E0FD8C028D03C354
:103D720074FF9A741F9B501AC004C0057402C0E0FD
:103D82007464C0E07480C0E0125109E58124FBF53F
:103D920081228E008F01E82AFAE93BFBC374FF9A65
:103DA200740B9B5021C006C007C004C005741CC020
:103DB200E07464C0E07480C0E0125109E58124F926
:103DC200F58190000022C374019E74808FF063F02D
:103DD2008095F0500BC005C0041238E7D004D0051E
:103DE2008D078C069003847401F0900385EFF075C3
:103DF2008200C006C005C00412397DD004D005D0AF
:103E020006900384E4F0900385EEF0758200C0050D
:103E1200C00412397DC29175823A1239E8D004D0B9
:103E22000590039AE0FEA3E0FFC007C006C004C0ED
:103E320005C006C0077448C0E07464C0E07480C066
:103E4200E0125109E58124F9F581D006D0079003EB
:103E52009CE4F0A3F0900397E0FBA3E0FCA3E0FD59
:103E620090039CE0F9A3E0FAC3E99EEA64808FF034
:103E720063F08095F04003023EFFC006C007C00712
:103E8200C006C005C004C003C002C0011238D5A8D4
:103E920082D001D002D003D004D005D006D0078B47
:103EA200828C838DF0E8124CF3A3AB82AC837F004B
:103EB20009B900010AC007C006C005C004C003C09A
:103EC20002C001C000C007C001C0027483C0E07418
:103ED20064C0E07480C0E0125109E58124F9F581E3
:103EE200D001D002D003D004D005D006D007900371
:103EF2009CE9F0EAA3F0D007D006023E62D2918E8E
:103F0200828F8322AF83E5829003A3F0EFA3F09028
:103F120003A3E0FEA3E0FFC3EE9401EF648094806C
:103F2200501AC006C00774E2C0E07463C0E0748037
:103F3200C0E0125109E58124FBF5812290039EE045
:103F4200FCA3E0FD8C028D03C374FF9A741F9B5087
:103F52001AC004C0057402C0E07464C0E07480C07A
:103F6200E0125109E58124FBF58122C374019E749C
:103F7200808FF063F08095F0500BC005C0041238BA
:103F8200E7D004D0058D078C069003847403F0906B
:103F92000385EFF0758200C006C005C00412397DAA
:103FA200D004D005D0069003847402F0900385EE0D
:103FB200F0758200C005C00412397DC29175827A03
:103FC2001239E8D004D0059003A3E0FEA3E0FFC0BD
:103FD20007C006C004C005C006C0077495C0E074DF
:103FE20064C0E07480C0E0125109E58124F9F581D2
:103FF200D006D0079003A5E4F0A3F09003A0E0FB65
:10400200A3E0FCA3E0FD9003A5E0F9A3E0FAC3E975
:104012009EEA64808FF063F08095F040030240AF27
:10402200C006C0078B828C838DF0125B2BF87F0059
:1040320009B900010AC007C006C005C004C003C018
:1040420002C001C000C007C001C0027483C0E07496
:1040520064C0E07480C0E0125109E58124F9F58161
:10406200D001D002D003D004D005D006D0078B8275
:104072008C838DF0125B2BFFA3AB82AC838F82C04B
:1040820007C006C005C004C003C002C0011239E85F
:10409200D001D002D003D004D005D006D0079003BF
:1040A200A5E9F0EAA3F0D007D006024008D2912297
:1062940077726F6E672062616E6B00577269746506
:1062A4003A20416464726573732030782530325823
:1062B4002C2044617461203078253032580A0D0056
:1062C4000A0D496E76616C69642061646472657359
:1062D400733A204D41432072656769737465722077
:1062E400616464726573732072616E6765205B30EC
:1062F4002C20307831465D0A0D00526561643A20E5
:1063040041646472657373203078253032582C20D0
:1063140044617461203078253032580A0D005048A9
:10632400592057726974653A2041646472657373C5
:10633400203078253032582C204461746120307824
:10634400253034580A0D0050485920526561643A8A
:106354002041646472657373203078253032582C80
:106364002044617461203078253034580A0D000AC5
:106374000D496E76616C69642042756666657220AB
:1063840041646472657373206F722053697A653A4D
:10639400205374617274203078253034582C205383
:1063A400697A65203078253034580A0D000A0D4288
:1063B400756666657220496E697469616C697A658F
:1063C400643A205374617274203078253034582C28
:1063D40020456E64203078253034580A0D000A0DAB
:1063E400496E76616C6964206E756D626572206FAA
:1063F400662062797465733A2025640A0D000A0DDB
:10640400496E76616C696420616464726573733A81
:1064140020253034580A0D000A496E76616C69648F
:1064240020525820416464726573733A2053746136
:106434007274203078253034582C2053697A6520C2
:1064440025640A0052656164696E672025642062D0
:10645400797465732066726F6D2062756666657205
:10646400207374617274696E67206174206164645E
:1064740072657373203078253034583A0A0D00421F
:106484007974652025643A203078253032580A0D15
:106494000057726974696E67202564206279746597
:1064A4007320746F206275666665722073746172FE
:1064B40074696E672061742061646472657373200B
:0A64C4003078253034583A0A0D00F4
:1040B200AFF0AE83E5829003A9F0EEA3F0EFA3F098
:1040C2009003ACE4F0A3F0A3F0A3F09003B0F0A34C
:1040D200F09003A9E0FDA3E0FEA3E0FF9003A7E0B8
:1040E200F539A3E0F53A9003B0E0F9A3E0FAC3E9A9
:1040F2009539EA953A40030241E8E92DF8EA3EFB98
:104102008F0488828B838CF0125B2BFC7B00C005B2
:10411200C006C007740129F8E43AFFC3E89539EFF5
:10412200953AD007D006D005501B09B900010AE91B
:104132002DF9EA3EF88F02898288838AF0125B2B7E
:10414200F97A00800479007A00C005C006C007E948
:104152002BFBEA3CFC9003ACE0F8A3E0F9A3E0FA05
:10416200A3E0FF7E007D009003ACEB28F0EC39A3C6
:10417200F0EE3AA3F0ED3FA3F09003ACE0F53BA3E1
:10418200E0F53CA3E0F53DA3E0F53EC374FF953BAB
:1041920074FF953CE4953DE4953ED007D006D005EA
:1041A200502A853B3F853C40754100754200A83D41
:1041B200AA3E7B007C009003ACE8253FF0EA354044
:1041C200A3F0EB3541A3F0EC3542A3F09003B0E04D
:1041D200FBA3E0FC74022BFBE43CFC9003B0EBF08D
:1041E200ECA3F00240E89003ACE0FCA3E0FDA3E006
:1041F200FEA3E0FF8C008D017A007B008E048F0508
:104202007E007F009003ACEC28F0ED39A3F0EE3A8B
:10421200A3F0EF3BA3F09003ACE0FCA3E0FDA3E02E
:10422200FEA3E0FFECF4FCEDF4FDEEF4EFF48C827F
:104232008D8322AFF0AE83E5829003B7F0EEA3F058
:10424200EFA3F09009BDE4F09009BE74DDF07405AF
:10425200A3F09003BA75F000124CCB9003BA740E1F
:10426200F09003B7E0FDA3E0FEA3E0FF8D028E0312
:104272008F049009B5EAF0EBA3F0ECA3F09009B833
:10428200740EF0E4A3F09003BBF5F0C007C006C0C3
:1042920005124C57D005D006D00774062DFAE43E1D
:1042A200FB8F049009B5EAF0EBA3F0ECA3F09009C0
:1042B200B87406F0E4A3F09003BBF5F0C007C006A3
:1042C200C005124C57D005D006D0078D028E038F41
:1042D200049009B5EAF0EBA3F0ECA3F09009B874EE
:1042E20006F0E4A3F09003C1F5F0C007C006C005D4
:1042F200124C57D005D006D007740E2DFAE43EFBBF
:104302008F049009B5EAF0EBA3F0ECA3F09009B8A2
:104312007414F0E4A3F09003C9F5F0C007C006C01E
:1043220005124C57D005D006D007741E2DFAE43E74
:10433200FB8F048A828B838CF0125B2BFA9003D55D
:1043420075F000EA124CF3741F2DFAE43EFB8F0461
:104352008A828B838CF0125B2BFA9003D675F00065
:10436200EA124CF374202DFAE43EFB8F048A828B0E
:10437200838CF0125B2BFA9003D775F000EA124C93
:10438200F374212DFAE43EFB8F048A828B838CF036
:10439200125B2BFA9003D875F000EA124CF3741AF0
:1043A2002DFAE43EFB8F048A828B838CF0125B2B06
:1043B200FA9003D975F000EA124CF3741B2DFAE45B
:1043C2003EFB8F048A828B838CF0125B2BFA900364
:1043D200DA75F000EA124CF3741C2DFAE43EFB8FFE
:1043E200048A828B838CF0125B2BFA9003DB75F0CC
:1043F20000EA124CF3741D2DFAE43EFB8F048A820C
:104402008B838CF0125B2BFA9003DC75F000EA12BE
:104412004CF39003D3E4124CF39003D4F5F0124C16
:10442200F374222DF514E43EF5158F16A814A91580
:10443200AC169009B5E8F0E9A3F0ECA3F09009B846
:104442007414F0E4A3F09003DDF5F0C007C006C0D9
:1044520005124C57D005D006D00774242DFAE43E3D
:10446200FB8F048A828B838CF0125B2BFA9003DD24
:1044720075F000EA124CF374252DFAE43EFB8F042A
:104482008A828B838CF0125B2BFA9003DE75F0002C
:10449200EA124CF38514828515838516F0125B2B84
:1044A200FC9003DF75F000EC124CF374232DFDE455
:1044B2003EFE8D828E838FF0125B2BFD9003E075A2
:1044C200F000ED124CF39003E1E4124CF39003E29E
:1044D200F5F0124CF39003E3F5F0124CF39003E481
:1044E200F5F004124CF39003E97450124CF390036C
:1044F200EA7412124CF39003EFE4124CF39003F0BF
:10450200F5F0124CF39003CBF5F0124CF39003CC80
:10451200F5F07428124CF39003A703F0E4A3F09093
:1045220003C9F5F01240B2AE82AF838F059003D378
:1045320075F000ED124CF39003D4EE124CF390039D
:10454200A77428F0E4A3F09003C9F5F01240B2AECC
:1045520082AF838F059003ED75F000ED124CF3905E
:1045620003EEEE124CF39003B4E0FDA3E0FEA3E0F1
:10457200FF8D828E838FF07437124CF3A3E4124CBA
:10458200F39003BAF5F022AFF0AE83E58290099979
:10459200F0EEA3F0EFA3F0900997E0FEA3E0FFC0D6
:1045A20007C006C006C00774CEC0E07464C0E074E1
:1045B20080C0E0125109E58124FBF581D006D007C5
:1045C200900999E0FBA3E0FCA3E0FD79007A00C327
:1045D200E99EEA9F4003024679C006C007E92BF82C
:1045E200EA3CFE8D0788828E838FF0125B2BF87F68
:1045F20000C007C006C005C004C003C002C001C09D
:1046020000C00774E4C0E07464C0E07480C0E012CB
:104612005109E58124FBF581D001D002D003D004F9
:10462200D005D006D00789068A070EBE00010FEE1C
:10463200540F6006D007D0068035D007D006C007D9
:10464200C006C005C004C003C002C00174EAC0E0D5
:104652007464C0E07480C0E012510915811581159F
:1046620081D001D002D003D004D005D006D00709F2
:10467200B900010A0245D1EE540F601574EAC0E098
:104682007464C0E07480C0E012510915811581156F
:104692008122AF83E58290099CF0EFA3F090099C00
:1046A200E0FEA3E0FF8E048F05C374FF9C741F9D80
:1046B200501AC006C00774ECC0E07464C0E0748095
:1046C200C0E0125109E58124FBF58122900395EEA9
:1046D200F0EFA3F0900397749EF07409A3F0E4A3A3
:1046E200F0900002C007C006C005C004123D2DAA0A
:1046F20082AB83D004D005D006D007BA0205BB0036
:10470200028016740CC0E07465C0E07480C0E012D0
:1047120051091581158115812290099FE0FA7B00CC
:1047220090099EE079004203E94202C3EB9EEA9FB0
:10473200501AC003C002743AC0E07465C0E07480CD
:10474200C0E0125109E58124FBF5812274062CFE9A
:10475200E43DFFEBC39EFEEA9FFF8E008F0188823D
:104762008983C007C006C005C004C003C002124E40
:1047720053A882A983D002D003D004D005D006D09A
:104782000788178918751900E5174518701AC006A9
:10479200C0077461C0E07465C0E07480C0E012516B
:1047A20009E58124FBF581228E008F0174062CFC21
:1047B200E43DFD900395ECF0EDA3F0900397E5172F
:1047C200F0E518A3F0E519A3F088828983C007C039
:1047D20006C003C002123D2DAC82AD83D002D003CD
:1047E200D006D007ECB50606EDB507028024749218
:1047F200C0E07465C0E07480C0E0125109158115F3
:10480200811581AC17A9187D008C8289838DF002F5
:104812004B009003B2EEF0EFA3F09003B474A0F05B
:104822007409A3F0E4A3F08517828518838519F033
:10483200C007C006C003C002124235A982AC83ADD4
:10484200F0D002D003D006D007E94C700302490829
:10485200C003C002C007C006C005C004C003C00236
:10486200C00174B1C0E07465C0E07480C0E0125150
:1048720009158115811581D001D002D003D004D051
:1048820005D006D0079009A0E0F8A3E0FB900997B5
:10489200E8F0EBA3F089828C838DF0C007C006C0DC
:1048A20005C004C003C002C001124589D001D00274
:1048B200D003D004D005D006D0079009A0E0FAA317
:1048C200E0FB9009A2EAF0EBA3F089828C838DF0E1
:1048D200C007C006C005C004C003C002C00112491F
:1048E20079D001D002D003D004D00589828C838D87
:1048F200F0C003C002124B00D002D003D006D00792
:10490200D002D0038025C007C006C003C00274CC09
:10491200C0E07465C0E07480C0E0125109158115D1
:10492200811581D002D003D006D007AC17A9187D1B
:10493200008C8289838DF0C007C006C003C00212BA
:104942004B00D002D003D006D0071BBBFF011AC018
:1049520003C00290099CE0C0E0A3E0C0E0C006C032
:104962000774FEC0E07465C0E07480C0E0125109B3
:10497200E58124F7F58122AFF0AE83E5829009A4A8
:10498200F0EEA3F0EFA3F09009A2E0FEA3E0FF8E09
:1049920004740C2FFD1CBCFF011DC374FF9C741F0B
:1049A2009D50167441C0E07466C0E07480C0E0128D
:1049B2005109158115811581228E04740C2FFD1C5D
:1049C200BCFF011D9009A4E0F9A3E0FAA3E0FB906B
:1049D200039EE4F0740CA3F09003A0E9F0EAA3F0C4
:1049E200EBA3F08E828F83C005C004123F06D00471
:1049F200D005900106ECF0EDA3F0900C0012211509
:104A02001220F49001F412218CE58260381221EF19
:104A1200E5828583F045F06016747CC0E07466C060
:104A2200E07480C0E012510915811581158122744C
:104A32009DC0E07466C0E07480C0E0125109158127
:104A4200158115812274CBC0E07466C0E07480C009
:0B4A5200E01251091581158115812229
:1064CE000A48657864756D70202853697A653A209C
:1064DE002564293A0A002530325820000A000A0D98
:1064EE00496E76616C6964207374617274206164A4
:1064FE0064726573733A20253034580A0D000A0D04
:10650E004661696C656420746F20726561642070E9
:10651E0061636B657420737461727420616464725C
:10652E006573732062797465730A0D000A0D496EE6
:10653E0076616C6964206E65787420737461727410
:10654E0020616464726573733A2030782530345854
:10655E000A0D000A0D4D656D6F727920616C6C6FBE
:10656E00636174696F6E206661696C656420666F25
:10657E0072207061636B65742073697A653A2025A9
:10658E00640A0D000A0D4661696C656420746F2003
:10659E0072656164207061636B65742064617461FF
:1065AE000A0D000A50726F6365737365642072651D
:1065BE0073706F6E736520646174613A0A000A4EDF
:1065CE006F20726573706F6E73652067656E65728E
:1065DE006174656420627920544350207061636B4E
:1065EE0065742070726F63657373696E672E0A002F
:1065FE000A0D5375636365737366756C6C792070E1
:10660E00726F636573736564207061636B6574206C
:10661E006F662073697A652025642066726F6D201F
:10662E0030782530345820746F2030782530345827
:10663E000A0D000A496E76616C69642042756666C1
:10664E0065722053697A652E2042756666657220E2
:10665E00657863656564732076616C696420616436
:10666E0064726573732072616E67652E0A005443FF
:10667E005020726571756573742073656E74207326
:10668E0075636365737366756C6C792E0A0D0054B1
:10669E004350207472616E736D697373696F6E20EF
:1066AE006661696C65642E20436865636B20657254
:1066BE00726F7220666C6167732E0A0D00547261E0
:1066CE006E736D697373696F6E2074696D656F7526
:1066DE00742E20454E4332384A3630206D61792073
:1066EE006E6F742062652066756E6374696F6E6975
:1066FE006E6720636F72726563746C792E0A0D007B
:104A5D00AF83E5829009A7F0EFA3F03099FD90099F
:104A6D00A7E0FEA3E0FF8E99C2998E828F8322105C
:104A7D00980280FBAE997F008E828F8322AFF0AEBD
:104A8D0083E5829009A9F0EEA3F0EFA3F09009A9B8
:104A9D00E0FDA3E0FEA3E0FF7B007C008D828E8312
:104AAD008FF0125B2BFA60360DBD00010E9009A937
:104ABD00EDF0EEA3F0EFA3F08A017A0089828A83EC
:104ACD00C007C006C005C004C003124A5DD003D0A4
:104ADD0004D005D006D0070BBB00C10C80BE9009D9
:104AED00A9EDF0EEA3F0EFA3F00BBB00010C8B8250
:104AFD008C8322AFF0AE83E5829009ACF0EEA3F08B
:104B0D00EFA3F09009ACE0FDA3E0FEA3E09009ACAB
:104B1D00E0F5F0A3E045F07001229009B1E4F0A3B7
:104B2D00F09009C1E0FBA3E0FC9009AFEBF0ECA322
:104B3D00F09009B374C1F07409A3F09009AFE0FBD4
:104B4D00A3E0FC4B60418B018C02C003C0048D00BF
:104B5D008E04C3E998EA9CD004D003502A9009B181
:104B6D00EBF0ECA3F074022BFBE43CFC9009B3EBEF
:104B7D00F0ECA3F08B828C83E0FBA3E0FC9009AFFB
:104B8D00EBF0ECA3F080B49009AFE0FEA3E0FF9052
:104B9D0009ACE0FBA3E0FCA3E0EB24FEFBEC34FF4F
:104BAD00FC74022BFAE43CFD8A828D83EEF0EFA3B8
:104BBD00F09009B3E0F8A3E0F988828983EBF0EC7B
:104BCD00A3F08B828C83E0F8A3E0F9EEB50033EF10
:104BDD00B5012F88828983A3A3E0FEA3E0FF8A821B
:104BED008D83EEF0EFA3F08B828C83E0FEA3E0FFCC
:104BFD008E828F83E0FEA3E0FF8B828C83EEF0EF3D
:104C0D00A3F09009B1E0FEA3E0FF4E603C8E828FD1
:104C1D0083E0F8A3E0F9E8B5032FE9B5042B8B8207
:104C2D008C83E0FBA3E0FC8E828F83EBF0ECA3F092
:104C3D0074022EFEE43FFF8A828D83E0FAA3E0FD2D
:0A4C4D008E828F83EAF0EDA3F022BF
:06203800E478FFF6D8FD7C
:104C5700AFF0AE83E5829009BAF0EEA3F0EFA3F0D0
:104C67009009BAE0F539A3E0F53AA3E0F53BAA3994
:104C7700AB3AAC3B9009B5E0F8A3E0F9A3E0FF90AD
:104C870009B8E0F53CA3E0F53DAD3CAE3D153C74FD
:104C9700FFB53C02153DED4E6020888289838FF079
:104CA700125B2BFEA3A882A9838A828B838CF0EEEA
:104CB700124CF3A3AA82AB8380CF853982853A83CE
:104CC700853BF022AC82AD839009BEE0FEA3E0FFF6
:104CD700BE000360121F0F9009BDE08C828D831206
:0C4CE7004CF3A3DEFADFF88C828D8322F0
:102016007914E94400601B7A0190671B780A75A061
:102026000EE493F2A308B8000205A0D9F4DAF2751B
:02203600A0FF09
:104CF30020F71130F6138883A88220F509F6A883DC
:104D03007583002280FEF280F5F022C01C85811C91
:104D1300E51C24FDF8868318868218E493A324DB1C
:104D2300600C24256005124DFC80F0024E14D2D590
:104D3300E493A3C083C082B4731486F018868318E7
:104D4300868218125B2B6054A3124DFC80F5B4636A
:104D53000818E618124DFC8043B46417E630E746A2
:104D630018E6F42401F608E6F43400F6742D124D27
:104D7300FC8033B4782D868318868218E4124DEDB7
:104D8300E583124DECE583124DEDE582124DECE522
:104D930082124DED30D5057430124DFCD082D08394
:104DA300024D1EB475F6E6FA18E6F9187C107D2755
:104DB300124DD7FF7CE87D03124DD7C4F5837C6485
:104DC3007D00124DD74283E975F00A84C445F0F59E
:104DD30082EF80A97B000BC3E99CF9EA9DFA50F6A8
:104DE3001BE92CF9EA3DFAEB22C4540F700320D5DA
:104DF3001FC2D52490D43440D4C083C082C0F0F500
:104E030082E8C0E0124A5DD0E0F8D0F0D082D083CF
:104E130022D01C229009C1740AF0740AA3F090678F
:104E230019E493FE740193FF1EBEFF011FEE240AD3
:104E3300FEEF340AFF900A0AEEF0EFA3F09009C1E7
:104E4300E0FEA3E0FF8E828F83A3A3E4F0A3F0220E
:104E5300AF83E5829009C3F0EFA3F09009C1E0F5B9
:104E6300F0A3E045F07003124E179009C3E0FEA3D0
:104E7300E0FF4E600E74022EFCE43FFDC3EC9EED9A
:104E83009F5004900000229009C374022EF0E43F67
:104E9300A3F09009C3E0FEA3E0FFC3EE9404EF94F4
:104EA3000050099009C37404F0E4A3F09009C1E031
:104EB300FEA3E0FF9009C5EEF0EFA3F09009C774DD
:104EC300C1F07409A3F09009C5E0FEA3E0FF4E70A2
:104ED30003024FB88E828F83E0FCA3E0FD8C028D2A
:104EE300038E008F01EAC398FAEB99FB8A008B01CA
:104EF3009009C3E0F51AA3E0F51BC3E8951AE995F9
:104F03001B5003024F957404251AF8E4351BF9C3AB
:104F1300EA98EB99404C8E028F03E51A2AFAE51BB7
:104F23003BFB8A828B83ECF0EDA3F074022AFCE452
:104F33003BFD8E828F83A3A3E0F8A3E0F98C828DDF
:104F430083E8F0E9A3F09009C7E0FCA3E0FD8C82BD
:104F53008D83EAF0EBA3F08E828F83EAF0EBA3F06C
:104F6300801C9009C7E0FCA3E0FD8E828F83A3A37E
:104F7300E0FAA3E0FB8C828D83EAF0EBA3F09009C7
:104F8300C5E0FCA3E0FD74022CFCE43DFD8C828DA6
:104F9300832274022EFEE43FFF9009C7EEF0EFA3D5
:104FA300F08E828F83E0FEA3E0FF9009C5EEF0EF61
:104FB300A3F0024EC990000022AA83AB828BF0902B
:104FC30009C9E0A4F8A9F08AF0E0A429F98BF0A3B9
:104FD300E0A429F58388822222AFF0AE83E5829094
:104FE30009D0F0EEA3F0EFA3F09009CEE0FEA3E02A
:104FF300FF9009CEE0F5F0A3E045F07004900000C7
:10500300221EBEFF011FEE4F6075C006C007900948
:10501300D0E0FBA3E0FCA3E0FD8B008C018D0288B4
:105023008289838AF0125B2BF89009CBE0F539A3D0
:10503300E0F53AA3E0F53BA939AA3AAF3B89828A66
:10504300838FF0125B2BF9E8B501028006D007D0FD
:1050530006802CD007D0060BBB00010C9009D0EBC7
:10506300F0ECA3F0EDA3F0AB39AC3AAD3B0BBB00D6
:10507300010C9009CBEBF0ECA3F0EDA3F080829050
:1050830009D0E0FDA3E0FEA3E0FF8D828E838FF0C5
:10509300125B2BFD7F009009CBE0FBA3E0FCA3E0B8
:1050A300FE8B828C838EF0125B2BFB7E00EDC39B09
:0850B300FDEF9E8D82F58322C2
:10203E007800E84400600A790075A001E4F309D83D
:10204E00FC780AE8440D600C790E900100E4F0A3D0
:04205E00D8FCD9FAD7
:1050BB00C01C85811C7E008E83124A5DD01C22AFE2
:1050CB00F0AE83E5829009D4F0EEA3F0EFA3F0905D
:1050DB0009D4E0FDA3E0FEA3E0FF9009D3E0FC9030
:1050EB0009E8E4F0A3F0A3F09009EBEDF0EEA3F0E8
:1050FB00EFA3F09009EEECF09050BB02520FC01CE6
:10510B00E581F51C24FBFF9009E8E4F0A3F0A3F084
:10511B00E51C24FBF89009EBE6F008E6A3F008E6A3
:10512B00A3F09009EEEFF09050BB12520FD01C225F
:10513B00E5829009E4F0E0FF9009DAE0C0E0A3E03B
:10514B00C0E0A3E0C0E0125156800D9009D8E0C03A
:10515B00E0A3E0C0E08F82221581158115819009B3
:10516B00E2E02401F0A3E03400F022E5829009E5AF
:10517B00F0E02430FF24C6500D74072FFF9009D7A1
:10518B00E060034307208F8202513BE5829009E6E2
:10519B00F0E0FFC4540FF582C007125176D00753CD
:1051AB00070F8F82025176E5829009E7F09009DDB7
:1051BB00E0FCA3E0FDA3E0FEA3E0FF9009E1E0FB30
:1051CB009009E7E0FA79208B00E828F539EF2354B2
:1051DB00014539FBEC2CFCED33FDEE33FEEF33FFD9
:1051EB00C3EB9A4007EBC39AFB43040119E970D751
:1051FB009009DDECF0EDA3F0EEA3F0EFA3F0900936
:10520B00E1EBF022AF83E5829009EFF0EFA3F09092
:10521B0009EFE0FEA3E0FF9009D8EEF0EFA3F090CA
:10522B0009E8E0FDA3E0FEA3E0FF9009DAEDF0EE64
:10523B00A3F0EFA3F09009E2E4F0A3F09009EBE008
:10524B00FDA3E0FEA3E0FF8D828E838FF0125B2B1C
:10525B00FC9009EB74012DF0E43EA3F0EFA3F0EC0E
:10526B007003025B07BC25028003025AFF9009F111
:10527B00E4F09009F2F09009F3F09009F4F0900942
:10528B00F5F09009F6F09009F7F09009F8F0900915
:10529B00FAF09009FBF0A3F09009FD14F0A3F09045
:1052AB0009EBE0FDA3E0FEA3E0FF8D828E838FF080
:1052BB00125B2BFBA3AD82AE839009EBEDF0EEA35B
:1052CB00F0EFA3F0900A01EBF0BB25088B82125193
:1052DB003B025247BB300050030253A8EB24C6508D
:1052EB00030253A89009FDE0F52FA3E0F53074FFFE
:1052FB00B52F63B53060C005C006C0079009FBE051
:10530B00FAA3E0FF9009C9EAF0EFA3F090000AC0FE
:10531B0005C003124FBCAE82AF83D003D0058B0503
:10532B007A00ED2EFEEA3FFFEE24D0FEEF34FFFFB6
:10533B009009FBEEF0EFA3F0D007D006D005900953
:10534B00FBE0F5F0A3E045F060030252B59009F2E3
:10535B007401F00252B5C005C006C0079009C9E53B
:10536B002FF0E530A3F090000AC006C005C0031271
:10537B004FBCAA82AF83D003D005D0067E00EB2AA8
:10538B00FAEE3FFFEA24D0FAEF34FFFF9009FDEA73
:10539B00F0EFA3F0D007D006D0050252B5900A016A
:1053AB00E0FBBB2E2FC005C006C0079009FDE0FA3D
:1053BB00A3E0FFBAFF05BFFF028009D007D006D0DC
:1053CB00050252B5D007D006D0059009FDE4F0A335
:1053DB00F00252B5BB61004014EB2485400F900ADC
:1053EB000174DF5BF09009D77401F080059009D749
:1053FB00E4F0900A01E0FBBB20028075BB2B02801E
:10540B0067BB2D028059BB4202806FBB4302807C7D
:10541B00BB440302569FBB46030256C5BB4803025F
:10542B0052B5BB490302569FBB4A030252B5BB4C54
:10543B00028050BB4F030256ADBB500302560DBB4F
:10544B0053028077BB54030252B5BB55030256B5CA
:10545B00BB58030256BDBB5A030252B50256CD9040
:10546B0009F17401F00252B59009F37401F0025284
:10547B00B59009F47401F00252B59009F67401F07D
:10548B000252B59009F77401F00252B59009F6E09B
:10549B00600E9009EEE014F9F0900A01E7F0800F2E
:1054AB009009EEE024FEFFF08F01900A01E7F090E7
:1054BB000A01E0F58212513B0256DC9009EEE02422
:1054CB00FDFFF08F018705098706098707191990DA
:1054DB0009DDEDF0EEA3F0EFA3F08D828E838FF05C
:1054EB00125B1385822F8583309009FDE0FAA3E0D0
:1054FB00FDBAFF0DBDFF0A9009FDE52FF0E530A3C6
:10550B00F09009F1E0704B9009FBE0FAA3E0FDC3CA
:10551B00E52F9AE5309D503A9009FBEAC3952FF0A1
:10552B00ED9530A3F09009FBE0FAA3E0FD8A068D20
:10553B00071ABAFF011DEE4F6010758220C005C01F
:10554B000212513BD002D00580E39009FBEAF0ED4B
:10555B00A3F09009FDE0F532A3E0F5339009DDE00F
:10556B00FAA3E0FDA3E0FF8A828D838FF0125B2B01
:10557B00F531603CC3E4953274808533F063F08081
:10558B0095F0502C153274FFB532021533853182EC
:10559B0012513B9009DDE0FAA3E0FDA3E0FF0ABA4C
:1055AB0000010D9009DDEAF0EDA3F0EFA3F080AC64
:1055BB009009F1E070030256DC9009FBE0FEA3E0DA
:1055CB00FFC3E52F9EE5309F40030256DC9009FB9D
:1055DB00EEC3952FF0EF9530A3F09009FBE0FEA3FF
:1055EB00E0FF8E028F051EBEFF011FEA4D70030206
:1055FB0056D4758220C007C00612513BD006D00787
:10560B0080E09009EEE024FDFDF08D0187340987E1
:10561B003509873619199009DDE534F0E535A3F026
:10562B00E536A3F09009DFE0FDBD80004008900A4D
:10563B00017443F08020BD60004008900A01745053
:10564B00F08013BD40004008900A017449F08006B9
:10565B00900A017458F0900A01E0FDF582C0051222
:10566B00513B75823A12513B75823012513B758218
:10567B007812513BD005BD4902800EBD5002800906
:10568B009009DEE0F5821251969009DDE0F5821269
:10569B005196803D9009F57401F09009FA740AF067
:1056AB00802F9009FA7408F080279009FA740AF099
:1056BB00801F9009FA7410F080179009F87401F0AC
:1056CB00800F8B8212513B80089009FBEEF0EFA309
:1056DB00F09009F8E060719009EEE024FCFFF08F88
:1056EB000187030987050987060987071919199087
:1056FB0009DDEBF0EDA3F0EEA3F0EFA3F09009DDE5
:10570B00740EF07467A3F07480A3F09009DDE0F5DC
:10571B0034A3E0F535A3E0F53674012534FAE4350E
:10572B0035FBAF369009DDEAF0EBA3F0EFA3F08584
:10573B0034828535838536F0125B2BFF7003025262
:10574B00478F8212513B80C39009FAE070030252DB
:10575B00479009F6E060479009EEE014F9F08707EF
:10576B007E007D007B009009DDEFF0EEA3F0EDA352
:10577B00F0EBA3F09009F5E0600302581F9009DDF0
:10578B00E0FBA3E0A3E0A3E07D007E007F00900997
:10579B00DDEBF0EDA3F0EEA3F0EFA3F08076900934
:1057AB00F7E060289009EEE024FCFFF08F018703FF
:1057BB000987050987060987071919199009DDEB70
:1057CB00F0EDA3F0EEA3F0EFA3F080489009EEE02C
:1057DB0024FEFFF08F01870609870719EF3395E049
:1057EB00FDFB9009DDEEF0EFA3F0EDA3F0EBA3F0E2
:1057FB009009F5E0701E9009DDE0FBA3E0FDA3E04E
:10580B00A3E07E007F009009DDEBF0EDA3F0EEA3AB
:10581B00F0EFA3F09009F5E0603D9009DDE0A3E027
:10582B00A3E0A3E030E72B9009DDE0FBA3E0FDA3B1
:10583B00E0FEA3E0FFC3E49BFBE49DFDE49EFEE4DE
:10584B009FFF9009DDEBF0EDA3F0EEA3F0EFA3F0DB
:10585B0080059009F5E4F09009F97401F09009FACC
:10586B00E0F53275370775380AE4F52FF5309009F6
:10587B00E1E4F08532821251B29009F9E070339075
:10588B0009E1E0C454F0F5349009E1E0C4540F454C
:10589B0034F534853782853883E0FFE5344207855C
:1058AB003782853883EFF0153774FFB5370215381B
:1058BB00800B9009E1E0853782853883F0052FE472
:1058CB00B52F0205309009F9E0B40100E433F090F4
:1058DB0009DDE0FAA3E0FBA3E0FEA3E0FFEA4B4EF9
:1058EB004F708B900A08E537F0E538A3F09009FF6D
:1058FB00E52FF0E530A3F09009FBE0F5F0A3E045D0
:10590B00F070099009FB7401F0E4A3F09009F2E048
:10591B00FFE070479009F1E07041852F37853038F3
:10592B009009FBE0FAA3E0FBC007AF370F8F067FB0
:10593B0000C3EE9AEF9BD0075019758220C007C0A9
:10594B0003C00212513BD002D003D0071ABAFF0199
:10595B001B80D59009FBEAF0EBA3F09009F5E06012
:10596B002075822DC00712513BD0079009FBE02414
:10597B00FFFDA3E034FFFE9009FBEDF0EEA3F080FA
:10598B00569009FFE0F5F0A3E045F0604A9009F36B
:10599B00E0602075822BC00712513BD0079009FBAA
:1059AB00E024FFFDA3E034FFFE9009FBEDF0EEA336
:1059BB00F080249009F4E0601E758220C00712511C
:1059CB003BD0079009FBE024FFFDA3E034FFFE90E2
:1059DB0009FBEDF0EEA3F09009F1E070449009FFA4
:1059EB00E0F537A3E0F5389009FBE0FAA3E0FBC044
:1059FB00078A068B071ABAFF011BC3E5379EE538EA
:105A0B009FD007504FEF60047E3080027E208E8245
:105A1B00C007C003C00212513BD002D003D0078095
:105A2B00CE9009FBE0FEA3E0FF9009FFE0F537A362
:105A3B00E0F538C3E5379EE5389F500F9009FBEE34
:105A4B00C39537F0EF9538A3F080119009FBE4F084
:105A5B00A3F080089009FBEAF0EBA3F0900A08E0B2
:105A6B00FEA3E0FF9009FFE0F537A3E0F538AA3776
:105A7B00AD38153774FFB537021538EA4D604490D1
:105A8B0009F9E0B40100E433F09009F9E070130E6A
:105A9B00BE00010F8E828F83E0C4540F9009E1F09A
:105AAB00800E8E828F83E0FD53050F9009E1EDF0A0
:105ABB009009E1E0F582C007C006125176D006D0FE
:105ACB000780AB9009F1E070030252479009FBE0AD
:105ADB00FEA3E0FF8E038F051EBEFF011FEB4D7073
:105AEB0003025247758220C007C00612513BD006F5
:105AFB00D00780E08C8212513B0252479009E2E0C2
:085B0B00FEA3E08E82F5832267
:0B670E003C4E4F20464C4F41543E00D3
:105B1300AA82AB83125B2B6003A380F8C3E5829A4E
:085B2300F582E5839BF5832266
:0267190000047A
:0D200900758142125B47E5826003022006EC
:105B2B0020F71430F6148883A88220F507E6A883A3
:105B3B0075830022E280F7E49322E0227582002233
:00000001FF
