:2020620090036A7401F090036BE4F0758203122F5390036AE4F090036B7411F0758203124C
:202082002F5390036A7403F090036B7422F0758203122F5390036A7402F090036B7433F04E
:2020A200758203122F5390036A7405F090036B7444F0758203122F5390036A7404F09003FE
:2020C2006B7455F0758203022F53AF83E582900100F0EFA3F0900102E4F0A3F0A3F0A3F0A0
:2020E200900100E0FEA3E0FF900393EEF0EFA3F09003E8C007C0061238CFAC82AD83D00612
:20210200D007900102E0F8A3E0F9A3E0FAA3E0FBC006C0077E007F00C3E89CE99DEA9EEB3A
:202122009FD007D0065023900102E0FAA3E0FBA3E0FCA3E0FD90010274012AF0E43BA3F020
:20214200E43CA3F0E43DA3F0809E22900373E4F075821F1230C9E5824408FF90036A741F99
:20216200F090036BEFF0758200022F53AF83E582900108F0EFA3F0900108E0FEA3E0FF90E8
:202182000106E0FCA3E0FDC3EE9CEF9D500D8C028D03C374FF9A741F9B5016747FC0E0741B
:2021A20043C0E07480C0E012393D158115811581228E0390036A7408F090036BEBF0758270
:2021C20000C007C006C005C004C003122F53D003D004D005D006D0078F0290036A7409F06C
:2021E20090036BEAF0758200C007C006C005C004C003C002122F53D002D003D004D005D0C1
:2022020006D0078C0190036A740AF090036BE9F0758200C007C006C005C004C003C002126C
:202222002F53D002D003D004D005D006D0078D0190036A740BF090036BE9F0758200C00790
:20224200C006C005C004C003C002122F53D002D003D004D005D006D00790036A740CF0901C
:20226200036BEBF0758200C007C006C005C004C002122F53D002D004D005D006D0079003F5
:202282006A740DF090036BEAF0758200C007C006C005C004122F53D004D005D006D007C0D2
:2022A20004C005C006C0077499C0E07443C0E07480C0E012393DE58124F9F58122AF83E574
:2022C2008290010CF0EFA3F090010CE0FEA3E0FF8E0590036A7404F090036BEDF0758200A4
:2022E200C007C006122F53D006D0078F0690036A7405F090036BEEF0758200122F5390011B
:202302000AE0FEA3E0FF8E0590036A7406F090036BEDF0758200C007C006122F53D006D0BE
:20232200078F0690036A7407F090036BEEF0758200022F53AF83E58290010EF0EFA3F09006
:20234200010EE0FEA3E0FF7C007D00C3EC9EED9F5041900373E4F075821FC007C006C00567
:20236200C0041230C9E582D004D005D006D00720E30475820122900001C007C006C005C00B
:20238200041220CCD004D005D006D0070CBC00BB0D80B875820022900373E4F075821D1202
:2023A20030C9E582035401B401009200E433F582229001107402F09001117411F0900112AB
:2023C20023F09001137433F09001147444F09001157455F090011674F8F09001177475F07D
:2023E20090011874A4F0900119748CF090011A7441F090011B7431F090011C74C0F090019D
:202402001D74A8F090011E7401F090011F7464F090012074C0F090012174A8F0900122744B
:2024220001F0900123F0900124740EF090011075F0001220627E007F00C3EE9406EF648029
:20244200948050488E05ED04FC3395E0FBEC2424FCEB3401FBEE2416F582EF3401F583E045
:202462008C828B83F074072DFD3395E0FCED2424FDEC3401FCEE2410F582EF3401F583E0A1
:202482008D828C83F00EBE00B00F80AD9001317408F09001327406F0900133E4F0900134BC
:2024A20004F09001357408F0900136E4F09001377406F09001387404F0900139E4F09001C7
:2024C2003A04F07E007F00C3EE9406EF6480948050298E0574172DFD3395E0FCED2424FD06
:2024E200EC3401FCEE2410F582EF3401F583E08D828C83F00EBE00CF0F80CC7E007F00C3E4
:20250200EE9404EF6480948050298E05741D2DFD3395E0FCED2424FDEC3401FCEE241CF56F
:2025220082EF3401F583E08D828C83F00EBE00CF0F80CC7F00BF060050198F0674212EFE94
:202542003395E0FDEE2424F582ED3401F583E4F00F80E27E007F00C3EE9404EF648094801B
:2025620050298E0574272DFD3395E0FCED2424FDEC3401FCEE2420F582EF3401F583E08DE3
:20258200828C83F00EBE00CF0F80CC9001507441F090015104F09001527448F090015304EF
:2025A200F09001547453F09001557448F09001567445F0900157744BF090038474F0F0E485
:2025C200A3F09003867424F07401A3F0E4A3F09000331234CF90010A7422F07401A3F090B5
:2025E20000F01222BF12214D9001F4122336E5826033122399E582601674FEC0E07443C058
:20260200E07480C0E012393D15811581158122741FC0E07444C0E07480C0E012393D15819B
:1B2622001581158122744DC0E07444C0E07480C0E012393D1581158115812296
:20437F00496E76616C6964205258206275666665722072616E67652E0A0052582062756687
:20439F0066657220696E697469616C697A65643A2030782530345820746F203078253034D4
:2043BF00582E0A000A496E76616C6964204275666665722053697A652E20427566666572A0
:2043DF0020657863656564732076616C696420616464726573732072616E67652E0A0041E1
:2043FF00525020726571756573742073656E74207375636365737366756C6C792E0A0D006F
:20441F00415250207472616E736D697373696F6E206661696C65642E20436865636B20651A
:20443F0072726F7220666C6167732E0A0D005472616E736D697373696F6E2074696D656FDE
:20445F0075742E20454E4332384A3630206D6179206E6F742062652066756E6374696F6ED1
:11447F00696E6720636F72726563746C792E0A0D00B2
:144ACB00021122334455FFFFFFFFFFFFC0A80164C0A80101A5
:03200000022006B5
:03205F0002200359
:0320030002287B35
:20263D00AFF0AE83E582900157F0EEA3F0EFA3F090015AE4F0A3F0900157E0FDA3E0FEA330
:20265D00E0FF8D028E038F048D138E148F1578007900C002C003C004E82513FAE93514FB64
:20267D00AC158A828B838CF012435FF516D004D003D002E51670030227EBC002C003C004E3
:20269D0085161775180090015CE517F0E518A3F090015AE0FBA3E0C454F0CBC4CB6BCB5440
:2026BD00F0CB6BFC90015AEBF0ECA3F0C3E5179430E51864809480D004D003D002403F74B2
:2026DD0039951774808518F063F08095F0402FC002C003C004E51724D0F517E51834FFF546
:2026FD001890015AE0FAA3E0FC90015AE5172AF0E5183CA3F0D004D003D0020227E390017E
:20271D005CE0F517A3E0F518C3E5179441E51864809480404E7446951774808518F063F073
:20273D008095F0403EC005C006C007E82AFDE93BFE8C078D828E838FF012435F7F0024C924
:20275D00F517EF34FFF51890015AE0FEA3E0FF90015AE5172EF0E5183FA3F0D007D006D085
:20277D0005806390015CE0F517A3E0F518C3E5179461E51864809480404C7466951774803C
:20279D008518F063F08095F0403CC002C003C004E82DFAE93EFB8F048A828B838CF01243C3
:2027BD005F7C0024A9F517EC34FFF51890015AE0FBA3E0FC90015AE5172BF0E5183CA3F009
:2027DD00D004D003D00208B800010902266F90015AE0FEA3E08E82F583227E007F00C00748
:2027FD00C006123727AC82D006D007BC0A02803ABC0D028035C3EE9409EF64809480502AFA
:20281D008C037D008B828D83C007C006C004123708D004D006D007EE245EF582EF3401F54F
:20283D0083ECF00EBE00B70F80B4EE245EF582EF3401F583E4F090015EF5F012263DAE8286
:20285D00AF83C007C0067490C0E07444C0E01237C615811581D006D0078E828F832274936D
:20287D00C0E07444C0E07480C0E012393D158115811581122FAF12367B74ACC0E07444C07A
:20289D00E07480C0E012393D15811581158174C3C0E07444C0E07480C0E012393D15811567
:2028BD0081158174D9C0E07444C0E07480C0E012393D15811581158174EEC0E07444C0E067
:2028DD007480C0E012393D1581158115817402C0E07445C0E07480C0E012393D1581158146
:2028FD001581741CC0E07445C0E07480C0E012393D1581158115817432C0E07445C0E074AB
:20291D0080C0E012393D1581158115817447C0E07445C0E07480C0E012393D15811581151F
:20293D00817459C0E07445C0E07480C0E012393D1581158115817473C0E07445C0E0748081
:20295D00C0E012393D1581158115817488C0E07445C0E07480C0E012393D1581158115819D
:20297D0074A1C0E07445C0E07480C0E012393D158115811581123727AE828E057F008D828D
:20299D008F83C0061237087490C0E07444C0E07480C0E012393D158115811581D006BE3152
:2029BD00005003022E8BEE24BD5003022E8BEE24CFFE240A83F582EE241683F583E473008E
:2029DD0068663799043F5ABC8B8B8B8B8B8B8B7C852A2A2B2C2C2D2D2D2D2E2E2E2E2E2E76
:2029FD002E2E2E74B9C0E07445C0E07480C0E012393D1581158115811227F7AE82C0067492
:202A1D00DEC0E07445C0E07480C0E012393D1581158115811227F7AD82C005740BC0E0742D
:202A3D0046C0E07480C0E012393D1581158115811227F7AC82D005D00690036AEDF090033F
:202A5D006BECF08E82122F53022896742FC0E07446C0E07480C0E012393D15811581158133
:202A7D001227F7AE82AF83C007C0067455C0E07446C0E07480C0E012393D15811581158179
:202A9D001227F7AC82AD83D006D007C007C006C005C004C006C0077473C0E07446C0E074E6
:202ABD0080C0E012393DE58124FBF581D004D005D006D0077A007B00C3EA9EEB64808FF072
:202ADD0063F08095F05063C004C005C007C006C005C004C003C002C002C0037496C0E07407
:202AFD0046C0E07480C0E012393DE58124FBF581D002D003D004D005EA2468F8EB3401F9E7
:202B1D00C003C002C001C0001227F7AC82D000D001D002D003D006D00788828983ECF00A45
:202B3D00BA00010BD005D004808E900384ECF0EDA3F09003867468F07401A3F0E4A3F08E96
:202B5D00828F831234CF02289674A0C0E07446C0E07480C0E012393D1581158115811227CA
:202B7D00F7AE82AF83C007C0067455C0E07446C0E07480C0E012393D158115811581122778
:202B9D00F7AC82AD83D006D00790037BECF0EDA3F090037D7468F07402A3F0E4A3F08E8240
:202BBD008F83C007C00612332E74C5C0E07446C0E07480C0E012393D158115811581D006FF
:202BDD00D0077C007D00C3EC9EED64808FF063F08095F04003022896EC2468F582ED3402FE
:202BFD00F583E0FB7A00C007C006C005C004C003C002C004C00574D2C0E07446C0E0748093
:202C1D00C0E012393DE58124F9F581D004D005D006D0070CBC00AF0D80AC74E4C0E07446BE
:202C3D00C0E07480C0E012393D1581158115811227F7AE82C006740DC0E07447C0E0748063
:202C5D00C0E012393D1581158115811227F7AD82D006900373EEF08D821230C9AF827E008B
:202C7D00C007C0067436C0E07447C0E07480C0E012393DE58124FBF5810228967452C0E0C8
:202C9D007447C0E07480C0E012393D1581158115811227F7AE82C0067474C0E07447C0E0D5
:202CBD007480C0E012393D1581158115811227F7AD82AF83D006900370EDF0EFA3F08E8240
:202CDD00C007C005123046D005D007C005C0077496C0E07447C0E07480C0E012393DE58104
:202CFD0024FBF58102289674AFC0E07447C0E07480C0E012393D1581158115811227F71224
:202D1D003137AE82AF83C006C00774D9C0E07447C0E07480C0E012393DE58124FBF58102DE
:202D3D00289674F1C0E07447C0E07480C0E012393D158115811581122FCD0228967409C06F
:202D5D00E07448C0E07480C0E012393D1581158115811227F7AE82C0067433C0E07448C053
:202D7D00E07480C0E012393D1581158115811227F7AD82D00690036EEDF08E82122FD8AF8D
:202D9D00827E00C007C006744EC0E07448C0E07480C0E012393DE58124FBF5810228967480
:202DBD00ACC0E07444C0E07480C0E012393D15811581158174C3C0E07444C0E07480C0E0B1
:202DDD0012393D15811581158174D9C0E07444C0E07480C0E012393D15811581158174EE07
:202DFD00C0E07444C0E07480C0E012393D1581158115817402C0E07445C0E07480C0E012CB
:202E1D00393D158115811581741CC0E07445C0E07480C0E012393D1581158115817432C090
:202E3D00E07445C0E07480C0E012393D1581158115817447C0E07445C0E07480C0E01239CB
:202E5D003D1581158115817459C0E07445C0E07480C0E012393D15811581158102289612E0
:202E7D00368A1223B302289612367B022896746AC0E07448C0E07480C0E012393D158115A9
:062E9D0081158102289658
:204490000A0D00535049204F7065726174696F6E73206F6E20383035310A0D000A0D436801
:2044B0006F6F736520616E20616374696F6E3A200A0D0031202D2D3E20436F6E74726F6C4E
:2044D0002057726974650A0D0032202D2D3E204275666665722057726974650A0D00332091
:2044F0002D2D3E2042756666657220526561640A0D0034202D2D3E204D4143205265676963
:204510007374657220526561640A0D0035202D2D3E20504859205350492057726974650ADB
:204530000D0036202D2D3E205048592053504920526561640A0D0037202D2D3E20454E43BB
:204550002052657365740A0D0038202D2D3E2052656164204554482052656769737465721F
:204570000A0D0039202D2D3E20446973706C6179204D656E750A0D0041202D2D3E20536590
:204590006E642041525020526571756573740A0D0042202D2D3E20496E697420525820621C
:2045B0007566666572730A0D00456E746572207468652072656769737465722062616E6BA9
:2045D00020746F2073656C6563743A0A0D00456E7465722074686520616464726573732052
:2045F0006F662074686520436F6E74726F6C2052656769737465723A0A0D00456E746572C0
:2046100020746865206461746120796F752077616E7420746F2077726974653A0A0D004534
:204630006E74657220746865206E756D626572206F6620627974657320746F207772697482
:20465000653A0A0D00456E74657220746865207374617274696E6720616464726573733A69
:204670000A0D00456E746572202564206279746573206F6620646174612028696E2068656A
:2046900078293A0A0D00427974652025643A2000456E74657220746865206E756D62657279
:2046B000206F6620627974657320746F20726561643A0A0D005265616420446174613A0A44
:2046D0000D00427974652025643A203078253032580A0D00456E74657220746865204D417B
:2046F000432072656769737465722062616E6B20746F2073656C6563743A0A0D00456E740B
:204710006572207468652061646472657373206F6620746865204D41432052656769737476
:2047300065723A0A0D004D414320526567697374657220446174613A203078253032580A86
:204750000D00456E7465722074686520504859207265676973746572206164647265737341
:204770003A0A0D00456E746572207468652031362D626974206461746120746F2077726957
:2047900074653A0A0D0050485920577269746520446174613A203078253034580A0D0045EA
:2047B0006E7465722074686520504859207265676973746572206164647265737320746F30
:2047D00020726561643A0A0D00504859205265616420446174613A203078253034580A0D9B
:2047F00000526573657474696E6720454E4332384A36302E2E2E0A0D00456E7465722074B1
:20481000686520455448207265676973746572206164647265737320746F20726561643A36
:204830000A0D00456E746572207468652062616E6B202830206F722031293A0A0D00455459
:204850004820526567697374657220446174613A203078253032580A0D00496E76616C69A6
:2048700064206F7074696F6E2E20506C656173652073656C65637420612076616C696420F2
:0A489000616374696F6E2E0A0D005B
:202EA30075825F122FBE758202122FBE758254122FBE758214122FBE758256122FBE75822B
:202EC30000122FBE758257122FBE75820A022FBE22C29175825F122FBE758202122FBED21F
:202EE30091C291758254122FBE758214122FBED291C291758256122FBE7582A8122FBED225
:132F030091C291758257122FBE75823A122FBED2912222B3
:202F160075C5FFE5C430E7FB900368E5C5F0E0F58222C29175825E122FBE758280122FBE7C
:202F3600D29122E582900369F0C29175825F122FBE900369E0F582122FBED29122E582902D
:202F5600036CF090036AE02440F090036CE0F582122F39C29190036AE0FFF582C007122F4D
:202F7600BED00790036BE0FEF582C007C006122FBED006D007D2917D007C00C006C005C073
:202F960007C004749AC0E07448C0E07480C0E012393DE58124F9F58122D29175C30043C36E
:202FB6002043C31043C34022E58290036DF0E0F5C5E5C430E7FB22C2917582FF122FBED275
:202FD6009122E58290036FF0E0FF24E0501974BFC0E07448C0E07480C0E012393D1581158D
:202FF6008115817582002290036EE0F582C007122F39D007C2918F82C007122FBE122F169A
:20301600AE82D007D2918E047D007B00C006C004C005C007C00374F9C0E07448C0E0748070
:20303600C0E012393DE58124F9F581D0068E8222E582900372F0E0FF90036A7414F090030E
:203056006BEFF0758202C007122F53D007900370E0FDA3E0FE8D0490036A7416F090036B7E
:20307600ECF0758202C007C006C005122F53D005D006D0078E0490036A7417F090036BEC09
:20309600F0758202C007C006C005122F53D005D006D0077C00C005C006C007C004741DC0E6
:2030B600E07449C0E07480C0E012393DE58124F9F58122E582900374F0E0FF24E050197468
:2030D600BFC0E07448C0E07480C0E012393D15811581158175820022900373E0F582C00704
:2030F600122F39D007C2918F82C007122FBE122F16AE82D007D2918E047D007B00C006C06E
:2031160004C005C007C0037446C0E07449C0E07480C0E012393DE58124F9F581D0068E8294
:2031360022E582900375F0E0FF90036A7414F090036BEFF0758202C007122F53D007900309
:203156006A7412F090036B7401F0758202C007122F531231E4D00790036A7412F090036B53
:20317600E4F0758202C007122F53D0079003737402F0758218C0071230C9AE82D0077D0069
:203196009003737402F0758219C007C006C0051230C9AC82D005D006D0078C03E44206EBEA
:2031B60042057C00C006C005C006C005C007C0047469C0E07449C0E07480C0E012393DE5BA
:2031D6008124F9F581D005D0068E828D83229003737403F075820A1230C9E582900376F0FF
:2031F600900376E030E0149003737403F075820A1230C9E582900376F080E522AF83E582B3
:20321600900379F0EFA3F0900379E0FEA3E0FF8E048F05C374FF9C741F9D4017900377E045
:20323600FAA3E0FBEA2EF8EB3FF9C374FF98741F99502A900377E0C0E0A3E0C0E0900379A0
:20325600E0C0E0A3E0C0E07491C0E07449C0E07480C0E012393DE58124F9F581225304FE27
:20327600EA2EFEEB3FFF1EBEFF011F5306FE8D0390036A7408F090036BEBF0758200C00717
:20329600C006C005C004122F53D004D005D006D0078C0390036A7409F090036BEBF0758216
:2032B60000C007C006C005C004122F53D004D005D006D0078F0390036A740AF090036BEB12
:2032D600F0758200C007C006C005C004122F53D004D005D006D0078E0390036A740BF09064
:2032F600036BEBF0758200C007C006C005C004122F53D004D005D006D007C006C007C00427
:20331600C00574CFC0E07449C0E07480C0E012393DE58124F9F58122AF83E582900380F0BF
:20333600EFA3F0900380E0FEA3E0FFC3EE9401EF64809480501AC006C0077400C0E0744A8C
:20335600C0E07480C0E012393DE58124FBF5812290037BE0FCA3E0FD8C028D03C374FF9A26
:20337600741F9B501AC004C0057420C0E0744AC0E07480C0E012393DE58124FBF58122C388
:2033960074019E74808FF063F08095F0500BC005C004122F28D004D0058D078C0690036A20
:2033B6007401F090036BEFF0758200C006C005C004122F53D004D005D00690036AE4F090FB
:2033D600036BEEF0758200C005C004122F53C29175823A122FBED004D005900380E0FEA3B7
:2033F600E0FFC007C006C004C005C006C007743AC0E0744AC0E07480C0E012393DE58124E3
:20341600F9F581D006D007900382E4F0A3F090037DE0FBA3E0FCA3E0FD900382E0F9A3E0A3
:20343600FAC3E99EEA64808FF063F08095F040030234CCC006C007C007C006C005C004C0E5
:2034560003C002C001122F16A882D001D002D003D004D005D006D0078B828C838DF0E812F0
:2034760037ABA3AB82AC837F0009B900010AC007C006C005C004C003C002C001C000C00726
:20349600C001C0027475C0E0744AC0E07480C0E012393DE58124F9F581D001D002D003D051
:2034B60004D005D006D007900382E9F0EAA3F0D007D00602342FD29122AF83E582900389B9
:2034D600F0EFA3F0900389E0FEA3E0FFC3EE9401EF64809480501AC006C0077400C0E0743C
:2034F6004AC0E07480C0E012393DE58124FBF58122900384E0FCA3E0FD8C028D03C374FFCC
:203516009A741F9B501AC004C0057420C0E0744AC0E07480C0E012393DE58124FBF581220F
:20353600C374019E74808FF063F08095F0500BC005C004122F28D004D0058D078C06900325
:203556006A7403F090036BEFF0758200C006C005C004122F53D004D005D00690036A7402DB
:20357600F090036BEEF0758200C005C004122F53C29175827A122FBED004D005900389E0ED
:20359600FEA3E0FFC007C006C004C005C006C0077487C0E0744AC0E07480C0E012393DE5F8
:2035B6008124F9F581D006D00790038BE4F0A3F0900386E0FBA3E0FCA3E0FD90038BE0F9C5
:2035D600A3E0FAC3E99EEA64808FF063F08095F04003023678C006C0078B828C838DF0123E
:2035F600435FF87F0009B900010AC007C006C005C004C003C002C001C000C007C001C00269
:203616007475C0E0744AC0E07480C0E012393DE58124F9F581D001D002D003D004D005D0A9
:2036360006D0078B828C838DF012435FFFA3AB82AC838F82C007C006C005C004C003C002A0
:20365600C001122FBED001D002D003D004D005D006D00790038BE9F0EAA3F0D007D00602A5
:2036760035D1D291229001067410F0E4A3F090000002216E90036A7402F090036B7470F0D1
:20369600758202122F5390036A7403F090036B7440F0758202122F5390036A740AF09003F6
:2036B6006B74EEF0758202122F5390036A740BF090036B7405F0758202122F5390036A74D9
:2036D60004F090036B7412F0758202122F5390036A7406F090036B7412F0758202122F5377
:1236F60090036A7407F090036B740CF0758202022F536F
:20489A0057726974653A2041646472657373203078253032582C2044617461203078253049
:2048BA0032580A0D000A0D496E76616C696420616464726573733A204D4143207265676967
:2048DA007374657220616464726573732072616E6765205B302C20307831465D0A0D0052F1
:2048FA006561643A2041646472657373203078253032582C20446174612030782530325840
:20491A000A0D005048592057726974653A2041646472657373203078253032582C20446192
:20493A007461203078253034580A0D00526561643A20416464726573732030782530325885
:20495A002C2044617461203078253032580A0050485920526561643A204164647265737319
:20497A00203078253032582C2044617461203078253034580A0D000A0D496E76616C696412
:20499A00204275666665722041646472657373206F722053697A653A205374617274203029
:2049BA0078253034582C2053697A65203078253034580A0D000A0D42756666657220496E95
:2049DA00697469616C697A65643A205374617274203078253034582C20456E64203078259D
:2049FA003034580A0D000A0D496E76616C6964206E756D626572206F662062797465733ACD
:204A1A002025640A0D000A0D496E76616C696420616464726573733A20253034580A0D0086
:204A3A0052656164696E672025642062797465732066726F6D2062756666657220737461DC
:204A5A007274696E672061742061646472657373203078253034583A0A0D0042797465206F
:204A7A0025643A203078253032580A0D0057726974696E6720256420627974657320746FC4
:204A9A0020627566666572207374617274696E6720617420616464726573732030782530BE
:064ABA0034583A0A0D0019
:20370800AF83E58290038DF0EFA3F03099FD90038DE0FEA3E0FF8E99C2998E828F8322105A
:20372800980280FBAE997F008E828F8322AFF0AE83E58290038FF0EEA3F0EFA3F090038FF4
:20374800E0FDA3E0FEA3E0FF7B007C008D828E838FF012435FFA60360DBD00010E90038FAC
:20376800EDF0EEA3F0EFA3F08A017A0089828A83C007C006C005C004C003123708D003D077
:2037880004D005D006D0070BBB00C10C80BE90038FEDF0EEA3F0EFA3F00BBB00010C8B82E8
:0337A8008C8322ED
:06203500E478FFF6D8FD7F
:202013007914E94400601B7A01904ACB78CC75A003E493F2A308B8000205A0D9F4DAF2757B
:02203300A0FF0C
:1B37AB0020F71130F6138883A88220F509F6A8837583002280FEF280F5F0221D
:2037C600C008858108E50824FDF8868318868218E493A324DB600C242560051238B480F025
:2037E6000238CCD2D5E493A3C083C082B4731486F01886831886821812435F6054A3123818
:20380600B480F5B4630818E6181238B48043B46417E630E74618E6F42401F608E6F43400EE
:20382600F6742D1238B48033B4782D868318868218E41238A5E5831238A4E5831238A5E53B
:20384600821238A4E5821238A530D50574301238B4D082D0830237D6B475F6E6FA18E6F946
:20386600187C107D2712388FFF7CE87D0312388FC4F5837C647D0012388F4283E975F00AD6
:2038860084C445F0F582EF80A97B000BC3E99CF9EA9DFA50F61BE92CF9EA3DFAEB22C45419
:2038A6000F700320D51FC2D52490D43440D4C083C082C0F0F582E8C0E0123708D0E0F8D008
:0938C600F0D082D08322D0082248
:2038CF00AA83AB828BF0900393E0A4F8A9F08AF0E0A429F98BF0A3E0A429F5838882222218
:20203B007800E84400600A790075A001E4F309D8FC78CCE84402600C7903900100E4F0A3D2
:04205B00D8FCD9FADA
:2038EF00C0088581087E008E83123708D00822AFF0AE83E582900396F0EEA3F0EFA3F09026
:20390F000396E0FDA3E0FEA3E0FF900395E0FC9003AAE4F0A3F0A3F09003ADEDF0EEA3F046
:20392F00EFA3F09003B0ECF09038EF023A43C008E581F50824FBFF9003AAE4F0A3F0A3F021
:20394F00E50824FBF89003ADE6F008E6A3F008E6A3F09003B0EFF09038EF123A43D00822DA
:20396F00E5829003A6F0E0FF90039CE0C0E0A3E0C0E0A3E0C0E012398A800D90039AE0C0A5
:20398F00E0A3E0C0E08F82221581158115819003A4E02401F0A3E03400F022E5829003A78A
:2039AF00F0E02430FF24C6500D74072FFF900399E060034307208F8202396FE5829003A8AF
:2039CF00F0E0FFC4540FF582C0071239AAD00753070F8F820239AAE5829003A9F090039FB4
:2039EF00E0FCA3E0FDA3E0FEA3E0FF9003A3E0FB9003A9E0FA79208B00E828F513EF235490
:203A0F00014513FBEC2CFCED33FDEE33FEEF33FFC3EB9A4007EBC39AFB43040119E970D76F
:203A2F0090039FECF0EDA3F0EEA3F0EFA3F09003A3EBF022AF83E5829003B1F0EFA3F090D4
:203A4F0003B1E0FEA3E0FF90039AEEF0EFA3F09003AAE0FDA3E0FEA3E0FF90039CEDF0EE9F
:203A6F00A3F0EFA3F09003A4E4F0A3F09003ADE0FDA3E0FEA3E0FF8D828E838FF012435F11
:203A8F00FC9003AD74012DF0E43EA3F0EFA3F0EC700302433BBC250280030243339003B30F
:203AAF00E4F09003B4F09003B5F09003B6F09003B7F09003B8F09003B9F09003BAF09003FA
:203ACF00BCF09003BDF0A3F09003BF14F0A3F09003ADE0FDA3E0FEA3E0FF8D828E838FF0B0
:203AEF0012435FFBA3AD82AE839003ADEDF0EEA3F0EFA3F09003C3EBF0BB25088B82123974
:203B0F006F023A7BBB30005003023BDCEB24C65003023BDC9003BFE0F509A3E0F50A74FFB3
:203B2F00B50963B50A60C005C006C0079003BDE0FAA3E0FF900393EAF0EFA3F090000AC05C
:203B4F0005C0031238CFAE82AF83D003D0058B057A00ED2EFEEA3FFFEE24D0FEEF34FFFF1F
:203B6F009003BDEEF0EFA3F0D007D006D0059003BDE0F5F0A3E045F06003023AE99003B468
:203B8F007401F0023AE9C005C006C007900393E509F0E50AA3F090000AC006C005C00312BA
:203BAF0038CFAA82AF83D003D005D0067E00EB2AFAEE3FFFEA24D0FAEF34FFFF9003BFEA25
:203BCF00F0EFA3F0D007D006D005023AE99003C3E0FBBB2E2FC005C006C0079003BFE0FAF6
:203BEF00A3E0FFBAFF05BFFF028009D007D006D005023AE9D007D006D0059003BFE4F0A33B
:203C0F00F0023AE9BB61004014EB2485400F9003C374DF5BF09003997401F08005900399F7
:203C2F00E4F09003C3E0FBBB20028075BB2B028067BB2D028059BB4202806FBB4302807C22
:203C4F00BB4403023ED3BB4603023EF9BB4803023AE9BB4903023ED3BB4A03023AE9BB4C8A
:203C6F00028050BB4F03023EE1BB5003023E41BB53028077BB5403023AE9BB5503023EE92C
:203C8F00BB5803023EF1BB5A03023AE9023F019003B37401F0023AE99003B57401F0023A96
:203CAF00E99003B67401F0023AE99003B87401F0023AE99003B97401F0023AE99003B8E063
:203CCF00600E9003B0E014F9F09003C3E7F0800F9003B0E024FEFFF08F019003C3E7F0900A
:203CEF0003C3E0F58212396F023F109003B0E024FDFFF08F0187050987060987071919904F
:203D0F00039FEDF0EEA3F0EFA3F08D828E838FF012434785820985830A9003BFE0FAA3E006
:203D2F00FDBAFF0DBDFF0A9003BFE509F0E50AA3F09003B3E0704B9003BDE0FAA3E0FDC3EB
:203D4F00E5099AE50A9D503A9003BDEAC39509F0ED950AA3F09003BDE0FAA3E0FD8A068D45
:203D6F00071ABAFF011DEE4F6010758220C005C00212396FD002D00580E39003BDEAF0ED16
:203D8F00A3F09003BFE0F50CA3E0F50D90039FE0FAA3E0FDA3E0FF8A828D838FF012435F6C
:203DAF00F50B603CC3E4950C7480850DF063F08095F0502C150C74FFB50C02150D850B823B
:203DCF0012396F90039FE0FAA3E0FDA3E0FF0ABA00010D90039FEAF0EDA3F0EFA3F080AC00
:203DEF009003B3E07003023F109003BDE0FEA3E0FFC3E5099EE50A9F4003023F109003BD59
:203E0F00EEC39509F0EF950AA3F09003BDE0FEA3E0FF8E028F051EBEFF011FEA4D700302B8
:203E2F003F08758220C007C00612396FD006D00780E09003B0E024FDFDF08D01870E0987DD
:203E4F000F098710191990039FE50EF0E50FA3F0E510A3F09003A1E0FDBD80004008900325
:203E6F00C37443F08020BD600040089003C37450F08013BD400040089003C37449F0800659
:203E8F009003C37458F09003C3E0FDF582C00512396F75823A12396F75823012396F758215
:203EAF007812396FD005BD4902800EBD500280099003A0E0F5821239CA90039FE0F5821284
:203ECF0039CA803D9003B77401F09003BC740AF0802F9003BC7408F080279003BC740AF0D9
:203EEF00801F9003BC7410F080179003BA7401F0800F8B8212396F80089003BDEEF0EFA36A
:203F0F00F09003BAE060719003B0E024FCFFF08F01870309870509870609870719191990BB
:203F2F00039FEBF0EDA3F0EEA3F0EFA3F090039F74C0F0744AA3F07480A3F090039FE0F53D
:203F4F000EA3E0F50FA3E0F5107401250EFAE4350FFBAF1090039FEAF0EBA3F0EFA3F08520
:203F6F000E82850F838510F012435FFF7003023A7B8F8212396F80C39003BCE07003023A3D
:203F8F007B9003B8E060479003B0E014F9F087077E007D007B0090039FEFF0EEA3F0EDA37F
:203FAF00F0EBA3F09003B7E0600302405390039FE0FBA3E0A3E0A3E07D007E007F009003BF
:203FCF009FEBF0EDA3F0EEA3F0EFA3F080769003B9E060289003B0E024FCFFF08F018703DF
:203FEF0009870509870609870719191990039FEBF0EDA3F0EEA3F0EFA3F080489003B0E02A
:20400F0024FEFFF08F01870609870719EF3395E0FDFB90039FEEF0EFA3F0EDA3F0EBA3F094
:20402F009003B7E0701E90039FE0FBA3E0FDA3E0A3E07E007F0090039FEBF0EDA3F0EEA30B
:20404F00F0EFA3F09003B7E0603D90039FE0A3E0A3E0A3E030E72B90039FE0FBA3E0FDA30B
:20406F00E0FEA3E0FFC3E49BFBE49DFDE49EFEE49FFF90039FEBF0EDA3F0EEA3F0EFA3F084
:20408F0080059003B7E4F09003BB7401F09003BCE0F50C7511C9751203E4F509F50A90033E
:2040AF00A3E4F0850C821239E69003BBE070339003A3E0C454F0F50E9003A3E0C4540F45C2
:2040CF000EF50E851182851283E0FFE50E4207851182851283EFF0151174FFB511021512DA
:2040EF00800B9003A3E0851182851283F00509E4B50902050A9003BBE0B40100E433F090B3
:20410F00039FE0FAA3E0FBA3E0FEA3E0FFEA4B4E4F708B9003CAE511F0E512A3F09003C1A5
:20412F00E509F0E50AA3F09003BDE0F5F0A3E045F070099003BD7401F0E4A3F09003B4E077
:20414F00FFE070479003B3E07041850911850A129003BDE0FAA3E0FBC007AF110F8F067F51
:20416F0000C3EE9AEF9BD0075019758220C007C003C00212396FD002D003D0071ABAFF01AE
:20418F001B80D59003BDEAF0EBA3F09003B7E0602075822DC00712396FD0079003BDE0247E
:2041AF00FFFDA3E034FFFE9003BDEDF0EEA3F080569003C1E0F5F0A3E045F0604A9003B5F9
:2041CF00E0602075822BC00712396FD0079003BDE024FFFDA3E034FFFE9003BDEDF0EEA334
:2041EF00F080249003B6E0601E758220C00712396FD0079003BDE024FFFDA3E034FFFE9072
:20420F0003BDEDF0EEA3F09003B3E070449003C1E0F511A3E0F5129003BDE0FAA3E0FBC06B
:20422F00078A068B071ABAFF011BC3E5119EE5129FD007504FEF60047E3080027E208E82C3
:20424F00C007C003C00212396FD002D003D00780CE9003BDE0FEA3E0FF9003C1E0F511A3F2
:20426F00E0F512C3E5119EE5129F500F9003BDEEC39511F0EF9512A3F080119003BDE4F087
:20428F00A3F080089003BDEAF0EBA3F09003CAE0FEA3E0FF9003C1E0F511A3E0F512AA1110
:2042AF00AD12151174FFB511021512EA4D60449003BBE0B40100E433F09003BBE070130E24
:2042CF00BE00010F8E828F83E0C4540F9003A3F0800E8E828F83E0FD53050F9003A3EDF0AB
:2042EF009003A3E0F582C007C0061239AAD006D00780AB9003B3E07003023A7B9003BDE048
:20430F00FEA3E0FF8E038F051EBEFF011FEB4D7003023A7B758220C007C00612396FD00658
:18432F00D00780E08C8212396F023A7B9003A4E0FEA3E08E82F583227E
:0B4AC0003C4E4F20464C4F41543E003E
:18434700AA82AB8312435F6003A380F8C3E5829AF582E5839BF58322FA
:0D20060075812012437BE5826003022003F8
:1C435F0020F71430F6148883A88220F507E6A88375830022E280F7E49322E0226D
:04437B007582002225
:00000001FF
