:03200000022006B5
:03205F0002200359
:0320030002206256
:102062007443C0E0742EC0E07480C0E01223E11516
:10207200811581158112210E75821412220680FEAD
:072E4300746573740A0D00B1
:1020820075825F12212675820212212675825412F0
:1020920021267582141221267582561221267582F6
:1020A2000012212675825712212675820A022126E4
:1020B2002275825F12212690000A1222BF758202C7
:1020C20012212690000A1222BF75825412212690F4
:1020D200000A1222BF75821412212690000A1222CF
:1020E200BF75825612212690000A1222BF75820005
:1020F20012212690000A1222BF75825712212690C1
:10210200000A1222BF75820802212622438F05434C
:10211200C310D29185C3C343C32053C3F753C3FB38
:1021220043C34022E582900100F0C291900100E099
:10213200FF8FC57E00C007C006744AC0E0742EC07F
:10214200E07480C0E01223E1E58124FBF581E5C45F
:1021520030E7FB9000051222BFD29122C29175C5D1
:102162003FE5C430E7FB900101E5C5F0E0FFFD7EED
:1021720000C007C005C006745DC0E0742EC0E074E4
:1021820080C0E01223E1E58124FBF5819000051275
:1021920022BFD007D2918F822275825F12212675CB
:1021A200820312212675820A12212612215E122131
:1021B2005EE58230E0177471C0E0742EC0E0748076
:1021C200C0E01223E115811581158180E12275821B
:1021D2005F12212675820212212675821F12212684
:1021E20012215E12215EAF827E00C007C006747D9E
:1021F200C0E0742EC0E07480C0E01223E1E58124C7
:10220200FBF5812275825F12212675820212212638
:102212007582541221267582141221267582521259
:10222200212675820112212612219B7582521221CA
:102232002675820012212675821812212612215E2D
:1022420012215EAF82758219C00712212612215E09
:1022520012215EAE82D0078E05E4FEFCEF4206EC50
:1022620042058E828D832275C300D297C296D29187
:1022720022E582900102F0E0FF7E00C007C00674F2
:10228200A0C0E0742EC0E07480C0E01223E1E581BA
:1022920024FBF581C2917F00BF0800501D9001020E
:1022A200E030E704D2978002C297D296900102E012
:1022B20025E0F0C296C2970F80DED29122AF83E56D
:1022C20082900103F0EFA3F0900103E0FEA3E0FF90
:1022D2008E048F051EBEFF011F900103EEF0EFA3D7
:0E22E200F0EC4D70EB900103EEF0EFA3F02254
:102E4A0053656E64696E6720646174613A202578FF
:102E5A000A0D005265636569766564206461746170
:102E6A003A2025780A0D00427573792077616974D2
:102E7A0021210052656365697665642074657374FF
:102E8A002072656164206374726C20776F72643A91
:102E9A002025780A0D0053656E64696E67204242E8
:0C2EAA0020646174613A2025780A0D0054
:1022F000AF83E582900105F0EFA3F03099FD9001E6
:1023000005E0FEA3E0FF8E99C2998E828F83221092
:10231000980280FBAE997F008E828F8322AFF0AE51
:1023200083E582900107F0EEA3F0EFA3F0900107A0
:10233000E0FDA3E0FEA3E0FF7B007C008D828E83A6
:102340008FF0122E23FA60360DBD00010E900107AA
:10235000EDF0EEA3F0EFA3F08A017A0089828A8380
:10236000C007C006C005C004C0031222F0D003D0CD
:1023700004D005D006D0070BBB00C10C80BE900175
:1023800007EDF0EEA3F0EFA3F00BBB00010C8B8286
:032390008C832219
:06203500E478FFF6D8FD7F
:102013007900E94400601B7A00902EC1784375A0D3
:1020230001E493F2A308B8000205A0D9F4DAF2752B
:02203300A0FF0C
:10203B007800E84400600A790075A001E4F309D840
:10204B00FC7843E84400600C7901900100E4F0A3B4
:04205B00D8FCD9FADA
:10239300C0128581127E008E831222F0D01222AFEA
:1023A300F0AE83E58290010BF0EEA3F0EFA3F09083
:1023B300010BE0FDA3E0FEA3E0FF90010AE0FC9027
:1023C300011FE4F0A3F0A3F0900122EDF0EEA3F0DF
:1023D300EFA3F0900125ECF09023930224E7C012C1
:1023E300E581F51224FBFF90011FE4F0A3F0A3F0B5
:1023F300E51224FBF8900122E6F008E6A3F008E6D4
:10240300A3F0900125EFF09023931224E7D012223A
:10241300E58290011BF0E0FF900111E0C0E0A3E032
:10242300C0E0A3E0C0E012242E800D90010FE0C0B5
:10243300E0A3E0C0E08F8222158115811581900110
:1024430019E02401F0A3E03400F022E58290011C9E
:10245300F0E02430FF24C6500D74072FFF90010EC7
:10246300E060034307208F82022413E58290011D5D
:10247300F0E0FFC4540FF582C00712244ED0075377
:10248300070F8F8202244EE58290011EF090011403
:10249300E0FCA3E0FDA3E0FEA3E0FF900118E0FB56
:1024A30090011EE0FA79208B00E828F513EF2354FE
:1024B300014513FBEC2CFCED33FDEE33FEEF33FF54
:1024C300C3EB9A4007EBC39AFB43040119E970D7A6
:1024D300900114ECF0EDA3F0EEA3F0EFA3F0900164
:1024E30018EBF022AF83E582900126F0EFA3F09082
:1024F3000126E0FEA3E0FF90010FEEF0EFA3F090C2
:10250300011FE0FDA3E0FEA3E0FF900111EDF0EE5B
:10251300A3F0EFA3F0900119E4F0A3F0900122E0FF
:10252300FDA3E0FEA3E0FF8D828E838FF0122E23A6
:10253300FC90012274012DF0E43EA3F0EFA3F0EC34
:102543007003022DDFBC25028003022DD7900128E2
:10255300E4F0900129F090012AF090012BF0900112
:102563002CF090012DF090012EF090012FF09001AE
:1025730031F0900132F0A3F090013414F0A3F09005
:102583000122E0FDA3E0FEA3E0FF8D828E838FF0A6
:10259300122E23FBA3AD82AE83900122EDF0EEA3B6
:1025A300F0EFA3F0900138EBF0BB25088B821224E7
:1025B3001302251FBB30005003022680EB24C650B4
:1025C30003022680900134E0F508A3E0F50974FFC7
:1025D300B50863B50960C005C006C007900132E0C5
:1025E300FAA3E0FF900141EAF0EFA3F090000AC0E4
:1025F30005C003122E03AE82AF83D003D0058B0533
:102603007A00ED2EFEEA3FFFEE24D0FEEF34FFFF0B
:10261300900132EEF0EFA3F0D007D006D005900181
:1026230032E0F5F0A3E045F0600302258D90012927
:102633007401F002258DC005C006C007900141E575
:1026430008F0E509A3F090000AC006C005C0031214
:102653002E03AA82AF83D003D005D0067E00EB2AD7
:10266300FAEE3FFFEA24D0FAEF34FFFF900134EA99
:10267300F0EFA3F0D007D006D00502258D900138E6
:10268300E0FBBB2E2FC005C006C007900134E0FA63
:10269300A3E0FFBAFF05BFFF028009D007D006D031
:1026A3000502258DD007D006D005900134E4F0A3B0
:1026B300F002258DBB61004014EB2485400F90018F
:1026C3003874DF5BF090010E7401F0800590010E09
:1026D300E4F0900138E0FBBB20028075BB2B028045
:1026E30067BB2D028059BB4202806FBB4302807CD3
:1026F300BB4403022977BB460302299DBB4803025F
:10270300258DBB4903022977BB4A0302258DBB4CA8
:10271300028050BB4F03022985BB50030228E5BB4F
:1027230053028077BB540302258DBB550302298DC9
:10273300BB5803022995BB5A0302258D0229A59094
:1027430001287401F002258D90012A7401F00225FD
:102753008D90012B7401F002258D90012D7401F0F1
:1027630002258D90012E7401F002258D90012DE03C
:10277300600E900125E014F9F0900138E7F0800F26
:10278300900125E024FEFFF08F01900138E7F090DF
:102793000138E0F5821224130229B4900125E024C4
:1027A300FDFFF08F0187050987060987071919902F
:1027B3000114EDF0EEA3F0EFA3F08D828E838FF082
:1027C300122DEB858208858309900134E0FAA3E09A
:1027D300FDBAFF0DBDFF0A900134E508F0E509A33A
:1027E300F0900128E0704B900132E0FAA3E0FDC3C2
:1027F300E5089AE5099D503A900132EAC39508F03D
:10280300ED9509A3F0900132E0FAA3E0FD8A068D6D
:10281300071ABAFF011DEE4F6010758220C005C074
:1028230002122413D002D00580E3900132EAF0EDC6
:10283300A3F0900134E0F50BA3E0F50C900114E054
:10284300FAA3E0FDA3E0FF8A828D838FF0122E238B
:10285300F50A603CC3E4950B7480850CF063F0804B
:1028630095F0502C150B74FFB50B02150C850A82DD
:10287300122413900114E0FAA3E0FDA3E0FF0ABAC7
:1028830000010D900114EAF0EDA3F0EFA3F080AC8A
:10289300900128E070030229B4900132E0FEA3E026
:1028A300FFC3E5089EE5099F40030229B490013266
:1028B300EEC39508F0EF9509A3F0900132E0FEA373
:1028C300E0FF8E028F051EBEFF011FEA4D7003025B
:1028D30029AC758220C007C006122413D006D00786
:1028E30080E0900125E024FDFDF08D01870D09872F
:1028F3000E09870F1919900114E50DF0E50EA3F0E9
:10290300E50FA3F0900116E0FDBD800040089001A3
:10291300387443F08020BD60004008900138745043
:10292300F08013BD400040089001387449F08006E0
:102933009001387458F0900138E0FDF582C005121B
:10294300241375823A12241375823012241375826C
:1029530078122413D005BD4902800EBD50028009B0
:10296300900115E0F58212246E900114E0F58212B5
:10297300246E803D90012C7401F0900131740AF0B3
:10298300802F9001317408F08027900131740AF090
:10299300801F9001317410F0801790012F7401F0A3
:1029A300800F8B821224138008900132EEF0EFA384
:1029B300F090012FE06071900125E024FCFFF08F7F
:1029C30001870309870509870609870719191990DC
:1029D3000114EBF0EDA3F0EEA3F0EFA3F0900114DC
:1029E30074B6F0742EA3F07480A3F0900114E0F594
:1029F3000DA3E0F50EA3E0F50F7401250DFAE43500
:102A03000EFBAF0F900114EAF0EBA3F0EFA3F085F8
:102A13000D82850E83850FF0122E23FF700302258E
:102A23001F8F8212241380C3900131E070030225AB
:102A33001F90012DE06047900125E014F9F087070E
:102A43007E007D007B00900114EFF0EEA3F0EDA378
:102A5300F0EBA3F090012CE06003022AF79001143D
:102A6300E0FBA3E0A3E0A3E07D007E007F009001F4
:102A730014EBF0EDA3F0EEA3F0EFA3F0807690015A
:102A83002EE06028900125E024FCFFF08F018703EE
:102A9300098705098706098707191919900114EB96
:102AA300F0EDA3F0EEA3F0EFA3F08048900125E052
:102AB30024FEFFF08F01870609870719EF3395E09E
:102AC300FDFB900114EEF0EFA3F0EDA3F0EBA3F008
:102AD30090012CE0701E900114E0FBA3E0FDA3E045
:102AE300A3E07E007F00900114EBF0EDA3F0EEA3D2
:102AF300F0EFA3F090012CE0603D900114E0A3E01F
:102B0300A3E0A3E030E72B900114E0FBA3E0FDA3D7
:102B1300E0FEA3E0FFC3E49BFBE49DFDE49EFEE433
:102B23009FFF900114EBF0EDA3F0EEA3F0EFA3F001
:102B3300800590012CE4F09001307401F090013194
:102B4300E0F50B75103E751101E4F508F5099001E8
:102B530018E4F0850B8212248A900130E0703390E0
:102B63000118E0C454F0F50D900118E0C4540F456A
:102B73000DF50D851082851183E0FFE50D42078574
:102B83001082851183EFF0151074FFB51002151133
:102B9300800B900118E0851082851183F00508E40D
:102BA300B508020509900130E0B40100E433F09068
:102BB3000114E0FAA3E0FBA3E0FEA3E0FFEA4B4E1F
:102BC3004F708B90013FE510F0E511A3F0900136B3
:102BD300E508F0E509A3F0900132E0F5F0A3E04544
:102BE300F070099001327401F0E4A3F0900129E040
:102BF300FFE07047900128E07041850810850911B6
:102C0300900132E0FAA3E0FBC007AF100F8F067FFD
:102C130000C3EE9AEF9BD0075019758220C007C0FE
:102C230003C002122413D002D003D0071ABAFF0143
:102C33001B80D5900132EAF0EBA3F090012CE06009
:102C43002075822DC007122413D007900132E0248F
:102C5300FFFDA3E034FFFE900132EDF0EEA3F08020
:102C630056900136E0F5F0A3E045F0604A90012A62
:102C7300E0602075822BC007122413D00790013225
:102C8300E024FFFDA3E034FFFE900132EDF0EEA35C
:102C9300F0802490012BE0601E758220C00712246F
:102CA30013D007900132E024FFFDA3E034FFFE9030
:102CB3000132EDF0EEA3F0900128E070449001366C
:102CC300E0F510A3E0F511900132E0FAA3E0FBC0B8
:102CD300078A068B071ABAFF011BC3E5109EE5118D
:102CE3009FD007504FEF60047E3080027E208E829B
:102CF300C007C003C002122413D002D003D0078040
:102D0300CE900132E0FEA3E0FF900136E0F510A380
:102D1300E0F511C3E5109EE5119F500F900132EECF
:102D2300C39510F0EF9511A3F08011900132E4F0F8
:102D3300A3F08008900132EAF0EBA3F090013FE0AA
:102D4300FEA3E0FF900136E0F510A3E0F511AA1011
:102D5300AD11151074FFB510021511EA4D604490C2
:102D63000130E0B40100E433F0900130E070130E61
:102D7300BE00010F8E828F83E0C4540F900118F0C0
:102D8300800E8E828F83E0FD53050F900118EDF0C6
:102D9300900118E0F582C007C00612244ED006D079
:102DA3000780AB900128E0700302251F900132E0F9
:102DB300FEA3E0FF8E038F051EBEFF011FEB4D70C8
:102DC3000302251F758220C007C006122413D006F4
:102DD300D00780E08C8212241302251F900119E092
:082DE300FEA3E08E82F58322BD
:0B2EB6003C4E4F20464C4F41543E0064
:102DEB00AA82AB83122E236003A380F8C3E5829AD9
:102DFB00F582E5839BF58322AA83AB828BF090014E
:102E0B0041E0A4F8A9F08AF0E0A429F98BF0A3E043
:082E1B00A429F583888222221C
:0D200600758113122E3FE582600302200356
:102E230020F71430F6148883A88220F507E6A883D8
:102E330075830022E280F7E49322E0227582002268
:00000001FF
