:202065009003637401F090036404F07582031230BC900363E4F09003647411F075820312DB
:2020850030BC9003637403F09003647422F07582031230BC9003637402F09003647433F093
:2020A5007582031230BC9003637405F09003647444F07582031230BC9003637404F090033C
:2020C500647455F07582030230BCAF83E582900100F0EFA3F0900102E4F0A3F0A3F0A3F03A
:2020E500900100E0FEA3E0FF90038CEEF0EFA3F09003E8C007C006123A73AC82AD83D00670
:20210500D007900102E0F8A3E0F9A3E0FAA3E0FBC006C0077E007F00C3E89CE99DEA9EEB37
:202125009FD007D0065023900102E0FAA3E0FBA3E0FCA3E0FD90010274012AF0E43BA3F01D
:20214500E43CA3F0E43DA3F0809E2290036CE4F075821F123232E5824408FF900363741F39
:20216500F0900364EFF07582000230BCAF83E582900108F0EFA3F0900108E0FEA3E0FF9082
:202185000106E0FCA3E0FDC3EE9CEF9D500D8C028D03C374FF9A741F9B50167423C0E07474
:2021A50045C0E07480C0E0123AE1158115811581228E039003637408F0900364EBF07582D4
:2021C50000C007C006C005C004C0031230BCD003D004D005D006D0078F029003637409F006
:2021E500900364EAF0758200C007C006C005C004C003C0021230BCD002D003D004D005D05B
:2022050006D0078C01900363740AF0900364E9F0758200C007C006C005C004C003C0021277
:2022250030BCD002D003D004D005D006D0078D01900363740BF0900364E9F0758200C00731
:20224500C006C005C004C003C0021230BCD002D003D004D005D006D007900363740CF090B6
:202265000364EBF0758200C007C006C005C004C0021230BCD002D004D005D006D00790038F
:2022850063740DF0900364EAF0758200C007C006C005C0041230BCD004D005D006D007C073
:2022A50004C005C006C007743DC0E07445C0E07480C0E0123AE1E58124F9F58122AF83E526
:2022C5008290010CF0EFA3F090010CE0FEA3E0FF8E059003637404F0900364EDF0758200AF
:2022E500C007C0061230BCD006D0078F069003637405F0900364EEF07582001230BC900152
:202305000AE0FEA3E0FF8E059003637406F0900364EDF0758200C007C0061230BCD006D05F
:20232500078F069003637407F0900364EEF07582000230BCAF83E58290010EF0EFA3F090A7
:20234500010EE0FEA3E0FF7C007D00C3EC9EED9F504190036CE4F075821FC007C006C0056B
:20236500C004123232E582D004D005D006D00720E30475820122900001C007C006C005C09D
:20238500041220CFD004D005D006D0070CBC00BB0D80B87582002290036CE4F075821D1203
:2023A5003232E582035401B401009200E433F5822290036CE4F075821F123232E58254FBE9
:2023C500FF900363741FF0900364EFF07582000230BC90036CE4F075821F123232E58244BB
:2023E50004FF900363741FF0900364EFF07582000230BC9001107402F09001117411F090F3
:20240500011223F09001137433F09001147444F09001157455F090011674F8F0900117748B
:2024250075F090011874A4F0900119748CF090011A7441F090011B7431F090011C74C0F085
:2024450090011D74A8F090011E7401F090011F7464F090012074C0F090012174A8F090010D
:20246500227401F0900123F0900124740EF090011075F0001220657E007F00C3EE9406EF31
:202485006480948050488E05ED04FC3395E0FBEC2424FCEB3401FBEE2416F582EF3401F581
:2024A50083E08C828B83F074072DFD3395E0FCED2424FDEC3401FCEE2410F582EF3401F55E
:2024C50083E08D828C83F00EBE00B00F80AD9001317408F09001327406F0900133E4F0904B
:2024E500013404F09001357408F0900136E4F09001377406F09001387404F0900139E4F0E0
:2025050090013A04F07E007F00C3EE9406EF6480948050298E0574172DFD3395E0FCED2452
:2025250024FDEC3401FCEE2410F582EF3401F583E08D828C83F00EBE00CF0F80CC7E007F42
:2025450000C3EE9404EF6480948050298E05741D2DFD3395E0FCED2424FDEC3401FCEE247A
:202565001CF582EF3401F583E08D828C83F00EBE00CF0F80CC7F00BF060050198F0674216C
:202585002EFE3395E0FDEE2424F582ED3401F583E4F00F80E27E007F00C3EE9404EF6480C0
:2025A500948050298E0574272DFD3395E0FCED2424FDEC3401FCEE2420F582EF3401F583F9
:2025C500E08D828C83F00EBE00CF0F80CC90037DE4F07402A3F090037F7424F07401A3F083
:2025E500E4A3F090002C12363890010A742BF07402A3F09002001222C21223D71221509049
:2026050001F4122339E582603312239CE582601674A2C0E07445C0E07480C0E0123AE115C5
:2026250081158115812274C3C0E07445C0E07480C0E0123AE11581158115812274F1C0E0EC
:202645007445C0E07480C0E0123AE115811581158122C021C0E0C0F0C082C083C007C00634
:20266500C005C004C003C002C001C000C0D075D00090036CE4F075821C1232327434C0E04D
:202685007446C0E07480C0E0123AE1158115811581D0D0D000D001D002D003D004D005D0F9
:0E26A50006D007D083D082D0F0D0E0D0213212
:20452300496E76616C6964205258206275666665722072616E67652E0A00525820627566E1
:2045430066657220696E697469616C697A65643A2030782530345820746F2030782530342E
:20456300582E0A000A496E76616C6964204275666665722053697A652E20427566666572FA
:2045830020657863656564732076616C696420616464726573732072616E67652E0A00413B
:2045A300525020726571756573742073656E74207375636365737366756C6C792E0A0D00C9
:2045C300415250207472616E736D697373696F6E206661696C65642E20436865636B206575
:2045E30072726F7220666C6167732E0A0D005472616E736D697373696F6E2074696D656F39
:2046030075742E20454E4332384A3630206D6179206E6F742062652066756E6374696F6E2B
:20462300696E6720636F72726563746C792E0A0D00496E746572727272727272727575757E
:184643007575757575757070707070707070747474747474740A0D00DE
:144D0B00021122334455FFFFFFFFFFFFC0A80164C0A8010162
:0620000002200902265730
:0320620002200653
:032006000228F1BC
:2026B300AFF0AE83E58290014FF0EEA3F0EFA3F0900152E4F0A3F090014FE0FDA3E0FEA3D2
:2026D300E0FF8D028E038F048D138E148F1578007900C002C003C004E82513FAE93514FBEE
:2026F300AC158A828B838CF0124503F516D004D003D002E5167003022861C002C003C00450
:20271300851617751800900154E517F0E518A3F0900152E0FBA3E0C454F0CBC4CB6BCB54D9
:20273300F0CB6BFC900152EBF0ECA3F0C3E5179430E51864809480D004D003D002403F7443
:2027530039951774808518F063F08095F0402FC002C003C004E51724D0F517E51834FFF5CF
:2027730018900152E0FAA3E0FC900152E5172AF0E5183CA3F0D004D003D0020228599001A0
:2027930054E0F517A3E0F518C3E5179441E51864809480404E7446951774808518F063F005
:2027B3008095F0403EC005C006C007E82AFDE93BFE8C078D828E838FF01245037F0024C908
:2027D300F517EF34FFF518900152E0FEA3E0FF900152E5172EF0E5183FA3F0D007D006D01F
:2027F300058063900154E0F517A3E0F518C3E5179461E51864809480404C746695177480CE
:202813008518F063F08095F0403CC002C003C004E82DFAE93EFB8F048A828B838CF012454A
:20283300037C0024A9F517EC34FFF518900152E0FBA3E0FC900152E5172BF0E5183CA3F0FE
:20285300D004D003D00208B80001090226E5900152E0FEA3E08E82F583227E007F00C00763
:20287300C0061238CBAC82D006D007BC0A02803ABC0D028035C3EE9409EF64809480502ADE
:202893008C037D008B828D83C007C006C0041238ACD004D006D007EE2456F582EF3401F53C
:2028B30083ECF00EBE00B70F80B4EE2456F582EF3401F583E4F0900156F5F01226B3AE82AA
:2028D300AF83C007C006745BC0E07446C0E012396A15811581D006D0078E828F8322D29029
:2028F300745EC0E07446C0E07480C0E0123AE11581158115811231181223B67477C0E07431
:2029130046C0E07480C0E0123AE1158115811581748EC0E07446C0E07480C0E0123AE11569
:20293300811581158174A4C0E07446C0E07480C0E0123AE115811581158174B9C0E07446BB
:20295300C0E07480C0E0123AE115811581158174CDC0E07446C0E07480C0E0123AE11581AF
:202973001581158174E7C0E07446C0E07480C0E0123AE115811581158174FDC0E07446C0B5
:20299300E07480C0E0123AE11581158115817412C0E07447C0E07480C0E0123AE1158115D4
:2029B3008115817424C0E07447C0E07480C0E0123AE1158115811581743EC0E07447C0E02A
:2029D3007480C0E0123AE11581158115817453C0E07447C0E07480C0E0123AE115811581B2
:2029F3001581746CC0E07447C0E07480C0E0123AE11581158115817484C0E07447C0E07469
:202A130080C0E0123AE11581158115811238CBAE828E057F008D828F83C0061238AC745B91
:202A3300C0E07446C0E07480C0E0123AE1158115811581D006BE31005003022F89EE24BC66
:202A53005003022F89EE24CFFE240A83F582EE241783F583E4738FF7F50365D00B268889DF
:202A73008989898989894851572A2A2B2D2D2D2E2E2E2F2F2F2F2F2F2F2F2F2F74A3C0E000
:202A93007447C0E07480C0E0123AE115811581158112286DAE82C00674C8C0E07447C0E071
:202AB3007480C0E0123AE115811581158112286DAD82C00574F5C0E07447C0E07480C0E0ED
:202AD300123AE115811581158112286DAC82D005D006900363EDF0900364ECF08E8212307C
:202AF300BC02290E7419C0E07448C0E07480C0E0123AE115811581158112286DAE82AF83B9
:202B1300C007C006743FC0E07448C0E07480C0E0123AE115811581158112286DAC82AD83DE
:202B3300D006D007C007C006C005C004C006C007745DC0E07448C0E07480C0E0123AE1E5BF
:202B53008124FBF581D004D005D006D0077A007B00C3EA9EEB64808FF063F08095F050635D
:202B7300C004C005C007C006C005C004C003C002C002C0037480C0E07448C0E07480C0E015
:202B9300123AE1E58124FBF581D002D003D004D005EA2460F8EB3401F9C003C002C001C027
:202BB3000012286DAC82D000D001D002D003D006D00788828983ECF00ABA00010BD005D0D3
:202BD30004808E90037DECF0EDA3F090037F7460F07401A3F0E4A3F08E828F83123638026B
:202BF300290E748AC0E07448C0E07480C0E0123AE115811581158112286DAE82AF83C0073E
:202C1300C006743FC0E07448C0E07480C0E0123AE115811581158112286DAC82AD83D006CE
:202C3300D007900374ECF0EDA3F09003767460F07402A3F0E4A3F08E828F83C007C0061239
:202C53003497D006D00790036CE4F075820CC007C006123232AD82D006D00790036CE4F061
:202C730075820DC007C006C005123232AC82D0058C03E4FCFAED4204EA4203C004C003C060
:202C930004C00374AFC0E07448C0E07480C0E0123AE1E58124FBF581D003D004D006D0072B
:202CB300EE2CFCEF3BFB8C07900363740CF0900364EFF0758200C004C0031230BCD003D0D8
:202CD300048B07900363740DF0900364EFF0758200C004C0031230BC74C9C0E07448C0E059
:202CF3007480C0E0123AE1E58124FBF58102290E74E6C0E07448C0E07480C0E0123AE115A0
:202D1300811581158112286DAE82C006740FC0E07449C0E07480C0E0123AE11581158115D4
:202D33008112286DAD82D00690036CEEF08D82123232AF827E00C007C0067438C0E07449AC
:202D5300C0E07480C0E0123AE1E58124FBF58102290E7454C0E07449C0E07480C0E0123A26
:202D7300E115811581158112286DAE82C0067476C0E07449C0E07480C0E0123AE1158115AD
:202D930081158112286DAD82AF83D006900369EDF0EFA3F08E82C007C0051231AFD005D09D
:202DB30007C005C0077498C0E07449C0E07480C0E0123AE1E58124FBF58102290E74B1C08A
:202DD300E07449C0E07480C0E0123AE115811581158112286D1232A0AE82AF83C006C007A6
:202DF30074DBC0E07449C0E07480C0E0123AE1E58124FBF58102290E74F3C0E07449C0E01B
:202E13007480C0E0123AE115811581158112313602290E740BC0E0744AC0E07480C0E01247
:202E33003AE115811581158112286DAE82C0067435C0E0744AC0E07480C0E0123AE1158107
:202E53001581158112286DAD82D006900367EDF08E82123141AF827E00C007C0067450C05C
:202E7300E0744AC0E07480C0E0123AE1E58124FBF58102290E7477C0E07446C0E07480C073
:202E9300E0123AE1158115811581748EC0E07446C0E07480C0E0123AE1158115811581745D
:202EB300A4C0E07446C0E07480C0E0123AE115811581158174B9C0E07446C0E07480C0E023
:202ED300123AE115811581158174CDC0E07446C0E07480C0E0123AE115811581158174E7D7
:202EF300C0E07446C0E07480C0E0123AE115811581158174FDC0E07446C0E07480C0E01231
:202F13003AE11581158115817412C0E07447C0E07480C0E0123AE11581158115817424C065
:202F3300E07447C0E07480C0E0123AE115811581158102290E1237E41223F802290E1237AB
:202F5300E402290E746CC0E0744AC0E07480C0E0123AE1158115811581C2907E007F00C3CE
:202F7300EE9470EF6480949750070EBE00F10F80EED29002290E749FC0E0744AC0E074801D
:0E2F9300C0E0123AE115811581158102290E68
:20465B000A0D00535049204F7065726174696F6E73206F6E20383035310A0D000A0D436834
:20467B006F6F736520616E20616374696F6E3A200A0D0031202D2D3E20436F6E74726F6C81
:20469B002057726974650A0D0032202D2D3E204275666665722057726974650A0D003320C4
:2046BB002D2D3E2042756666657220526561640A0D0034202D2D3E204D4143205265676996
:2046DB007374657220526561640A0D0035202D2D3E20504859205350492057726974650A0F
:2046FB000D0036202D2D3E205048592053504920526561640A0D0037202D2D3E20454E43EF
:20471B002052657365740A0D0038202D2D3E20526561642045544820526567697374657252
:20473B000A0D0039202D2D3E20446973706C6179204D656E750A0D0041202D2D3E205365C3
:20475B006E642041525020526571756573740A0D0042202D2D3E20496E697420525820624F
:20477B007566666572730A0D0043202D2D3E2048617264205265736574286E5245534554A6
:20479B002070696E290A0D00456E746572207468652072656769737465722062616E6B2097
:2047BB00746F2073656C6563743A0A0D00456E746572207468652061646472657373206F16
:2047DB00662074686520436F6E74726F6C2052656769737465723A0A0D00456E7465722022
:2047FB00746865206461746120796F752077616E7420746F2077726974653A0A0D00456EFA
:20481B0074657220746865206E756D626572206F6620627974657320746F2077726974659E
:20483B003A0A0D00456E74657220746865207374617274696E6720616464726573733A0AD7
:20485B000D00456E746572202564206279746573206F6620646174612028696E206865780F
:20487B00293A0A0D00427974652025643A2000456E74657220746865206E756D62657220E4
:20489B006F6620627974657320746F20726561643A0A0D0043757272656E7420455258528D
:2048BB004450543A203078253034580A0D0055706461746564204552585244505420746FE8
:2048DB003A203078253034580A0D00456E74657220746865204D4143207265676973746560
:2048FB00722062616E6B20746F2073656C6563743A0A0D00456E7465722074686520616437
:20491B006472657373206F6620746865204D41432052656769737465723A0A0D004D41438D
:20493B0020526567697374657220446174613A203078253032580A0D00456E7465722074D3
:20495B0068652050485920726567697374657220616464726573733A0A0D00456E74657284
:20497B00207468652031362D626974206461746120746F2077726974653A0A0D005048597E
:20499B0020577269746520446174613A203078253034580A0D00456E7465722074686520BE
:2049BB00504859207265676973746572206164647265737320746F20726561643A0A0D0050
:2049DB00504859205265616420446174613A203078253034580A0D00526573657474696E4D
:2049FB006720454E4332384A36302E2E2E0A0D00456E74657220746865204554482072652D
:204A1B00676973746572206164647265737320746F20726561643A0A0D00456E74657220B9
:204A3B007468652062616E6B202830206F722031293A0A0D00455448205265676973746546
:204A5B007220446174613A203078253032580A0D0020526573657474696E6720454E43204C
:204A7B007573696E672052455345542070696E20696E2048617264776172652850315F306E
:204A9B00290A0D00496E76616C6964206F7074696F6E2E20506C656173652073656C656367
:144ABB007420612076616C696420616374696F6E2E0A0D00DF
:202FA10075825F123127758202123127758254123127758214123127758256123127758215
:202FC1000012312775825712312775820A02312722C29175825F123127758202123127D209
:202FE10091C291758254123127758214123127D291C2917582561231277582A8123127D27A
:1330010091C29175825712312775823A123127D2912222DE
:2030140075C5FFE5C430E7FB900360E5C5F0E0F58222C29175825E123127758280123127AF
:20303400D29122E582900361F0C29175821F123127123014AF82D2915307FC900361E0FEC7
:2030540024FC4030EE2E90305E738006800B80128019900362EFF0803190036274014FF0B5
:20307400802890036274024FF0801F90036274034FF0801674CFC0E0744AC0E07480C0E035
:20309400123AE1158115811581227F00BF100050030F80F8C29175825F123127900362E0FB
:2030B400F582123127D29122E582900365F0900363E02440F0900365E0F582123037C29102
:2030D400900363E0FFF582C007123127D007900364E0FEF582C007C006123127D006D00798
:2030F400D2917D007C00C006C005C007C00474DAC0E0744AC0E07480C0E0123AE1E58124B3
:20311400F9F58122D29175C30043C32043C31043C34022E582900366F0E0F5C5E5C430E721
:20313400FB22C2917582FF123127D29122E582900368F0E0FF24E0501974FFC0E0744AC0F7
:20315400E07480C0E0123AE115811581158175820022900367E0F582C007123037D007C2B5
:20317400918F82C007123127123014AE82D007D2918E047D007B00C006C004C005C007C048
:20319400037439C0E0744BC0E07480C0E0123AE1E58124F9F581D0068E8222E58290036B45
:2031B400F0E0FF9003637414F0900364EFF0758202C0071230BCD007900369E0FDA3E0FEF9
:2031D4008D049003637416F0900364ECF0758202C007C006C0051230BCD005D006D0078EAE
:2031F400049003637417F0900364ECF0758202C007C006C0051230BCD005D006D0077C002C
:20321400C005C006C007C004745DC0E0744BC0E07480C0E0123AE1E58124F9F58122E58271
:2032340090036DF0E0FF24E0501974FFC0E0744AC0E07480C0E0123AE115811581158175D5
:2032540082002290036CE0F582C007123037D007C2918F82C007123127123014AE82D00757
:20327400D2918E047D007B00C006C004C005C007C0037486C0E0744BC0E07480C0E0123A9B
:20329400E1E58124F9F581D0068E8222E58290036EF0E0FF9003637414F0900364EFF07548
:2032B4008202C0071230BCD0079003637412F09003647401F0758202C0071230BC12334DC2
:2032D400D0079003637412F0900364E4F0758202C0071230BCD00790036C7402F0758218C3
:2032F400C007123232AE82D0077D0090036C7402F0758219C007C006C005123232AC82D0BE
:2033140005D006D0078C03E44206EB42057C00C006C005C006C005C007C00474A9C0E074AC
:203334004BC0E07480C0E0123AE1E58124F9F581D005D0068E828D832290036C7403F0750C
:20335400820A123232E58290036FF090036FE030E01490036C7403F075820A123232E582B4
:2033740090036FF080E522AF83E582900372F0EFA3F0900372E0FEA3E0FF8E048F05C374EE
:20339400FF9C741F9D4017900370E0FAA3E0FBEA2EF8EB3FF9C374FF98741F99502A900362
:2033B40070E0C0E0A3E0C0E0900372E0C0E0A3E0C0E074D1C0E0744BC0E07480C0E0123A1A
:2033D400E1E58124F9F581225304FEEA2EFEEB3FFF1EBEFF011F5306FE8D039003637408F5
:2033F400F0900364EBF0758200C007C006C005C0041230BCD004D005D006D0078C03900374
:20341400637409F0900364EBF0758200C007C006C005C0041230BCD004D005D006D0078F06
:2034340003900363740AF0900364EBF0758200C007C006C005C0041230BCD004D005D006B5
:20345400D0078E03900363740BF0900364EBF0758200C007C006C005C0041230BCD004D00A
:2034740005D006D007C006C007C004C005740FC0E0744CC0E07480C0E0123AE1E58124F9A9
:20349400F58122AF83E582900379F0EFA3F0900379E0FEA3E0FFC3EE9401EF648094805080
:2034B4001AC006C0077440C0E0744CC0E07480C0E0123AE1E58124FBF58122900374E0FCDC
:2034D400A3E0FD8C028D03C374FF9A741F9B501AC004C0057460C0E0744CC0E07480C0E0E1
:2034F400123AE1E58124FBF58122C374019E74808FF063F08095F0500BC005C00412302681
:20351400D004D0058D078C069003637401F0900364EFF0758200C006C005C0041230BCD083
:2035340004D005D006900363E4F0900364EEF0758200C005C0041230BCC29175823A1231E4
:2035540027D004D005900379E0FEA3E0FFC007C006C004C005C006C007747AC0E0744CC06A
:20357400E07480C0E0123AE1E58124F9F581D006D00790037BE4F0A3F0900376E0FBA3E014
:20359400FCA3E0FD90037BE0F9A3E0FAC3E99EEA64808FF063F08095F04003023635C006D2
:2035B400C007C007C006C005C004C003C002C001123014A882D001D002D003D004D005D065
:2035D40006D0078B828C838DF0E812394FA3AB82AC837F0009B900010AC007C006C005C082
:2035F40004C003C002C001C000C007C001C00274B5C0E0744CC0E07480C0E0123AE1E58113
:2036140024F9F581D001D002D003D004D005D006D00790037BE9F0EAA3F0D007D0060235EF
:2036340098D29122AF83E582900382F0EFA3F0900382E0FEA3E0FFC3EE9401EF6480948097
:20365400501AC006C0077440C0E0744CC0E07480C0E0123AE1E58124FBF5812290037DE0DD
:20367400FCA3E0FD8C028D03C374FF9A741F9B501AC004C0057460C0E0744CC0E07480C023
:20369400E0123AE1E58124FBF58122C374019E74808FF063F08095F0500BC005C004123025
:2036B40026D004D0058D078C069003637403F0900364EFF0758200C006C005C0041230BC8A
:2036D400D004D005D0069003637402F0900364EEF0758200C005C0041230BCC29175827AE4
:2036F400123127D004D005900382E0FEA3E0FFC007C006C004C005C006C00774C7C0E0743C
:203714004CC0E07480C0E0123AE1E58124F9F581D006D007900384E4F0A3F090037FE0FBD7
:20373400A3E0FCA3E0FD900384E0F9A3E0FAC3E99EEA64808FF063F08095F040030237E1BD
:20375400C006C0078B828C838DF0124503F87F0009B900010AC007C006C005C004C003C0F8
:2037740002C001C000C007C001C00274B5C0E0744CC0E07480C0E0123AE1E58124F9F58185
:20379400D001D002D003D004D005D006D0078B828C838DF0124503FFA3AB82AC838F82C087
:2037B40007C006C005C004C003C002C001123127D001D002D003D004D005D006D007900390
:2037D40084E9F0EAA3F0D007D00602373AD291229003637418F09003647441F0758201123E
:2037F40030BC90010674FFF0E4A3F0900000122171D288D2A8D2AF900363E4F0900364040A
:20381400F07582021230BC9003637402F09003647470F07582021230BC9003637403F090A2
:2038340003647440F07582021230BC900363740AF090036474EEF07582021230BC900363D8
:20385400740BF09003647405F07582021230BC9003637404F09003647412F0758202123088
:20387400BC9003637406F09003647412F07582021230BC9003637407F0900364740CF07577
:1838940082021230BC900363741BF09003647481F07582000230BC2242
:204ACF0077726F6E672062616E6B0057726974653A2041646472657373203078253032580C
:204AEF002C2044617461203078253032580A0D000A0D496E76616C696420616464726573B2
:204B0F00733A204D414320726567697374657220616464726573732072616E6765205B3085
:204B2F002C20307831465D0A0D00526561643A2041646472657373203078253032582C20F8
:204B4F0044617461203078253032580A0D005048592057726974653A2041646472657373D2
:204B6F00203078253032582C2044617461203078253034580A0D00526561643A204164641A
:204B8F0072657373203078253032582C2044617461203078253032580A0050485920526563
:204BAF0061643A2041646472657373203078253032582C2044617461203078253034580AE1
:204BCF000D000A0D496E76616C6964204275666665722041646472657373206F722053699E
:204BEF007A653A205374617274203078253034582C2053697A65203078253034580A0D000F
:204C0F000A0D42756666657220496E697469616C697A65643A2053746172742030782530F9
:204C2F0034582C20456E64203078253034580A0D000A0D496E76616C6964206E756D6265A1
:204C4F0072206F662062797465733A2025640A0D000A0D496E76616C69642061646472659F
:204C6F0073733A20253034580A0D0052656164696E672025642062797465732066726F6D6F
:204C8F0020627566666572207374617274696E6720617420616464726573732030782530C7
:204CAF0034583A0A0D00427974652025643A203078253032580A0D0057726974696E6720CF
:204CCF00256420627974657320746F20627566666572207374617274696E67206174206156
:114CEF00646472657373203078253034583A0A0D0035
:2038AC00AF83E582900386F0EFA3F03099FD900386E0FEA3E0FF8E99C2998E828F832210C3
:2038CC00980280FBAE997F008E828F8322AFF0AE83E582900388F0EEA3F0EFA3F09003885D
:2038EC00E0FDA3E0FEA3E0FF7B007C008D828E838FF0124503FA60360DBD00010E90038868
:20390C00EDF0EEA3F0EFA3F08A017A0089828A83C007C006C005C004C0031238ACD003D02C
:20392C0004D005D006D0070BBB00C10C80BE900388EDF0EEA3F0EFA3F00BBB00010C8B8249
:03394C008C832247
:06203800E478FFF6D8FD7C
:202016007914E94400601B7A01904D0B78C575A003E493F2A308B8000205A0D9F4DAF2753C
:02203600A0FF09
:1B394F0020F71130F6138883A88220F509F6A8837583002280FEF280F5F02277
:20396A00C008858108E50824FDF8868318868218E493A324DB600C24256005123A5880F0D9
:20398A00023A70D2D5E493A3C083C082B4731486F0188683188682181245036054A3123A24
:2039AA005880F5B4630818E618123A588043B46417E630E74618E6F42401F608E6F43400FF
:2039CA00F6742D123A588033B4782D868318868218E4123A49E583123A48E583123A49E5FE
:2039EA0082123A48E582123A4930D5057430123A58D082D08302397AB475F6E6FA18E6F909
:203A0A00187C107D27123A33FF7CE87D03123A33C4F5837C647D00123A334283E975F00A3E
:203A2A0084C445F0F582EF80A97B000BC3E99CF9EA9DFA50F61BE92CF9EA3DFAEB22C45473
:203A4A000F700320D51FC2D52490D43440D4C083C082C0F0F582E8C0E01238ACD0E0F8D0BD
:093A6A00F0D082D08322D00822A2
:203A7300AA83AB828BF090038CE0A4F8A9F08AF0E0A429F98BF0A3E0A429F5838882222279
:20203E007800E84400600A790075A001E4F309D8FC78C5E84402600C7903900100E4F0A3D6
:04205E00D8FCD9FAD7
:203A9300C0088581087E008E831238ACD00822AFF0AE83E58290038FF0EEA3F0EFA3F090E2
:203AB300038FE0FDA3E0FEA3E0FF90038EE0FC9003A3E4F0A3F0A3F09003A6EDF0EEA3F0BD
:203AD300EFA3F09003A9ECF0903A93023BE7C008E581F50824FBFF9003A3E4F0A3F0A3F03F
:203AF300E50824FBF89003A6E6F008E6A3F008E6A3F09003A9EFF0903A93123BE7D00822F8
:203B1300E58290039FF0E0FF900395E0C0E0A3E0C0E0A3E0C0E0123B2E800D900393E0C06E
:203B3300E0A3E0C0E08F822215811581158190039DE02401F0A3E03400F022E5829003A0F2
:203B5300F0E02430FF24C6500D74072FFF900392E060034307208F82023B13E5829003A171
:203B7300F0E0FFC4540FF582C007123B4ED00753070F8F82023B4EE5829003A2F0900398D0
:203B9300E0FCA3E0FDA3E0FEA3E0FF90039CE0FB9003A2E0FA79208B00E828F513EF2354F8
:203BB300014513FBEC2CFCED33FDEE33FEEF33FFC3EB9A4007EBC39AFB43040119E970D7CA
:203BD300900398ECF0EDA3F0EEA3F0EFA3F090039CEBF022AF83E5829003AAF0EFA3F09044
:203BF30003AAE0FEA3E0FF900393EEF0EFA3F09003A3E0FDA3E0FEA3E0FF900395EDF0EE16
:203C1300A3F0EFA3F090039DE4F0A3F09003A6E0FDA3E0FEA3E0FF8D828E838FF0124503D3
:203C3300FC9003A674012DF0E43EA3F0EFA3F0EC70030244DFBC250280030244D79003AC2D
:203C5300E4F09003ADF09003AEF09003AFF09003B0F09003B1F09003B2F09003B3F0900385
:203C7300B5F09003B6F0A3F09003B814F0A3F09003A6E0FDA3E0FEA3E0FF8D828E838FF026
:203C9300124503FBA3AD82AE839003A6EDF0EEA3F0EFA3F09003BCEBF0BB25088B82123B34
:203CB30013023C1FBB30005003023D80EB24C65003023D809003B8E0F509A3E0F50A74FF7F
:203CD300B50963B50A60C005C006C0079003B6E0FAA3E0FF90038CEAF0EFA3F090000AC0C5
:203CF30005C003123A73AE82AF83D003D0058B057A00ED2EFEEA3FFFEE24D0FEEF34FFFFD4
:203D13009003B6EEF0EFA3F0D007D006D0059003B6E0F5F0A3E045F06003023C8D9003AD31
:203D33007401F0023C8DC005C006C00790038CE509F0E50AA3F090000AC006C005C0031275
:203D53003A73AA82AF83D003D005D0067E00EB2AFAEE3FFFEA24D0FAEF34FFFF9003B8EAE0
:203D7300F0EFA3F0D007D006D005023C8D9003BCE0FBBB2E2FC005C006C0079003B8E0FAB8
:203D9300A3E0FFBAFF05BFFF028009D007D006D005023C8DD007D006D0059003B8E4F0A3F6
:203DB300F0023C8DBB61004014EB2485400F9003BC74DF5BF09003927401F08005900392C1
:203DD300E4F09003BCE0FBBB20028075BB2B028067BB2D028059BB4202806FBB4302807C84
:203DF300BB4403024077BB460302409DBB4803023C8DBB4903024077BB4A03023C8DBB4CA7
:203E1300028050BB4F03024085BB5003023FE5BB53028077BB5403023C8DBB550302408DEF
:203E3300BB5803024095BB5A03023C8D0240A59003AC7401F0023C8D9003AE7401F0023C65
:203E53008D9003AF7401F0023C8D9003B17401F0023C8D9003B27401F0023C8D9003B1E043
:203E7300600E9003A9E014F9F09003BCE7F0800F9003A9E024FEFFF08F019003BCE7F09080
:203E930003BCE0F582123B130240B49003A9E024FDFFF08F0187050987060987071919906C
:203EB3000398EDF0EEA3F0EFA3F08D828E838FF01244EB85820985830A9003B8E0FAA3E0CA
:203ED300FDBAFF0DBDFF0A9003B8E509F0E50AA3F09003ACE0704B9003B6E0FAA3E0FDC35B
:203EF300E5099AE50A9D503A9003B6EAC39509F0ED950AA3F09003B6E0FAA3E0FD8A068DAE
:203F1300071ABAFF011DEE4F6010758220C005C002123B13D002D00580E39003B6EAF0EDD1
:203F3300A3F09003B8E0F50CA3E0F50D900398E0FAA3E0FDA3E0FF8A828D838FF01245032E
:203F5300F50B603CC3E4950C7480850DF063F08095F0502C150C74FFB50C02150D850B8295
:203F7300123B13900398E0FAA3E0FDA3E0FF0ABA00010D900398EAF0EDA3F0EFA3F080ACC2
:203F93009003ACE070030240B49003B6E0FEA3E0FFC3E5099EE50A9F40030240B49003B67E
:203FB300EEC39509F0EF950AA3F09003B6E0FEA3E0FF8E028F051EBEFF011FEA4D7003021A
:203FD30040AC758220C007C006123B13D006D00780E09003A9E024FDFDF08D01870E0987F4
:203FF3000F0987101919900398E50EF0E50FA3F0E510A3F090039AE0FDBD8000400890038E
:20401300BC7443F08020BD600040089003BC7450F08013BD400040089003BC7449F08006C8
:204033009003BC7458F09003BCE0FDF582C005123B1375823A123B13758230123B1375828B
:2040530078123B13D005BD4902800EBD50028009900399E0F582123B6E900398E0F58212A0
:204073003B6E803D9003B07401F09003B5740AF0802F9003B57408F080279003B5740AF0A9
:20409300801F9003B57410F080179003B37401F0800F8B82123B1380089003B6EEF0EFA333
:2040B300F09003B3E060719003A9E024FCFFF08F0187030987050987060987071919199024
:2040D3000398EBF0EDA3F0EEA3F0EFA3F09003987400F0744DA3F07480A3F0900398E0F56A
:2040F3000EA3E0F50FA3E0F5107401250EFAE4350FFBAF10900398EAF0EBA3F0EFA3F08582
:204113000E82850F838510F0124503FF7003023C1F8F82123B1380C39003B5E07003023CAA
:204133001F9003B1E060479003A9E014F9F087077E007D007B00900398EFF0EEA3F0EDA34A
:20415300F0EBA3F09003B0E060030241F7900398E0FBA3E0A3E0A3E07D007E007F00900382
:2041730098EBF0EDA3F0EEA3F0EFA3F080769003B2E060289003A9E024FCFFF08F0187034E
:20419300098705098706098707191919900398EBF0EDA3F0EEA3F0EFA3F080489003A9E092
:2041B30024FEFFF08F01870609870719EF3395E0FDFB900398EEF0EFA3F0EDA3F0EBA3F0F6
:2041D3009003B0E0701E900398E0FBA3E0FDA3E0A3E07E007F00900398EBF0EDA3F0EEA37B
:2041F300F0EFA3F09003B0E0603D900398E0A3E0A3E0A3E030E72B900398E0FBA3E0FDA37B
:20421300E0FEA3E0FFC3E49BFBE49DFDE49EFEE49FFF900398EBF0EDA3F0EEA3F0EFA3F0E5
:2042330080059003B0E4F09003B47401F09003B5E0F50C7511C2751203E4F509F50A9003B4
:204253009CE4F0850C82123B8A9003B4E0703390039CE0C454F0F50E90039CE0C4540F4592
:204273000EF50E851182851283E0FFE50E4207851182851283EFF0151174FFB51102151234
:20429300800B90039CE0851182851283F00509E4B50902050A9003B4E0B40100E433F0901B
:2042B3000398E0FAA3E0FBA3E0FEA3E0FFEA4B4E4F708B9003C3E511F0E512A3F09003BA15
:2042D300E509F0E50AA3F09003B6E0F5F0A3E045F070099003B67401F0E4A3F09003ADE0E7
:2042F300FFE070479003ACE07041850911850A129003B6E0FAA3E0FBC007AF110F8F067FBA
:2043130000C3EE9AEF9BD0075019758220C007C003C002123B13D002D003D0071ABAFF0162
:204333001B80D59003B6EAF0EBA3F09003B0E0602075822DC007123B13D0079003B6E02447
:20435300FFFDA3E034FFFE9003B6EDF0EEA3F080569003BAE0F5F0A3E045F0604A9003AE68
:20437300E0602075822BC007123B13D0079003B6E024FFFDA3E034FFFE9003B6EDF0EEA3F6
:20439300F080249003AFE0601E758220C007123B13D0079003B6E024FFFDA3E034FFFE9034
:2043B30003B6EDF0EEA3F09003ACE070449003BAE0F511A3E0F5129003B6E0FAA3E0FBC0E2
:2043D300078A068B071ABAFF011BC3E5119EE5129FD007504FEF60047E3080027E208E821E
:2043F300C007C003C002123B13D002D003D00780CE9003B6E0FEA3E0FF9003BAE0F511A3B5
:20441300E0F512C3E5119EE5129F500F9003B6EEC39511F0EF9512A3F080119003B6E4F0EF
:20443300A3F080089003B6EAF0EBA3F09003C3E0FEA3E0FF9003BAE0F511A3E0F512AA117F
:20445300AD12151174FFB511021512EA4D60449003B4E0B40100E433F09003B4E070130E8C
:20447300BE00010F8E828F83E0C4540F90039CF0800E8E828F83E0FD53050F90039CEDF013
:2044930090039CE0F582C007C006123B4ED006D00780AB9003ACE07003023C1F9003B6E06B
:2044B300FEA3E0FF8E038F051EBEFF011FEB4D7003023C1F758220C007C006123B13D00667
:1844D300D00780E08C82123B13023C1F90039DE0FEA3E08E82F5832294
:0B4D00003C4E4F20464C4F41543E00FB
:1844EB00AA82AB831245036003A380F8C3E5829AF582E5839BF58322AF
:0D20090075812112451FE58260030220064B
:1C45030020F71430F6148883A88220F507E6A88375830022E280F7E49322E022C7
:04451F00758200227F
:00000001FF
