:0720620090014BE4F0A3F034
:20207300AF83E582900100F0EFA3F0900102E4F0A3F0A3F0A3F0900100E0FEA3E0FF900907
:20209300D9EEF0EFA3F09003E8C007C006125374AC82AD83D006D007900102E0F8A3E0F921
:2020B300A3E0FAA3E0FBC006C0077E007F00C3E89CE99DEA9EEB9FD007D0065023900102F6
:2020D300E0FAA3E0FBA3E0FCA3E0FD90010274012AF0E43BA3F0E43CA3F0E43DA3F0809E3D
:2020F3002290038DE4F075821F123A9BE5824408FF900384741FF0900385EFF0758200027E
:202113003925AF83E582900108F0EFA3F0900108E0FEA3E0FF8E059003847404F090038587
:20213300EDF0758200C007C006123925D006D0078F069003847405F0900385EEF07582000C
:20215300123925900106E0FEA3E0FF8E059003847406F0900385EDF0758200C007C0061266
:202173003925D006D0078F069003847407F0900385EEF0758200023925AF83E58290010AA9
:20219300F0EFA3F090010AE0FEA3E0FF7C007D00C3EC9EED9F504190038DE4F075821FC092
:2021B30007C006C005C004123A9BE582D004D005D006D00720E30475820122900001C00799
:2021D300C006C005C004122073D004D005D006D0070CBC00BB0D80B87582002290038DE4BD
:2021F300F075821D123A9BE582035401B401009200E433F5822290010C7402F090010D7416
:2022130011F090010E23F090010F7433F09001107444F09001117455F090011274F8F0908E
:2022330001137475F090011474A4F0900115748CF09001167441F09001177431F090011829
:2022530074C0F090011974A8F090011A7401F090011B7464F090011C74C0F090011D74A872
:20227300F090011E7401F090011FF0900120740EF07E007F00C3EE9406EF648094805048BD
:202293008E05ED04FC3395E0FBEC2420FCEB3401FBEE2412F582EF3401F583E08C828B838E
:2022B300F074072DFD3395E0FCED2420FDEC3401FCEE240CF582EF3401F583E08D828C8358
:2022D300F00EBE00B00F80AD90012D7408F090012E7406F090012FE4F090013004F0900116
:2022F300317408F0900132E4F09001337406F09001347404F0900135E4F090013604F07E69
:20231300007F00C3EE9406EF6480948050298E0574172DFD3395E0FCED2420FDEC3401FC49
:20233300EE240CF582EF3401F583E08D828C83F00EBE00CF0F80CC7E007F00C3EE9404EF40
:202353006480948050298E05741D2DFD3395E0FCED2420FDEC3401FCEE2418F582EF3401F7
:20237300F583E08D828C83F00EBE00CF0F80CC7F00BF060050198F0674212EFE3395E0FD46
:20239300EE2420F582ED3401F583E4F00F80E27E007F00C3EE9404EF6480948050298E0569
:2023B30074272DFD3395E0FCED2420FDEC3401FCEE241CF582EF3401F583E08D828C83F027
:2023D3000EBE00CF0F80CC90039CE4F0740CA3F090039E7420F07401A3F0E4A3F090002CEE
:2023F300123E54900106742BF0740CA3F0900C001221151220F49001F412218CE5826033A5
:202413001221EFE5826016743EC0E0745FC0E07480C0E01254C115811581158122745FC0B3
:20243300E0745FC0E07480C0E01254C115811581158122748DC0E0745FC0E07480C0E012DD
:2024530054C115811581158122C021C0E0C0F0C082C083C007C006C005C004C003C002C05F
:2024730001C000C0D075D00074D0C0E0745FC0E07480C0E01254C115811581158190014B03
:20249300E02401F0A3E03400F0D0D0D000D001D002D003D004D005D006D007D083D082D0DC
:2024B300F0D0E0D02132AF83E58290014FF0EFA3F090014FE0FEA3E0FFC374FF9E741F9F15
:2024D300401590014DE0FCA3E0FD8C028D03C374FF9A741F9B502A90014DE0C0E0A3E0C023
:2024F300E090014FE0C0E0A3E0C0E074F7C0E0745FC0E07480C0E01254C1E58124F9F58134
:20251300225306FE90014FEEF0EFA3F090014FE0FEA3E0FF8E03900384E4F0900385EBF040
:20253300758200C007C006C005C004C003123925D003D004D005D006D0078F029003847403
:2025530001F0900385EAF0758200C007C006C005C004C003C002123925D002D003D004D03A
:2025730005D006D0079003847408F0900385EBF0758200C007C006C005C004C003C002127C
:202593003925D002D003D004D005D006D0079003847409F0900385EAF0758200C007C006D5
:2025B300C005C004C003C002123925D002D003D004D005D006D0078C01900384740AF090ED
:2025D3000385E9F0758200C007C006C005C004C003C002123925D002D003D004D005D00661
:2025F300D0078D01900384740BF0900385E9F0758200C007C006C005C004C003C00212390F
:2026130025D002D003D004D005D006D007900384740CF0900385EBF0758200C007C006C0C9
:2026330005C004C002123925D002D004D005D006D007900384740DF0900385EAF0758200F3
:20265300C007C006C005C004123925D004D005D006D007C004C005C006C0077428C0E074C5
:2026730060C0E07480C0E01254C1E58124F9F58122AFF0AE83E582900151F0EEA3F0EFA355
:20269300F012399F90038DE4F075821D123A9BE58230E0F090014D74FFF0740BA3F0900014
:2026B300001224B99003847402F09003857470F07582021239259003847403F0900385743C
:2026D30040F0758202123925900384740AF090038574EEF0758202123925900384740BF070
:2026F3009003857405F07582021239259003847404F09003857412F07582021239259003D4
:20271300847406F09003857412F07582021239259003847407F0900385740CF075820212AC
:202733003925900151E0FDA3E0FEA3E0FF74052DF508E43EF5098F0A850882850983850A5B
:20275300F0125EE3F99003847401F0900385E9F0758203C007C006C005123925D005D00656
:20277300D00774042DF50BE43EF50C8F0D850B82850C83850DF0125EE3FB900384E4F0909A
:202793000385EBF0758203C007C006C005123925D005D006D00774032DF50EE43EF50F8F29
:2027B30010850E82850F838510F0125EE3F99003847403F0900385E9F0758203C007C00603
:2027D300C005123925D005D006D00774022DF511E43EF5128F138511828512838513F012EF
:2027F3005EE3FB9003847402F0900385EBF0758203C007C006C005123925D005D006D007DC
:2028130074012DFAE43EFB8F048A828B838CF0125EE3F99003847405F0900385E9F075820F
:2028330003C007C006C005C004C003C002123925D002D003D004D005D006D0078D828E835C
:202853008FF0125EE3F99003847404F0900385E9F0758203C007C006C005C004C003C00295
:20287300123925D002D003D004D005D006D0079003847418F09003857480F0758201C0078C
:20289300C006C005C004C003C002123925D002D003D004D005D006D00790038D7402F075EB
:2028B3008203C007C006C005C004C003C002123A9BE582D002D003D004D005D006D0074458
:2028D30001F99003847403F0900385E9F0758202C007C006C005C004C003C002123925D0A8
:2028F30002D003D004D005D006D00790038D7402F0758200C007C006C005C004C003C00282
:20291300123A9BE582D002D003D004D005D006D0074401F9900384E4F0900385E9F075824A
:2029330002C007C006C005C004C003C002123925D002D003D004D005D006D00790038AE47B
:20295300F004A3F0758200C007C006C005C004C003C002123A18D002D003D004D005D006C3
:20297300D00790038A7422F07434A3F0758214C007C006C005C004C003C002123A18D002B3
:20299300D003D004D005D006D007900384741FF09003857404F0758200C007C006C005C0D8
:2029B30004C003C0021239257457C0E07460C0E07480C0E01254C1158115811581D002D00D
:2029D30003D004D005D006D007850882850983850AF0125EE3F98908750900850B82850CEE
:2029F30083850DF0125EE3F9890B750C00850E82850F838510F0125EE3F9890E750F0085C1
:202A130011828512838513F0125EE3F879008A828B838CF0125EE3FA7C008D828E838FF0AC
:202A3300125EE3FD7F00C008C009C00BC00CC00EC00FC000C001C002C004C005C007747B6D
:202A5300C0E07460C0E07480C0E01254C1E58124F1F5812290038D7401F0758219023A9B15
:202A7300AF83E582900154F0EFA3F0900154E0FEA3E0FFFD8E04900384740CF0900385ECF4
:202A9300F0758200C007C006C005123925D005D006D007900384740DF0900385EDF0758284
:202AB30000C007C006123925D006D007C006C00774A7C0E07460C0E07480C0E01254C1E5FD
:062AD3008124FBF58122C5
:205F03000A496E76616C6964204275666665722053697A652E204275666665722065786370
:205F2300656564732076616C696420616464726573732072616E67652E0A004152502072AD
:205F43006571756573742073656E74207375636365737366756C6C792E0A0D004152502040
:205F63007472616E736D697373696F6E206661696C65642E20436865636B206572726F72F9
:205F830020666C6167732E0A0D005472616E736D697373696F6E2074696D656F75742E200D
:205FA300454E4332384A3630206D6179206E6F742062652066756E6374696F6E696E67204B
:205FC300636F72726563746C792E0A0D00496E74657272727272727272757575757575754F
:205FE30075757070707070707070747474747474740A0D000A496E76616C696420427566E3
:206003006665722052616E67653A205374617274203078253034582C20456E6420307825D2
:206023003034580A000A42756666657220496E697469616C697A65643A2053746172742015
:206043003078253034582C20456E64203078253034580A000A454E4332384A363020496ECD
:20606300697469616C697A6174696F6E20436F6D706C6574652E0A004D414320416464720F
:206083006573733A20253032583A253032583A253032583A253032583A253032583A253086
:1F60A30032580A0055706461746564204552585244505420746F203078253034580A0084
:0620000002200902245C2D
:0A20690090037BE4F0A3F0022006D0
:03200600022D1791
:202AD900AFF0AE83E582900156F0EEA3F0EFA3F0900159E4F0A3F0900156E0FDA3E0FEA393
:202AF900E0FF8D028E038F048D398E3A8F3B78007900C002C003C004E82539FAE9353AFB06
:202B1900AC3B8A828B838CF0125EE3F53CD004D003D002E53C7003022C87C002C003C00490
:202B3900853C3D753E0090015BE53DF0E53EA3F0900159E0FBA3E0C454F0CBC4CB6BCB54E3
:202B5900F0CB6BFC900159EBF0ECA3F0C3E53D9430E53E64809480D004D003D002403F74C6
:202B790039953D7480853EF063F08095F0402FC002C003C004E53D24D0F53DE53E34FFF5E7
:202B99003E900159E0FAA3E0FC900159E53D2AF0E53E3CA3F0D004D003D002022C7F9001CC
:202BB9005BE0F53DA3E0F53EC3E53D9441E53E64809480404E7446953D7480853EF063F0F0
:202BD9008095F0403EC005C006C007E82AFDE93BFE8C078D828E838FF0125EE37F0024C9E5
:202BF900F53DEF34FFF53E900159E0FEA3E0FF900159E53D2EF0E53E3FA3F0D007D006D04F
:202C190005806390015BE0F53DA3E0F53EC3E53D9461E53E64809480404C7466953D7480DE
:202C3900853EF063F08095F0403CC002C003C004E82DFAE93EFB8F048A828B838CF0125EE1
:202C5900E37C0024A9F53DEC34FFF53E900159E0FBA3E0FC900159E53D2BF0E53E3CA3F04E
:202C7900D004D003D00208B8000109022B0B900159E0FEA3E08E82F583227E007F00C00707
:202C9900C006124E34AC82D006D007BC0A02803ABC0D028035C3EE9409EF64809480502A35
:202CB9008C037D008B828D83C007C006C004124E15D004D006D007EE245DF582EF3401F58C
:202CD90083ECF00EBE00B70F80B4EE245DF582EF3401F583E4F090015DF5F0122AD9AE8248
:202CF900AF83C007C00674C2C0E07460C0E01250C615811581D006D0078E828F83229001DC
:202D1900677402F09001687411F090016923F090016A7433F090016B7444F090016C745556
:202D3900F090016D74F8F090016E7475F090016F74A4F0900170748CF09001717441F09028
:202D590001727431F090017374C0F090017474A8F09001757401F09001767464F0900177D7
:202D790074C0F090017874A8F09001797401F090017AF074C5C0E07460C0E07480C0E012A4
:202D990054C115811581158112398190016775F00012268474DEC0E07460C0E07480C0E064
:202DB9001254C115811581158174F5C0E07460C0E07480C0E01254C1158115811581740B98
:202DD900C0E07461C0E07480C0E01254C11581158115817420C0E07461C0E07480C0E012F9
:202DF90054C11581158115817434C0E07461C0E07480C0E01254C1158115811581744EC027
:202E1900E07461C0E07480C0E01254C11581158115817464C0E07461C0E07480C0E01254E0
:202E3900C11581158115817479C0E07461C0E07480C0E01254C1158115811581748BC0E0D8
:202E59007461C0E07480C0E01254C115811581158174A5C0E07461C0E07480C0E01254C17E
:202E790015811581158174BAC0E07461C0E07480C0E01254C115811581158174D3C0E0745C
:202E990061C0E07480C0E01254C115811581158174EBC0E07461C0E07480C0E01254C11557
:202EB9008115811581740AC0E07462C0E07480C0E01254C1158115811581741EC0E0746233
:202ED900C0E07480C0E01254C1158115811581743AC0E07462C0E07480C0E01254C11581A7
:202EF90015811581124E34AE828E057F008D828F83C006124E1574C2C0E07460C0E074801D
:202F1900C0E01254C1158115811581D006BE310050030237F2EE24B950030237F2EE24CFA2
:202F3900FE240A83F582EE241A83F583E47373DBD9389A05405BBDF2F2F2F2F2F2F27DADB6
:202F5900568891CC2F2F3031313232323237373737373737332D373737377459C0E0746265
:202F7900C0E07480C0E01254C1158115811581122C93AE82C006747EC0E07462C0E0748058
:202F9900C0E01254C1158115811581122C93AD82C00574ABC0E07462C0E07480C0E012549B
:202FB900C1158115811581122C93AC82D005D006900384EDF0900385ECF08E821239250261
:202FD9002DAD74CFC0E07462C0E07480C0E01254C1158115811581122C93AE82AF83C0072E
:202FF900C00674F5C0E07462C0E07480C0E01254C1158115811581122C93AC82AD83D006F1
:20301900D007C007C006C005C004C006C0077413C0E07463C0E07480C0E01254C1E581243A
:20303900FBF581D004D005D006D0077A007B00C3EA9EEB64808FF063F08095F05063C00453
:20305900C005C007C006C005C004C003C002C002C0037436C0E07463C0E07480C0E01254B7
:20307900C1E58124FBF581D002D003D004D005EA247BF8EB3401F9C003C002C001C000127B
:203099002C93AC82D000D001D002D003D006D00788828983ECF00ABA00010BD005D004804C
:2030B9008E90039CECF0EDA3F090039E747BF07401A3F0E4A3F08E828F83123E54022DADAD
:2030D9007440C0E07463C0E07480C0E01254C1158115811581122C93AE82AF83C007C006CF
:2030F90074F5C0E07462C0E07480C0E01254C1158115811581122C93AC82AD83D006D007DF
:20311900900395ECF0EDA3F0900397747BF07402A3F0E4A3F08E828F83123CD5022DAD74F4
:2031390065C0E07463C0E07480C0E01254C1158115811581122C93AE82C006748EC0E074A0
:2031590063C0E07480C0E01254C1158115811581122C93AD82D00690038DEEF08D82123AA7
:203179009BAF827E00C007C00674B7C0E07463C0E07480C0E01254C1E58124FBF581022D38
:20319900AD74D3C0E07463C0E07480C0E01254C1158115811581122C93AE82C00674F5C09E
:2031B900E07463C0E07480C0E01254C1158115811581122C93AD82AF83D00690038AEDF020
:2031D900EFA3F08E82C007C005123A18D005D007C005C0077417C0E07464C0E07480C0E0E5
:2031F9001254C1E58124FBF581022DAD7430C0E07464C0E07480C0E01254C1158115811500
:2032190081122C93123ADEAE82AF83C006C007745AC0E07464C0E07480C0E01254C1E58123
:2032390024FBF581022DAD7472C0E07464C0E07480C0E01254C115811581158112399F029D
:203259002DAD748AC0E07464C0E07480C0E01254C1158115811581122C93AE82C00674B4F9
:20327900C0E07464C0E07480C0E01254C1158115811581122C93AD82D006900388EDF08E44
:20329900821239AAAF827E00C007C00674CFC0E07464C0E07480C0E01254C1E58124FBF5D2
:2032B90081022DAD74DEC0E07460C0E07480C0E01254C115811581158174F5C0E07460C018
:2032D900E07480C0E01254C1158115811581740BC0E07461C0E07480C0E01254C11581157E
:2032F9008115817420C0E07461C0E07480C0E01254C11581158115817434C0E07461C0E0BB
:203319007480C0E01254C1158115811581744EC0E07461C0E07480C0E01254C11581158159
:2033390015817464C0E07461C0E07480C0E01254C11581158115817479C0E07461C0E074FE
:2033590080C0E01254C1158115811581748BC0E07461C0E07480C0E01254C115811581153B
:2033790081022DAD122209122A67E58260F990037BE0FEA3E0FF90037BE0F5F0A3E045F03E
:203399007008900BFF122A73800C1EBEFF011F8E828F83122A7390000612520BAE82AD8396
:2033B9007F0090037BE0FBA3E0FC900395EBF0ECA3F0900397EEF0EDA3F0EFA3F0900006EB
:2033D900C007C006C005123CD5D005D006D00774012EFAE43DFB8F048A828B838CF0125E8B
:2033F900E3FC7A008E828D838FF0125EE37B004202EB42048A2A8C2B74032EF8E43DF98FC8
:2034190003888289838BF0125EE3F87B0088238B2274022EF8E43DF98F03888289838BF008
:20343900125EE3F87B00E523420388228B2374052EF8E43DF98F03888289838BF0125EE3D9
:20345900F87B0088258B2474042EF8E43DF98F03888289838BF0125EE3F87B00E525420394
:2034790088248B25A922AB23E924FCF9EB34FFFB89288B29852826852927852682852783BA
:20349900C007C006C00512520BA882AB83D005D006D007882C8B2D752E0090037BE0FAA3DE
:2034B900E0FC74062AFAE43CFC900395EAF0ECA3F0900397E52CF0E52DA3F0E52EA3F085E1
:2034D9002882852983C007C006C005123CD590037DE4F0A3F0AA2CAB2DFC9009DB7467F023
:2034F9007401A3F0E4A3F09009DE7406F0E4A3F08A828B838CF0125394E5828583F0D00519
:20351900D006D00745F07070740C252CFAE4352DFBAC2E8A828B838CF0125EE3FABA0858ED
:20353900740D252CFAE4352DFBAC2E8A828B838CF0125EE37042C007C006C00574EBC0E09F
:203559007464C0E07480C0E01254C1158115811581D005D006D0077417252CFAE4352DFBC4
:20357900AC2E8A828B838CF0125EE3FABA060990037D7401F0E4A3F090037DE0F5F0A3E068
:2035990045F0700302368D74042526FBE43527FC9003C2EBF0ECA3F09003C4747FF074034B
:2035B900A3F0E4A3F0852C82852D83852EF0C007C006C0051245E9AA82AB83ACF0D005D0B0
:2035D90006D007EA4B6069C007C006C005C004C003C0027415C0E07465C0E07480C0E01214
:2035F90054C1158115811581D002D003D004D005D006D00790037FE0F8A3E0F99009B2E847
:20361900F0E9A3F08A828B838CF0C007C006C005C004C003C002124D31D002D003D0048A61
:20363900828B838CF0124EB8D005D006D0078021C007C006C0057430C0E07465C0E0748027
:20365900C0E01254C1158115811581D005D006D007C007C006C0057462C0E07465C0E07491
:2036790080C0E01254C1158115811581D005D006D0078021C007C006C005746AC0E074655C
:20369900C0E07480C0E01254C1158115811581D005D006D00790037BE52AF0E52BA3F0C002
:2036B90007C006C005C02AC02B7471C0E07465C0E07480C0E01254C1E58124FBF581C022F4
:2036D900C0237485C0E07465C0E07480C0E01254C1E58124FBF581C024C0257494C0E07441
:2036F90065C0E07480C0E01254C1E58124FBF581D005D006D00790038DE4F075821EC007A4
:20371900C006C005123A9BE582D005D006D0074440FC900384741EF0900385ECF07582022F
:20373900C007C006C005123925D005D006D0077F008E828D838FF0124EB802338074A4C069
:20375900E07465C0E07480C0E01254C1158115811581C2907E007F00C3EE9470EF6480940F
:203779009750070EBE00F10F80EED290022DAD900846124A81022DADD288D2A8D2AF90034B
:203799008DE4F075821E123A9B74D7C0E07465C0E07480C0E01254C115811581158190033F
:2037B90084741BF090038574C0F0758200123925022DAD74EAC0E07465C0E07480C0E01251
:2037D90054C1158115811581900384741BF0900385E4F075820012392574FEC0E07465C065
:1137F900E07480C0E01254C1158115811581022DAD86
:2060C2000A0D00535049204F7065726174696F6E73206F6E20383035310A0D000A0D4368B3
:2060E2006F6F736520616E20616374696F6E3A200A0D0031202D2D3E20436F6E74726F6C00
:206102002057726974650A0D0032202D2D3E204275666665722057726974650A0D00332042
:206122002D2D3E2042756666657220526561640A0D0034202D2D3E204D4143205265676914
:206142007374657220526561640A0D0035202D2D3E20504859205350492057726974650A8D
:206162000D0036202D2D3E205048592053504920526561640A0D0037202D2D3E20454E436D
:206182002052657365740A0D0038202D2D3E205265616420455448205265676973746572D1
:2061A2000A0D0039202D2D3E20446973706C6179204D656E750A0D0041202D2D3E20536542
:2061C2006E642041525020526571756573740A0D0042202D2D3E20496E69742052582062CE
:2061E2007566666572730A0D0043202D2D3E2048617264205265736574286E524553455425
:206202002070696E290A0D0044202D2D3E2050726F63657373205443500A0D0045202D2DFD
:206222003E20456E61626C6520545820696E746572727570740A0D0046202D2D3E204469FC
:206242007361626C696E6720545820696E746572727570740A0D00456E746572207468650D
:206262002072656769737465722062616E6B20746F2073656C6563743A0A0D00456E74655B
:2062820072207468652061646472657373206F662074686520436F6E74726F6C205265678E
:2062A20069737465723A0A0D00456E74657220746865206461746120796F752077616E74F4
:2062C20020746F2077726974653A0A0D00456E74657220746865206E756D626572206F6620
:2062E20020627974657320746F2077726974653A0A0D00456E7465722074686520737461EF
:206302007274696E6720616464726573733A0A0D00456E74657220256420627974657320F2
:206322006F6620646174612028696E20686578293A0A0D00427974652025643A2000456E84
:2063420074657220746865206E756D626572206F6620627974657320746F20726561643AB1
:206362000A0D00456E74657220746865204D41432072656769737465722062616E6B2074DF
:206382006F2073656C6563743A0A0D00456E746572207468652061646472657373206F6641
:2063A20020746865204D41432052656769737465723A0A0D004D414320526567697374650F
:2063C2007220446174613A203078253032580A0D00456E74657220746865205048592072B5
:2063E2006567697374657220616464726573733A0A0D00456E746572207468652031362D3E
:20640200626974206461746120746F2077726974653A0A0D00504859205772697465204462
:206422006174613A203078253034580A0D00456E74657220746865205048592072656769F3
:2064420073746572206164647265737320746F20726561643A0A0D005048592052656164D9
:2064620020446174613A203078253034580A0D00526573657474696E6720454E4332384A27
:2064820036302E2E2E0A0D00456E746572207468652045544820726567697374657220618D
:2064A20064647265737320746F20726561643A0A0D00456E746572207468652062616E6B2A
:2064C200202830206F722031293A0A0D0045544820526567697374657220446174613A203C
:2064E2003078253032580A0D0056616C6964204554484552207061636B65742E2E2E2E2EF6
:206502002E2E2E2E2E2E2E2E2E2E2E2E2E2E2E2E0A0D000A50726F636573736564207265D9
:2065220073706F6E736520646174613A0A000A4E6F20726573706F6E73652067656E65723C
:206542006174656420627920544350207061636B65742070726F63657373696E672E0A006C
:206562005945535353530A004E4F4F4F4F0A006E6578745061636B65743A203078253034EF
:20658200580A0062797465436F756E743A2025640A007374617475733A2030782530325868
:2065A2000A0020526573657474696E6720454E43207573696E672052455345542070696EB4
:2065C20020696E2048617264776172652850315F30290A0D00456E61626C696E6720545810
:2065E200504B5449450A0D0044697361626C696E67205458504B5449450A0D00496E76618A
:206602006C6964206F7074696F6E2E20506C656173652073656C65637420612076616C69F1
:0C6622006420616374696F6E2E0A0D0025
:146AA300021122334455F875A48C4131C0A80164C0A8010198
:20380A0075825F12399075820212399075825412399075821412399075825612399075826E
:20382A000012399075825712399075820A02399022C29175825F123990758202123990D262
:20384A0091C291758254123990758214123990D291C2917582561239907582A8123990D244
:13386A0091C29175825712399075823A123990D29122228B
:20387D0075C5FFE5C430E7FB900381E5C5F0E0F58222C29175825E1239907582801239903B
:20389D00D29122E582900382F0C29175821F12399012387DAF82D2915307FC900382E0FE32
:2038BD0024FC4030EE2E9038C7738006800B80128019900383EFF0803190038374014FF091
:2038DD00802890038374024FF0801F90038374034FF08016742EC0E07466C0E07480C0E007
:2038FD001254C1158115811581227F00BF100050030F80F8C29175825F123990900383E0FE
:20391D00F582123990D29122E582900386F0900384E02440F0900386E0F5821238A0C2914B
:20393D00900384E0FFF582C007123990D007900385E0FEF582C007C006123990D006D00702
:20395D00D2917D007C00C006C005C007C0047439C0E07466C0E07480C0E01254C1E58124CC
:20397D00F9F58122D29175C30043C32043C31043C34022E582900387F0E0F5C5E5C430E78F
:20399D00FB22C2917582FF123990D29122E582900389F0E0FF24E05019745EC0E07466C079
:2039BD00E07480C0E01254C115811581158175820022900388E0F582C0071238A0D007C2B8
:2039DD00918F82C00712399012387DAE82D007D2918E047D007B00C006C004C005C007C0F5
:2039FD00037498C0E07466C0E07480C0E01254C1E58124F9F581D0068E8222E58290038C3F
:203A1D00F0E0FF9003847414F0900385EFF0758202C007123925D00790038AE0FDA3E0FEB2
:203A3D008D049003847416F0900385ECF0758202C007C006C005123925D005D006D0078E88
:203A5D00049003847417F0900385ECF0758202C007C006C005123925D005D006D0077C0006
:203A7D00C005C006C007C00474BCC0E07466C0E07480C0E01254C1E58124F9F58122E5828C
:203A9D0090038EF0E0FF24E05019745EC0E07466C0E07480C0E01254C115811581158175CE
:203ABD0082002290038DE0F582C0071238A0D007C2918F8212399012387DAF82D2918F829B
:203ADD0022E58290038FF0E0FF9003847414F0900385EFF0758202C007123925D00790032F
:203AFD00847412F09003857401F0758202C007123925123B8BD0079003847412F0900385AE
:203B1D00E4F0758202C007123925D00790038D7402F0758218C007123A9BAE82D0077D00E6
:203B3D0090038D7402F0758219C007C006C005123A9BAC82D005D006D0078C03E44206EB43
:203B5D0042057C00C006C005C006C005C007C00474E5C0E07466C0E07480C0E01254C1E5D1
:203B7D008124F9F581D005D0068E828D832290038D7403F075820A123A9BE582900390F03E
:203B9D00900390E030E01490038D7403F075820A123A9BE582900390F080E522AF83E582D8
:203BBD00900393F0EFA3F0900393E0FEA3E0FF8E048F05C374FF9C741F9D4017900391E047
:203BDD00FAA3E0FBEA2EF8EB3FF9C374FF98741F99502A900391E0C0E0A3E0C0E0900393BC
:203BFD00E0C0E0A3E0C0E0740DC0E07467C0E07480C0E01254C1E58124F9F581225304FE3E
:203C1D00EA2EFEEB3FFF1EBEFF011F5306FE8D039003847408F0900385EBF0758200C00732
:203C3D00C006C005C004123925D004D005D006D0078C039003847409F0900385EBF0758255
:203C5D0000C007C006C005C004123925D004D005D006D0078F03900384740AF0900385EB51
:203C7D00F0758200C007C006C005C004123925D004D005D006D0078E03900384740BF090BD
:203C9D000385EBF0758200C007C006C005C004123925D004D005D006D007C006C007C00480
:203CBD00C005744BC0E07467C0E07480C0E01254C1E58124F9F58122AF83E58290039AF0BC
:203CDD00EFA3F090039AE0FEA3E0FFC3EE9401EF64809480501AC006C007747CC0E0746729
:203CFD00C0E07480C0E01254C1E58124FBF58122900395E0FCA3E0FD8C028D03C374FF9ABD
:203D1D00741F9B501AC004C005749CC0E07467C0E07480C0E01254C1E58124FBF581228ED4
:203D3D00008F01E82AFAE93BFBC374FF9A740B9B5021C006C007C004C00574B6C0E0746795
:203D5D00C0E07480C0E01254C1E58124F9F58190000022C374019E74808FF063F08095F09F
:203D7D00500BC005C00412388FD004D0058D078C069003847401F0900385EFF0758200C070
:203D9D0006C005C004123925D004D005D006900384E4F0900385EEF0758200C005C0041215
:203DBD003925C29175823A123990D004D00590039AE0FEA3E0FFC007C006C004C005C00617
:203DDD00C00774E2C0E07467C0E07480C0E01254C1E58124F9F581D006D007900397E0FB28
:203DFD00A3E0FCA3E0FD79007A00C3E99EEA64808FF063F08095F05037C007C006C005C02C
:203E1D0004C003C002C00112387DA882D001D002D003D004D005D006D0078B828C838DF0E5
:203E3D00E81250ABA3AB82AC8309B900BD0A80BAD2918E828F8322AF83E5829003A1F0EF5B
:203E5D00A3F09003A1E0FEA3E0FFC3EE9401EF64809480501AC006C007747CC0E07467C0CF
:203E7D00E07480C0E01254C1E58124FBF5812290039CE0FCA3E0FD8C028D03C374FF9A7480
:203E9D001F9B501AC004C005749CC0E07467C0E07480C0E01254C1E58124FBF58122C3741E
:203EBD00019E74808FF063F08095F0500BC005C00412388FD004D0058D078C069003847464
:203EDD0003F0900385EFF0758200C006C005C004123925D004D005D0069003847402F09099
:203EFD000385EEF0758200C005C004123925C29175827A123990D004D0059003A1E0FEA352
:203F1D00E0FFC007C006C004C005C006C007741DC0E07468C0E07480C0E01254C1E5812410
:203F3D00F9F581D006D00790039EE0FBA3E0FCA3E0FD79007A00C3E99EEA64808FF063F060
:203F5D008095F050378B828C838DF0125EE3F8A3AB82AC838882C007C006C005C004C003F2
:1F3F7D00C002C001123990D001D002D003D004D005D006D00709B900BD0A80BAD29122B3
:20662E0077726F6E672062616E6B0057726974653A20416464726573732030782530325891
:20664E002C2044617461203078253032580A0D000A0D496E76616C69642061646472657337
:20666E00733A204D414320726567697374657220616464726573732072616E6765205B300B
:20668E002C20307831465D0A0D00526561643A2041646472657373203078253032582C207E
:2066AE0044617461203078253032580A0D005048592057726974653A204164647265737358
:2066CE00203078253032582C2044617461203078253034580A0D0050485920526561643AB8
:2066EE002041646472657373203078253032582C2044617461203078253034580A0D000A6F
:20670E000D496E76616C6964204275666665722041646472657373206F722053697A653A41
:20672E00205374617274203078253034582C2053697A65203078253034580A0D000A0D4274
:20674E00756666657220496E697469616C697A65643A205374617274203078253034582C40
:20676E0020456E64203078253034580A0D000A0D496E76616C6964206E756D626572206FFE
:20678E00662062797465733A2025640A0D000A0D496E76616C696420616464726573733A26
:2067AE0020253034580A0D000A496E76616C696420525820416464726573733A20537461B0
:2067CE007274203078253034582C2053697A652025640A0052656164696E6720256420629D
:2067EE00797465732066726F6D20627566666572207374617274696E67206174206164648E
:20680E0072657373203078253034583A0A0D0057726974696E6720256420627974657320BF
:20682E00746F20627566666572207374617274696E6720617420616464726573732030787E
:08684E00253034583A0A0D0010
:203F9C00AFF0AE83E5829003A3F0EEA3F0EFA3F09003A3E0FDA3E0FEA3E0FF74182DFAE4F8
:203FBC003EFB8F048A828B838CF0E41250AB74192DFAE43EFB8F048A828B838CF0E4125052
:203FDC00AB9003A6F0A3F0A3F0A3F09003AA740EF0E4A3F09003AAE0FBA3E0FC8B018C0261
:203FFC00C3E99422EA94004003024089EB2DFBEC3EF88F048B8288838CF0125EE3FB7C0091
:20401C008B3A8C39740129F8E43AFCE82DF8EC3EFC8F0388828C838BF0125EE3F87C00E545
:20403C003A4204C005C006C0079003A6E0F53BA3E0F53CA3E0F53DA3E0F53E7E007F00909D
:20405C0003A6E8253BF0EC353CA3F0EE353DA3F0EF353EA3F0740229F9E43AFA9003AAE9B5
:20407C00F0EAA3F0D007D006D005023FF09003A6E0FCA3E0FDA3E0FEA3E0FF8E3B8F3CE4F4
:20409C00F53DF53EE53B453C453D453E60208C008D017A007B009003A6E53B28F0E53C399F
:2040BC00A3F0E53D3AA3F0E53E3BA3F080BFECF4FCEDF4FD9003A3E0FBA3E0FEA3E0FF74F0
:2040DC00182BF53BE43EF53C8F3D8D02853B82853C83853DF0EA1250AB74192BFBE43EFEA1
:2040FC008B828E838FF0EC0250ABAFF0AE83E5829003ACF0EEA3F0EFA3F09003ACE0FDA3F6
:20411C00E0FEA3E0FF74322DFAE43EFB8F048A828B838CF0E41250AB74332DFAE43EFB8FA5
:20413C00048A828B838CF0E41250AB74102DFAE43EFB8F048A828B838CF0125EE3FC7A001E
:20415C0074112DF8E43EF98F03888289838BF0125EE37B004202EB4204EA24ECFAEC34FF05
:20417C00FC9003AFE4F0A3F0A3F0A3F09003B3F09003B3E0FBBB04004003024227C002C012
:20419C00048B39753A00741A2539FAE4353AFCEA2DFAEC3EF98F048A8289838CF0125EE3A9
:2041BC00FA7C008A3C8C3B741B2539F8E4353AF9E82DF8E93EF98F04888289838CF0125EED
:2041DC00E37C00423BEC423C9003AFE0F53DA3E0F53EA3E0F53FA3E0F540A83BE53CF933D4
:2041FC0095E0FAFC9003AFE8253DF0E9353EA3F0EA353FA3F0EC3540A3F09003B3EB04F0C3
:20421C00E02401F0D004D00202418C9003B4E4F09003ACE0FDA3E0FEA3E0FF9003B4E0FBBC
:20423C00BB040040030242D6C002C0048B3D753E00741E253DFAE4353EFCEA2DFAEC3EF9D0
:20425C008F048A8289838CF0125EE3FA7C008A3C8C3B741F253DF8E4353EF9E82DF8E93E54
:20427C00F98F04888289838CF0125EE37C00453BF53DEC453CF53E9003AFE0F541A3E0F513
:20429C0042A3E0F543A3E0F544A83DE53EF93395E0FAFC9003AFE82541F0E93542A3F0EA4D
:2042BC003543A3F0EC3544A3F09003B4EB04F0E02401F0D004D0020242379003AFE0FBA3E3
:2042DC00E0FDA3E0FEA3E0FF9003AF74062BF0E43DA3F0E43EA3F0E43FA3F09003AFE0F5D5
:2042FC0041A3E0F542A3E0F543A3E0F5448A008C017E007F009003AFE82541F0E93542A399
:20431C00F0EE3543A3F0EF3544A3F09003B57422F0E4A3F09003ACE0FDA3E0FEA3E0FF8AAF
:20433C00018C03742229F9E43BFB9003B5E0F541A3E0F54285413D85423EC3E53D99E53E3E
:20435C009B40030243E9C002C004E5412DF8E5423EF98F03888289838BF0125EE3FB78001D
:20437C007401253DF9E4353EFCE92DF9EC3EFC8F0289828C838AF0125EE37C004200EC4265
:20439C000388418B429003AFE0F545A3E0F546A3E0F547A3E0F548A841AA427B007C009073
:2043BC0003AFE82545F0EA3546A3F0EB3547A3F0EC3548A3F07402253DFBE4353EFC900346
:2043DC00B5EBF0ECA3F0D004D00202433B9003AFE0FCA3E0FDA3E0FEA3E0FF8E458F46E45F
:2043FC00F547F548E54545464547454860208C008D017A007B009003AFE54528F0E54639E3
:20441C00A3F0E5473AA3F0E5483BA3F080BFECF4FCEDF4FD9003ACE0FBA3E0FEA3E0FF746F
:20443C00322BF545E43EF5468F478D028545828546838547F0EA1250AB74332BFBE43EFECD
:20445C008B828E838FF0EC0250ABAFF0AE83E5829003B9F0EEA3F0EFA3F09003BCE4F0A37E
:20447C00F0A3F0A3F09003C0F0A3F09003B9E0FDA3E0FEA3E0FF9003B7E0F539A3E0F53AFE
:20449C009003C0E0F9A3E0FAC3E99539EA953A400302459CE92DF8EA3EFB8F0488828B8322
:2044BC008CF0125EE3FC7B00C005C006C007740129F8E43AFFC3E89539EF953AD007D006B1
:2044DC00D005501B09B900010AE92DF9EA3EF88F02898288838AF0125EE3F97A00800479A0
:2044FC00007A00C005C006C007E92BFBEA3CFC9003BCE0F8A3E0F9A3E0FAA3E0FF7E007D06
:20451C00009003BCEB28F0EC39A3F0EE3AA3F0ED3FA3F09003BCE0F53BA3E0F53CA3E0F570
:20453C003DA3E0F53EC374FF953B74FF953CE4953DE4953ED007D006D005502A853B3F8535
:20455C003C40754100754200A83DAA3E7B007C009003BCE8253FF0EA3540A3F0EB3541A311
:20457C00F0EC3542A3F09003C0E0FBA3E0FC74022BFBE43CFC9003C0EBF0ECA3F002449C45
:20459C009003BCE0FCA3E0FDA3E0FEA3E0FF8C008D017A007B008E048F057E007F0090038C
:2045BC00BCEC28F0ED39A3F0EE3AA3F0EF3BA3F09003BCE0FCA3E0FDA3E0FEA3E0FFECF460
:2045DC00FCEDF4FDEEF4EFF48C828D8322AFF0AE83E5829003C7F0EEA3F0EFA3F09009CDF6
:2045FC00E4F09009CE74DDF07405A3F09003CA75F0001250839003CA740EF09003C7E0FD6A
:20461C00A3E0FEA3E0FF8D028E038F049009C5EAF0EBA3F0ECA3F09009C8740EF0E4A3F049
:20463C009003CBF5F0C007C006C00512500FD005D006D00774062DFAE43EFB8F049009C527
:20465C00EAF0EBA3F0ECA3F09009C87406F0E4A3F09003CBF5F0C007C006C00512500FD04F
:20467C0005D006D0078D028E038F049009C5EAF0EBA3F0ECA3F09009C87406F0E4A3F090B2
:20469C0003D1F5F0C007C006C00512500FD005D006D007740E2DFAE43EFB8F049009C5EA5F
:2046BC00F0EBA3F0ECA3F09009C87414F0E4A3F09003D9F5F0C007C006C00512500FD005B8
:2046DC00D006D007741E2DFAE43EFB8F048A828B838CF0125EE3FA9003E575F000EA12509C
:2046FC00AB741F2DFAE43EFB8F048A828B838CF0125EE3FA9003E675F000EA1250AB74203D
:20471C002DFAE43EFB8F048A828B838CF0125EE3FA9003E775F000EA1250AB74212DFAE44D
:20473C003EFB8F048A828B838CF0125EE3FA9003E875F000EA1250AB741A2DFAE43EFB8F76
:20475C00048A828B838CF0125EE3FA9003E975F000EA1250AB741B2DFAE43EFB8F048A820C
:20477C008B838CF0125EE3FA9003EA75F000EA1250AB741C2DFAE43EFB8F048A828B838C60
:20479C00F0125EE3FA9003EB75F000EA1250AB741D2DFAE43EFB8F048A828B838CF0125E78
:2047BC00E3FA9003EC75F000EA1250AB9003E3E41250AB9003E4F5F01250AB74222DF51489
:2047DC00E43EF5158F16A814A915AC169009C5E8F0E9A3F0ECA3F09009C87414F0E4A3F02F
:2047FC009003EDF5F0C007C006C00512500FD005D006D00774242DFAE43EFB8F048A828BED
:20481C00838CF0125EE3FA9003ED75F000EA1250AB74252DFAE43EFB8F048A828B838CF04E
:20483C00125EE3FA9003EE75F000EA1250AB8514828515838516F0125EE3FC9003EF75F039
:20485C0000EC1250AB74232DFAE43EFB8F048A828B838CF0125EE3FA9003F075F000EA120E
:20487C0050AB9003F1E41250AB9003F2F5F01250AB9003F3F5F01250AB9003F4F5F01250EF
:20489C00AB74262DFAE43EFB8F048A828B838CF0125EE3FA74272DF9E43EFB8F0489828BF6
:2048BC00838CF0125EE3F974282DF8E43EFB8F0488828B838CF0125EE3F874292DFDE43E58
:2048DC00FE8D828E838FF0125EE3FD9003F575F000EA1250AB9003F6E91250AB9003F7E8FA
:2048FC001250AB0D9003F8ED1250AB9003F974501250AB9003FA74121250AB9003FB74FF7F
:20491C001250AB9003FC1250AB9003FFE41250AB900400F5F01250AB9003DBF5F01250AB69
:20493C009003DCF5F074281250AB9003CB123F9C9003CB75F0001241069003C4E0FDA3E040
:20495C00FEA3E0FF8D828E838FF074371250ABA3E41250AB9003CAF5F022AFF0AE83E58235
:20497C009009A9F0EEA3F0EFA3F09009A7E0FEA3E0FFC007C006C006C0077456C0E07468E6
:20499C00C0E07480C0E01254C1E58124FBF581D006D0079009A9E0FBA3E0FCA3E0FD790063
:2049BC007A00C3E99EEA9F4003024A66C006C007E92BF8EA3CFE8D0788828E838FF0125E3E
:2049DC00E3F87F00C007C006C005C004C003C002C001C000C007746CC0E07468C0E074808E
:2049FC00C0E01254C1E58124FBF581D001D002D003D004D005D006D00789068A070EBE0021
:204A1C00010FEE540F6006D007D0068035D007D006C007C006C005C004C003C002C00174D4
:204A3C0072C0E07468C0E07480C0E01254C1158115811581D001D002D003D004D005D0065A
:204A5C00D00709B900010A0249BEEE540F60157472C0E07468C0E07480C0E01254C1158174
:204A7C001581158122AF83E5829009ACF0EFA3F09009ACE0FEA3E0FF8E048F05C374FF9CDF
:204A9C00741F9D501AC006C0077474C0E07468C0E07480C0E01254C1E58124FBF581229067
:204ABC000395EEF0EFA3F090039774AEF07409A3F0E4A3F0900002C007C006C005C0041265
:204ADC003CD5AA82AB83D004D005D006D007BA0205BB000280167494C0E07468C0E07480CD
:204AFC00C0E01254C1158115811581229009AFE0FA7B009009AEE079004203E94202C3EB92
:204B1C009EEA9F501AC003C00274C2C0E07468C0E07480C0E01254C1E58124FBF5812274C5
:204B3C00062CFEE43DFFEBC39EFEEA9FFF8E008F0188828983C007C006C005C004C003C06A
:204B5C000212520BA882A983D002D003D004D005D006D00788178918751900E517451870E0
:204B7C001AC006C00774E9C0E07468C0E07480C0E01254C1E58124FBF581228E008F01748F
:204B9C00062CFCE43DFD900395ECF0EDA3F0900397E517F0E518A3F0E519A3F088828983DC
:204BBC00C007C006C003C002123CD5AC82AD83D002D003D006D007ECB50606EDB50702801C
:204BDC0024741AC0E07469C0E07480C0E01254C1158115811581AC17A9187D008C82898352
:204BFC008DF0024EB89003C2EEF0EFA3F09003C474B0F07409A3F0E4A3F08517828518832F
:204C1C008519F0C007C006C003C0021245E9A982AC83ADF0D002D003D006D007E94C7003A7
:204C3C00024CC0C003C002C007C006C005C004C003C002C0017439C0E07469C0E07480C0EB
:204C5C00E01254C1158115811581D001D002D003D004D005D006D0079009B0E0F8A3E0FB04
:204C7C009009B2E8F0EBA3F089828C838DF0C007C006C005C004C003C002C001124D31D024
:204C9C0001D002D003D004D00589828C838DF0C003C002124EB8D002D003D006D007D00251
:204CBC00D0038025C007C006C003C0027454C0E07469C0E07480C0E01254C115811581156D
:204CDC0081D002D003D006D007AC17A9187D008C8289838DF0C007C006C003C002124EB823
:204CFC00D002D003D006D0071BBBFF011AC003C0029009ACE0C0E0A3E0C0E0C006C00774E8
:204D1C0086C0E07469C0E07480C0E01254C1E58124F7F58122AFF0AE83E5829009B4F0EE9E
:204D3C00A3F0EFA3F09009B2E0FEA3E0FF8E04740C2FFD1CBCFF011DC374FF9C741F9D5012
:204D5C001674C9C0E07469C0E07480C0E01254C1158115811581228E04740C2FFD1CBCFF13
:204D7C00011D9009B4E0F9A3E0FAA3E0FB90039CE4F0740CA3F090039EE9F0EAA3F0EBA3AD
:204D9C00F08E828F83C005C004123E54D004D005900106ECF0EDA3F0900C00122115122006
:204DBC00F49001F412218CE58260381221EFE5828583F045F060167404C0E0746AC0E0746A
:204DDC0080C0E01254C1158115811581227425C0E0746AC0E07480C0E01254C115811581EE
:194DFC001581227453C0E0746AC0E07480C0E01254C11581158115812262
:206856000A48657864756D70202853697A653A202564293A0A002530325820000A000A0DEA
:20687600496E76616C696420737461727420616464726573733A20253034580A0D000A0D7E
:206896004661696C656420746F2072656164207061636B657420737461727420616464723D
:2068B6006573732062797465730A0D000A0D496E76616C6964206E6578742073746172740E
:2068D60020616464726573733A203078253034580A0D000A0D4D656D6F727920616C6C6F4A
:2068F600636174696F6E206661696C656420666F72207061636B65742073697A653A202526
:20691600640A0D000A0D4661696C656420746F2072656164207061636B6574206461746179
:206936000A0D000A50726F63657373656420726573706F6E736520646174613A0A000A4E93
:206956006F20726573706F6E73652067656E65726174656420627920544350207061636B93
:2069760065742070726F63657373696E672E0A000A0D5375636365737366756C6C792070E7
:20699600726F636573736564207061636B6574206F662073697A652025642066726F6D2084
:2069B60030782530345820746F203078253034580A0D000A496E76616C6964204275666601
:2069D60065722053697A652E2042756666657220657863656564732076616C696420616451
:2069F60064726573732072616E67652E0A0054435020726571756573742073656E7420737E
:206A160075636365737366756C6C792E0A0D00544350207472616E736D697373696F6E2018
:206A36006661696C65642E20436865636B206572726F7220666C6167732E0A0D00547261CC
:206A56006E736D697373696F6E2074696D656F75742E20454E4332384A3630206D61792051
:206A76006E6F742062652066756E6374696F6E696E6720636F72726563746C792E0A0D00C8
:204E1500AF83E5829009B7F0EFA3F03099FD9009B7E0FEA3E0FF8E99C2998E828F832210D6
:204E3500980280FBAE997F008E828F8322AFF0AE83E5829009B9F0EEA3F0EFA3F09009B970
:204E5500E0FDA3E0FEA3E0FF7B007C008D828E838FF0125EE3FA60360DBD00010E9009B9B9
:204E7500EDF0EEA3F0EFA3F08A017A0089828A83C007C006C005C004C003124E15D003D02F
:204E950004D005D006D0070BBB00C10C80BE9009B9EDF0EEA3F0EFA3F00BBB00010C8B8294
:034EB5008C8322C9
:204EB800AFF0AE83E5829009BCF0EEA3F0EFA3F09009BCE0FDA3E0FEA3E09009BCE0F5F00B
:204ED800A3E045F07001229009C1E4F0A3F09009D1E0FBA3E0FC9009BFEBF0ECA3F090099F
:204EF800C374D1F07409A3F09009BFE0FBA3E0FC4B60418B018C02C003C0048D008E04C371
:204F1800E998EA9CD004D003502A9009C1EBF0ECA3F074022BFBE43CFC9009C3EBF0ECA31F
:204F3800F08B828C83E0FBA3E0FC9009BFEBF0ECA3F080B49009BFE0FEA3E0FF9009BCE020
:204F5800FBA3E0FCA3E0EB24FEFBEC34FFFC74022BFAE43CFD8A828D83EEF0EFA3F090094C
:204F7800C3E0F8A3E0F988828983EBF0ECA3F08B828C83E0F8A3E0F9EEB50033EFB5012F78
:204F980088828983A3A3E0FEA3E0FF8A828D83EEF0EFA3F08B828C83E0FEA3E0FF8E828FA6
:204FB80083E0FEA3E0FF8B828C83EEF0EFA3F09009C1E0FEA3E0FF4E603C8E828F83E0F8DC
:204FD800A3E0F9E8B5032FE9B5042B8B828C83E0FBA3E0FC8E828F83EBF0ECA3F074022E0B
:174FF800FEE43FFF8A828D83E0FAA3E0FD8E828F83EAF0EDA3F0226E
:06203800E478FFF6D8FD7C
:20500F00AFF0AE83E5829009CAF0EEA3F0EFA3F09009CAE0F539A3E0F53AA3E0F53BAA393B
:20502F00AB3AAC3B9009C5E0F8A3E0F9A3E0FF9009C8E0F53CA3E0F53DAD3CAE3D153C74A1
:20504F00FFB53C02153DED4E6020888289838FF0125EE3FEA3A882A9838A828B838CF0EEDF
:14506F001250ABA3AA82AB8380CF853982853A83853BF02280
:20508300AC82AD839009CEE0FEA3E0FFBE000360121F0F9009CDE08C828D831250ABA3DE95
:0850A300FADFF88C828D8322F4
:202016007914E94400601B7A01906AA3781A75A00EE493F2A308B8000205A0D9F4DAF27527
:02203600A0FF09
:1B50AB0020F71130F6138883A88220F509F6A8837583002280FEF280F5F02204
:2050C600C01C85811CE51C24FDF8868318868218E493A324DB600C242560051251B480F0B7
:2050E6000251CCD2D5E493A3C083C082B4731486F018868318868218125EE36054A312512E
:20510600B480F5B4630818E6181251B48043B46417E630E74618E6F42401F608E6F43400BC
:20512600F6742D1251B48033B4782D868318868218E41251A5E5831251A4E5831251A5E5BE
:20514600821251A4E5821251A530D50574301251B4D082D0830250D6B475F6E6FA18E6F9C9
:20516600187C107D2712518FFF7CE87D0312518FC4F5837C647D0012518F4283E975F00A72
:2051860084C445F0F582EF80A97B000BC3E99CF9EA9DFA50F61BE92CF9EA3DFAEB22C45400
:2051A6000F700320D51FC2D52490D43440D4C083C082C0F0F582E8C0E0124E15D0E0F8D0CB
:0951C600F0D082D08322D01C221B
:2051CF009009D1741AF0740AA3F0906AA1E493FE740193FF1EBEFF011FEE241AFEEF340A5E
:2051EF00FF900A1AEEF0EFA3F09009D1E0FEA3E0FF8E828F83A3A3E4F0A3F022AF83E58239
:20520F009009D3F0EFA3F09009D1E0F5F0A3E045F070031251CF9009D3E0FEA3E0FF4E609B
:20522F000E74022EFCE43FFDC3EC9EED9F5004900000229009D374022EF0E43FA3F0900963
:20524F00D3E0FEA3E0FFC3EE9404EF940050099009D37404F0E4A3F09009D1E0FEA3E0FFD2
:20526F009009D5EEF0EFA3F09009D774D1F07409A3F09009D5E0FEA3E0FF4E700302537048
:20528F008E828F83E0FCA3E0FD8C028D038E008F01EAC398FAEB99FB8A008B019009D3E025
:2052AF00F51AA3E0F51BC3E8951AE9951B500302534D7404251AF8E4351BF9C3EA98EB99B0
:2052CF00404C8E028F03E51A2AFAE51B3BFB8A828B83ECF0EDA3F074022AFCE43BFD8E827A
:2052EF008F83A3A3E0F8A3E0F98C828D83E8F0E9A3F09009D7E0FCA3E0FD8C828D83EAF0BD
:20530F00EBA3F08E828F83EAF0EBA3F0801C9009D7E0FCA3E0FD8E828F83A3A3E0FAA3E059
:20532F00FB8C828D83EAF0EBA3F09009D5E0FCA3E0FD74022CFCE43DFD8C828D83227402B1
:20534F002EFEE43FFF9009D7EEF0EFA3F08E828F83E0FEA3E0FF9009D5EEF0EFA3F002527C
:05536F00819000002206
:20537400AA83AB828BF09009D9E0A4F8A9F08AF0E0A429F98BF0A3E0A429F583888222220C
:20539400AFF0AE83E5829009E0F0EEA3F0EFA3F09009DEE0FEA3E0FF9009DEE0F5F0A3E0C0
:2053B40045F07004900000221EBEFF011FEE4F6075C006C0079009E0E0FBA3E0FCA3E0FD91
:2053D4008B008C018D02888289838AF0125EE3F89009DBE0F539A3E0F53AA3E0F53BA9396E
:2053F400AA3AAF3B89828A838FF0125EE3F9E8B501028006D007D006802CD007D0060BBBF6
:2054140000010C9009E0EBF0ECA3F0EDA3F0AB39AC3AAD3B0BBB00010C9009DBEBF0ECA3B5
:20543400F0EDA3F080829009E0E0FDA3E0FEA3E0FF8D828E838FF0125EE3FD7F009009DBAB
:1F545400E0FBA3E0FCA3E0FE8B828C838EF0125EE3FB7E00EDC39BFDEF9E8D82F583227A
:20203E007800E84400600A790075A001E4F309D8FC781AE8440D600C790E900100E4F0A36B
:04205E00D8FCD9FAD7
:20547300C01C85811C7E008E83124E15D01C22AFF0AE83E5829009E4F0EEA3F0EFA3F090D2
:2054930009E4E0FDA3E0FEA3E0FF9009E3E0FC9009F8E4F0A3F0A3F09009FBEDF0EEA3F057
:2054B300EFA3F09009FEECF09054730255C7C01CE581F51C24FBFF9009F8E4F0A3F0A3F073
:2054D300E51C24FBF89009FBE6F008E6A3F008E6A3F09009FEEFF09054731255C7D01C222C
:2054F300E5829009F4F0E0FF9009EAE0C0E0A3E0C0E0A3E0C0E012550E800D9009E8E0C06A
:20551300E0A3E0C0E08F82221581158115819009F2E02401F0A3E03400F022E5829009F542
:20553300F0E02430FF24C6500D74072FFF9009E7E060034307208F820254F3E5829009F6C8
:20555300F0E0FFC4540FF582C00712552ED00753070F8F8202552EE5829009F7F09009ED2C
:20557300E0FCA3E0FDA3E0FEA3E0FF9009F1E0FB9009F7E0FA79208B00E828F539EF235422
:20559300014539FBEC2CFCED33FDEE33FEEF33FFC3EB9A4007EBC39AFB43040119E970D7AA
:2055B3009009EDECF0EDA3F0EEA3F0EFA3F09009F1EBF022AF83E5829009FFF0EFA3F09039
:2055D30009FFE0FEA3E0FF9009E8EEF0EFA3F09009F8E0FDA3E0FEA3E0FF9009EAEDF0EEB0
:2055F300A3F0EFA3F09009F2E4F0A3F09009FBE0FDA3E0FEA3E0FF8D828E838FF0125EE32B
:20561300FC9009FB74012DF0E43EA3F0EFA3F0EC7003025EBFBC25028003025EB7900A0188
:20563300E4F0900A02F0900A03F0900A04F0900A05F0900A06F0900A07F0900A08F0900A00
:205653000AF0900A0BF0A3F0900A0D14F0A3F09009FBE0FDA3E0FEA3E0FF8D828E838FF0C4
:20567300125EE3FBA3AD82AE839009FBEDF0EEA3F0EFA3F0900A11EBF0BB25088B82125471
:20569300F30255FFBB30005003025760EB24C65003025760900A0DE0F52FA3E0F53074FF10
:2056B300B52F63B53060C005C006C007900A0BE0FAA3E0FF9009D9EAF0EFA3F090000AC0D0
:2056D30005C003125374AE82AF83D003D0058B057A00ED2EFEEA3FFFEE24D0FEEF34FFFFC0
:2056F300900A0BEEF0EFA3F0D007D006D005900A0BE0F5F0A3E045F0600302566D900A022A
:205713007401F002566DC005C006C0079009D9E52FF0E530A3F090000AC006C005C00312E2
:205733005374AA82AF83D003D005D0067E00EB2AFAEE3FFFEA24D0FAEF34FFFF900A0DEA70
:20575300F0EFA3F0D007D006D00502566D900A11E0FBBB2E2FC005C006C007900A0DE0FA0C
:20577300A3E0FFBAFF05BFFF028009D007D006D00502566DD007D006D005900A0DE4F0A3A6
:20579300F002566DBB61004014EB2485400F900A1174DF5BF09009E77401F080059009E7BB
:2057B300E4F0900A11E0FBBB20028075BB2B028067BB2D028059BB4202806FBB4302807C2E
:2057D300BB4403025A57BB4603025A7DBB480302566DBB4903025A57BB4A0302566DBB4CCB
:2057F300028050BB4F03025A65BB50030259C5BB53028077BB540302566DBB5503025A6D0E
:20581300BB5803025A75BB5A0302566D025A85900A017401F002566D900A037401F00256B1
:205833006D900A047401F002566D900A067401F002566D900A077401F002566D900A06E00B
:20585300600E9009FEE014F9F0900A11E7F0800F9009FEE024FEFFF08F01900A11E7F09018
:205873000A11E0F5821254F3025A949009FEE024FDFFF08F018705098706098707191990C8
:2058930009EDEDF0EEA3F0EFA3F08D828E838FF0125ECB85822F858330900A0DE0FAA3E0D3
:2058B300FDBAFF0DBDFF0A900A0DE52FF0E530A3F0900A01E0704B900A0BE0FAA3E0FDC301
:2058D300E52F9AE5309D503A900A0BEAC3952FF0ED9530A3F0900A0BE0FAA3E0FD8A068D64
:2058F300071ABAFF011DEE4F6010758220C005C0021254F3D002D00580E3900A0BEAF0ED83
:20591300A3F0900A0DE0F532A3E0F5339009EDE0FAA3E0FDA3E0FF8A828D838FF0125EE338
:20593300F531603CC3E4953274808533F063F08095F0502C153274FFB53202153385318291
:205953001254F39009EDE0FAA3E0FDA3E0FF0ABA00010D9009EDEAF0EDA3F0EFA3F080AC19
:20597300900A01E07003025A94900A0BE0FEA3E0FFC3E52F9EE5309F4003025A94900A0B30
:20599300EEC3952FF0EF9530A3F0900A0BE0FEA3E0FF8E028F051EBEFF011FEA4D70030278
:2059B3005A8C758220C007C0061254F3D006D00780E09009FEE024FDFDF08D018734098786
:2059D3003509873619199009EDE534F0E535A3F0E536A3F09009EFE0FDBD80004008900A19
:2059F300117443F08020BD60004008900A117450F08013BD40004008900A117449F08006C2
:205A1300900A117458F0900A11E0FDF582C0051254F375823A1254F37582301254F37582EE
:205A3300781254F3D005BD4902800EBD500280099009EEE0F58212554E9009EDE0F58212FD
:205A5300554E803D900A057401F0900A0A740AF0802F900A0A7408F08027900A0A740AF045
:205A7300801F900A0A7410F08017900A087401F0800F8B821254F38008900A0BEEF0EFA32C
:205A9300F0900A08E060719009FEE024FCFFF08F0187030987050987060987071919199073
:205AB30009EDEBF0EDA3F0EEA3F0EFA3F09009ED7496F0746AA3F07480A3F09009EDE0F5AC
:205AD30034A3E0F535A3E0F53674012534FAE43535FBAF369009EDEAF0EBA3F0EFA3F08549
:205AF30034828535838536F0125EE3FF70030255FF8F821254F380C3900A0AE070030255DF
:205B1300FF900A06E060479009FEE014F9F087077E007D007B009009EDEFF0EEA3F0EDA35E
:205B3300F0EBA3F0900A05E06003025BD79009EDE0FBA3E0A3E0A3E07D007E007F009009D1
:205B5300EDEBF0EDA3F0EEA3F0EFA3F08076900A07E060289009FEE024FCFFF08F01870348
:205B73000987050987060987071919199009EDEBF0EDA3F0EEA3F0EFA3F080489009FEE0E2
:205B930024FEFFF08F01870609870719EF3395E0FDFB9009EDEEF0EFA3F0EDA3F0EBA3F0A1
:205BB300900A05E0701E9009EDE0FBA3E0FDA3E0A3E07E007F009009EDEBF0EDA3F0EEA36F
:205BD300F0EFA3F0900A05E0603D9009EDE0A3E0A3E0A3E030E72B9009EDE0FBA3E0FDA36F
:205BF300E0FEA3E0FFC3E49BFBE49DFDE49EFEE49FFF9009EDEBF0EDA3F0EEA3F0EFA3F091
:205C13008005900A05E4F0900A097401F0900A0AE0F53275371775380AE4F52FF530900986
:205C3300F1E4F085328212556A900A09E070339009F1E0C454F0F5349009F1E0C4540F45EB
:205C530034F534853782853883E0FFE5344207853782853883EFF0153774FFB537021538BE
:205C7300800B9009F1E0853782853883F0052FE4B52F020530900A09E0B40100E433F090AC
:205C930009EDE0FAA3E0FBA3E0FEA3E0FFEA4B4E4F708B900A18E537F0E538A3F0900A0FBC
:205CB300E52FF0E530A3F0900A0BE0F5F0A3E045F07009900A0B7401F0E4A3F0900A02E08D
:205CD300FFE07047900A01E07041852F37853038900A0BE0FAA3E0FBC007AF370F8F067F4A
:205CF30000C3EE9AEF9BD0075019758220C007C003C0021254F3D002D003D0071ABAFF0170
:205D13001B80D5900A0BEAF0EBA3F0900A05E0602075822DC0071254F3D007900A0BE02440
:205D3300FFFDA3E034FFFE900A0BEDF0EEA3F08056900A0FE0F5F0A3E045F0604A900A035A
:205D5300E0602075822BC0071254F3D007900A0BE024FFFDA3E034FFFE900A0BEDF0EEA34B
:205D7300F08024900A04E0601E758220C0071254F3D007900A0BE024FFFDA3E034FFFE9089
:205D93000A0BEDF0EEA3F0900A01E07044900A0FE0F537A3E0F538900A0BE0FAA3E0FBC02C
:205DB300078A068B071ABAFF011BC3E5379EE5389FD007504FEF60047E3080027E208E82D8
:205DD300C007C003C0021254F3D002D003D00780CE900A0BE0FEA3E0FF900A0FE0F537A3E4
:205DF300E0F538C3E5379EE5389F500F900A0BEEC39537F0EF9538A3F08011900A0BE4F080
:205E1300A3F08008900A0BEAF0EBA3F0900A18E0FEA3E0FF900A0FE0F537A3E0F538AA37FF
:205E3300AD38153774FFB537021538EA4D6044900A09E0B40100E433F0900A09E070130E42
:205E5300BE00010F8E828F83E0C4540F9009F1F0800E8E828F83E0FD53050F9009F1EDF063
:205E73009009F1E0F582C007C00612552ED006D00780AB900A01E070030255FF900A0BE06B
:205E9300FEA3E0FF8E038F051EBEFF011FEB4D70030255FF758220C007C0061254F3D0067B
:185EB300D00780E08C821254F30255FF9009F2E0FEA3E08E82F583224D
:0B6A96003C4E4F20464C4F41543E0048
:185ECB00AA82AB83125EE36003A380F8C3E5829AF582E5839BF58322BC
:026AA1000004EF
:0D200900758148125EFFE58260030220062B
:1C5EE30020F71430F6148883A88220F507E6A88375830022E280F7E49322E022CE
:045EFF007582002286
:00000001FF
