:102065009003637401F090036404F0758203122FEA
:10207500F0900363E4F09003647411F07582031229
:102085002FF09003637403F09003647422F075825B
:1020950003122FF09003637402F09003647433F01D
:1020A500758203122FF09003637405F09003647436
:1020B50044F0758203122FF09003637404F09003CB
:1020C500647455F0758203022FF0AF83E5829001A9
:1020D50000F0EFA3F0900102E4F0A3F0A3F0A3F069
:1020E500900100E0FEA3E0FF90038CEEF0EFA3F07B
:1020F5009003E8C007C0061239A8AC82AD83D006AC
:10210500D007900102E0F8A3E0F9A3E0FAA3E0FB11
:10211500C006C0077E007F00C3E89CE99DEA9EEBF0
:102125009FD007D0065023900102E0FAA3E0FBA35D
:10213500E0FCA3E0FD90010274012AF0E43BA3F06A
:10214500E43CA3F0E43DA3F0809E2290036CE4F010
:1021550075821F123166E5824408FF900363741F80
:10216500F0900364EFF0758200022FF0AF83E582F3
:10217500900108F0EFA3F0900108E0FEA3E0FF90C6
:102185000106E0FCA3E0FDC3EE9CEF9D500D8C0223
:102195008D03C374FF9A741F9B50167458C0E07466
:1021A50044C0E07480C0E0123A161581158115818E
:1021B500228E039003637408F0900364EBF075823C
:1021C50000C007C006C005C004122FF0D004D0051A
:1021D500D006D0078F039003637409F0900364EB76
:1021E500F0758200C007C006C005C004122FF0D0EC
:1021F50004D005D006D0078C03900363740AF090D1
:102205000364EBF0758200C007C006C005C0041268
:102215002FF0D004D005D006D0078D03900363744A
:102225000BF0900364EBF0758200C007C006C00593
:10223500C004122FF0D004D005D006D0078E03902D
:102245000363740CF0900364EBF0758200C007C063
:1022550006C005C004C003122FF0D003D004D0057A
:10226500D006D007900363740DF0900364EBF0750E
:102275008200C007C006C005C004122FF0D004D0EC
:1022850005D006D007C004C005C006C0077472C0DB
:10229500E07444C0E07480C0E0123A16E58124F988
:1022A500F58122AF83E58290010CF0EFA3F0900158
:1022B5000CE0FEA3E0FF8E059003637404F0900329
:1022C50064EDF0758200C007C006122FF0D006D06D
:1022D500078F069003637405F0900364EEF0758232
:1022E50000122FF090010AE0FEA3E0FF8E05900397
:1022F500637406F0900364EDF0758200C007C006B4
:10230500122FF0D006D0078F069003637407F09064
:102315000364EEF0758200022FF0AF83E582900131
:102325000EF0EFA3F090010EE0FEA3E0FF7C007D30
:1023350000C3EC9EED9F504190036CE4F075821F45
:10234500C007C006C005C004123166E582D004D0BE
:1023550005D006D00720E30475820122900001C054
:1023650007C006C005C0041220CFD004D005D00692
:10237500D0070CBC00BB0D80B87582002290036CA1
:10238500E4F075821D123166E582035401B4010043
:102395009200E433F5822290036CE4F075821F12FB
:1023A5003166E58254FBFF900363741FF09003646C
:1023B500EFF0758200022FF090036CE4F075821F38
:1023C500123166E5824404FF900363741FF09003A5
:1023D50064EFF0758200022FF09001107402F09006
:1023E50001117411F090011223F09001137433F070
:1023F5009001147444F09001157455F09001167411
:10240500F8F09001177475F090011874A4F090011C
:1024150019748CF090011A7441F090011B7431F01D
:1024250090011C74C0F090011D74A8F090011E74F9
:1024350001F090011F7464F090012074C0F09001C8
:102445002174A8F09001227401F0900123F090010D
:1024550024740EF090011075F0001220657E007F47
:1024650000C3EE9406EF6480948050488E05ED0419
:10247500FC3395E0FBEC2424FCEB3401FBEE241645
:10248500F582EF3401F583E08C828B83F074072DA0
:10249500FD3395E0FCED2424FDEC3401FCEE241025
:1024A500F582EF3401F583E08D828C83F00EBE005A
:1024B500B00F80AD9001317408F09001327406F0D0
:1024C500900133E4F090013404F09001357408F084
:1024D500900136E4F09001377406F09001387404E9
:1024E500F0900139E4F090013A04F07E007F00C3DA
:1024F500EE9406EF6480948050298E0574172DFDA7
:102505003395E0FCED2424FDEC3401FCEE2410F5BC
:1025150082EF3401F583E08D828C83F00EBE00CF0F
:102525000F80CC7E007F00C3EE9404EF648094801E
:1025350050298E05741D2DFD3395E0FCED2424FDF9
:10254500EC3401FCEE241CF582EF3401F583E08DBB
:10255500828C83F00EBE00CF0F80CC7F00BF0600BB
:1025650050198F0674212EFE3395E0FDEE2424F5D7
:1025750082ED3401F583E4F00F80E27E007F00C335
:10258500EE9404EF6480948050298E0574272DFD08
:102595003395E0FCED2424FDEC3401FCEE2420F51C
:1025A50082EF3401F583E08D828C83F00EBE00CF7F
:1025B5000F80CC90037DE4F0A3F090037F7424F0AA
:1025C5007401A3F0E4A3F090002C12356C90010A7D
:1025D500742BF0E4A3F09000001222A81223BD1280
:1025E50021509001F412231FE5826033122382E506
:1025F50082601674D7C0E07444C0E07480C0E012F5
:102605003A161581158115812274F8C0E07444C00D
:10261500E07480C0E0123A16158115811581227487
:1026250026C0E07445C0E07480C0E0123A161581FA
:102635001581158122C021C0E0C0F0C082C083C0D1
:1026450007C006C005C004C003C002C001C000C069
:10265500D075D00090036CE4F075821C123166745D
:1026650069C0E07445C0E07480C0E0123A16158177
:1026750015811581D0D0D000D001D002D003D0046F
:10268500D005D006D007D083D082D0F0D0E0D021BD
:012695003212
:10445800496E76616C69642052582062756666659B
:10446800722072616E67652E0A0052582062756666
:1044780066657220696E697469616C697A65643A07
:104488002030782530345820746F20307825303427
:10449800582E0A000A496E76616C69642042756676
:1044A8006665722053697A652E2042756666657264
:1044B80020657863656564732076616C6964206142
:1044C8006464726573732072616E67652E0A0041B9
:1044D800525020726571756573742073656E74200F
:1044E8007375636365737366756C6C792E0A0D005A
:1044F800415250207472616E736D697373696F6E87
:10450800206661696C65642E20436865636B20656D
:1045180072726F7220666C6167732E0A0D00547296
:10452800616E736D697373696F6E2074696D656F01
:1045380075742E20454E4332384A3630206D6179E5
:10454800206E6F742062652066756E6374696F6E85
:10455800696E6720636F72726563746C792E0A0DD9
:1045680000496E74657272727272727272757575C4
:10457800757575757575707070707070707074740D
:0845880074747474740A0D00D0
:104C0900021122334455FFFFFFFFFFFFC0A80164D3
:044C1900C0A801012D
:0620000002200902263A4D
:0320620002200653
:032006000228D4D9
:10269600AFF0AE83E58290014FF0EEA3F0EFA3F02A
:1026A600900152E4F0A3F090014FE0FDA3E0FEA3F9
:1026B600E0FF8D028E038F048D138E148F15780024
:1026C6007900C002C003C004E82513FAE93514FBFB
:1026D600AC158A828B838CF0124438F516D004D060
:1026E60003D002E5167003022844C002C003C004EA
:1026F600851617751800900154E517F0E518A3F034
:10270600900152E0FBA3E0C454F0CBC4CB6BCB5496
:10271600F0CB6BFC900152EBF0ECA3F0C3E5179401
:1027260030E51864809480D004D003D002403F7412
:1027360039951774808518F063F08095F0402FC0A6
:1027460002C003C004E51724D0F517E51834FFF5D9
:1027560018900152E0FAA3E0FC900152E5172AF026
:10276600E5183CA3F0D004D003D00202283C900127
:1027760054E0F517A3E0F518C3E5179441E518648E
:10278600809480404E7446951774808518F063F0E7
:102796008095F0403EC005C006C007E82AFDE93B2B
:1027A600FE8C078D828E838FF01244387F0024C9F9
:1027B600F517EF34FFF518900152E0FEA3E0FF9005
:1027C6000152E5172EF0E5183FA3F0D007D006D04A
:1027D600058063900154E0F517A3E0F518C3E517EB
:1027E6009461E51864809480404C746695177480F3
:1027F6008518F063F08095F0403CC002C003C00429
:10280600E82DFAE93EFB8F048A828B838CF0124412
:10281600387C0024A9F517EC34FFF518900152E036
:10282600FBA3E0FC900152E5172BF0E5183CA3F062
:10283600D004D003D00208B80001090226C89001CE
:1028460052E0FEA3E08E82F583227E007F00C00761
:10285600C006123800AC82D006D007BC0A02803A05
:10286600BC0D028035C3EE9409EF64809480502A33
:102876008C037D008B828D83C007C006C00412378F
:10288600E1D004D006D007EE2456F582EF3401F5E8
:1028960083ECF00EBE00B70F80B4EE2456F582EF3F
:1028A6003401F583E4F0900156F5F0122696AE82D7
:1028B600AF83C007C0067490C0E07445C0E012380C
:1028C6009F15811581D006D0078E828F8322D290E4
:1028D6007493C0E07445C0E07480C0E0123A1615E7
:1028E600811581158112304C12239C74ACC0E074A2
:1028F60045C0E07480C0E0123A1615811581158135
:1029060074C3C0E07445C0E07480C0E0123A161586
:10291600811581158174D9C0E07445C0E07480C00A
:10292600E0123A1615811581158174EEC0E07445E2
:10293600C0E07480C0E0123A1615811581158174C5
:1029460002C0E07446C0E07480C0E0123A161581F9
:1029560015811581741CC0E07446C0E07480C0E027
:10296600123A161581158115817432C0E07446C07D
:10297600E07480C0E0123A161581158115817447FE
:10298600C0E07446C0E07480C0E0123A16158115A6
:102996008115817459C0E07446C0E07480C0E012AD
:1029A6003A161581158115817473C0E07446C0E02E
:1029B6007480C0E0123A161581158115817488C09D
:1029C600E07446C0E07480C0E0123A1615811581A5
:1029D600158174A1C0E07446C0E07480C0E0123A6C
:1029E6001615811581158174B9C0E07446C0E0746E
:1029F60080C0E0123A16158115811581123800AE95
:102A0600828E057F008D828F83C0061237E1749017
:102A1600C0E07445C0E07480C0E0123A1615811516
:102A2600811581D006BE31005003022EBDEE24BCB6
:102A36005003022EBDEE24CFFE240A83F582EE2437
:102A46001783F583E47372DAD83799043F5ABCBD0D
:102A5600BDBDBDBDBDBD7C858B2A2A2B2C2C2D2D45
:102A66002D2D2E2E2E2E2E2E2E2E2E2E74D8C0E04E
:102A76007446C0E07480C0E0123A161581158115BF
:102A860081122850AE82C00674FDC0E07446C0E0D4
:102A96007480C0E0123A16158115811581122850EE
:102AA600AD82C005742AC0E07447C0E07480C0E0FF
:102AB600123A16158115811581122850AC82D0055F
:102AC600D006900363EDF0900364ECF08E82122F33
:102AD600F00228F1744EC0E07447C0E07480C0E094
:102AE600123A16158115811581122850AE82AF83D0
:102AF600C007C0067474C0E07447C0E07480C0E0CC
:102B0600123A16158115811581122850AC82AD83B3
:102B1600D006D007C007C006C005C004C006C0075F
:102B26007492C0E07447C0E07480C0E0123A16E5C3
:102B36008124FBF581D004D005D006D0077A007B2E
:102B460000C3EA9EEB64808FF063F08095F05063DB
:102B5600C004C005C007C006C005C004C003C0024B
:102B6600C002C00374B5C0E07447C0E07480C0E022
:102B7600123A16E58124FBF581D002D003D004D0A9
:102B860005EA2460F8EB3401F9C003C002C001C0B5
:102B960000122850AC82D000D001D002D003D0065B
:102BA600D00788828983ECF00ABA00010BD005D0E1
:102BB60004808E90037DECF0EDA3F090037F7460AB
:102BC600F07401A3F0E4A3F08E828F8312356C02B9
:102BD60028F174BFC0E07447C0E07480C0E0123AC8
:102BE60016158115811581122850AE82AF83C00754
:102BF600C0067474C0E07447C0E07480C0E0123A46
:102C060016158115811581122850AC82AD83D00628
:102C1600D007900374ECF0EDA3F09003767460F0A7
:102C26007402A3F0E4A3F08E828F831233CB0228C2
:102C3600F174E4C0E07447C0E07480C0E0123A1654
:102C4600158115811581122850AE82C006740DC0FB
:102C5600E07448C0E07480C0E0123A161581158110
:102C66001581122850AD82D00690036CEEF08D824D
:102C7600123166AF827E00C007C0067436C0E074AB
:102C860048C0E07480C0E0123A16E58124FBF58165
:102C96000228F17452C0E07448C0E07480C0E012AB
:102CA6003A16158115811581122850AE82C0067418
:102CB60074C0E07448C0E07480C0E0123A16158112
:102CC60015811581122850AD82AF83D00690036915
:102CD600EDF0EFA3F08E82C007C0051230E3D005F9
:102CE600D007C005C0077496C0E07448C0E0748081
:102CF600C0E0123A16E58124FBF5810228F174AF93
:102D0600C0E07448C0E07480C0E0123A1615811520
:102D16008115811228501231D4AE82AF83C006C00D
:102D26000774D9C0E07448C0E07480C0E0123A1657
:102D3600E58124FBF5810228F174F1C0E07448C0F6
:102D4600E07480C0E0123A161581158115811230A3
:102D56006A0228F17409C0E07449C0E07480C0E0DA
:102D6600123A16158115811581122850AE82C006B9
:102D76007433C0E07449C0E07480C0E0123A16159E
:102D86008115811581122850AD82D006900367ED1A
:102D9600F08E82123075AF827E00C007C006744E78
:102DA600C0E07449C0E07480C0E0123A16E58124A0
:102DB600FBF5810228F174ACC0E07445C0E0748074
:102DC600C0E0123A1615811581158174C3C0E074EE
:102DD60045C0E07480C0E0123A1615811581158150
:102DE60074D9C0E07445C0E07480C0E0123A16158C
:102DF600811581158174EEC0E07445C0E07480C011
:102E0600E0123A161581158115817402C0E07446E8
:102E1600C0E07480C0E0123A1615811581158174E0
:102E26001CC0E07446C0E07480C0E0123A161581FA
:102E3600158115817432C0E07446C0E07480C0E02C
:102E4600123A161581158115817447C0E07446C083
:102E5600E07480C0E0123A16158115811581745907
:102E6600C0E07446C0E07480C0E0123A16158115C1
:102E76008115810228F11237181223DE0228F11279
:102E860037180228F1746AC0E07449C0E07480C043
:102E9600E0123A16158115811581C2907E007F00D9
:102EA600C3EE9470EF6480949750070EBE00F10F46
:102EB60080EED2900228F1749DC0E07449C0E0749F
:0F2EC60080C0E0123A161581158115810228F19E
:104590000A0D00535049204F7065726174696F6E47
:1045A00073206F6E20383035310A0D000A0D4368D4
:1045B0006F6F736520616E20616374696F6E3A205E
:1045C0000A0D0031202D2D3E20436F6E74726F6CEA
:1045D0002057726974650A0D0032202D2D3E20424D
:1045E00075666665722057726974650A0D0033201E
:1045F0002D2D3E2042756666657220526561640A03
:104600000D0034202D2D3E204D4143205265676919
:104610007374657220526561640A0D0035202D2D7A
:104620003E20504859205350492057726974650AFA
:104630000D0036202D2D3E20504859205350492042
:10464000526561640A0D0037202D2D3E20454E43F2
:104650002052657365740A0D0038202D2D3E2052BE
:1046600065616420455448205265676973746572BA
:104670000A0D0039202D2D3E20446973706C61793C
:10468000204D656E750A0D0041202D2D3E2053658D
:104690006E642041525020526571756573740A0D25
:1046A0000042202D2D3E20496E6974205258206210
:1046B0007566666572730A0D0043202D2D3E2048F5
:1046C000617264205265736574286E524553455477
:1046D0002070696E290A0D00456E74657220746839
:1046E000652072656769737465722062616E6B2004
:1046F000746F2073656C6563743A0A0D00456E74BF
:104700006572207468652061646472657373206FDC
:10471000662074686520436F6E74726F6C205265FA
:104720006769737465723A0A0D00456E746572208C
:10473000746865206461746120796F752077616E9B
:104740007420746F2077726974653A0A0D00456EA3
:1047500074657220746865206E756D626572206F75
:104760006620627974657320746F2077726974654E
:104770003A0A0D00456E7465722074686520737482
:10478000617274696E6720616464726573733A0A5A
:104790000D00456E7465722025642062797465731E
:1047A000206F6620646174612028696E20686578D6
:1047B000293A0A0D00427974652025643A200045A3
:1047C0006E74657220746865206E756D6265722006
:1047D0006F6620627974657320746F2072656164FE
:1047E0003A0A0D00456E74657220746865204D416B
:1047F000432072656769737465722062616E6B2015
:10480000746F2073656C6563743A0A0D00456E74AD
:104810006572207468652061646472657373206FCB
:104820006620746865204D41432052656769737442
:1048300065723A0A0D004D414320526567697374F1
:10484000657220446174613A203078253032580A0C
:104850000D00456E746572207468652050485920BB
:1048600072656769737465722061646472657373DD
:104870003A0A0D00456E7465722074686520313601
:104880002D626974206461746120746F207772698D
:1048900074653A0A0D0050485920577269746520B2
:1048A000446174613A203078253034580A0D00454F
:1048B0006E7465722074686520504859207265676F
:1048C0006973746572206164647265737320746FB8
:1048D00020726561643A0A0D0050485920526561A2
:1048E0006420446174613A203078253034580A0DD0
:1048F00000526573657474696E6720454E433238A3
:104900004A36302E2E2E0A0D00456E7465722074C4
:104910006865204554482072656769737465722024
:104920006164647265737320746F20726561643AA8
:104930000A0D00456E746572207468652062616EB0
:104940006B202830206F722031293A0A0D0045541F
:104950004820526567697374657220446174613AD6
:10496000203078253032580A0D0020526573657466
:1049700074696E6720454E43207573696E672052D7
:10498000455345542070696E20696E2048617264F9
:10499000776172652850315F30290A0D00496E76C3
:1049A000616C6964206F7074696F6E2E20506C6545
:1049B0006173652073656C65637420612076616C3A
:0D49C000696420616374696F6E2E0A0D003A
:102ED50075825F12305B75820212305B7582541207
:102EE500305B75821412305B75825612305B7582C9
:102EF5000012305B75825712305B75820A02305BB7
:102F050022C29175825F12305B75820212305BD2EC
:102F150091C29175825412305B75821412305BD266
:102F250091C29175825612305B7582A812305BD2C0
:102F350091C29175825712305B75823A12305BD21D
:102F450091222275C5FFE5C430E7FB900360E5C516
:102F5500F0E0F58222C29175825E12305B75828047
:102F650012305BD29122E582900361F0C2917582A5
:102F75001F12305B122F48AF82D2915307FC90038A
:102F850061E0FE24FC4030EE2E902F927380068087
:102F95000B80128019900362EFF080319003627408
:102FA500014FF0802890036274024FF0801F900358
:102FB5006274034FF0801674CDC0E07449C0E074AC
:102FC50080C0E0123A16158115811581227F00BF58
:102FD500100050030F80F8C29175825F12305B902C
:102FE5000362E0F58212305BD29122E5829003659F
:102FF500F0900363E02440F0900365E0F582122F22
:103005006BC291900363E0FFF582C00712305BD07D
:1030150007900364E0FEF582C007C00612305BD05E
:1030250006D007D2917D007C00C006C005C007C050
:103035000474D8C0E07449C0E07480C0E0123A1648
:10304500E58124F9F58122D29175C30043C320435C
:10305500C31043C34022E582900366F0E0F5C5E561
:10306500C430E7FB22C2917582FF12305BD29122F8
:10307500E582900368F0E0FF24E0501974FDC0E09C
:103085007449C0E07480C0E0123A161581158115A7
:103095008175820022900367E0F582C007122F6BCD
:1030A500D007C2918F82C00712305B122F48AE82C3
:1030B500D007D2918E047D007B00C006C004C005F8
:1030C500C007C0037437C0E0744AC0E07480C0E034
:1030D500123A16E58124F9F581D0068E8222E58221
:1030E50090036BF0E0FF9003637414F0900364EFBA
:1030F500F0758202C007122FF0D007900369E0FD3A
:10310500A3E0FE8D049003637416F0900364ECF065
:10311500758202C007C006C005122FF0D005D00683
:10312500D0078E049003637417F0900364ECF07578
:103135008202C007C006C005122FF0D005D006D008
:10314500077C00C005C006C007C004745BC0E074FE
:103155004AC0E07480C0E0123A16E58124F9F58191
:1031650022E58290036DF0E0FF24E0501974FDC064
:10317500E07449C0E07480C0E0123A1615811581EB
:1031850015817582002290036CE0F582C007122F2D
:103195006BD007C2918F82C00712305B122F48AEE9
:1031A50082D007D2918E047D007B00C006C004C08A
:1031B50005C007C0037484C0E0744AC0E07480C0D1
:1031C500E0123A16E58124F9F581D0068E8222E5D2
:1031D5008290036EF0E0FF9003637414F090036433
:1031E500EFF0758202C007122FF0D00790036374C9
:1031F50012F09003647401F0758202C007122FF07B
:10320500123281D0079003637412F0900364E4F0E6
:10321500758202C007122FF0D00790036C7402F07C
:10322500758218C007123166AE82D0077D00900303
:103235006C7402F0758219C007C006C005123166AC
:10324500AC82D005D006D0078C03E44206EB4205DC
:103255007C00C006C005C006C005C007C00474A731
:10326500C0E0744AC0E07480C0E0123A16E58124DB
:10327500F9F581D005D0068E828D832290036C747A
:1032850003F075820A123166E58290036FF09003B0
:103295006FE030E01490036C7403F075820A12310C
:1032A50066E58290036FF080E522AF83E5829003A7
:1032B50072F0EFA3F0900372E0FEA3E0FF8E048F9F
:1032C50005C374FF9C741F9D4017900370E0FAA31B
:1032D500E0FBEA2EF8EB3FF9C374FF98741F995091
:1032E5002A900370E0C0E0A3E0C0E0900372E0C064
:1032F500E0A3E0C0E074CFC0E0744AC0E07480C0D1
:10330500E0123A16E58124F9F581225304FEEA2EEE
:10331500FEEB3FFF1EBEFF011F5306FE8D0390030C
:10332500637408F0900364EBF0758200C007C00673
:10333500C005C004122FF0D004D005D006D0078CEC
:10334500039003637409F0900364EBF0758200C089
:1033550007C006C005C004122FF0D004D005D00662
:10336500D0078F03900363740AF0900364EBF07544
:103375008200C007C006C005C004122FF0D004D0DB
:1033850005D006D0078E03900363740BF090036499
:10339500EBF0758200C007C006C005C004122FF00F
:1033A500D004D005D006D007C006C007C004C005AC
:1033B500740DC0E0744BC0E07480C0E0123A16E5AD
:1033C5008124F9F58122AF83E582900379F0EFA39B
:1033D500F0900379E0FEA3E0FFC3EE9401EF648073
:1033E5009480501AC006C007743EC0E0744BC0E01C
:1033F5007480C0E0123A16E58124FBF58122900322
:1034050074E0FCA3E0FD8C028D03C374FF9A741F66
:103415009B501AC004C005745EC0E0744BC0E074D4
:1034250080C0E0123A16E58124FBF58122C37401C0
:103435009E74808FF063F08095F0500BC005C0043A
:10344500122F5AD004D0058D078C069003637401A2
:10345500F0900364EFF0758200C006C005C0041249
:103465002FF0D004D005D006900363E4F0900364F8
:10347500EEF0758200C005C004122FF0C29175826E
:103485003A12305BD004D005900379E0FEA3E0FF4B
:10349500C007C006C004C005C006C0077478C0E0F8
:1034A500744BC0E07480C0E0123A16E58124F9F54A
:1034B50081D006D00790037BE4F0A3F0900376E07B
:1034C500FBA3E0FCA3E0FD90037BE0F9A3E0FAC3D6
:1034D500E99EEA64808FF063F08095F04003023541
:1034E50069C006C007C007C006C005C004C003C048
:1034F50002C001122F48A882D001D002D003D00407
:10350500D005D006D0078B828C838DF0E8123884E5
:10351500A3AB82AC837F0009B900010AC007C006CE
:10352500C005C004C003C002C001C000C007C0017F
:10353500C00274B3C0E0744BC0E07480C0E0123ABE
:1035450016E58124F9F581D001D002D003D004D04D
:1035550005D006D00790037BE9F0EAA3F0D007D0A9
:10356500060234CCD29122AF83E582900382F0EF3C
:10357500A3F0900382E0FEA3E0FFC3EE9401EF64A5
:10358500809480501AC006C007743EC0E0744BC0DA
:10359500E07480C0E0123A16E58124FBF5812290A3
:1035A500037DE0FCA3E0FD8C028D03C374FF9A74D8
:1035B5001F9B501AC004C005745EC0E0744BC0E088
:1035C5007480C0E0123A16E58124FBF58122C374AC
:1035D500019E74808FF063F08095F0500BC005C09C
:1035E50004122F5AD004D0058D078C0690036374FE
:1035F50003F0900364EFF0758200C006C005C004B7
:10360500122FF0D004D005D0069003637402F09019
:103615000364EEF0758200C005C004122FF0C2915C
:1036250075827A12305BD004D005900382E0FEA348
:10363500E0FFC007C006C004C005C006C00774C5CA
:10364500C0E0744BC0E07480C0E0123A16E58124F6
:10365500F9F581D006D007900384E4F0A3F0900338
:103665007FE0FBA3E0FCA3E0FD900384E0F9A3E089
:10367500FAC3E99EEA64808FF063F08095F0400319
:10368500023715C006C0078B828C838DF012443833
:10369500F87F0009B900010AC007C006C005C004CB
:1036A500C003C002C001C000C007C001C00274B39E
:1036B500C0E0744BC0E07480C0E0123A16E5812486
:1036C500F9F581D001D002D003D004D005D006D0C1
:1036D500078B828C838DF0124438FFA3AB82AC83B9
:1036E5008F82C007C006C005C004C003C002C00168
:1036F50012305BD001D002D003D004D005D006D063
:1037050007900384E9F0EAA3F0D007D00602366EED
:10371500D291229003637418F09003647441F0759C
:103725008201122FF090010674FFF0741FA3F09030
:103735000800122171D288D2A8D2AF900363E4F0B9
:1037450090036404F0758202122FF09003637402F3
:10375500F09003647470F0758202122FF090036389
:103765007403F09003647440F0758202122FF09098
:103775000363740AF090036474EEF0758202122FED
:10378500F0900363740BF09003647405F075820286
:10379500122FF09003637404F09003647412F075B3
:1037A5008202122FF09003637406F0900364741282
:1037B500F0758202122FF09003637407F090036492
:1037C500740CF0758202122FF0900363741BF09055
:0C37D50003647481F0758200022FF02262
:1049CD0077726F6E672062616E6B005772697465E6
:1049DD003A20416464726573732030782530325803
:1049ED002C2044617461203078253032580A0D0036
:1049FD000A0D496E76616C69642061646472657339
:104A0D00733A204D41432072656769737465722056
:104A1D00616464726573732072616E6765205B30CB
:104A2D002C20307831465D0A0D00526561643A20C4
:104A3D0041646472657373203078253032582C20B0
:104A4D0044617461203078253032580A0D00504889
:104A5D00592057726974653A2041646472657373A5
:104A6D00203078253032582C204461746120307804
:104A7D00253034580A0D00526561643A2041646452
:104A8D0072657373203078253032582C2044617450
:104A9D0061203078253032580A005048592052652F
:104AAD0061643A20416464726573732030782530F7
:104ABD0032582C2044617461203078253034580AE6
:104ACD000D000A0D496E76616C696420427566664B
:104ADD0065722041646472657373206F722053692F
:104AED007A653A20537461727420307825303458C9
:104AFD002C2053697A65203078253034580A0D0002
:104B0D000A0D42756666657220496E697469616C3D
:104B1D00697A65643A205374617274203078253057
:104B2D0034582C20456E64203078253034580A0DC9
:104B3D00000A0D496E76616C6964206E756D626553
:104B4D0072206F662062797465733A2025640A0DB0
:104B5D00000A0D496E76616C69642061646472654A
:104B6D0073733A20253034580A0D0052656164691B
:104B7D006E672025642062797465732066726F6D8F
:104B8D0020627566666572207374617274696E67F2
:104B9D0020617420616464726573732030782530F0
:104BAD0034583A0A0D00427974652025643A203054
:104BBD0078253032580A0D0057726974696E672076
:104BCD00256420627974657320746F206275666642
:104BDD006572207374617274696E672061742061EF
:104BED00646472657373203078253034583A0A0D39
:014BFD0000B7
:1037E100AF83E582900386F0EFA3F03099FD90035B
:1037F10086E0FEA3E0FF8E99C2998E828F8322100C
:10380100980280FBAE997F008E828F8322AFF0AE4B
:1038110083E582900388F0EEA3F0EFA3F090038894
:10382100E0FDA3E0FEA3E0FF7B007C008D828E83A0
:103831008FF0124438FA60360DBD00010E900388F6
:10384100EDF0EEA3F0EFA3F08A017A0089828A837A
:10385100C007C006C005C004C0031237E1D003D0C1
:1038610004D005D006D0070BBB00C10C80BE90036D
:1038710088EDF0EEA3F0EFA3F00BBB00010C8B82FF
:033881008C832213
:06203800E478FFF6D8FD7C
:102016007914E94400601B7A01904C0978C575A0D3
:1020260003E493F2A308B8000205A0D9F4DAF27526
:02203600A0FF09
:1038840020F71130F6138883A88220F509F6A8835F
:103894007583002280FEF280F5F022C0088581083D
:1038A400E50824FDF8868318868218E493A324DBB4
:1038B400600C2425600512398D80F00239A5D2D51B
:1038C400E493A3C083C082B4731486F0188683186B
:1038D4008682181244386054A312398D80F5B4637B
:1038E4000818E61812398D8043B46417E630E746A9
:1038F40018E6F42401F608E6F43400F6742D1239BF
:103904008D8033B4782D868318868218E412397E2C
:10391400E58312397DE58312397EE58212397DE52E
:103924008212397E30D505743012398DD082D0831D
:103934000238AFB475F6E6FA18E6F9187C107D275C
:10394400123968FF7CE87D03123968C4F5837C640E
:103954007D001239684283E975F00A84C445F0F5A4
:1039640082EF80A97B000BC3E99CF9EA9DFA50F62B
:103974001BE92CF9EA3DFAEB22C4540F700320D55D
:103984001FC2D52490D43440D4C083C082C0F0F583
:1039940082E8C0E01237E1D0E0F8D0F0D082D083E2
:1039A40022D00822AA83AB828BF090038CE0A4F887
:1039B400A9F08AF0E0A429F98BF0A3E0A429F58307
:0439C40088822222B1
:10203E007800E84400600A790075A001E4F309D83D
:10204E00FC78C5E84402600C7903900100E4F0A32B
:04205E00D8FCD9FAD7
:1039C800C0088581087E008E831237E1D00822AFB7
:1039D800F0AE83E58290038FF0EEA3F0EFA3F090B2
:1039E800038FE0FDA3E0FEA3E0FF90038EE0FC90D0
:1039F80003A3E4F0A3F0A3F09003A6EDF0EEA3F088
:103A0800EFA3F09003A9ECF09039C8023B1CC00862
:103A1800E581F50824FBFF9003A3E4F0A3F0A3F0ED
:103A2800E50824FBF89003A6E6F008E6A3F008E60C
:103A3800A3F09003A9EFF09039C8123B1CD00822DC
:103A4800E58290039FF0E0FF900395E0C0E0A3E0DB
:103A5800C0E0A3E0C0E0123A63800D900393E0C099
:103A6800E0A3E0C0E08F82221581158115819003C3
:103A78009DE02401F0A3E03400F022E5829003A049
:103A8800F0E02430FF24C6500D74072FFF900392F6
:103A9800E060034307208F82023A48E5829003A141
:103AA800F0E0FFC4540FF582C007123A83D00753E1
:103AB800070F8F82023A83E5829003A2F090039861
:103AC800E0FCA3E0FDA3E0FEA3E0FF90039CE0FB85
:103AD8009003A2E0FA79208B00E828F513EF23542D
:103AE800014513FBEC2CFCED33FDEE33FEEF33FF09
:103AF800C3EB9A4007EBC39AFB43040119E970D75B
:103B0800900398ECF0EDA3F0EEA3F0EFA3F0900390
:103B18009CEBF022AF83E5829003AAF0EFA3F0902C
:103B280003AAE0FEA3E0FF900393EEF0EFA3F0906A
:103B380003A3E0FDA3E0FEA3E0FF900395EDF0EE04
:103B4800A3F0EFA3F090039DE4F0A3F09003A6E0A8
:103B5800FDA3E0FEA3E0FF8D828E838FF012443830
:103B6800FC9003A674012DF0E43EA3F0EFA3F0EC63
:103B78007003024414BC2502800302440C9003AC79
:103B8800E4F09003ADF09003AEF09003AFF0900333
:103B9800B0F09003B1F09003B2F09003B3F090034B
:103BA800B5F09003B6F0A3F09003B814F0A3F0902A
:103BB80003A6E0FDA3E0FEA3E0FF8D828E838FF0D5
:103BC800124438FBA3AD82AE839003A6EDF0EEA3BA
:103BD800F0EFA3F09003BCEBF0BB25088B82123A00
:103BE80048023B54BB30005003023CB5EB24C6509E
:103BF80003023CB59003B8E0F509A3E0F50A74FFA9
:103C0800B50963B50A60C005C006C0079003B6E0F1
:103C1800FAA3E0FF90038CEAF0EFA3F090000AC04B
:103C280005C0031239A8AE82AF83D003D0058B0537
:103C38007A00ED2EFEEA3FFFEE24D0FEEF34FFFFC0
:103C48009003B6EEF0EFA3F0D007D006D0059003AE
:103C5800B6E0F5F0A3E045F06003023BC29003AD87
:103C68007401F0023BC2C005C006C00790038CE592
:103C780009F0E50AA3F090000AC006C005C00312C7
:103C880039A8AA82AF83D003D005D0067E00EB2ADC
:103C9800FAEE3FFFEA24D0FAEF34FFFF9003B8EAC8
:103CA800F0EFA3F0D007D006D005023BC29003BCCA
:103CB800E0FBBB2E2FC005C006C0079003B8E0FA92
:103CC800A3E0FFBAFF05BFFF028009D007D006D0E6
:103CD80005023BC2D007D006D0059003B8E4F0A394
:103CE800F0023BC2BB61004014EB2485400F9003F7
:103CF800BC74DF5BF09003927401F080059003922E
:103D0800E4F09003BCE0FBBB20028075BB2B028073
:103D180067BB2D028059BB4202806FBB4302807C87
:103D2800BB4403023FACBB4603023FD2BB4803027D
:103D38003BC2BB4903023FACBB4A03023BC2BB4C7C
:103D4800028050BB4F03023FBABB5003023F1ABB6D
:103D580053028077BB5403023BC2BB5503023FC2E8
:103D6800BB5803023FCABB5A03023BC2023FDA9068
:103D780003AC7401F0023BC29003AE7401F0023B45
:103D8800C29003AF7401F0023BC29003B17401F01A
:103D9800023BC29003B27401F0023BC29003B1E04F
:103DA800600E9003A9E014F9F09003BCE7F0800FCF
:103DB8009003A9E024FEFFF08F019003BCE7F09088
:103DC80003BCE0F582123A48023FE99003A9E024D7
:103DD800FDFFF08F018705098706098707191990E4
:103DE8000398EDF0EEA3F0EFA3F08D828E838FF0B1
:103DF80012442085820985830A9003B8E0FAA3E07B
:103E0800FDBAFF0DBDFF0A9003B8E509F0E50AA366
:103E1800F09003ACE0704B9003B6E0FAA3E0FDC36A
:103E2800E5099AE50A9D503A9003B6EAC39509F068
:103E3800ED950AA3F09003B6E0FAA3E0FD8A068D9B
:103E4800071ABAFF011DEE4F6010758220C005C029
:103E580002123A48D002D00580E39003B6EAF0EDAA
:103E6800A3F09003B8E0F50CA3E0F50D900398E0FB
:103E7800FAA3E0FDA3E0FF8A828D838FF012443815
:103E8800F50B603CC3E4950C7480850DF063F080FD
:103E980095F0502C150C74FFB50C02150D850B828E
:103EA800123A48900398E0FAA3E0FDA3E0FF0ABAAB
:103EB80000010D900398EAF0EDA3F0EFA3F080ACB9
:103EC8009003ACE07003023FE99003B6E0FEA3E084
:103ED800FFC3E5099EE50A9F4003023FE99003B648
:103EE800EEC39509F0EF950AA3F09003B6E0FEA3A0
:103EF800E0FF8E028F051EBEFF011FEA4D70030210
:103F08003FE1758220C007C006123A48D006D007A4
:103F180080E09003A9E024FDFDF08D01870E09875C
:103F28000F0987101919900398E50EF0E50FA3F013
:103F3800E510A3F090039AE0FDBD800040089003CF
:103F4800BC7443F08020BD600040089003BC7450EE
:103F5800F08013BD400040089003BC7449F080060F
:103F68009003BC7458F09003BCE0FDF582C00512C4
:103F78003A4875823A123A48758230123A48758240
:103F880078123A48D005BD4902800EBD500280091A
:103F9800900399E0F582123AA3900398E0F5821213
:103FA8003AA3803D9003B07401F09003B5740AF011
:103FB800802F9003B57408F080279003B5740AF039
:103FC800801F9003B57410F080179003B37401F04C
:103FD800800F8B82123A4880089003B6EEF0EFA368
:103FE800F09003B3E060719003A9E024FCFFF08F28
:103FF8000187030987050987060987071919199091
:104008000398EBF0EDA3F0EEA3F0EFA3F090039884
:1040180074FEF0744BA3F07480A3F0900398E0F55D
:104028000EA3E0F50FA3E0F5107401250EFAE435B0
:104038000FFBAF10900398EAF0EBA3F0EFA3F08525
:104048000E82850F838510F0124438FF7003023BFF
:10405800548F82123A4880C39003B5E07003023B44
:10406800549003B1E060479003A9E014F9F0870782
:104078007E007D007B00900398EFF0EEA3F0EDA3A7
:10408800F0EBA3F09003B0E0600302412C9003989A
:10409800E0FBA3E0A3E0A3E07D007E007F009003A7
:1040A80098EBF0EDA3F0EEA3F0EFA3F08076900389
:1040B800B2E060289003A9E024FCFFF08F01870399
:1040C800098705098706098707191919900398EBC5
:1040D800F0EDA3F0EEA3F0EFA3F080489003A9E081
:1040E80024FEFFF08F01870609870719EF3395E053
:1040F800FDFB900398EEF0EFA3F0EDA3F0EBA3F037
:104108009003B0E0701E900398E0FBA3E0FDA3E0ED
:10411800A3E07E007F00900398EBF0EDA3F0EEA300
:10412800F0EFA3F09003B0E0603D900398E0A3E0C7
:10413800A3E0A3E030E72B900398E0FBA3E0FDA306
:10414800E0FEA3E0FFC3E49BFBE49DFDE49EFEE4E8
:104158009FFF900398EBF0EDA3F0EEA3F0EFA3F030
:1041680080059003B0E4F09003B47401F09003B5B7
:10417800E0F50C7511C2751203E4F509F50A900310
:104188009CE4F0850C82123ABF9003B4E07033903F
:10419800039CE0C454F0F50E90039CE0C4540F4512
:1041A8000EF50E851182851283E0FFE50E42078524
:1041B8001182851283EFF0151174FFB511021512E3
:1041C800800B90039CE0851182851283F00509E439
:1041D800B50902050A9003B4E0B40100E433F09095
:1041E8000398E0FAA3E0FBA3E0FEA3E0FFEA4B4E4E
:1041F8004F708B9003C3E511F0E512A3F09003BA5A
:10420800E509F0E50AA3F09003B6E0F5F0A3E04570
:10421800F070099003B67401F0E4A3F09003ADE0E8
:10422800FFE070479003ACE07041850911850A12E0
:104238009003B6E0FAA3E0FBC007AF110F8F067F2B
:1042480000C3EE9AEF9BD0075019758220C007C0B3
:1042580003C002123A48D002D003D0071ABAFF01AD
:104268001B80D59003B6EAF0EBA3F09003B0E060B2
:104278002075822DC007123A48D0079003B6E02473
:10428800FFFDA3E034FFFE9003B6EDF0EEA3F0804F
:10429800569003BAE0F5F0A3E045F0604A9003AE0B
:1042A800E0602075822BC007123A48D0079003B609
:1042B800E024FFFDA3E034FFFE9003B6EDF0EEA38B
:1042C800F080249003AFE0601E758220C007123A88
:1042D80048D0079003B6E024FFFDA3E034FFFE902A
:1042E80003B6EDF0EEA3F09003ACE070449003BA8F
:1042F800E0F511A3E0F5129003B6E0FAA3E0FBC0E5
:10430800078A068B071ABAFF011BC3E5119EE5123F
:104318009FD007504FEF60047E3080027E208E824F
:10432800C007C003C002123A48D002D003D00780A9
:10433800CE9003B6E0FEA3E0FF9003BAE0F511A328
:10434800E0F512C3E5119EE5129F500F9003B6EEFB
:10435800C39511F0EF9512A3F080119003B6E4F025
:10436800A3F080089003B6EAF0EBA3F09003C3E053
:10437800FEA3E0FF9003BAE0F511A3E0F512AA113D
:10438800AD12151174FFB511021512EA4D60449073
:1043980003B4E0B40100E433F09003B4E070130E0A
:1043A800BE00010F8E828F83E0C4540F90039CF0EF
:1043B800800E8E828F83E0FD53050F90039CEDF0F5
:1043C80090039CE0F582C007C006123A83D006D05D
:1043D8000780AB9003ACE07003023B549003B6E057
:1043E800FEA3E0FF8E038F051EBEFF011FEB4D707D
:1043F80003023B54758220C007C006123A48D00613
:10440800D00780E08C82123A48023B5490039DE02A
:08441800FEA3E08E82F5832271
:0B4BFE003C4E4F20464C4F41543E00FF
:10442000AA82AB831244386003A380F8C3E5829A62
:08443000F582E5839BF5832270
:0D200900758121124454E582600302200617
:1044380020F71430F6148883A88220F507E6A883AD
:1044480075830022E280F7E49322E022758200223D
:00000001FF
