:03200000022006B5
:03205F0002200359
:0320030002206256
:1020620074D9C0E0742CC0E07480C0E012227715ED
:0D207200811581158112210B1220B080FE16
:072CD900746573740A0D001D
:10207F0075825F12212375820212212375825412F9
:10208F002123758214122123758256122123758202
:10209F000012212375825712212375820A022123F0
:1020AF002275825F12212390000A12215575820238
:1020BF0012212390000A1221557582541221239068
:1020CF00000A12215575821412212390000A122141
:1020DF005575825612212390000A122155758200E0
:1020EF0012212390000A1221557582571221239035
:1020FF00000A12215575820802212322438F0543BE
:10210F00C310D29185C3C343C32053C3F753C3FB3B
:10211F0043C34022E582900100F0C291900100E09C
:10212F00FF8FC57E00C007C00674E0C0E0742CC0EE
:10213F00E07480C0E0122277E58124FBF581E5C4CD
:10214F0030E7FBD29122AF83E582900101F0EFA33C
:10215F00F0900101E0FEA3E0FF8E048F051EBEFF8D
:10216F00011F900101EEF0EFA3F0EC4D70EB900129
:07217F0001EEF0EFA3F022D6
:102CE00053656E64696E6720646174613A2025786B
:032CF0000A0D00CA
:10218600AF83E582900103F0EFA3F03099FD900153
:1021960003E0FEA3E0FF8E99C2998E828F83221000
:1021A600980280FBAE997F008E828F8322AFF0AEBD
:1021B60083E582900105F0EEA3F0EFA3F090010510
:1021C600E0FDA3E0FEA3E0FF7B007C008D828E8312
:1021D6008FF0122CB9FA60360DBD00010E90010584
:1021E600EDF0EEA3F0EFA3F08A017A0089828A83EC
:1021F600C007C006C005C004C003122186D003D0A4
:1022060004D005D006D0070BBB00C10C80BE9001E0
:1022160005EDF0EEA3F0EFA3F00BBB00010C8B82F3
:032226008C832284
:06203500E478FFF6D8FD7F
:102013007900E94400601B7A00902CFE784175A09A
:1020230001E493F2A308B8000205A0D9F4DAF2752B
:02203300A0FF0C
:10203B007800E84400600A790075A001E4F309D840
:10204B00FC7841E84400600C7901900100E4F0A3B6
:04205B00D8FCD9FADA
:10222900C0128581127E008E83122186D01222AFC0
:10223900F0AE83E582900109F0EEA3F0EFA3F090F0
:102249000109E0FDA3E0FEA3E0FF900108E0FC9096
:10225900011DE4F0A3F0A3F0900120EDF0EEA3F04E
:10226900EFA3F0900123ECF090222902237DC01204
:10227900E581F51224FBFF90011DE4F0A3F0A3F022
:10228900E51224FBF8900120E6F008E6A3F008E641
:10229900A3F0900123EFF090222912237DD012227E
:1022A900E582900119F0E0FF90010FE0C0E0A3E0A2
:1022B900C0E0A3E0C0E01222C4800D90010DE0C08F
:1022C900E0A3E0C0E08F822215811581158190017C
:1022D90017E02401F0A3E03400F022E58290011A0E
:1022E900F0E02430FF24C6500D74072FFF90010C35
:1022F900E060034307208F820222A9E58290011B37
:10230900F0E0FFC4540FF582C0071222E4D007534E
:10231900070F8F820222E4E58290011CF0900112DE
:10232900E0FCA3E0FDA3E0FEA3E0FF900116E0FBC3
:1023390090011CE0FA79208B00E828F513EF23546B
:10234900014513FBEC2CFCED33FDEE33FEEF33FFBF
:10235900C3EB9A4007EBC39AFB43040119E970D711
:10236900900112ECF0EDA3F0EEA3F0EFA3F09001D1
:1023790016EBF022AF83E582900124F0EFA3F090F1
:102389000124E0FEA3E0FF90010DEEF0EFA3F09031
:10239900011DE0FDA3E0FEA3E0FF90010FEDF0EECB
:1023A900A3F0EFA3F0900117E4F0A3F0900120E06F
:1023B900FDA3E0FEA3E0FF8D828E838FF0122CB97E
:1023C900FC90012074012DF0E43EA3F0EFA3F0ECA2
:1023D9007003022C75BC25028003022C6D90012626
:1023E900E4F0900127F0900128F0900129F0900184
:1023F9002AF090012BF090012CF090012DF0900122
:102409002FF0900130F0A3F090013214F0A3F09076
:102419000120E0FDA3E0FEA3E0FF8D828E838FF013
:10242900122CB9FBA3AD82AE83900120EDF0EEA38F
:10243900F0EFA3F0900136EBF0BB25088B82122256
:10244900A90223B5BB30005003022516EB24C65060
:1024590003022516900132E0F508A3E0F50974FF9F
:10246900B50863B50960C005C006C007900130E032
:10247900FAA3E0FF90013FEAF0EFA3F090000AC051
:1024890005C003122C99AE82AF83D003D0058B050A
:102499007A00ED2EFEEA3FFFEE24D0FEEF34FFFF77
:1024A900900130EEF0EFA3F0D007D006D0059001EF
:1024B90030E0F5F0A3E045F0600302242390012702
:1024C9007401F0022423C005C006C00790013FE54E
:1024D90008F0E509A3F090000AC006C005C0031280
:1024E9002C99AA82AF83D003D005D0067E00EB2AAF
:1024F900FAEE3FFFEA24D0FAEF34FFFF900132EA07
:10250900F0EFA3F0D007D006D005022423900136BE
:10251900E0FBBB2E2FC005C006C007900132E0FAD0
:10252900A3E0FFBAFF05BFFF028009D007D006D09C
:1025390005022423D007D006D005900132E4F0A388
:10254900F0022423BB61004014EB2485400F900165
:102559003674DF5BF090010C7401F0800590010C7A
:10256900E4F0900136E0FBBB20028075BB2B0280B2
:1025790067BB2D028059BB4202806FBB4302807C3E
:10258900BB440302280DBB4603022833BB480302A0
:102599002423BB490302280DBB4A03022423BB4C55
:1025A900028050BB4F0302281BBB500302277BBB91
:1025B90053028077BB5403022423BB55030228230B
:1025C900BB580302282BBB5A0302242302283B9041
:1025D90001267401F00224239001287401F00224D9
:1025E900239001297401F002242390012B7401F036
:1025F90002242390012C7401F002242390012BE082
:10260900600E900123E014F9F0900136E7F0800F95
:10261900900123E024FEFFF08F01900136E7F0904E
:102629000136E0F5821222A902284A900123E0240A
:10263900FDFFF08F0187050987060987071919909A
:102649000112EDF0EEA3F0EFA3F08D828E838FF0EF
:10265900122C81858208858309900132E0FAA3E072
:10266900FDBAFF0DBDFF0A900132E508F0E509A3A7
:10267900F0900126E0704B900130E0FAA3E0FDC331
:10268900E5089AE5099D503A900130EAC39508F0AA
:10269900ED9509A3F0900130E0FAA3E0FD8A068DDB
:1026A900071ABAFF011DEE4F6010758220C005C0E0
:1026B900021222A9D002D00580E3900130EAF0EDA0
:1026C900A3F0900132E0F50BA3E0F50C900112E0C4
:1026D900FAA3E0FDA3E0FF8A828D838FF0122CB963
:1026E900F50A603CC3E4950B7480850CF063F080B7
:1026F90095F0502C150B74FFB50B02150C850A8249
:102709001222A9900112E0FAA3E0FDA3E0FF0ABAA0
:1027190000010D900112EAF0EDA3F0EFA3F080ACF7
:10272900900126E0700302284A900130E0FEA3E000
:10273900FFC3E5089EE5099F400302284A9001303E
:10274900EEC39508F0EF9509A3F0900130E0FEA3E0
:10275900E0FF8E028F051EBEFF011FEA4D700302C6
:102769002842758220C007C0061222A9D006D007C8
:1027790080E0900123E024FDFDF08D01870D09879C
:102789000E09870F1919900112E50DF0E50EA3F056
:10279900E50FA3F0900114E0FDBD80004008900111
:1027A900367443F08020BD600040089001367450B3
:1027B900F08013BD400040089001367449F080064E
:1027C9009001367458F0900136E0FDF582C005128B
:1027D90022A975823A1222A97582301222A975821C
:1027E900781222A9D005BD4902800EBD5002800988
:1027F900900113E0F582122304900112E0F5821290
:102809002304803D90012A7401F090012F740AF08D
:10281900802F90012F7408F0802790012F740AF0FF
:10282900801F90012F7410F0801790012D7401F012
:10283900800F8B821222A98008900130EEF0EFA35D
:10284900F090012DE06071900123E024FCFFF08FEE
:102859000187030987050987060987071919199047
:102869000112EBF0EDA3F0EEA3F0EFA3F09001124B
:1028790074F3F0742CA3F07480A3F0900112E0F5C6
:102889000DA3E0F50EA3E0F50F7401250DFAE4356B
:102899000EFBAF0F900112EAF0EBA3F0EFA3F08566
:1028A9000D82850E83850FF0122CB9FF7003022368
:1028B900B58F821222A980C390012FE070030223F1
:1028C900B590012BE06047900123E014F9F08707E8
:1028D9007E007D007B00900112EFF0EEA3F0EDA3E6
:1028E900F0EBA3F090012AE0600302298D90011218
:1028F900E0FBA3E0A3E0A3E07D007E007F00900160
:1029090012EBF0EDA3F0EEA3F0EFA3F080769001C7
:102919002CE06028900123E024FCFFF08F0187035D
:10292900098705098706098707191919900112EB03
:10293900F0EDA3F0EEA3F0EFA3F08048900123E0BF
:1029490024FEFFF08F01870609870719EF3395E009
:10295900FDFB900112EEF0EFA3F0EDA3F0EBA3F075
:1029690090012AE0701E900112E0FBA3E0FDA3E0B4
:10297900A3E07E007F00900112EBF0EDA3F0EEA33F
:10298900F0EFA3F090012AE0603D900112E0A3E08E
:10299900A3E0A3E030E72B900112E0FBA3E0FDA345
:1029A900E0FEA3E0FFC3E49BFBE49DFDE49EFEE49F
:1029B9009FFF900112EBF0EDA3F0EEA3F0EFA3F06F
:1029C900800590012AE4F090012E7401F090012F06
:1029D900E0F50B75103C751101E4F508F509900156
:1029E90016E4F0850B8212232090012EE0703390BB
:1029F9000116E0C454F0F50D900116E0C4540F45DA
:102A09000DF50D851082851183E0FFE50D420785DF
:102A19001082851183EFF0151074FFB5100215119E
:102A2900800B900116E0851082851183F00508E47A
:102A3900B50802050990012EE0B40100E433F090D5
:102A49000112E0FAA3E0FBA3E0FEA3E0FFEA4B4E8C
:102A59004F708B90013DE510F0E511A3F090013422
:102A6900E508F0E509A3F0900130E0F5F0A3E045B1
:102A7900F070099001307401F0E4A3F0900127E0AF
:102A8900FFE07047900126E0704185081085091123
:102A9900900130E0FAA3E0FBC007AF100F8F067F6B
:102AA90000C3EE9AEF9BD0075019758220C007C06A
:102AB90003C0021222A9D002D003D0071ABAFF011B
:102AC9001B80D5900130EAF0EBA3F090012AE06079
:102AD9002075822DC0071222A9D007900130E02469
:102AE900FFFDA3E034FFFE900130EDF0EEA3F0808E
:102AF90056900134E0F5F0A3E045F0604A900128D2
:102B0900E0602075822BC0071222A9D007900130FE
:102B1900E024FFFDA3E034FFFE900130EDF0EEA3C9
:102B2900F08024900129E0601E758220C0071222DE
:102B3900A9D007900130E024FFFDA3E034FFFE9007
:102B49000130EDF0EEA3F0900126E07044900134DD
:102B5900E0F510A3E0F511900130E0FAA3E0FBC025
:102B6900078A068B071ABAFF011BC3E5109EE511F8
:102B79009FD007504FEF60047E3080027E208E8206
:102B8900C007C003C0021222A9D002D003D0078017
:102B9900CE900130E0FEA3E0FF900134E0F510A3F0
:102BA900E0F511C3E5109EE5119F500F900130EE3D
:102BB900C39510F0EF9511A3F08011900130E4F066
:102BC900A3F08008900130EAF0EBA3F090013DE01A
:102BD900FEA3E0FF900134E0F510A3E0F511AA107F
:102BE900AD11151074FFB510021511EA4D6044902E
:102BF900012EE0B40100E433F090012EE070130ED1
:102C0900BE00010F8E828F83E0C4540F900116F02D
:102C1900800E8E828F83E0FD53050F900116EDF033
:102C2900900116E0F582C007C0061222E4D006D052
:102C39000780AB900126E070030223B5900130E0D4
:102C4900FEA3E0FF8E038F051EBEFF011FEB4D7033
:102C5900030223B5758220C007C0061222A9D00637
:102C6900D00780E08C821222A90223B5900117E0D7
:082C7900FEA3E08E82F5832228
:0B2CF3003C4E4F20464C4F41543E0029
:102C8100AA82AB83122CB96003A380F8C3E5829AB0
:102C9100F582E5839BF58322AA83AB828BF09001B9
:102CA1003FE0A4F8A9F08AF0E0A429F98BF0A3E0B1
:082CB100A429F5838882222288
:0D200600758113122CD5E5826003022003C2
:102CB90020F71430F6148883A88220F507E6A88344
:102CC90075830022E280F7E49322E02275820022D4
:00000001FF
