:10206500AF83E582900100F0EFA3F0900102E4F068
:10207500A3F0A3F0A3F0900100E0FEA3E0FF90031E
:10208500A3EEF0EFA3F09003E8C007C006123D0EE3
:10209500AC82AD83D006D007900102E0F8A3E0F949
:1020A500A3E0FAA3E0FBC006C0077E007F00C3E8FB
:1020B5009CE99DEA9EEB9FD007D006502390010234
:1020C500E0FAA3E0FBA3E0FCA3E0FD9001027401AC
:1020D5002AF0E43BA3F0E43CA3F0E43DA3F0809EAA
:1020E50022900383E4F075821F123595E58244083A
:1020F500FF90037A741FF090037BEFF07582000266
:10210500341FAF83E582900108F0EFA3F09001083A
:10211500E0FEA3E0FF8E0590037A7404F090037B44
:10212500EDF0758200C007C00612341FD006D00737
:102135008F0690037A7405F090037BEEF0758200AC
:1021450012341F900106E0FEA3E0FF8E0590037A8E
:102155007406F090037BEDF0758200C007C006128F
:10216500341FD006D0078F0690037A7407F09003CA
:102175007BEEF075820002341FAF83E58290010A81
:10218500F0EFA3F090010AE0FEA3E0FF7C007D00E4
:10219500C3EC9EED9F5041900383E4F075821FC010
:1021A50007C006C005C004123595E582D004D005E8
:1021B500D006D00720E30475820122900001C007F4
:1021C500C006C005C004122065D004D005D006D0D5
:1021D500070CBC00BB0D80B875820022900383E418
:1021E500F075821D123595E582035401B401009204
:1021F50000E433F5822290010C7402F090010D7415
:1022050011F090010E23F090010F7433F09001103E
:102215007444F09001117455F090011274F8F09027
:1022250001137475F090011474A4F0900115748C69
:10223500F09001167441F09001177431F090011877
:1022450074C0F090011974A8F090011A7401F0900F
:10225500011B7464F090011C74C0F090011D74A8FA
:10226500F090011E7401F090011FF0900120740E92
:10227500F07E007F00C3EE9406EF648094805048A2
:102285008E05ED04FC3395E0FBEC2420FCEB3401DA
:10229500FBEE2412F582EF3401F583E08C828B830B
:1022A500F074072DFD3395E0FCED2420FDEC3401A1
:1022B500FCEE240CF582EF3401F583E08D828C83EE
:1022C500F00EBE00B00F80AD90012D7408F09001A6
:1022D5002E7406F090012FE4F090013004F0900187
:1022E500317408F0900132E4F09001337406F090F7
:1022F50001347404F0900135E4F090013604F07E69
:10230500007F00C3EE9406EF6480948050298E050B
:1023150074172DFD3395E0FCED2420FDEC3401FC14
:10232500EE240CF582EF3401F583E08D828C83F089
:102335000EBE00CF0F80CC7E007F00C3EE9404EF6D
:102345006480948050298E05741D2DFD3395E0FC25
:10235500ED2420FDEC3401FCEE2418F582EF340168
:10236500F583E08D828C83F00EBE00CF0F80CC7F8D
:1023750000BF060050198F0674212EFE3395E0FD2F
:10238500EE2420F582ED3401F583E4F00F80E27E42
:10239500007F00C3EE9404EF6480948050298E057D
:1023A50074272DFD3395E0FCED2420FDEC3401FC74
:1023B500EE241CF582EF3401F583E08D828C83F0E9
:1023C5000EBE00CF0F80CC900394E4F0A3F09003F1
:1023D500967420F07401A3F0E4A3F090002C123958
:1023E5009B900106742BF0E4A3F0900000122107E6
:1023F5001220E69001F412217EE58260331221E17C
:10240500E582601674F9C0E07447C0E07480C0E0EE
:10241500123D7C15811581158122741AC0E074481E
:10242500C0E07480C0E0123D7C15811581158122C4
:102435007448C0E07448C0E07480C0E0123D7C156B
:10244500811581158122C021C0E0C0F0C082C08302
:10245500C007C006C005C004C003C002C001C0005B
:10246500C0D075D000900383E4F075821C123595B9
:10247500748BC0E07448C0E07480C0E0123D7C15E8
:102485008115811581D0D0D000D001D002D003D0E4
:1024950004D005D006D007D083D082D0F0D0E0D0CC
:1024A5002132AF83E58290014DF0EFA3F090014D0D
:1024B500E0FEA3E0FFC374FF9E741F9F40159001CB
:1024C5004BE0FCA3E0FD8C028D03C374FF9A741FDF
:1024D5009B502A90014BE0C0E0A3E0C0E090014D85
:1024E500E0C0E0A3E0C0E074B2C0E07448C0E074AE
:1024F50080C0E0123D7CE58124F9F581225306FE7A
:1025050090014DEEF0EFA3F090014DE0FEA3E0FF4A
:102515008E0390037AE4F090037BEBF0758200C0A4
:1025250007C006C005C004C00312341FD003D00481
:10253500D005D006D0078F0290037A7401F090037E
:102545007BEAF0758200C007C006C005C004C00361
:10255500C00212341FD002D003D004D005D006D05B
:102565000790037A7408F090037BEBF0758200C046
:1025750007C006C005C004C003C00212341FD00244
:10258500D003D004D005D006D00790037A7409F0A3
:1025950090037BEAF0758200C007C006C005C00441
:1025A500C003C00212341FD002D003D004D005D01E
:1025B50006D0078C0190037A740AF090037BE9F04A
:1025C500758200C007C006C005C004C003C0021262
:1025D500341FD002D003D004D005D006D0078D011A
:1025E50090037A740BF090037BE9F0758200C007C5
:1025F500C006C005C004C003C00212341FD002D0FB
:1026050003D004D005D006D00790037A740CF0905F
:10261500037BEBF0758200C007C006C005C004C08F
:102625000212341FD002D004D005D006D007900383
:102635007A740DF090037BEAF0758200C007C0063E
:10264500C005C00412341FD004D005D006D007C081
:1026550004C005C006C00774E3C0E07448C0E07458
:1026650080C0E0123D7CE58124F9F58122AFF0AE12
:1026750083E58290014FF0EEA3F0EFA3F0123499B9
:10268500900383E4F075821D123595E58230E0F004
:1026950090014B74FFF0741FA3F09008001224A75B
:1026A50090037A7402F090037B7470F075820212C5
:1026B500341F90037A7403F090037B7440F07582A5
:1026C5000212341F90037A740AF090037B74EEF0C3
:1026D50075820212341F90037A740BF090037B7499
:1026E50005F075820212341F90037A7404F090038A
:1026F5007B7412F075820212341F90037A7406F00F
:1027050090037B7412F075820212341F90037A7461
:1027150007F090037B740CF075820212341F900150
:102725004FE0FDA3E0FEA3E0FF74052DF508E43EB0
:10273500F5098F0A850882850983850AF012479E67
:10274500F990037A7401F090037BE9F0758203C078
:1027550007C006C00512341FD005D006D007740483
:102765002DF50BE43EF50C8F0D850B82850C8385CD
:102775000DF012479EFB90037AE4F090037BEBF09B
:10278500758203C007C006C00512341FD005D006E8
:10279500D00774032DF50EE43EF50F8F10850E82DC
:1027A500850F838510F012479EF990037A7403F024
:1027B50090037BE9F0758203C007C006C00512349B
:1027C5001FD005D006D00774022DF511E43EF51291
:1027D5008F138511828512838513F012479EFB9016
:1027E500037A7402F090037BEBF0758203C007C097
:1027F50006C00512341FD005D006D00774012DFA86
:10280500E43EFB8F048A828B838CF012479EF990FD
:10281500037A7405F090037BE9F0758203C007C065
:1028250006C005C004C003C00212341FD002D00385
:10283500D004D005D006D0078D828E838FF0124745
:102845009EF990037A7404F090037BE9F075820396
:10285500C007C006C005C004C003C00212341FD0A3
:1028650002D003D004D005D006D00790037A74189F
:10287500F090037B7480F0758201C007C006C00527
:10288500C004C003C00212341FD002D003D004D04C
:1028950005D006D0079003837402F0758203C00744
:1028A500C006C005C004C003C002123595E582D03C
:1028B50002D003D004D005D006D0074401F9900317
:1028C5007A7403F090037BE9F0758202C007C006B5
:1028D500C005C004C003C00212341FD002D003D00B
:1028E50004D005D006D0079003837402F0758200EA
:1028F500C007C006C005C004C003C002123595E577
:1029050082D002D003D004D005D006D0074401F907
:1029150090037AE4F090037BE9F0758202C007C06A
:1029250006C005C004C003C00212341FD002D00384
:10293500D004D005D006D007900380E4F004A3F0BE
:10294500758200C007C006C005C004C003C00212DE
:102955003512D002D003D004D005D006D00790039D
:10296500807422F07434A3F0758214C007C006C0C9
:1029750005C004C003C002123512D002D003D00432
:10298500D005D006D00790037A741FF090037B74AE
:1029950004F0758200C007C006C005C004C003C0AE
:1029A5000212341F7412C0E07449C0E07480C0E0A4
:1029B500123D7C158115811581D002D003D004D03C
:1029C50005D006D007850882850983850AF0124758
:1029D5009EF98908750900850B82850C83850DF0A4
:1029E50012479EF9890B750C00850E82850F83852C
:1029F50010F012479EF9890E750F00851182851218
:102A0500838513F012479EF879008A828B838CF0B8
:102A150012479EFA7C008D828E838FF012479EFDB1
:102A25007F00C008C009C00BC00CC00EC00FC0009D
:102A3500C001C002C004C005C0077436C0E07449B7
:102A4500C0E07480C0E0123D7CE58124F1F581226F
:1047BE000A496E76616C6964204275666665722080
:1047CE0053697A652E204275666665722065786338
:1047DE00656564732076616C6964206164647265DA
:1047EE0073732072616E67652E0A004152502072FB
:1047FE006571756573742073656E7420737563636C
:10480E0065737366756C6C792E0A0D0041525020DB
:10481E007472616E736D697373696F6E2066616910
:10482E006C65642E20436865636B206572726F72CF
:10483E0020666C6167732E0A0D005472616E736D83
:10484E00697373696F6E2074696D656F75742E2050
:10485E00454E4332384A3630206D6179206E6F7482
:10486E002062652066756E6374696F6E696E67206F
:10487E00636F72726563746C792E0A0D00496E74E3
:10488E0065727272727272727275757575757575F2
:10489E0075757070707070707070747474747474E8
:1048AE00740A0D000A496E76616C69642042756661
:1048BE006665722052616E67653A20537461727438
:1048CE00203078253034582C20456E6420307825E1
:1048DE003034580A000A42756666657220496E6960
:1048EE007469616C697A65643A20537461727420DC
:1048FE003078253034582C20456E642030782530A1
:10490E0034580A000A454E4332384A363020496E32
:10491E00697469616C697A6174696F6E20436F6D39
:10492E00706C6574652E0A004D41432041646472BB
:10493E006573733A20253032583A253032583A256D
:10494E003032583A253032583A253032583A2530DE
:04495E0032580A00C1
:0620000002200902244B3E
:0320620002200653
:03200600022C9316
:102A5500AFF0AE83E582900152F0EEA3F0EFA3F064
:102A6500900155E4F0A3F0900152E0FDA3E0FEA330
:102A7500E0FF8D028E038F048D228E238F24780034
:102A85007900C002C003C004E82522FAE93523FB1A
:102A9500AC248A828B838CF012479EF525D004D016
:102AA50003D002E5257003022C03C002C003C00455
:102AB500852526752700900157E526F0E527A3F023
:102AC500900155E0FBA3E0C454F0CBC4CB6BCB54D1
:102AD500F0CB6BFC900155EBF0ECA3F0C3E526942D
:102AE50030E52764809480D004D003D002403F7441
:102AF50039952674808527F063F08095F0402FC0C6
:102B050002C003C004E52624D0F526E52734FFF5E9
:102B150027900155E0FAA3E0FC900155E5262AF03F
:102B2500E5273CA3F0D004D003D002022BFB900193
:102B350057E0F526A3E0F527C3E5269441E527648C
:102B4500809480404E7446952674808527F063F006
:102B55008095F0403EC005C006C007E82AFDE93B68
:102B6500FE8C078D828E838FF012479E7F0024C9CD
:102B7500F526EF34FFF527900155E0FEA3E0FF9021
:102B85000155E5262EF0E5273FA3F0D007D006D066
:102B9500058063900157E0F526A3E0F527C3E526F8
:102BA5009461E52764809480404C74669526748012
:102BB5008527F063F08095F0403CC002C003C00457
:102BC500E82DFAE93EFB8F048A828B838CF012474D
:102BD5009E7C0024A9F526EC34FFF527900155E0ED
:102BE500FBA3E0FC900155E5262BF0E5273CA3F07F
:102BF500D004D003D00208B8000109022A87900149
:102C050055E0FEA3E08E82F583227E007F00C0079B
:102C1500C006123B66AC82D006D007BC0A02803AD9
:102C2500BC0D028035C3EE9409EF64809480502A70
:102C35008C037D008B828D83C007C006C004123BC8
:102C450047D004D006D007EE2459F582EF3401F5BC
:102C550083ECF00EBE00B70F80B4EE2459F582EF79
:102C65003401F583E4F0900159F5F0122A55AE824E
:102C7500AF83C007C0067462C0E07449C0E0123C6F
:102C85000515811581D006D0078E828F832290018C
:102C9500637402F09001647411F090016523F09063
:102CA50001667433F09001677444F09001687455BF
:102CB500F090016974F8F090016A7475F090016BF9
:102CC50074A4F090016C748CF090016D7441F090D7
:102CD500016E7431F090016F74C0F090017074A8AA
:102CE500F09001717401F09001727464F0900173B9
:102CF50074C0F090017474A8F09001757401F0909F
:102D05000176F07465C0E07449C0E07480C0E012DB
:102D15003D7C15811581158112347B90016375F019
:102D250000122672747EC0E07449C0E07480C0E071
:102D3500123D7C1581158115817495C0E07449C0DB
:102D4500E07480C0E0123D7C15811581158174AB5E
:102D5500C0E07449C0E07480C0E0123D7C15811567
:102D650081158174C0C0E07449C0E07480C0E01270
:102D75003D7C15811581158174D4C0E07449C0E08E
:102D85007480C0E0123D7C15811581158174EEC0FB
:102D9500E07449C0E07480C0E0123D7C1581158166
:102DA50015817404C0E0744AC0E07480C0E0123D2F
:102DB5007C1581158115817419C0E0744AC0E074D1
:102DC50080C0E0123D7C158115811581742BC0E012
:102DD500744AC0E07480C0E0123D7C1581158115F0
:102DE500817445C0E0744AC0E07480C0E0123D7C47
:102DF500158115811581745AC0E0744AC0E074804C
:102E0500C0E0123D7C1581158115817473C0E07495
:102E15004AC0E07480C0E0123D7C158115811581A2
:102E2500748BC0E0744AC0E07480C0E0123D7C152C
:102E35008115811581123B66AE828E057F008D82DC
:102E45008F83C006123B477462C0E07449C0E074CA
:102E550080C0E0123D7C158115811581D006BE31FB
:102E65000050030232ECEE24BC50030232ECEE2497
:102E7500CFFE240A83F582EE241783F583E473AA33
:102E850012106FD13C7792F4ECECECECECECECB47A
:102E950029BA2E2F3030303131313132323232329F
:102EA5003232322D3274AAC0E0744AC0E07480C058
:102EB500E0123D7C158115811581122C0FAE82C063
:102EC5000674CFC0E0744AC0E07480C0E0123D7C57
:102ED500158115811581122C0FAD82C00574FCC0BA
:102EE500E0744AC0E07480C0E0123D7C1581158114
:102EF5001581122C0FAC82D005D00690037AEDF027
:102F050090037BECF08E8212341F022D297420C0B1
:102F1500E0744BC0E07480C0E0123D7C15811581E2
:102F25001581122C0FAE82AF83C007C0067446C050
:102F3500E0744BC0E07480C0E0123D7C15811581C2
:102F45001581122C0FAC82AD83D006D007C007C007
:102F550006C005C004C006C0077464C0E0744BC059
:102F6500E07480C0E0123D7CE58124FBF581D0044E
:102F7500D005D006D0077A007B00C3EA9EEB6480BB
:102F85008FF063F08095F05063C004C005C007C0A2
:102F950006C005C004C003C002C002C0037487C0D8
:102FA500E0744BC0E07480C0E0123D7CE58124FBF9
:102FB500F581D002D003D004D005EA2477F8EB34AC
:102FC50001F9C003C002C001C000122C0FAC82D0B1
:102FD50000D001D002D003D006D00788828983ECC7
:102FE500F00ABA00010BD005D004808E900394EC52
:102FF500F0EDA3F09003967477F07401A3F0E4A3C9
:10300500F08E828F8312399B022D297491C0E07452
:103015004BC0E07480C0E0123D7C1581158115819F
:10302500122C0FAE82AF83C007C0067446C0E07491
:103035004BC0E07480C0E0123D7C1581158115817F
:10304500122C0FAC82AD83D006D00790038BECF029
:10305500EDA3F090038D7477F07402A3F0E4A3F070
:103065008E828F831237FA022D2974B6C0E0744B15
:10307500C0E07480C0E0123D7C1581158115811278
:103085002C0FAE82C00674DFC0E0744BC0E07480C4
:10309500C0E0123D7C158115811581122C0FAD8282
:1030A500D006900383EEF08D82123595AF827E00B7
:1030B500C007C0067408C0E0744CC0E07480C0E06E
:1030C500123D7CE58124FBF581022D297424C0E0A5
:1030D500744CC0E07480C0E0123D7C1581158115EB
:1030E50081122C0FAE82C0067446C0E0744CC0E05D
:1030F5007480C0E0123D7C158115811581122C0F5D
:10310500AD82AF83D006900380EDF0EFA3F08E8201
:10311500C007C005123512D005D007C005C0077419
:1031250068C0E0744CC0E07480C0E0123D7CE5816D
:1031350024FBF581022D297481C0E0744CC0E07434
:1031450080C0E0123D7C158115811581122C0F126E
:103155003603AE82AF83C006C00774ABC0E0744CC3
:10316500C0E07480C0E0123D7CE58124FBF581025E
:103175002D2974C3C0E0744CC0E07480C0E0123DDA
:103185007C158115811581123499022D2974DBC0B6
:10319500E0744CC0E07480C0E0123D7C158115815F
:1031A5001581122C0FAE82C0067405C0E0744DC0A7
:1031B500E07480C0E0123D7C158115811581122CCB
:1031C5000FAD82D00690037EEDF08E821234A4AF4F
:1031D500827E00C007C0067420C0E0744DC0E07454
:1031E50080C0E0123D7CE58124FBF581022D297428
:1031F5007EC0E07449C0E07480C0E0123D7C15815A
:10320500158115817495C0E07449C0E07480C0E0F3
:10321500123D7C15811581158174ABC0E07449C0E0
:10322500E07480C0E0123D7C15811581158174C064
:10323500C0E07449C0E07480C0E0123D7C15811582
:1032450081158174D4C0E07449C0E07480C0E01277
:103255003D7C15811581158174EEC0E07449C0E08F
:103265007480C0E0123D7C1581158115817404C000
:10327500E0744AC0E07480C0E0123D7C1581158180
:1032850015817419C0E0744AC0E07480C0E0123D35
:103295007C158115811581742BC0E0744AC0E074DA
:1032A50080C0E0123D7C158115811581022D291202
:1032B50021FB022D29743CC0E0744DC0E07480C030
:1032C500E0123D7C158115811581C2907E007F003D
:1032D500C3EE9470EF6480949750070EBE00F10F13
:1032E50080EED290022D29746FC0E0744DC0E07459
:0F32F50080C0E0123D7C158115811581022D29C5
:104962000A0D00535049204F7065726174696F6E71
:1049720073206F6E20383035310A0D000A0D4368FE
:104982006F6F736520616E20616374696F6E3A2088
:104992000A0D0031202D2D3E20436F6E74726F6C14
:1049A2002057726974650A0D0032202D2D3E204277
:1049B20075666665722057726974650A0D00332048
:1049C2002D2D3E2042756666657220526561640A2D
:1049D2000D0034202D2D3E204D4143205265676944
:1049E2007374657220526561640A0D0035202D2DA5
:1049F2003E20504859205350492057726974650A25
:104A02000D0036202D2D3E2050485920535049206C
:104A1200526561640A0D0037202D2D3E20454E431C
:104A22002052657365740A0D0038202D2D3E2052E8
:104A320065616420455448205265676973746572E4
:104A42000A0D0039202D2D3E20446973706C617966
:104A5200204D656E750A0D0041202D2D3E205365B7
:104A62006E642041525020526571756573740A0D4F
:104A72000042202D2D3E20496E697420525820623A
:104A82007566666572730A0D0043202D2D3E20481F
:104A9200617264205265736574286E5245534554A1
:104AA2002070696E290A0D00456E74657220746863
:104AB200652072656769737465722062616E6B202E
:104AC200746F2073656C6563743A0A0D00456E74E9
:104AD2006572207468652061646472657373206F07
:104AE200662074686520436F6E74726F6C20526525
:104AF2006769737465723A0A0D00456E74657220B7
:104B0200746865206461746120796F752077616EC5
:104B12007420746F2077726974653A0A0D00456ECD
:104B220074657220746865206E756D626572206F9F
:104B32006620627974657320746F20777269746578
:104B42003A0A0D00456E74657220746865207374AC
:104B5200617274696E6720616464726573733A0A84
:104B62000D00456E74657220256420627974657348
:104B7200206F6620646174612028696E2068657800
:104B8200293A0A0D00427974652025643A200045CD
:104B92006E74657220746865206E756D6265722030
:104BA2006F6620627974657320746F207265616428
:104BB2003A0A0D00456E74657220746865204D4195
:104BC200432072656769737465722062616E6B203F
:104BD200746F2073656C6563743A0A0D00456E74D8
:104BE2006572207468652061646472657373206FF6
:104BF2006620746865204D4143205265676973746D
:104C020065723A0A0D004D4143205265676973741B
:104C1200657220446174613A203078253032580A36
:104C22000D00456E746572207468652050485920E5
:104C32007265676973746572206164647265737307
:104C42003A0A0D00456E746572207468652031362B
:104C52002D626974206461746120746F20777269B7
:104C620074653A0A0D0050485920577269746520DC
:104C7200446174613A203078253034580A0D004579
:104C82006E74657220746865205048592072656799
:104C92006973746572206164647265737320746FE2
:104CA20020726561643A0A0D0050485920526561CC
:104CB2006420446174613A203078253034580A0DFA
:104CC20000526573657474696E6720454E433238CD
:104CD2004A36302E2E2E0A0D00456E7465722074EF
:104CE200686520455448207265676973746572204F
:104CF2006164647265737320746F20726561643AD3
:104D02000A0D00456E746572207468652062616EDA
:104D12006B202830206F722031293A0A0D00455449
:104D22004820526567697374657220446174613A00
:104D3200203078253032580A0D0020526573657490
:104D420074696E6720454E43207573696E67205201
:104D5200455345542070696E20696E204861726423
:104D6200776172652850315F30290A0D00496E76ED
:104D7200616C6964206F7074696F6E2E20506C656F
:104D82006173652073656C65637420612076616C64
:0D4D9200696420616374696F6E2E0A0D0064
:104FDB00021122334455F875A48C4131C0A80164E9
:044FEB00C0A8010158
:1033040075825F12348A75820212348A758254126D
:10331400348A75821412348A75825612348A7582FC
:103324000012348A75825712348A75820A02348AEA
:1033340022C29175825F12348A75820212348AD253
:1033440091C29175825412348A75821412348AD2CD
:1033540091C29175825612348A7582A812348AD227
:1033640091C29175825712348A75823A12348AD284
:1033740091222275C5FFE5C430E7FB900377E5C5CC
:10338400F0E0F58222C29175825E12348A758280E1
:1033940012348AD29122E582900378F0C291758228
:1033A4001F12348A123377AF82D2915307FC9003F1
:1033B40078E0FE24FC4030EE2E9033C1738006800A
:1033C4000B80128019900379EFF0803190037974A7
:1033D400014FF0802890037974024FF0801F90030E
:1033E4007974034FF08016749FC0E0744DC0E0748C
:1033F40080C0E0123D7C158115811581227F00BFBC
:10340400100050030F80F8C29175825F12348A90C5
:103414000379E0F58212348AD29122E58290037C0A
:10342400F090037AE02440F090037CE0F5821233BC
:103434009AC29190037AE0FFF582C00712348AD0D1
:103444000790037BE0FEF582C007C00612348AD0E1
:1034540006D007D2917D007C00C006C005C007C01D
:103464000474AAC0E0744DC0E07480C0E0123D7CD6
:10347400E58124F9F58122D29175C30043C3204329
:10348400C31043C34022E58290037DF0E0F5C5E517
:10349400C430E7FB22C2917582FF12348AD2912292
:1034A400E58290037FF0E0FF24E0501974CFC0E080
:1034B400744DC0E07480C0E0123D7C158115811507
:1034C400817582002290037EE0F582C00712339A50
:1034D400D007C2918F82C00712348A123377AE822A
:1034E400D007D2918E047D007B00C006C004C005C5
:1034F400C007C0037409C0E0744EC0E07480C0E02B
:10350400123D7CE58124F9F581D0068E8222E58284
:10351400900382F0E0FF90037A7414F090037BEF41
:10352400F0758202C00712341FD007900380E0FDBB
:10353400A3E0FE8D0490037A7416F090037BECF004
:10354400758202C007C006C00512341FD005D0061C
:10355400D0078E0490037A7417F090037BECF07517
:103564008202C007C006C00512341FD005D006D0A1
:10357400077C00C005C006C007C004742DC0E074F9
:103584004EC0E07480C0E0123D7CE58124F9F581F1
:1035940022E582900384F0E0FF24E0501974CFC048
:1035A400E0744DC0E07480C0E0123D7C158115814B
:1035B400158175820022900383E0F582C0071233DF
:1035C4009AD007C2918F82C00712348A123377AE21
:1035D40082D007D2918E047D007B00C006C004C057
:1035E40005C007C0037456C0E0744EC0E07480C0C8
:1035F400E0123D7CE58124F9F581D0068E8222E536
:1036040082900385F0E0FF90037A7414F090037BBA
:10361400EFF0758202C00712341FD00790037A744A
:1036240012F090037B7401F0758202C00712341FFC
:103634001236B0D00790037A7412F090037BE4F052
:10364400758202C00712341FD0079003837402F0FE
:10365400758218C007123595AE82D0077D0090039D
:10366400837402F0758219C007C006C0051235952F
:10367400AC82D005D006D0078C03E44206EB4205A9
:103684007C00C006C005C006C005C007C00474792C
:10369400C0E0744EC0E07480C0E0123D7CE581243B
:1036A400F9F581D005D0068E828D83229003837430
:1036B40003F075820A123595E582900386F0900333
:1036C40086E030E0149003837403F075820A1235A7
:1036D40095E582900386F080E522AF83E58290032E
:1036E40089F0EFA3F0900389E0FEA3E0FF8E048F3E
:1036F40005C374FF9C741F9D4017900387E0FAA3D1
:10370400E0FBEA2EF8EB3FF9C374FF98741F99505D
:103714002A900387E0C0E0A3E0C0E0900389E0C002
:10372400E0A3E0C0E074A1C0E0744EC0E07480C0C7
:10373400E0123D7CE58124F9F581225304FEEA2E52
:10374400FEEB3FFF1EBEFF011F5306FE8D039003D9
:103754007A7408F090037BEBF0758200C007C00612
:10376400C005C00412341FD004D005D006D0078C85
:103774000390037A7409F090037BEBF0758200C028
:1037840007C006C005C00412341FD004D005D006FB
:10379400D0078F0390037A740AF090037BEBF075E3
:1037A4008200C007C006C005C00412341FD004D074
:1037B40005D006D0078E0390037A740BF090037B38
:1037C400EBF0758200C007C006C005C00412341FA8
:1037D400D004D005D006D007C006C007C004C00579
:1037E40074DFC0E0744EC0E07480C0E0123D7CE53C
:1037F4008124F9F58122AF83E582900390F0EFA351
:10380400F0900390E0FEA3E0FFC3EE9401EF648028
:103814009480501AC006C0077410C0E0744FC0E012
:103824007480C0E0123D7CE58124FBF58122900385
:103834008BE0FCA3E0FD8C028D03C374FF9A741F1C
:103844009B501AC004C0057430C0E0744FC0E074CB
:1038540080C0E0123D7CE58124FBF58122C3740124
:103864009E74808FF063F08095F0500BC005C00407
:10387400123389D004D0058D078C0690037A740125
:10388400F090037BEFF0758200C006C005C00412FF
:10389400341FD004D005D00690037AE4F090037B63
:1038A400EEF0758200C005C00412341FC291758207
:1038B4003A12348AD004D005900390E0FEA3E0FFCE
:1038C400C007C006C004C005C006C007744AC0E0F3
:1038D400744FC0E07480C0E0123D7CE58124F9F5AA
:1038E40081D006D007900392E4F0A3F090038DE01A
:1038F400FBA3E0FCA3E0FD900392E0F9A3E0FAC38C
:10390400E99EEA64808FF063F08095F04003023909
:1039140098C006C007C007C006C005C004C003C0E5
:1039240002C001123377A882D001D002D003D004A0
:10393400D005D006D0078B828C838DF0E8123BEA49
:10394400A3AB82AC837F0009B900010AC007C0069B
:10395400C005C004C003C002C001C000C007C0014C
:10396400C0027485C0E0744FC0E07480C0E0123DB2
:103974007CE58124F9F581D001D002D003D004D0B4
:1039840005D006D007900392E9F0EAA3F0D007D05F
:10399400060238FBD29122AF83E582900399F0EFBF
:1039A400A3F0900399E0FEA3E0FFC3EE9401EF645B
:1039B400809480501AC006C0077410C0E0744FC0D1
:1039C400E07480C0E0123D7CE58124FBF581229007
:1039D4000394E0FCA3E0FD8C028D03C374FF9A748E
:1039E4001F9B501AC004C0057430C0E0744FC0E07F
:1039F4007480C0E0123D7CE58124FBF58122C37410
:103A0400019E74808FF063F08095F0500BC005C068
:103A140004123389D004D0058D078C0690037A7480
:103A240003F090037BEFF0758200C006C005C0046C
:103A340012341FD004D005D00690037A7402F0909B
:103A4400037BEEF0758200C005C00412341FC291DE
:103A540075827A12348AD004D005900399E0FEA3CB
:103A6400E0FFC007C006C004C005C006C0077497C5
:103A7400C0E0744FC0E07480C0E0123D7CE5812456
:103A8400F9F581D006D00790039BE4F0A3F09003EE
:103A940096E0FBA3E0FCA3E0FD90039BE0F9A3E028
:103AA400FAC3E99EEA64808FF063F08095F04003E6
:103AB400023B44C006C0078B828C838DF012479E64
:103AC400F87F0009B900010AC007C006C005C00498
:103AD400C003C002C001C000C007C001C002748599
:103AE400C0E0744FC0E07480C0E0123D7CE58124E6
:103AF400F9F581D001D002D003D004D005D006D08E
:103B0400078B828C838DF012479EFFA3AB82AC831C
:103B14008F82C007C006C005C004C003C002C00134
:103B240012348AD001D002D003D004D005D006D0FC
:103B34000790039BE9F0EAA3F0D007D006023A9D70
:033B4400D29122F9
:104D9F0077726F6E672062616E6B00577269746510
:104DAF003A2041646472657373203078253032582D
:104DBF002C2044617461203078253032580A0D0060
:104DCF000A0D496E76616C69642061646472657363
:104DDF00733A204D41432072656769737465722081
:104DEF00616464726573732072616E6765205B30F6
:104DFF002C20307831465D0A0D00526561643A20EF
:104E0F0041646472657373203078253032582C20DA
:104E1F0044617461203078253032580A0D005048B3
:104E2F00592057726974653A2041646472657373CF
:104E3F00203078253032582C20446174612030782E
:104E4F00253034580A0D00526561643A204164647C
:104E5F0072657373203078253032582C204461747A
:104E6F0061203078253032580A0050485920526559
:104E7F0061643A2041646472657373203078253021
:104E8F0032582C2044617461203078253034580A10
:104E9F000D000A0D496E76616C6964204275666675
:104EAF0065722041646472657373206F7220536959
:104EBF007A653A20537461727420307825303458F3
:104ECF002C2053697A65203078253034580A0D002C
:104EDF000A0D42756666657220496E697469616C68
:104EEF00697A65643A205374617274203078253082
:104EFF0034582C20456E64203078253034580A0DF4
:104F0F00000A0D496E76616C6964206E756D62657D
:104F1F0072206F662062797465733A2025640A0DDA
:104F2F00000A0D496E76616C696420616464726574
:104F3F0073733A20253034580A0D00526561646945
:104F4F006E672025642062797465732066726F6DB9
:104F5F0020627566666572207374617274696E671C
:104F6F00206174206164647265737320307825301A
:104F7F0034583A0A0D00427974652025643A20307E
:104F8F0078253032580A0D0057726974696E6720A0
:104F9F00256420627974657320746F20627566666C
:104FAF006572207374617274696E67206174206119
:104FBF00646472657373203078253034583A0A0D63
:014FCF0000E1
:103B4700AF83E58290039DF0EFA3F03099FD9003DA
:103B57009DE0FEA3E0FF8E99C2998E828F8322108B
:103B6700980280FBAE997F008E828F8322AFF0AEE2
:103B770083E58290039FF0EEA3F0EFA3F090039FFD
:103B8700E0FDA3E0FEA3E0FF7B007C008D828E8337
:103B97008FF012479EFA60360DBD00010E90039F0D
:103BA700EDF0EEA3F0EFA3F08A017A0089828A8311
:103BB700C007C006C005C004C003123B47D003D0EE
:103BC70004D005D006D0070BBB00C10C80BE900304
:103BD7009FEDF0EEA3F0EFA3F00BBB00010C8B827F
:033BE7008C8322AA
:06203800E478FFF6D8FD7C
:102016007914E94400601B7A01904FDB78DC75A0E7
:1020260003E493F2A308B8000205A0D9F4DAF27526
:02203600A0FF09
:103BEA0020F71130F6138883A88220F509F6A883F6
:103BFA007583002280FEF280F5F022C014858114BC
:103C0A00E51424FDF8868318868218E493A324DB3E
:103C1A00600C24256005123CF380F0023D0BD2D5DE
:103C2A00E493A3C083C082B4731486F01886831801
:103C3A0086821812479E6054A3123CF380F5B4633F
:103C4A000818E618123CF38043B46417E630E746D6
:103C5A0018E6F42401F608E6F43400F6742D123C52
:103C6A00F38033B4782D868318868218E4123CE4F4
:103C7A00E583123CE3E583123CE4E582123CE3E58A
:103C8A0082123CE430D5057430123CF3D082D083E2
:103C9A00023C15B475F6E6FA18E6F9187C107D2789
:103CAA00123CCEFF7CE87D03123CCEC4F5837C64D3
:103CBA007D00123CCE4283E975F00A84C445F0F5D2
:103CCA0082EF80A97B000BC3E99CF9EA9DFA50F6C2
:103CDA001BE92CF9EA3DFAEB22C4540F700320D5F4
:103CEA001FC2D52490D43440D4C083C082C0F0F51A
:103CFA0082E8C0E0123B47D0E0F8D0F0D082D0830F
:103D0A0022D01422AA83AB828BF09003A3E0A4F8FA
:103D1A00A9F08AF0E0A429F98BF0A3E0A429F5839D
:043D2A008882222247
:10203E007800E84400600A790075A001E4F309D83D
:10204E00FC78DCE84402600C7903900100E4F0A314
:04205E00D8FCD9FAD7
:103D2E00C0148581147E008E83123B47D01422AFBF
:103D3E00F0AE83E5829003A6F0EEA3F0EFA3F09031
:103D4E0003A6E0FDA3E0FEA3E0FF9003A5E0FC9038
:103D5E0003BAE4F0A3F0A3F09003BDEDF0EEA3F0F0
:103D6E00EFA3F09003C0ECF0903D2E023E82C01403
:103D7E00E581F51424FBFF9003BAE4F0A3F0A3F061
:103D8E00E51424FBF89003BDE6F008E6A3F008E680
:103D9E00A3F09003C0EFF0903D2E123E82D014227D
:103DAE00E5829003B6F0E0FF9003ACE0C0E0A3E044
:103DBE00C0E0A3E0C0E0123DC9800D9003AAE0C0B0
:103DCE00E0A3E0C0E08F822215811581158190035A
:103DDE00B4E02401F0A3E03400F022E5829003B7B2
:103DEE00F0E02430FF24C6500D74072FFF9003A976
:103DFE00E060034307208F82023DAEE5829003B858
:103E0E00F0E0FFC4540FF582C007123DE9D007530E
:103E1E00070F8F82023DE9E5829003B9F09003AF60
:103E2E00E0FCA3E0FDA3E0FEA3E0FF9003B3E0FB04
:103E3E009003B9E0FA79208B00E828F522EF23549D
:103E4E00014522FBEC2CFCED33FDEE33FEEF33FF90
:103E5E00C3EB9A4007EBC39AFB43040119E970D7F1
:103E6E009003AFECF0EDA3F0EEA3F0EFA3F0900310
:103E7E00B3EBF022AF83E5829003C1F0EFA3F09095
:103E8E0003C1E0FEA3E0FF9003AAEEF0EFA3F090D3
:103E9E0003BAE0FDA3E0FEA3E0FF9003ACEDF0EE6D
:103EAE00A3F0EFA3F09003B4E4F0A3F09003BDE011
:103EBE00FDA3E0FEA3E0FF8D828E838FF012479E5E
:103ECE00FC9003BD74012DF0E43EA3F0EFA3F0ECE3
:103EDE00700302477ABC250280030247729003C327
:103EEE00E4F09003C4F09003C5F09003C6F0900385
:103EFE00C7F09003C8F09003C9F09003CAF0900386
:103F0E00CCF09003CDF0A3F09003CF14F0A3F0907B
:103F1E0003BDE0FDA3E0FEA3E0FF8D828E838FF054
:103F2E0012479EFBA3AD82AE839003BDEDF0EEA3D0
:103F3E00F0EFA3F09003D3EBF0BB25088B82123D7C
:103F4E00AE023EBABB3000500302401BEB24C650FB
:103F5E000302401B9003CFE0F515A3E0F51674FFA6
:103F6E00B51563B51660C005C006C0079003CDE059
:103F7E00FAA3E0FF9003A3EAF0EFA3F090000AC0CB
:103F8E0005C003123D0EAE82AF83D003D0058B0564
:103F9E007A00ED2EFEEA3FFFEE24D0FEEF34FFFF57
:103FAE009003CDEEF0EFA3F0D007D006D00590032E
:103FBE00CDE0F5F0A3E045F06003023F289003C486
:103FCE007401F0023F28C005C006C0079003A3E5A8
:103FDE0015F0E516A3F090000AC006C005C0031246
:103FEE003D0EAA82AF83D003D005D0067E00EB2A09
:103FFE00FAEE3FFFEA24D0FAEF34FFFF9003CFEA48
:10400E00F0EFA3F0D007D006D005023F289003D3DF
:10401E00E0FBBB2E2FC005C006C0079003CFE0FA11
:10402E00A3E0FFBAFF05BFFF028009D007D006D07C
:10403E0005023F28D007D006D0059003CFE4F0A3A9
:10404E00F0023F28BB61004014EB2485400F900323
:10405E00D374DF5BF09003A97401F080059003A97F
:10406E00E4F09003D3E0FBBB20028075BB2B0280F3
:10407E0067BB2D028059BB4202806FBB4302807C1E
:10408E00BB4403024312BB4603024338BB48030240
:10409E003F28BB4903024312BB4A03023F28BB4CD5
:1040AE00028050BB4F03024320BB5003024280BB31
:1040BE0053028077BB5403023F28BB5503024328AB
:1040CE00BB5803024330BB5A03023F2802434090C1
:1040DE0003C37401F0023F289003C57401F0023F40
:1040EE00289003C67401F0023F289003C87401F0B3
:1040FE00023F289003C97401F0023F289003C8E0E4
:10410E00600E9003C0E014F9F09003D3E7F0800F37
:10411E009003C0E024FEFFF08F019003D3E7F090F0
:10412E0003D3E0F582123DAE02434F9003C0E0246C
:10413E00FDFFF08F0187050987060987071919907A
:10414E0003AFEDF0EEA3F0EFA3F08D828E838FF030
:10415E001247868582158583169003CFE0FAA3E079
:10416E00FDBAFF0DBDFF0A9003CFE515F0E516A3CE
:10417E00F09003C3E0704B9003CDE0FAA3E0FDC3D3
:10418E00E5159AE5169D503A9003CDEAC39515F0C4
:10419E00ED9516A3F09003CDE0FAA3E0FD8A068D0F
:1041AE00071ABAFF011DEE4F6010758220C005C0C0
:1041BE0002123DAED002D00580E39003CDEAF0EDC1
:1041CE00A3F09003CFE0F518A3E0F5199003AFE04C
:1041DE00FAA3E0FDA3E0FF8A828D838FF012479E43
:1041EE00F517603CC3E4951874808519F063F08070
:1041FE0095F0502C151874FFB518021519851782F5
:10420E00123DAE9003AFE0FAA3E0FDA3E0FF0ABAC1
:10421E0000010D9003AFEAF0EDA3F0EFA3F080AC38
:10422E009003C3E0700302434F9003CDE0FEA3E082
:10423E00FFC3E5159EE5169F400302434F9003CD45
:10424E00EEC39515F0EF9516A3F09003CDE0FEA307
:10425E00E0FF8E028F051EBEFF011FEA4D700302A6
:10426E004347758220C007C006123DAED006D00768
:10427E0080E09003C0E024FDFDF08D01871A0987D0
:10428E001B09871C19199003AFE51AF0E51BA3F063
:10429E00E51CA3F09003B1E0FDBD80004008900343
:1042AE00D37443F08020BD600040089003D3745057
:1042BE00F08013BD400040089003D37449F080068F
:1042CE009003D37458F09003D3E0FDF582C005122D
:1042DE003DAE75823A123DAE758230123DAE75829C
:1042EE0078123DAED005BD4902800EBD5002800948
:1042FE009003B0E0F582123E099003AFE0F5821212
:10430E003E09803D9003C77401F09003CC740AF00F
:10431E00802F9003CC7408F080279003CC740AF0A1
:10432E00801F9003CC7410F080179003CA7401F0B4
:10433E00800F8B82123DAE80089003CDEEF0EFA37E
:10434E00F09003CAE060719003C0E024FCFFF08F90
:10435E000187030987050987060987071919199027
:10436E0003AFEBF0EDA3F0EEA3F0EFA3F09003AFED
:10437E0074D0F0744FA3F07480A3F09003AFE0F507
:10438E001AA3E0F51BA3E0F51C7401251AFAE43517
:10439E001BFBAF1C9003AFEAF0EBA3F0EFA3F0858D
:1043AE001A82851B83851CF012479EFF7003023E06
:1043BE00BA8F82123DAE80C39003CCE07003023EF2
:1043CE00BA9003C8E060479003C0E014F9F0870785
:1043DE007E007D007B009003AFEFF0EEA3F0EDA327
:1043EE00F0EBA3F09003C7E060030244929003AF9A
:1043FE00E0FBA3E0A3E0A3E07D007E007F0090033E
:10440E00AFEBF0EDA3F0EEA3F0EFA3F08076900308
:10441E00C9E060289003C0E024FCFFF08F01870301
:10442E000987050987060987071919199003AFEB44
:10443E00F0EDA3F0EEA3F0EFA3F080489003C0E000
:10444E0024FEFFF08F01870609870719EF3395E0E9
:10445E00FDFB9003AFEEF0EFA3F0EDA3F0EBA3F0B6
:10446E009003C7E0701E9003AFE0FBA3E0FDA3E056
:10447E00A3E07E007F009003AFEBF0EDA3F0EEA380
:10448E00F0EFA3F09003C7E0603D9003AFE0A3E030
:10449E00A3E0A3E030E72B9003AFE0FBA3E0FDA386
:1044AE00E0FEA3E0FFC3E49BFBE49DFDE49EFEE47F
:1044BE009FFF9003AFEBF0EDA3F0EEA3F0EFA3F0B0
:1044CE0080059003C7E4F09003CB7401F09003CC09
:1044DE00E0F518751DD9751E03E4F515F516900354
:1044EE00B3E4F0851882123E259003CBE070339032
:1044FE0003B3E0C454F0F51A9003B3E0C4540F456F
:10450E001AF51A851D82851E83E0FFE51A4207857E
:10451E001D82851E83EFF0151D74FFB51D02151E3D
:10452E00800B9003B3E0851D82851E83F00515E494
:10453E00B5150205169003CBE0B40100E433F090FC
:10454E0003AFE0FAA3E0FBA3E0FEA3E0FFEA4B4ECD
:10455E004F708B9003DAE51DF0E51EA3F09003D1AA
:10456E00E515F0E516A3F09003CDE0F5F0A3E045D8
:10457E00F070099003CD7401F0E4A3F09003C4E051
:10458E00FFE070479003C3E0704185151D85161E30
:10459E009003CDE0FAA3E0FBC007AF1D0F8F067F9F
:1045AE0000C3EE9AEF9BD0075019758220C007C04A
:1045BE0003C002123DAED002D003D0071ABAFF01DB
:1045CE001B80D59003CDEAF0EBA3F09003C7E0601B
:1045DE002075822DC007123DAED0079003CDE0248A
:1045EE00FFFDA3E034FFFE9003CDEDF0EEA3F080CF
:1045FE00569003D1E0F5F0A3E045F0604A9003C574
:10460E00E0602075822BC007123DAED0079003CD1F
:10461E00E024FFFDA3E034FFFE9003CDEDF0EEA30A
:10462E00F080249003C6E0601E758220C007123D04
:10463E00AED0079003CDE024FFFDA3E034FFFE9043
:10464E0003CDEDF0EEA3F09003C3E070449003D1E0
:10465E00E0F51DA3E0F51E9003CDE0FAA3E0FBC04C
:10466E00078A068B071ABAFF011BC3E51D9EE51EBE
:10467E009FD007504FEF60047E3080027E208E82E6
:10468E00C007C003C002123DAED002D003D00780D7
:10469E00CE9003CDE0FEA3E0FF9003D1E0F51DA385
:1046AE00E0F51EC3E51D9EE51E9F500F9003CDEE57
:1046BE00C3951DF0EF951EA3F080119003CDE4F08D
:1046CE00A3F080089003CDEAF0EBA3F09003DAE0BC
:1046DE00FEA3E0FF9003D1E0F51DA3E0F51EAA1D99
:1046EE00AD1E151D74FFB51D02151EEA4D604490DA
:1046FE0003CBE0B40100E433F09003CBE070130E73
:10470E00BE00010F8E828F83E0C4540F9003B3F06E
:10471E00800E8E828F83E0FD53050F9003B3EDF074
:10472E009003B3E0F582C007C006123DE9D006D073
:10473E000780AB9003C3E07003023EBA9003CDE056
:10474E00FEA3E0FF8E038F051EBEFF011FEB4D7013
:10475E0003023EBA758220C007C006123DAED006D7
:10476E00D00780E08C82123DAE023EBA9003B4E0D8
:08477E00FEA3E08E82F5832208
:0B4FD0003C4E4F20464C4F41543E0029
:10478600AA82AB8312479E6003A380F8C3E5829A90
:08479600F582E5839BF5832207
:0D2009007581271247BAE5826003022006A8
:10479E0020F71430F6148883A88220F507E6A88344
:1047AE0075830022E280F7E49322E02275820022D4
:00000001FF
