:0720900090014BE4F0A3F006
:2020AC00AF83E582900100F0EFA3F0900102E4F0A3F0A3F0A3F0900100E0FEA3E0FF9010C7
:2020CC0052EEF0EFA3F09003E8C007C0061262C9AC82AD83D006D007900102E0F8A3E0F90B
:2020EC00A3E0FAA3E0FBC006C0077E007F00C3E89CE99DEA9EEB9FD007D0065023900102BD
:20210C00E0FAA3E0FBA3E0FCA3E0FD90010274012AF0E43BA3F0E43CA3F0E43DA3F0809E03
:20212C002290038DE4F075821F123A96E5824408FF900384741FF0900385EFF07582000249
:20214C00397AAF83E582900108F0EFA3F0900108E0FEA3E0FF8E059003847404F0900385F9
:20216C00EDF0758200C007C00612397AD006D0078F069003847405F0900385EEF07582007E
:20218C0012397A900106E0FEA3E0FF8E059003847406F0900385EDF0758200C007C00612D8
:2021AC00397AD006D0078F069003847407F0900385EEF075820002397AAF83E58290010AC6
:2021CC00F0EFA3F090010AE0FEA3E0FF7C007D00C3EC9EED9F504190038DE4F075821FC059
:2021EC0007C006C005C004123A96E582D004D005D006D00720E30475820122900001C00765
:20220C00C006C005C0041220ACD004D005D006D0070CBC00BB0D80B87582002290038DE44A
:20222C00F075821D123A96E582035401B401009200E433F5822290010C7402F090010D74E1
:20224C0011F090010E23F090010F7433F09001107444F09001117455F090011274F8F09055
:20226C0001137475F090011474A4F0900115748CF09001167441F09001177431F0900118F0
:20228C0074C0F090011974A8F090011A7401F090011B7464F090011C74C0F090011D74A839
:2022AC00F090011E7401F090011FF0900120740EF07E007F00C3EE9406EF64809480504884
:2022CC008E05ED04FC3395E0FBEC2420FCEB3401FBEE2412F582EF3401F583E08C828B8355
:2022EC00F074072DFD3395E0FCED2420FDEC3401FCEE240CF582EF3401F583E08D828C831F
:20230C00F00EBE00B00F80AD90012D7408F090012E7406F090012FE4F090013004F09001DC
:20232C00317408F0900132E4F09001337406F09001347404F0900135E4F090013604F07E2F
:20234C00007F00C3EE9406EF6480948050298E0574172DFD3395E0FCED2420FDEC3401FC10
:20236C00EE240CF582EF3401F583E08D828C83F00EBE00CF0F80CC7E007F00C3EE9404EF07
:20238C006480948050298E05741D2DFD3395E0FCED2420FDEC3401FCEE2418F582EF3401BE
:2023AC00F583E08D828C83F00EBE00CF0F80CC7F00BF060050198F0674212EFE3395E0FD0D
:2023CC00EE2420F582ED3401F583E4F00F80E27E007F00C3EE9404EF6480948050298E0530
:2023EC0074272DFD3395E0FCED2420FDEC3401FCEE241CF582EF3401F583E08D828C83F0EE
:20240C000EBE00CF0F80CC90039CE4F0740CA3F090039E7420F07401A3F0E4A3F090002CB4
:20242C00123E14900106742BF0740CA3F0900C0012214E12212D9001F41221C5E5826033FF
:20244C00122228E58260167493C0E0746EC0E07480C0E01264161581158115812274B4C022
:20246C00E0746EC0E07480C0E01264161581158115812274E2C0E0746EC0E07480C0E012CC
:20248C00641615811581158122C021C0E0C0F0C082C083C007C006C005C004C003C002C0C1
:2024AC0001C000C0D075D0007425C0E0746FC0E07480C0E012641615811581158190014B00
:2024CC00E02401F0A3E03400F0D0D0D000D001D002D003D004D005D006D007D083D082D0A3
:2024EC00F0D0E0D02132AF83E58290014FF0EFA3F090014FE0FEA3E0FFC374FF9E741F9FDC
:20250C00401590014DE0FCA3E0FD8C028D03C374FF9A741F9B502A90014DE0C0E0A3E0C0E9
:20252C00E090014FE0C0E0A3E0C0E0744CC0E0746FC0E07480C0E0126416E58124F9F58130
:20254C00225306FE90014FEEF0EFA3F090014FE0FEA3E0FF8E03900384E4F0900385EBF007
:20256C00758200C007C006C005C004C00312397AD003D004D005D006D0078F029003847475
:20258C0001F0900385EAF0758200C007C006C005C004C003C00212397AD002D003D004D0AC
:2025AC0005D006D0079003847408F0900385EBF0758200C007C006C005C004C003C0021243
:2025CC00397AD002D003D004D005D006D0079003847409F0900385EAF0758200C007C00647
:2025EC00C005C004C003C00212397AD002D003D004D005D006D0078C01900384740AF0905F
:20260C000385E9F0758200C007C006C005C004C003C00212397AD002D003D004D005D006D2
:20262C00D0078D01900384740BF0900385E9F0758200C007C006C005C004C003C0021239D5
:20264C007AD002D003D004D005D006D007900384740CF0900385EBF0758200C007C006C03B
:20266C0005C004C00212397AD002D004D005D006D007900384740DF0900385EAF075820065
:20268C00C007C006C005C00412397AD004D005D006D007C004C005C006C007747DC0E074E2
:2026AC006FC0E07480C0E0126416E58124F9F58122AFF0AE83E582900151F0EEA3F0EFA3A8
:2026CC00F01239C590038DE4F075821D123A96E58230E0F090014D74FFF0740BA3F09000BA
:2026EC00001224F29003847404F0900385E4F075820012397A9003847405F0900385740C67
:20270C00F075820012397A9003847406F090038574FFF075820012397A9003847407F09037
:20272C0003857411F075820012397A9003847418F090038574B1F075820112397A90038440
:20274C007408F0900385743FF075820112397A9003847409F09003857430F0758201123916
:20276C007A9003847410F090038574F9F075820112397A9003847411F090038574F7F075A2
:20278C00820112397A90038D7402F0758200123A96E5824401FF900384E4F0900385EFF0F9
:2027AC0075820212397A9003847402F09003857432F075820212397A9003847406F0900352
:2027CC00857412F075820212397A9003847407F0900385740CF075820212397A90038474E1
:2027EC0004F09003857412F075820212397A9003847403F09003857440F075820212397A95
:20280C00900384740AF090038574DCF075820212397A900384740BF09003857405F0758213
:20282C000212397A900151E0FDA3E0FEA3E0FF74052DF508E43EF5098F0A85088285098387
:20284C00850AF0126E38F99003847401F0900385E9F0758203C007C006C00512397AD005E9
:20286C00D006D00774042DF50BE43EF50C8F0D850B82850C83850DF0126E38FB900384E4E5
:20288C00F0900385EBF0758203C007C006C00512397AD005D006D00774032DF50EE43EF5F8
:2028AC000F8F10850E82850F838510F0126E38F99003847403F0900385E9F0758203C007CC
:2028CC00C006C00512397AD005D006D00774022DF511E43EF5128F138511828512838513DC
:2028EC00F0126E38FB9003847402F0900385EBF0758203C007C006C00512397AD005D006FD
:20290C00D00774012DFAE43EFB8F048A828B838CF0126E38F99003847405F0900385E9F0D0
:20292C00758203C007C006C005C004C003C00212397AD002D003D004D005D006D0078D8227
:20294C008E838FF0126E38F99003847404F0900385E9F0758203C007C006C005C004C003E7
:20296C00C00212397AD002D003D004D005D006D00790038AE4F004A3F0758210C007C006AD
:20298C00C005C004C003C002123A13D002D003D004D005D006D007900384741BF090038515
:2029AC0074C0F0758200C007C006C005C004C003C00212397AD002D003D004D005D006D09C
:2029CC0007900384741FF09003857404F0758200C007C006C005C004C003C00212397A74FF
:2029EC00ACC0E0746FC0E07480C0E0126416158115811581D002D003D004D005D006D0071F
:202A0C00850882850983850AF0126E38F98908750900850B82850C83850DF0126E38F98969
:202A2C000B750C00850E82850F838510F0126E38F9890E750F008511828512838513F012B5
:202A4C006E38F879008A828B838CF0126E38FA7C008D828E838FF0126E38FD7F00C008C034
:202A6C0009C00BC00CC00EC00FC000C001C002C004C005C00774D0C0E0746FC0E07480C05F
:202A8C00E0126416E58124F1F5819003887403F07582120239D090038D7401F075821902A0
:202AAC003A96AF83E582900154F0EFA3F0900154E0FEA3E0FFFD8E04900384740CF090035C
:202ACC0085ECF0758200C007C006C00512397AD005D006D007900384740DF0900385EDF07C
:202AEC00758200C007C00612397AD006D007C006C00774FCC0E0746FC0E07480C0E01264AA
:082B0C0016E58124FBF581228E
:206E58000A496E76616C6964204275666665722053697A652E20427566666572206578630C
:206E7800656564732076616C696420616464726573732072616E67652E0A00415250207249
:206E98006571756573742073656E74207375636365737366756C6C792E0A0D0041525020DC
:206EB8007472616E736D697373696F6E206661696C65642E20436865636B206572726F7295
:206ED80020666C6167732E0A0D005472616E736D697373696F6E2074696D656F75742E20A9
:206EF800454E4332384A3630206D6179206E6F742062652066756E6374696F6E696E6720E7
:206F1800636F72726563746C792E0A0D00496E7465727272727272727275757575757575EA
:206F380075757070707070707070747474747474740A0D000A496E76616C6964204275667E
:206F58006665722052616E67653A205374617274203078253034582C20456E64203078256E
:206F78003034580A000A42756666657220496E697469616C697A65643A20537461727420B1
:206F98003078253034582C20456E64203078253034580A000A454E4332384A363020496E69
:206FB800697469616C697A6174696F6E20436F6D706C6574652E0A004D41432041646472AB
:206FD8006573733A20253032583A253032583A253032583A253032583A253032583A253022
:1F6FF80032580A0055706461746564204552585244505420746F203078253034580A0020
:06200000022037022495C6
:0720970090037BE4F0A3F0CD
:0320A9000220060C
:03200600022D5256
:202B1400AFF0AE83E582900156F0EEA3F0EFA3F0900159E4F0A3F0900156E0FDA3E0FEA357
:202B3400E0FF8D028E038F048D458E468F4778007900C002C003C004E82545FAE93546FB8E
:202B5400AC478A828B838CF0126E38F548D004D003D002E5487003022CC2C002C003C00491
:202B7400854849754A0090015BE549F0E54AA3F0900159E0FBA3E0C454F0CBC4CB6BCB546C
:202B9400F0CB6BFC900159EBF0ECA3F0C3E5499430E54A64809480D004D003D002403F7473
:202BB4003995497480854AF063F08095F0402FC002C003C004E54924D0F549E54A34FFF570
:202BD4004A900159E0FAA3E0FC900159E5492AF0E54A3CA3F0D004D003D002022CBA900132
:202BF4005BE0F549A3E0F54AC3E5499441E54A64809480404E744695497480854AF063F06D
:202C14008095F0403EC005C006C007E82AFDE93BFE8C078D828E838FF0126E387F0024C944
:202C3400F549EF34FFF54A900159E0FEA3E0FF900159E5492EF0E54A3FA3F0D007D006D0E3
:202C540005806390015BE0F549A3E0F54AC3E5499461E54A64809480404C74669549748067
:202C7400854AF063F08095F0403CC002C003C004E82DFAE93EFB8F048A828B838CF0126E8A
:202C9400387C0024A9F549EC34FFF54A900159E0FBA3E0FC900159E5492BF0E54A3CA3F08E
:202CB400D004D003D00208B8000109022B46900159E0FEA3E08E82F583227E007F00C00791
:202CD400C006125C4EAC82D006D007BC0A02803ABC0D028035C3EE9409EF64809480502AD2
:202CF4008C037D008B828D83C007C006C004125C2FD004D006D007EE245DF582EF3401F529
:202D140083ECF00EBE00B70F80B4EE245DF582EF3401F583E4F090015DF5F0122B14AE82D0
:202D3400AF83C007C0067417C0E07470C0E012601B15811581D006D0078E828F83229001D6
:202D5400677402F09001687411F090016923F090016A7433F090016B7444F090016C74551B
:202D7400F090016D74F8F090016E7475F090016F74A4F0900170748CF09001717441F090ED
:202D940001727431F090017374C0F090017474A8F09001757401F09001767464F09001779C
:202DB40074C0F090017874A8F09001797401F090017AF0741AC0E07470C0E07480C0E01204
:202DD40064161581158115811239A790016775F0001226BD7433C0E07470C0E07480C0E000
:202DF400126416158115811581744AC0E07470C0E07480C0E01264161581158115817460D9
:202E1400C0E07470C0E07480C0E01264161581158115817475C0E07470C0E07480C0E012E5
:202E340064161581158115817489C0E07470C0E07480C0E012641615811581158174A3C068
:202E5400E07470C0E07480C0E012641615811581158174B9C0E07470C0E07480C0E01264BD
:202E74001615811581158174CEC0E07470C0E07480C0E012641615811581158174E0C0E02A
:202E94007470C0E07480C0E012641615811581158174FAC0E07470C0E07480C0E012641606
:202EB400158115811581740FC0E07471C0E07480C0E01264161581158115817428C0E07402
:202ED40071C0E07480C0E01264161581158115817440C0E07471C0E07480C0E012641615DD
:202EF4008115811581745FC0E07471C0E07480C0E01264161581158115817473C0E07471CB
:202F1400C0E07480C0E0126416158115811581748FC0E07471C0E07480C0E012641615813D
:202F340015811581125C4EAE828E057F008D828F83C006125C2F7417C0E07470C0E074802C
:202F5400C0E0126416158115811581D006BE3102805DBE320302302BBE3303023129BE3439
:202F740003023188BE35030231EABE3603023255BE3703023290BE38030232ABBE3903025C
:202F9400330DBE41030233CDBE4203022DE8BE43030237A6BE44030237D8BE45030237E1A6
:202FB400BE460302381CBE580302384202384774AEC0E07471C0E07480C0E012641615818D
:202FD40015811581122CCEAE82C00674D3C0E07471C0E07480C0E012641615811581158161
:202FF400122CCEAD82C0057400C0E07472C0E07480C0E0126416158115811581122CCEAC89
:2030140082D005D006900384EDF0900385ECF08E8212397A022DE87424C0E07472C0E07469
:2030340080C0E0126416158115811581122CCEAE82AF83C007C006744AC0E07472C0E074BB
:2030540080C0E0126416158115811581122CCEAC82AD83D006D007C007C006C005C004C001
:2030740006C0077468C0E07472C0E07480C0E0126416E58124FBF581D004D005D006D007FC
:203094007A007B00C3EA9EEB64808FF063F08095F05063C004C005C007C006C005C004C024
:2030B40003C002C002C003748BC0E07472C0E07480C0E0126416E58124FBF581D002D003CD
:2030D400D004D005EA247BF8EB3401F9C003C002C001C000122CCEAC82D000D001D002D016
:2030F40003D006D00788828983ECF00ABA00010BD005D004808E90039CECF0EDA3F0900375
:203114009E747BF07401A3F0E4A3F08E828F83123E14022DE87495C0E07472C0E07480C01F
:20313400E0126416158115811581122CCEAE82AF83C007C006744AC0E07472C0E07480C0BA
:20315400E0126416158115811581122CCEAC82AD83D006D007900395ECF0EDA3F090039768
:20317400747BF07402A3F0E4A3F08E828F83123C95022DE874BAC0E07472C0E07480C0E0D8
:20319400126416158115811581122CCEAE82C00674E3C0E07472C0E07480C0E01264161519
:2031B4008115811581122CCEAD82D00690038DEEF08D82123A96AF827E00C007C006740C92
:2031D400C0E07473C0E07480C0E0126416E58124FBF581022DE87428C0E07473C0E07480CB
:2031F400C0E0126416158115811581122CCEAE82C006744AC0E07473C0E07480C0E01264DC
:2032140016158115811581122CCEAD82AF83D00690038AEDF0EFA3F08E82C007C005123A1B
:2032340013D005D007C005C007746CC0E07473C0E07480C0E0126416E58124FBF581022DDE
:20325400E87485C0E07473C0E07480C0E0126416158115811581122CCE123AD9AE82AF83DD
:20327400C006C00774AFC0E07473C0E07480C0E0126416E58124FBF581022DE874C7C0E056
:203294007473C0E07480C0E01264161581158115811239C5022DE874DFC0E07473C0E0749C
:2032B40080C0E0126416158115811581122CCEAE82C0067409C0E07474C0E07480C0E0123F
:2032D4006416158115811581122CCEAD82D006900388EDF08E821239D0AF827E00C007C034
:2032F400067424C0E07474C0E07480C0E0126416E58124FBF581022DE87433C0E07470C0D7
:20331400E07480C0E0126416158115811581744AC0E07470C0E07480C0E01264161581152A
:203334008115817460C0E07470C0E07480C0E01264161581158115817475C0E07470C0E07B
:203354007480C0E01264161581158115817489C0E07470C0E07480C0E0126416158115810A
:20337400158174A3C0E07470C0E07480C0E012641615811581158174B9C0E07470C0E074C1
:2033940080C0E012641615811581158174CEC0E07470C0E07480C0E01264161581158115E4
:2033B4008174E0C0E07470C0E07480C0E0126416158115811581022DE8122242122AA2E5CE
:2033D4008260F990037BE0FEA3E0FF90037BE0F5F0A3E045F07008900BFF122AAE800C1E5F
:2033F400BEFF011F8E828F83122AAE900006126160AE82AD837F0090037BE0FBA3E0FC9090
:203414000395EBF0ECA3F0900397EEF0EDA3F0EFA3F0900006C007C006C005123C95D005FC
:20343400D006D00774012EFAE43DFB8F048A828B838CF0126E38FC7A008E828D838FF0120A
:203454006E387B004202EB42048A2A8C2B74032EF8E43DF98F03888289838BF0126E38F8CD
:203474007B0088238B2274022EF8E43DF98F03888289838BF0126E38F87B00E5234203888C
:20349400228B2374052EF8E43DF98F03888289838BF0126E38F87B0088258B2474042EF847
:2034B400E43DF98F03888289838BF0126E38F87B00E525420388248B25A922AB23E924FC43
:2034D400F9EB34FFFB89288B29852826852927852682852783C007C006C005126160A8820E
:2034F400AB83D005D006D007882C8B2D752E0090037BE0FAA3E0FC74062AFAE43CFC900345
:2035140095EAF0ECA3F0900397E52CF0E52DA3F0E52EA3F0852882852983C007C006C00581
:20353400123C9590037DE4F0A3F0AA2CAB2DFC9010547467F07401A3F0E4A3F090105774CA
:2035540006F0E4A3F08A828B838CF01262E9E5828583F0D005D006D00745F07070740C255C
:203574002CFAE4352DFBAC2E8A828B838CF0126E38FABA0858740D252CFAE4352DFBAC2EAD
:203594008A828B838CF0126E387042C007C006C0057440C0E07474C0E07480C0E0126416C9
:2035B400158115811581D005D006D0077417252CFAE4352DFBAC2E8A828B838CF0126E3874
:2035D400FABA060990037D7401F0E4A3F090037DE0F5F0A3E045F070030236DD7404252650
:2035F400FBE43527FC9003C2EBF0ECA3F09003C4747FF07403A3F0E4A3F0852C82852D83AE
:20361400852EF0C007C006C005124572AA82AB83ACF0D005D006D007EA4B6069C007C006D5
:20363400C005C004C003C002746AC0E07474C0E07480C0E0126416158115811581D002D0DE
:2036540003D004D005D006D00790037FE0F8A3E0F99009B2E8F0E9A3F08A828B838CF0C0A2
:2036740007C006C005C004C003C002124CACD002D003D0048A828B838CF0125CD2D005D05D
:2036940006D0078021C007C006C0057485C0E07474C0E07480C0E012641615811581158143
:2036B400D005D006D007C007C006C00574B7C0E07474C0E07480C0E012641615811581156E
:2036D40081D005D006D0078021C007C006C00574BFC0E07474C0E07480C0E01264161581CF
:2036F40015811581D005D006D00790037BE52AF0E52BA3F0C007C006C005C02AC02B74C6F7
:20371400C0E07474C0E07480C0E0126416E58124FBF581C022C02374DAC0E07474C0E074A3
:2037340080C0E0126416E58124FBF581C024C02574E9C0E07474C0E07480C0E0126416E57B
:203754008124FBF581D005D006D00790038DE4F075821EC007C006C005123A96E582D00544
:20377400D006D0074440FC900384741EF0900385ECF0758202C007C006C00512397AD00596
:20379400D006D0077F008E828D838FF0125CD20233D074F9C0E07474C0E07480C0E0126466
:2037B40016158115811581C2907E007F00C3EE9470EF6480949750070EBE00F10F80EED2B8
:2037D40090022DE89008461249FC022DE8D288D2A8D2AF90038DE4F075821E123A96742C02
:2037F400C0E07475C0E07480C0E0126416158115811581900384741BF090038574C0F07563
:20381400820012397A022DE8743FC0E07475C0E07480C0E012641615811581158190038461
:20383400741BF0900385E4F075820012397A125AC580FB7453C0E07475C0E07480C0E0120B
:0B3854006416158115811581022DE816
:207017000A0D00535049204F7065726174696F6E73206F6E20383035310A0D000A0D43684E
:207037006F6F736520616E20616374696F6E3A200A0D0031202D2D3E20436F6E74726F6C9B
:207057002057726974650A0D0032202D2D3E204275666665722057726974650A0D003320DE
:207077002D2D3E2042756666657220526561640A0D0034202D2D3E204D41432052656769B0
:207097007374657220526561640A0D0035202D2D3E20504859205350492057726974650A29
:2070B7000D0036202D2D3E205048592053504920526561640A0D0037202D2D3E20454E4309
:2070D7002052657365740A0D0038202D2D3E2052656164204554482052656769737465726D
:2070F7000A0D0039202D2D3E20446973706C6179204D656E750A0D0041202D2D3E205365DE
:207117006E642041525020526571756573740A0D0042202D2D3E20496E6974205258206269
:207137007566666572730A0D0043202D2D3E2048617264205265736574286E5245534554C0
:207157002070696E290A0D0044202D2D3E2050726F63657373205443500A0D0045202D2D99
:207177003E20456E61626C6520545820696E746572727570740A0D0046202D2D3E20446998
:207197007361626C696E6720545820696E746572727570740A0D00456E74657220746865A9
:2071B7002072656769737465722062616E6B20746F2073656C6563743A0A0D00456E7465F7
:2071D70072207468652061646472657373206F662074686520436F6E74726F6C205265672A
:2071F70069737465723A0A0D00456E74657220746865206461746120796F752077616E7490
:2072170020746F2077726974653A0A0D00456E74657220746865206E756D626572206F66BB
:2072370020627974657320746F2077726974653A0A0D00456E74657220746865207374618A
:207257007274696E6720616464726573733A0A0D00456E746572202564206279746573208E
:207277006F6620646174612028696E20686578293A0A0D00427974652025643A2000456E20
:2072970074657220746865206E756D626572206F6620627974657320746F20726561643A4D
:2072B7000A0D00456E74657220746865204D41432072656769737465722062616E6B20747B
:2072D7006F2073656C6563743A0A0D00456E746572207468652061646472657373206F66DD
:2072F70020746865204D41432052656769737465723A0A0D004D41432052656769737465AB
:207317007220446174613A203078253032580A0D00456E7465722074686520504859207250
:207337006567697374657220616464726573733A0A0D00456E746572207468652031362DD9
:20735700626974206461746120746F2077726974653A0A0D005048592057726974652044FE
:207377006174613A203078253034580A0D00456E746572207468652050485920726567698F
:2073970073746572206164647265737320746F20726561643A0A0D00504859205265616475
:2073B70020446174613A203078253034580A0D00526573657474696E6720454E4332384AC3
:2073D70036302E2E2E0A0D00456E7465722074686520455448207265676973746572206129
:2073F70064647265737320746F20726561643A0A0D00456E746572207468652062616E6BC6
:20741700202830206F722031293A0A0D0045544820526567697374657220446174613A20D7
:207437003078253032580A0D0056616C6964204554484552207061636B65742E2E2E2E2E91
:207457002E2E2E2E2E2E2E2E2E2E2E2E2E2E2E2E0A0D000A50726F63657373656420726575
:2074770073706F6E736520646174613A0A000A4E6F20726573706F6E73652067656E6572D8
:207497006174656420627920544350207061636B65742070726F63657373696E672E0A0008
:2074B7005945535353530A004E4F4F4F4F0A006E6578745061636B65743A2030782530348B
:2074D700580A0062797465436F756E743A2025640A007374617475733A2030782530325804
:2074F7000A0020526573657474696E6720454E43207573696E672052455345542070696E50
:2075170020696E2048617264776172652850315F30290A0D00456E61626C696E67205458AB
:20753700504B5449450A0D0044697361626C696E67205458504B5449450A0D00496E766125
:207557006C6964206F7074696F6E2E20506C656173652073656C65637420612076616C698D
:0C7577006420616374696F6E2E0A0D00C1
:20385F0075825F1239B67582021239B67582541239B67582141239B67582561239B675825B
:20387F00001239B67582571239B675820A0239B622C29175825F1239B67582021239B6D24F
:20389F0091C2917582541239B67582141239B6D291C2917582561239B67582A81239B6D257
:1338BF0091C2917582571239B675823A1239B6D2912222EA
:2038D20075C5FFE5C430E7FB900381E5C5F0E0F58222C29175825E1239B67582801239B69A
:2038F200D29122E582900382F0C29175821F1239B61238D2AF82D2915307FC900382E0FE62
:2039120024FC4030EE2E90391C738006800B80128019900383EFF0803190038374014FF0E5
:20393200802890038374024FF0801F90038374034FF080167483C0E07475C0E07480C0E04D
:20395200126416158115811581227F00BF100050030F80F8C29175825F1239B6900383E01D
:20397200F5821239B6D29122E582900386F0900384E02440F0900386E0F5821238F5C2917B
:20399200900384E0F5821239B6900385E0F5821239B6D29122D29175C30043C32043C310DA
:2039B20043C34022E582900387F0E0F5C5E5C430E7FB22C2917582FF1239B6D29122E5826F
:2039D200900389F0E0FF24E05019748EC0E07475C0E07480C0E012641615811581158175FB
:2039F200820022900388E0F582C0071238F5D007C2918F821239B61238D2AF82D2918F829C
:203A120022E58290038CF0E0FF9003847414F0900385EFF0758202C00712397AD0079003A8
:203A32008AE0FDA3E0FE8D049003847416F0900385ECF0758202C007C006C00512397AD096
:203A520005D006D0078E049003847417F0900385ECF0758202C007C006C00512397AD005A5
:203A7200D006D0077C00C005C006C007C00474C8C0E07475C0E07480C0E0126416E58124E6
:203A9200F9F58122E58290038EF0E0FF24E05019748EC0E07475C0E07480C0E0126416155F
:203AB20081158115817582002290038DE0F582C0071238F5D007C2918F821239B61238D259
:203AD200AF82D2918F8222E58290038FF0E0FF9003847414F0900385EFF075820212397A71
:203AF2009003847412F09003857401F075820212397A123B4B9003847412F0900385E4F0DB
:203B120075820212397A90038D7402F0758218123A96AF827E0090038D7402F0758219C059
:203B320007C006123A96AD82D006D0078D04E44207EC42068F828E832290038D7403F075B6
:203B5200820A123A96E582900390F0900390E030E01490038D7403F075820A123A96E58273
:203B7200900390F080E522AF83E582900393F0EFA3F0900393E0FEA3E0FF8E048F05C37485
:203B9200FF9C741F9D4017900391E0FAA3E0FBEA2EF8EB3FF9C374FF98741F99502A90033B
:203BB20091E0C0E0A3E0C0E0900393E0C0E0A3E0C0E074F1C0E07475C0E07480C0E012645E
:203BD20016E58124F9F581225304FEEA2EFEEB3FFF1EBEFF011F5306FE8D03900384740899
:203BF200F0900385EBF0758200C007C006C005C00412397AD004D005D006D0078C03900386
:203C1200847409F0900385EBF0758200C007C006C005C00412397AD004D005D006D0078FF7
:203C320003900384740AF0900385EBF0758200C007C006C005C00412397AD004D005D006A6
:203C5200D0078E03900384740BF0900385EBF0758200C007C006C005C00412397AD004D0FB
:203C720005D006D007C006C007C004C005742FC0E07476C0E07480C0E0126416E58124F9FA
:203C9200F58122AF83E58290039AF0EFA3F090039AE0FEA3E0FFC3EE9401EF648094805038
:203CB2001AC006C0077460C0E07476C0E07480C0E0126416E58124FBF58122900395E0FC0C
:203CD200A3E0FD8C028D03C374FF9A741F9B501AC004C0057480C0E07476C0E07480C0E091
:203CF200126416E58124FBF581228E008F01E82AFAE93BFBC374FF9A740B9B5021C006C0DF
:203D120007C004C005749AC0E07476C0E07480C0E0126416E58124F9F58190000022C374C7
:203D3200019E74808FF063F08095F0500BC005C0041238E4D004D0058D078C06900384749B
:203D520001F0900385EFF0758200C006C005C00412397AD004D005D006900384E4F0900361
:203D720085EEF0758200C005C00412397AC29175823A1239B6D004D00590039AE0FEA3E0CD
:203D9200FFC007C006C004C005C006C00774C6C0E07476C0E07480C0E0126416E58124F968
:203DB200F581D006D007900397E0FBA3E0FCA3E0FD79007A00C3E99EEA64808FF063F0806D
:203DD20095F05037C007C006C005C004C003C002C0011238D2A882D001D002D003D004D009
:203DF20005D006D0078B828C838DF0E8125EC5A3AB82AC8309B900BD0A80BAD2918E828F85
:203E12008322AF83E5829003A1F0EFA3F09003A1E0FEA3E0FFC3EE9401EF64809480501A81
:203E3200C006C0077460C0E07476C0E07480C0E0126416E58124FBF5812290039CE0FCA3FA
:203E5200E0FD8C028D03C374FF9A741F9B501AC004C0057480C0E07476C0E07480C0E012A0
:203E72006416E58124FBF58122C374019E74808FF063F08095F0500BC005C0041238E4D016
:203E920004D0058D079003847403F0900385EFF0758200C00412397AD0049003847402F05D
:203EB200900385ECF075820012397AC29175827A1239B69003A1E0FEA3E0FF90039EE0FBDB
:203ED200A3E0FCA3E0FD79007A00C3E99EEA64808FF063F08095F050378B828C838DF012BD
:203EF2006E38F8A3AB82AC838882C007C006C005C004C003C002C0011239B6D001D002D039
:133F120003D004D005D006D00709B900BD0A80BAD29122FB
:2075830077726F6E672062616E6B000A0D496E76616C696420616464726573733A204D4133
:2075A3004320726567697374657220616464726573732072616E6765205B302C20307831FD
:2075C300465D0A0D005048592057726974653A2041646472657373203078253032582C20BF
:2075E30044617461203078253034580A0D000A0D496E76616C696420427566666572204195
:20760300646472657373206F722053697A653A205374617274203078253034582C2053690D
:207623007A65203078253034580A0D000A0D42756666657220496E697469616C697A6564A1
:207643003A205374617274203078253034582C20456E64203078253034580A0D000A0D4993
:207663006E76616C6964206E756D626572206F662062797465733A2025640A0D000A0D494A
:207683006E76616C696420616464726573733A20253034580A0D000A496E76616C69642020
:2076A300525820416464726573733A205374617274203078253034582C2053697A652025FA
:2076C300640A0052656164696E672025642062797465732066726F6D206275666665722001
:1E76E3007374617274696E672061742061646472657373203078253034583A0A0D0028
:203F2500AFF0AE83E5829003A3F0EEA3F0EFA3F09003A3E0FDA3E0FEA3E0FF74182DFAE46F
:203F45003EFB8F048A828B838CF0E4125EC574192DFAE43EFB8F048A828B838CF0E4125E93
:203F6500C59003A6F0A3F0A3F0A3F09003AA740EF0E4A3F09003AAE0FBA3E0FC8B018C02BE
:203F8500C3E99422EA94004003024012EB2DFBEC3EF88F048B8288838CF0126E38FB7C001A
:203FA5008B468C45740129F8E43AFCE82DF8EC3EFC8F0388828C838BF0126E38F87C00E540
:203FC500464204C005C006C0079003A6E0F547A3E0F548A3E0F549A3E0F54A7E007F0090D9
:203FE50003A6E82547F0EC3548A3F0EE3549A3F0EF354AA3F0740229F9E43AFA9003AAE9FD
:20400500F0EAA3F0D007D006D005023F799003A6E0FCA3E0FDA3E0FEA3E0FF8E478F48E4CA
:20402500F549F54AE54745484549454A60208C008D017A007B009003A6E54728F0E54839B6
:20404500A3F0E5493AA3F0E54A3BA3F080BFECF4FCEDF4FD9003A3E0FBA3E0FEA3E0FF744F
:20406500182BF547E43EF5488F498D028547828548838549F0EA125EC574192BFBE43EFEA8
:204085008B828E838FF0EC025EC5AFF0AE83E5829003ACF0EEA3F0EFA3F09003ACE0FDA345
:2040A500E0FEA3E0FF74322DFAE43EFB8F048A828B838CF0E4125EC574332DFAE43EFB8FF5
:2040C500048A828B838CF0E4125EC574102DFAE43EFB8F048A828B838CF0126E38FC7A0009
:2040E50074112DF8E43EF98F03888289838BF0126E387B004202EB4204EA24ECFAEC34FF18
:20410500FC9003AFE4F0A3F0A3F0A3F09003B3F09003B3E0FBBB040040030241B0C002C001
:20412500048B45754600741A2545FAE43546FCEA2DFAEC3EF98F048A8289838CF0126E388B
:20414500FA7C008A488C47741B2545F8E43546F9E82DF8E93EF98F04888289838CF0126E24
:20416500387C004247EC42489003AFE0F549A3E0F54AA3E0F54BA3E0F54CA847E548F93396
:2041850095E0FAFC9003AFE82549F0E9354AA3F0EA354BA3F0EC354CA3F09003B3EB04F00A
:2041A500E02401F0D004D0020241159003B4E4F09003ACE0FDA3E0FEA3E0FF9003B4E0FBAB
:2041C500BB0400400302425FC002C0048B49754A00741E2549FAE4354AFCEA2DFAEC3EF98F
:2041E5008F048A8289838CF0126E38FA7C008A488C47741F2549F8E4354AF9E82DF8E93E37
:20420500F98F04888289838CF0126E387C004547F549EC4548F54A9003AFE0F54DA3E0F5E9
:204225004EA3E0F54FA3E0F550A849E54AF93395E0FAFC9003AFE8254DF0E9354EA3F0EA70
:20424500354FA3F0EC3550A3F09003B4EB04F0E02401F0D004D0020241C09003AFE0FBA3BA
:20426500E0FDA3E0FEA3E0FF9003AF74062BF0E43DA3F0E43EA3F0E43FA3F09003AFE0F54C
:204285004DA3E0F54EA3E0F54FA3E0F5508A008C017E007F009003AFE8254DF0E9354EA3C8
:2042A500F0EE354FA3F0EF3550A3F09003B57422F0E4A3F09003ACE0FDA3E0FEA3E0FF8A0F
:2042C500018C03742229F9E43BFB9003B5E0F54DA3E0F54E854D49854E4AC3E54999E54A56
:2042E5009B4003024372C002C004E54D2DF8E54E3EF98F03888289838BF0126E38FB78008F
:2043050074012549F9E4354AFCE92DF9EC3EFC8F0289828C838AF0126E387C004200EC425F
:2043250003884D8B4E9003AFE0F551A3E0F552A3E0F553A3E0F554A84DAA4E7B007C00908A
:2043450003AFE82551F0EA3552A3F0EB3553A3F0EC3554A3F074022549FBE4354AFC900375
:20436500B5EBF0ECA3F0D004D0020242C49003AFE0FCA3E0FDA3E0FEA3E0FF8E518F52E436
:20438500F553F554E55145524553455460208C008D017A007B009003AFE55128F0E55239FA
:2043A500A3F0E5533AA3F0E5543BA3F080BFECF4FCEDF4FD9003ACE0FBA3E0FEA3E0FF74CF
:2043C500322BF551E43EF5528F538D028551828552838553F0EA125EC574332BFBE43EFED5
:2043E5008B828E838FF0EC025EC5AFF0AE83E5829003B9F0EEA3F0EFA3F09003BCE4F0A3CE
:20440500F0A3F0A3F09003C0F0A3F09003B9E0FDA3E0FEA3E0FF9003B7E0F545A3E0F5465D
:204425009003C0E0F9A3E0FAC3E99545EA95464003024525E92DF8EA3EFB8F0488828B83F8
:204445008CF0126E38FC7B00C005C006C007740129F8E43AFFC3E89545EF9546D007D006AB
:20446500D005501B09B900010AE92DF9EA3EF88F02898288838AF0126E38F97A00800479B2
:20448500007A00C005C006C007E92BFBEA3CFC9003BCE0F8A3E0F9A3E0FAA3E0FF7E007D7D
:2044A500009003BCEB28F0EC39A3F0EE3AA3F0ED3FA3F09003BCE0F547A3E0F548A3E0F5D0
:2044C50049A3E0F54AC374FF954774FF9548E49549E4954AD007D006D005502A85474B854D
:2044E500484C754D00754E00A849AA4A7B007C009003BCE8254BF0EA354CA3F0EB354DA31D
:20450500F0EC354EA3F09003C0E0FBA3E0FC74022BFBE43CFC9003C0EBF0ECA3F002442527
:204525009003BCE0FCA3E0FDA3E0FEA3E0FF8C008D017A007B008E048F057E007F00900303
:20454500BCEC28F0ED39A3F0EE3AA3F0EF3BA3F09003BCE0FCA3E0FDA3E0FEA3E0FFECF4D7
:20456500FCEDF4FDEEF4EFF48C828D8322AFF0AE83E5829003C7F0EEA3F0EFA3F090103EF5
:20458500E4F090103F74DDF07405A3F09003CA75F000125E9D9003CA740EF09003C7E0FD41
:2045A500A3E0FEA3E0FF8D028E038F04901036EAF0EBA3F0ECA3F0901039740EF0E4A3F0D1
:2045C5009003CBF5F0C007C006C005125E29D005D006D00774062DFAE43EFB8F04901036FF
:2045E500EAF0EBA3F0ECA3F09010397406F0E4A3F09003CBF5F0C007C006C005125E29D027
:2046050005D006D0078D028E038F04901036EAF0EBA3F0ECA3F09010397406F0E4A3F09039
:2046250003D1F5F0C007C006C005125E29D005D006D007740E2DFAE43EFB8F04901036EA36
:20464500F0EBA3F0ECA3F09010397414F0E4A3F09003D9F5F0C007C006C005125E29D0058F
:20466500D006D007741E2DFAE43EFB8F048A828B838CF0126E38FA9003E575F000EA125EA0
:20468500C5741F2DFAE43EFB8F048A828B838CF0126E38FA9003E675F000EA125EC574200D
:2046A5002DFAE43EFB8F048A828B838CF0126E38FA9003E775F000EA125EC574212DFAE438
:2046C5003EFB8F048A828B838CF0126E38FA9003E875F000EA125EC5741A2DFAE43EFB8F61
:2046E500048A828B838CF0126E38FA9003E975F000EA125EC5741B2DFAE43EFB8F048A82F7
:204705008B838CF0126E38FA9003EA75F000EA125EC5741C2DFAE43EFB8F048A828B838C4A
:20472500F0126E38FA9003EB75F000EA125EC5741D2DFAE43EFB8F048A828B838CF0126E52
:2047450038FA9003EC75F000EA125EC59003E3E4125EC59003E4F5F0125EC574222DF51433
:20476500E43EF5158F16A814A915AC16901036E8F0E9A3F0ECA3F09010397414F0E4A3F0B6
:204785009003EDF5F0C007C006C005125E29D005D006D00774242DFAE43EFB8F048A828B3C
:2047A500838CF0126E38FA9003ED75F000EA125EC574252DFAE43EFB8F048A828B838CF039
:2047C500126E38FA9003EE75F000EA125EC58514828515838516F0126E38FC9003EF75F0BF
:2047E50000EC125EC574232DFAE43EFB8F048A828B838CF0126E38FA9003F075F000EA12F9
:204805005EC59003F1E4125EC59003F2F5F0125EC59003F3F5F0125EC59003F4F5F0125EB8
:20482500C574262DFAE43EFB8F048A828B838CF0126E38FA74272DF9E43EFB8F0489828BEE
:20484500838CF0126E38F974282DF8E43EFB8F0488828B838CF0126E38F874292DFDE43E05
:20486500FE8D828E838FF0126E38FD9003F575F000EA125EC59003F6E9125EC59003F7E8BC
:20488500125EC50D9003F8ED125EC59003F97450125EC59003FA7412125EC59003FFE412CF
:2048A5005EC5900400F5F0125EC59003DBF5F0125EC59003DCF5F07428125EC59003CB1205
:2048C5003F259003CB75F00012408F9003C4E0FDA3E0FEA3E0FF8D828E838FF07437125EDA
:2048E500C5A3E4125EC59003CAF5F022AFF0AE83E5829009A9F0EEA3F0EFA3F09009A7E042
:20490500FEA3E0FFC007C006C006C0077401C0E07477C0E07480C0E0126416E58124FBF5BE
:2049250081D006D0079009A9E0FBA3E0FCA3E0FD79007A00C3E99EEA9F40030249E1C0062D
:20494500C007E92BF8EA3CFE8D0788828E838FF0126E38F87F00C007C006C005C004C00325
:20496500C002C001C000C0077417C0E07477C0E07480C0E0126416E58124FBF581D001D0B6
:2049850002D003D004D005D006D00789068A070EBE00010FEE540F6006D007D0068035D002
:2049A50007D006C007C006C005C004C003C002C001741DC0E07477C0E07480C0E0126416DD
:2049C500158115811581D001D002D003D004D005D006D00709B900010A024939EE540F6042
:2049E50015741DC0E07477C0E07480C0E012641615811581158122AF83E5829009ACF0EF20
:204A0500A3F09009ACE0FEA3E0FF8E048F05C374FF9C741F9D501AC006C007741FC0E07493
:204A250077C0E07480C0E0126416E58124FBF58122900395EEF0EFA3F090039774AEF074E5
:204A450009A3F0E4A3F0900002C007C006C005C004123C95AA82AB83D004D005D006D00703
:204A6500BA0205BB00028016743FC0E07477C0E07480C0E0126416158115811581229009A2
:204A8500AFE0FA7B009009AEE079004203E94202C3EB9EEA9F501AC003C002746DC0E07442
:204AA50077C0E07480C0E0126416E58124FBF5812274062CFEE43DFFEBC39EFEEA9FFF8E79
:204AC500008F0188828983C007C006C005C004C003C002126160A882A983D002D003D004EE
:204AE500D005D006D00788178918751900E5174518701AC006C0077494C0E07477C0E0744A
:204B050080C0E0126416E58124FBF581228E008F0174062CFCE43DFD900395ECF0EDA3F065
:204B2500900397E517F0E518A3F0E519A3F088828983C007C006C003C002123C95AC82AD53
:204B450083D002D003D006D007ECB50606EDB50702802474C5C0E07477C0E07480C0E01275
:204B65006416158115811581AC17A9187D008C8289838DF0025CD29003C2EEF0EFA3F090E7
:204B850003C474B0F07409A3F0E4A3F08517828518838519F0C007C006C003C00212457207
:204BA500A982AC83ADF0D002D003D006D007E94C7003024C3BC003C002C007C006C005C0DF
:204BC50004C003C002C00174E4C0E07477C0E07480C0E0126416158115811581D001D0027E
:204BE500D003D004D005D006D0079009B0E0F8A3E0FB9009B2E8F0EBA3F089828C838DF0B0
:204C0500C007C006C005C004C003C002C001124CACD001D002D003D004D00589828C838D63
:204C2500F0C003C002125CD2D002D003D006D007D002D0038025C007C006C003C00274FF99
:204C4500C0E07477C0E07480C0E0126416158115811581D002D003D006D007AC17A9187DEF
:204C6500008C8289838DF0C007C006C003C002125CD2D002D003D006D0071BBBFF011AC044
:204C850003C0029009ACE0C0E0A3E0C0E0C006C0077431C0E07478C0E07480C0E0126416E4
:204CA500E58124F7F58122AFF0AE83E5829009B4F0EEA3F0EFA3F09009B2E0FEA3E0FF8E26
:204CC50004740C2FFD1CBCFF011DC374FF9C741F9D50167474C0E07478C0E07480C0E01208
:204CE5006416158115811581228E04740C2FFD1CBCFF011D9009B4E0F9A3E0FAA3E0FB906D
:204D0500039CE4F0740CA3F090039EE9F0EAA3F0EBA3F08E828F83C005C004123E14D00420
:204D2500D005900106ECF0EDA3F0900C0012214E12212D9001F41221C5E582603812222851
:204D4500E5828583F045F0601674AFC0E07478C0E07480C0E012641615811581158122747D
:204D6500D0C0E07478C0E07480C0E01264161581158115812274FEC0E07478C0E07480C0DC
:0B4D8500E012641615811581158122D3
:207701000A48657864756D70202853697A653A202564293A0A002530325820000A000A0D30
:20772100496E76616C696420737461727420616464726573733A20253034580A0D000A0DC4
:207741004661696C656420746F2072656164207061636B6574207374617274206164647283
:207761006573732062797465730A0D000A0D496E76616C6964206E65787420737461727454
:2077810020616464726573733A203078253034580A0D000A0D4D656D6F727920616C6C6F90
:2077A100636174696F6E206661696C656420666F72207061636B65742073697A653A20256C
:2077C100640A0D000A0D4661696C656420746F2072656164207061636B65742064617461C0
:2077E1000A0D000A50726F63657373656420726573706F6E736520646174613A0A000A4EDA
:207801006F20726573706F6E73652067656E65726174656420627920544350207061636BD9
:2078210065742070726F63657373696E672E0A000A0D5375636365737366756C6C7920702D
:20784100726F636573736564207061636B6574206F662073697A652025642066726F6D20CA
:2078610030782530345820746F203078253034580A0D000A496E76616C6964204275666647
:2078810065722053697A652E2042756666657220657863656564732076616C696420616497
:2078A10064726573732072616E67652E0A0054435020726571756573742073656E742073C4
:2078C10075636365737366756C6C792E0A0D00544350207472616E736D697373696F6E205F
:2078E1006661696C65642E20436865636B206572726F7220666C6167732E0A0D0054726113
:207901006E736D697373696F6E2074696D656F75742E20454E4332384A3630206D61792097
:207921006E6F742062652066756E6374696F6E696E6720636F72726563746C792E0A0D000E
:0B209E0090101BE4F0A3F090101DF068
:204D9000900F9B7402F0900F9C7411F0900F9D23F0900F9E7433F0900F9F7444F0900FA06B
:204DB0007455F0900FA174F8F0900FA27475F0900FA374A4F0900FA4748CF0900FA57441FE
:204DD000F0900FA67431F0900FA774C0F0900FA874A8F0900FA97401F0900FAA7464F090EE
:204DF0000FAB74C0F0900FAC74A8F0900FAD7401F0900FAEF07441C0E07479C0E07480C0EA
:204E1000E012641615811581158190104274BFF07409A3F0E4A3F0901045742AF0E4A3F0DE
:204E30009009C0F5F0125EE09009BF740EF090103674C6F07409A3F0E4A3F0901039740630
:204E5000F0E4A3F09009C0F5F0125E29901036749BF0740FA3F0E4A3F09010397406F0E47B
:204E7000A3F09009C6F5F0125E299009D57402F090103674D6F07409A3F0E4A3F09010396E
:204E90007406F0E4A3F09009E0F5F0125E2990103674DCF07409A3F0E4A3F090103974043C
:204EB000F0E4A3F09009E6F5F0125E29901036749BF0740FA3F0E4A3F09010397406F0E4F5
:204ED000A3F09009D6F5F0125E2990103674A7F0740FA3F0E4A3F09010397404F0E4A3F01C
:204EF0009009DCF5F0125E299009B2742BF0E4A3F09009BFF5F0024CAC900FAF7402F090E3
:204F10000FB07411F0900FB123F0900FB27433F0900FB37444F0900FB47455F0900FB57434
:204F3000F8F0900FB67475F0900FB774A4F0900FB8748CF0900FB97441F0900FBA7431F0BB
:204F5000900FBB74C0F0900FBC74A8F0900FBD7401F0900FBE7464F0900FBF74C0F0900F55
:204F7000C074A8F0900FC17401F0900FC2F07451C0E07479C0E07480C0E012641615811582
:204F900081158190104274BFF07409A3F0E4A3F09010457436F0E4A3F09009C0F5F0125EBA
:204FB000E09009BF740EF090103674C6F07409A3F0E4A3F09010397406F0E4A3F09009C09D
:204FD000F5F0125E2990103674AFF0740FA3F0E4A3F09010397406F0E4A3F09009C6F5F0CF
:204FF000125E2990103674DAF07409A3F0E4A3F09010397404F0E4A3F09009DEF5F0125EE9
:205010002990103674BBF0740FA3F0E4A3F09010397404F0E4A3F09009DAF5F0125E29909C
:2050300009E2E0FE7F009009E3E07C004207EC42069009E4E0FC7D009009E5E07A004205CE
:20505000EA42048C039009E2EBF09009E3EDF08E059009E4EDF09009E5EFF09009E8E0FE29
:205070007F009009E9E07C004207EC4206EE3395E0FDFC9009ECE0FA7B009009EDE07900FE
:205090004203E942028B00EAF93395E0FAFB74012FF52FE43EF530E43DF531E43CF5329056
:2050B00009B7E8F0E9A3F0EAA3F0EBA3F09009BBE52FF0E530A3F0E531A3F0E532A3F08BF3
:2050D000079009E6EFF08A079009E7EFF089079009E8EFF09009E9E8F0AF329009EAEFF0DE
:2050F000AF319009EBEFF0AF309009ECEFF0AF2F9009EDEFF09009D0E4F09009D17428F0A4
:205110009009EF7410F09009F074FFF09009F1F09009EE7450F09009C075F000123F25901E
:2051300009C075F00012408F9009B27437F0E4A3F09009BFF5F0124CAC9014937405F022EA
:20515000900FC37402F0900FC47411F0900FC523F0900FC67433F0900FC77444F0900FC8B7
:205170007455F0900FC974F8F0900FCA7475F0900FCB74A4F0900FCC748CF0900FCD744172
:20519000F0900FCE7431F0900FCF74C0F0900FD074A8F0900FD17401F0900FD27464F09062
:2051B0000FD374C0F0900FD474A8F0900FD57401F0900FD6F09009CFE0FE7F009009D0E00E
:2051D0007C004207EC4206EF24D8FFEE34FFFE8F358E367451C0E07479C0E07480C0E0129D
:2051F000641615811581158190104274BFF07409A3F0E4A3F09010457436F0E4A3F0900948
:20521000C0F5F0125EE09009BF740EF090103674C6F07409A3F0E4A3F09010397406F0E411
:20523000A3F09009C0F5F0125E2990103674C3F0740FA3F0E4A3F09010397406F0E4A3F0B0
:205250009009C6F5F0125E2990103674DAF07409A3F0E4A3F09010397404F0E4A3F0900975
:20527000DEF5F0125E2990103674CFF0740FA3F0E4A3F09010397404F0E4A3F09009DAF50C
:20529000F0125E299009E2E0FC7D009009E3E07A004205EA42049009E4E0FA7B009009E504
:2052B000E079004203E942028A019009E2E9F09009E3EBF08C039009E4EBF09009E5EDF09B
:2052D0009009E8E0FC7D009009E9E07A004205EA42048D37ECF5383395E0F539F53A900916
:2052F000ECE0F87900883489339009EDE0F87900E5344201E93395E0FEFFAA35AB36E4FC88
:20531000FDEA2537FAEB3538FBEC3539FCED353AFDEA24FFF537EB34FFF538EC34FFF5396D
:20533000ED34FFF53A9009B7E8F0E9A3F0EEA3F0EFA3F09009BBE537F0E538A3F0E539A396
:20535000F0E53AA3F08F059009E6EDF08E059009E7EDF089059009E8EDF09009E9E8F0AFC6
:205370003A9009EAEFF0AF399009EBEFF0AF389009ECEFF0AA379009EDEAF09009D0E4F06D
:205390009009D17428F09009EF7410F09009F074FFF09009F1F09009EE7450F09009C0759C
:2053B000F000123F259009C075F00012408F9009B27437F0E4A3F09009BFF5F0124CAC90A4
:2053D00014937405F022900FD77402F0900FD87411F0900FD923F0900FDA7433F0900FDBAE
:2053F0007444F0900FDC7455F0900FDD74F8F0900FDE7475F0900FDF74A4F0900FE0748C8E
:20541000F0900FE17441F0900FE27431F0900FE374C0F0900FE474A8F0900FE57401F090A3
:205430000FE67464F0900FE774C0F0900FE874A8F0900FE97401F0900FEAF0745EC0E07416
:2054500079C0E07480C0E012641615811581158190104274BFF07409A3F0E4A3F0901045D0
:205470007436F0E4A3F09009C0F5F0125EE09009BF740EF090103674C6F07409A3F0E4A31C
:20549000F09010397406F0E4A3F09009C0F5F0125E2990103674D7F0740FA3F0E4A3F0904D
:2054B00010397406F0E4A3F09009C6F5F0125E2990103674DAF07409A3F0E4A3F090103961
:2054D0007404F0E4A3F09009DEF5F0125E2990103674E3F0740FA3F0E4A3F09010397404ED
:2054F000F0E4A3F09009DAF5F0125E299009E2E0FE7F009009E3E07C004207EC420690097E
:20551000E4E0FC7D009009E5E07A004205EA42048C039009E2EBF09009E3EDF08E05900985
:20553000E4EDF09009E5EFF09009E8E0FE7F009009E9E07C004207EC4206EE3395E0FDFC75
:205550000FBF00090EBE00050DBD00010C9009E6E4F09009E7F09009E87403F09009E9741B
:20557000E8F08C039009EAEBF08D039009EBEBF08E039009ECEBF09009EDEFF09009D0E4C4
:20559000F09009D17428F09009EF7412F09009F074FFF09009F1F09009EE7450F09009C01D
:2055B00075F000123F259009C075F00012408F9009B27437F0E4A3F09009BFF5F0124CACBD
:2055D0009014937401F022900FEB7402F0900FEC7411F0900FED23F0900FEE7433F0900FAB
:2055F000EF7444F0900FF07455F0900FF174F8F0900FF27475F0900FF374A4F0900FF474C5
:205610008CF0900FF57441F0900FF67431F0900FF774C0F0900FF874A8F0900FF97401F041
:20563000900FFA7464F0900FFB74C0F0900FFC74A8F0900FFD7401F0900FFEF0746EC0E084
:205650007479C0E07480C0E012641615811581158190104274BFF07409A3F0E4A3F090109F
:20567000457436F0E4A3F09009C0F5F0125EE09009BF740EF09009EF7410F09009B274377A
:20569000F0E4A3F09009BFF5F0024CAC900FFF7402F09010007411F090100123F0901002ED
:2056B0007433F09010037444F09010047455F090100574F8F09010067475F090100774A45C
:2056D000F0901008748CF09010097441F090100A7431F090100B74C0F090100C74A8F0908E
:2056F000100D7401F090100E7464F090100F74C0F090101074A8F09010117401F09010124B
:20571000F074F2C0E0747CC0E07480C0E012641615811581158190104274BFF07409A3F0FC
:20573000E4A3F09010457436F0E4A3F09009C0F5F0125EE09009BF740EF090103674C6F094
:205750007409A3F0E4A3F09010397406F0E4A3F09009C0F5F0125E2990103674FFF0740F65
:20577000A3F0E4A3F09010397406F0E4A3F09009C6F5F0125E2990103674DAF07409A3F054
:20579000E4A3F09010397404F0E4A3F09009DEF5F0125E29901036740BF07410A3F0E4A3F2
:2057B000F09010397404F0E4A3F09009DAF5F0125E299009E2E0FE7F009009E3E07C00424E
:2057D00007EC42069009E4E0FC7D009009E5E07A004205EA42048C039009E2EBF09009E3F8
:2057F000EDF08E059009E4EDF09009E5EFF09009B7E0FCA3E0FDA3E0FEA3E0FF901013EC24
:20581000F0EDA3F0EEA3F0EFA3F09009BBE0F8A3E0F9A3E0FAA3E0FB901017E8F0E9A3F057
:20583000EAA3F0EBA3F08F049009E6ECF0901013E0FCA3E0FDA3E0FEA3E08E039009E7EB60
:20585000F08D039009E8EBF09009E9ECF0901017E0FCA3E0FDA3E0FEA3E09009EAF08E03E3
:205870009009EBEBF08D039009ECEBF09009EDECF090797775F080126E20AE82AF83742864
:205890002EFCE43F9009D0F09009D1ECF09009EF7419F09009F074FFF09009F1F09009EE1A
:2058B0007450F09010367477F07479A3F07480A3F0901039EEF0EFA3F09009F675F000C07F
:2058D00007C006125E299009C075F000123F259009C075F00012408FD006D00774372EFEFB
:2058F000E43FFF9009B2EEF0EFA3F09009BF75F000124CAC9014937403F02290101EE4F0B2
:20591000A3F090101DE0607090101BE0FEA3E090101BE0F5F0A3E045F07026900384740CF6
:20593000F090038574FFF075820012397A900384740DF0900385740BF075820012397A80E5
:20595000321E900384740CF0900385EEF075820012397A90101BE0FEA3E0FF1EBEFF011F98
:205970008F06900384740DF0900385EEF075820012397A90101DE4F09003887401F0758240
:20599000191239D0E5827003025AB990101BE0FEA3E0900384E4F0900385EEF075820012CE
:2059B000397A90101BE0A3E0FE9003847401F0900385EEF075820012397A90101BE0FEA39E
:2059D000E0FF900395EEF0EFA3F09003977420F07410A3F0E4A3F0900006123C9590101BE0
:2059F000E0FEA3E0FF74062EFEE43FFF901026EEF0EFA3F0901020E0FEA3E0FF90101BEE80
:205A1000F0EFA3F0901022E0FEA3E0FFEE24FCFEEF34FFFF90101EEEF0EFA3F0C374DB9EE7
:205A300074059F500A90101E74DBF07405A3F0901024E0FEA3E0EE20E70990101EE4F0A383
:205A5000F0802C90101EE0FEA3E0FF901026E0FCA3E0FD900395ECF0EDA3F090039774BF79
:205A7000F07409A3F0E4A3F08E828F83123C9590101EE0FEA3E0FFEE24BFF582EF3409F513
:205A900083E4F090101D04F090038DE4F075821E123A96E5824440FF900384741EF09003ED
:205AB00085EFF075820012397A90101EE0FEA3E08E82F5832212590BAE82AF83EE4F700167
:205AD000229009CBE0FC7D009009CCE0FB7A004205EA4204BD060FBC080C9009D4E0FBBB01
:205AF0000103024D9022BD0005BC08028001229009D6E0FDBD06028001229009EEE0FD301E
:205B1000E423ED30E01F7405C0E0747DC0E07480C0E0126416158115811581124F099014B8
:205B3000937404F022ED30E126C007C006C0057424C0E0747DC0E07480C0E0126416158143
:205B500015811581D005D006D007901493E4F0901493E0FC24FA500122EC2C2C905B7073C6
:205B7000025B82025BA3025BC7025C01025C2E025C25C005743FC0E0747DC0E07480C0E067
:205B9000126416158115811581D005ED20E101220253D6C0057448C0E0747DC0E07480C030
:205BB000E0126416158115811581D005ED30E46E9014937402F022C007C006C0057457C0C7
:205BD000E0747DC0E07480C0E0126416158115811581D005D006D007ED30E00A1255D7900B
:205BF00014937403F022C374369EE49F5030025150C0057465C0E0747DC0E07480C0E0123F
:1F5C10006416158115811581D005ED30E4109014937404F02212569C9014937404F022CD
:20794100747269616C6172707265706C790A0D006D616B6554637041636B0A0D006D616B60
:207961006554637053796E41636B0A0D0074637061636B0A0D00485454502F312E3120323C
:207981003030204F4B0D0A436F6E74656E742D547970653A20746578742F68746D6C0D0AF1
:2079A100436F6E74656E742D4C656E6774683A203533300D0A0D0A3C21444F4354595045C7
:2079C1002068746D6C3E3C68746D6C206C616E673D27656E273E3C686561643E3C6D6574B6
:2079E1006120636861727365743D275554462D38273E3C6D657461206E616D653D27766917
:207A01006577706F72742720636F6E74656E743D2777696474683D6465766963652D776944
:207A21006474682C20696E697469616C2D7363616C653D312E30273E3C7469746C653E4588
:207A4100746865726E657420576562205365727665723C2F7469746C653E3C7374796C651E
:207A61003E626F6479207B666F6E742D66616D696C793A20417269616C2C2073616E732DA7
:207A810073657269663B206261636B67726F756E642D636F6C6F723A2023663066306630C6
:207AA1003B20746578742D616C69676E3A2063656E7465723B2070616464696E673A2032D4
:207AC1003070783B7D6831207B636F6C6F723A20233333333333333B7D70207B636F6C6F63
:207AE100723A20233636363636363B7D3C2F7374796C653E3C2F686561643E3C626F64799B
:207B01003E3C68313E4553442046414C4C20323032343C2F68313E3C703E45746865726E7E
:207B21006574206261736564205765622053657276657220666F7220456D626564646564E6
:207B41002053797374656D73202D204E414447495220616E64204B4F505041206D61646545
:207B61002069747474742C206C657373676F6F6F6F21212120546869732077656220736514
:207B8100727665722073686F7763617365732074686520706F776572206F66206D696372C7
:207BA1006F636F6E74726F6C6C65727320616E642045746865726E657420636F6D6D756E3D
:207BC10069636174696F6E2E204279206C657665726167696E6720746865204154383943A6
:207BE1003531524332206D6963726F636F6E74726F6C6C657220616E642074686520454E72
:207C01004332384A36302045746865726E657420636F6E74726F6C6C65722C207765206398
:207C2100616E2073657276652064796E616D69632077656220706167657320616E642063C6
:207C41006F6E74726F6C20656D62656464656420646576696365732072656D6F74656C79A7
:207C61002E205468652073657276657220616C6C6F7773207365616D6C65737320636F6D4F
:207C81006D756E69636174696F6E206265747765656E20686172647761726520616E6420C1
:207CA100736F6674776172652C20656E61626C696E67207265616C2D74696D6520646174D3
:207CC100612065786368616E6765206163726F737320746865206E6574776F726B2E3C2F10
:207CE100703E3C2F626F64793E3C2F68746D6C3E006D616B6554637046696E50736841636F
:207D01006B0A0D005443502841434B5F46494E29207061636B6574206465746563746564A3
:207D21000A0D005443502853594E29207061636B65742064657465637465640A0D006C6913
:207D41007374656E0A0D0073796E2072656365697665640A0D0065737461626C6973686555
:0F7D6100640A0D0066696E20776169740A0D006F
:017D7D000005
:205C2F00AF83E582901028F0EFA3F03099FD901028E0FEA3E0FF8E99C2998E828F832210BE
:205C4F00980280FBAE997F008E828F8322AFF0AE83E58290102AF0EEA3F0EFA3F090102A58
:205C6F00E0FDA3E0FEA3E0FF7B007C008D828E838FF0126E38FA60360DBD00010E90102AB4
:205C8F00EDF0EEA3F0EFA3F08A017A0089828A83C007C006C005C004C003125C2FD003D0DF
:205CAF0004D005D006D0070BBB00C10C80BE90102AEDF0EEA3F0EFA3F00BBB00010C8B82F4
:035CCF008C8322A1
:205CD200AFF0AE83E58290102DF0EEA3F0EFA3F090102DE0FDA3E0FEA3E090102DE0F5F07B
:205CF200A3E045F0700122901032E4F0A3F090104AE0FBA3E0FC901030EBF0ECA3F0901000
:205D120034744AF07410A3F0901030E0FBA3E0FC4B60418B018C02C003C0048D008E04C3DF
:205D3200E998EA9CD004D003502A901032EBF0ECA3F074022BFBE43CFC901034EBF0ECA307
:205D5200F08B828C83E0FBA3E0FC901030EBF0ECA3F080B4901030E0FEA3E0FF90102DE090
:205D7200FBA3E0FCA3E0EB24FEFBEC34FFFC74022BFAE43CFD8A828D83EEF0EFA3F090101D
:205D920034E0F8A3E0F988828983EBF0ECA3F08B828C83E0F8A3E0F9EEB50033EFB5012FDF
:205DB20088828983A3A3E0FEA3E0FF8A828D83EEF0EFA3F08B828C83E0FEA3E0FF8E828F7E
:205DD20083E0FEA3E0FF8B828C83EEF0EFA3F0901032E0FEA3E0FF4E603C8E828F83E0F83C
:205DF200A3E0F9E8B5032FE9B5042B8B828C83E0FBA3E0FC8E828F83EBF0ECA3F074022EE3
:175E1200FEE43FFF8A828D83E0FAA3E0FD8E828F83EAF0EDA3F02245
:06206600E478FFF6D8FD4E
:205E2900AFF0AE83E58290103BF0EEA3F0EFA3F090103BE0F545A3E0F546A3E0F547AA45F3
:205E4900AB46AC47901036E0F8A3E0F9A3E0FF901039E0F548A3E0F549AD48AE4915487435
:205E6900FFB548021549ED4E6020888289838FF0126E38FEA3A882A9838A828B838CF0EE3A
:145E8900125EC5A3AA82AB8380CF8545828546838547F0220C
:205E9D00AC82AD8390103FE0FEA3E0FFBE000360121F0F90103EE08C828D83125EC5A3DE55
:085EBD00FADFF88C828D8322CC
:202044007901E94400601B7A01907D7D789375A014E493F2A308B8000205A0D9F4DAF275A0
:02206400A0FFDB
:1B5EC50020F71130F6138883A88220F509F6A8837583002280FEF280F5F022DC
:205EE000AFF0AE83E582901047F0EEA3F0EFA3F0901045E0FEA3E0FF4E602F901047E0FBAD
:205F0000A3E0FCA3E0FD901042E0F8A3E0F9A3E0FAC000C001C0028B828C838DF0122009B8
:205F200015811581158160028018901047E0F545A3E0F546A3E0F5478545828546838547C1
:205F4000F022C006C007884589468A4785454885464985474A8B008C018D07C000C001C00C
:205F600007854882854983854AF0122009158115811581D007D0065056EE2545F54DEF35AD
:205F800046F54E85474FEE2BF548EF3CF5498D4A8E4B8F4C154874FFB548021549154D7410
:205FA000FFB54D02154E854D82854E83854FF0126E38854882854983854AF0125EC5154B61
:205FC00074FFB54B02154CE54B454C70C7803AA845A946AA478E4D8F4E888289838AF01212
:205FE0006E38FFA3A882A9838B828C838DF0EF125EC5A3AB82AC83E54D24FFF54DE54E3449
:1B600000FFF54EE54D454E70D0901047E0FDA3E0FEA3E0FF8D828E838FF022B6
:20601B00C01C85811CE51C24FDF8868318868218E493A324DB600C2425600512610980F0ED
:20603B00026121D2D5E493A3C083C082B4731486F018868318868218126E386054A31261EF
:20605B000980F5B4630818E6181261098043B46417E630E74618E6F42401F608E6F434009E
:20607B00F6742D1261098033B4782D868318868218E41260FAE5831260F9E5831260FAE5C9
:20609B00821260F9E5821260FA30D5057430126109D082D08302602BB475F6E6FA18E6F9D3
:2060BB00187C107D271260E4FF7CE87D031260E4C4F5837C647D001260E44283E975F00AE2
:2060DB0084C445F0F582EF80A97B000BC3E99CF9EA9DFA50F61BE92CF9EA3DFAEB22C4549C
:2060FB000F700320D51FC2D52490D43440D4C083C082C0F0F582E8C0E0125C2FD0E0F8D03F
:09611B00F0D082D08322D01C22B6
:2061240090104A7493F07410A3F0907D7BE493FE740193FF1EBEFF011FEE2493FEEF34108E
:20614400FF901093EEF0EFA3F090104AE0FEA3E0FF8E828F83A3A3E4F0A3F022AF83E582D5
:2061640090104CF0EFA3F090104AE0F5F0A3E045F0700312612490104CE0FEA3E0FF4E6052
:206184000E74022EFCE43FFDC3EC9EED9F50049000002290104C74022EF0E43FA3F0901078
:2061A4004CE0FEA3E0FFC3EE9404EF9400500990104C7404F0E4A3F090104AE0FEA3E0FFF5
:2061C40090104EEEF0EFA3F0901050744AF07410A3F090104EE0FEA3E0FF4E70030262C580
:2061E4008E828F83E0FCA3E0FD8C028D038E008F01EAC398FAEB99FB8A008B0190104CE041
:20620400F51AA3E0F51BC3E8951AE9951B50030262A27404251AF8E4351BF9C3EA98EB99E7
:20622400404C8E028F03E51A2AFAE51B3BFB8A828B83ECF0EDA3F074022AFCE43BFD8E8215
:206244008F83A3A3E0F8A3E0F98C828D83E8F0E9A3F0901050E0FCA3E0FD8C828D83EAF0D8
:20626400EBA3F08E828F83EAF0EBA3F0801C901050E0FCA3E0FD8E828F83A3A3E0FAA3E075
:20628400FB8C828D83EAF0EBA3F090104EE0FCA3E0FD74022CFCE43DFD8C828D83227402CD
:2062A4002EFEE43FFF901050EEF0EFA3F08E828F83E0FEA3E0FF90104EEEF0EFA3F0026109
:0562C400D6900000224D
:2062C900AA83AB828BF0901052E0A4F8A9F08AF0E0A429F98BF0A3E0A429F5838882222228
:2062E900AFF0AE83E582901059F0EEA3F0EFA3F0901057E0FEA3E0FF901057E0F5F0A3E0DC
:2063090045F07004900000221EBEFF011FEE4F6075C006C007901059E0FBA3E0FCA3E0FDAC
:206329008B008C018D02888289838AF0126E38F8901054E0F545A3E0F546A3E0F547A945F4
:20634900AA46AF4789828A838FF0126E38F9E8B501028006D007D006802CD007D0060BBB14
:2063690000010C901059EBF0ECA3F0EDA3F0AB45AC46AD470BBB00010C901054EBF0ECA32D
:20638900F0EDA3F08082901059E0FDA3E0FEA3E0FF8D828E838FF0126E38FD7F00901054E2
:1F63A900E0FBA3E0FCA3E0FE8B828C838EF0126E38FB7E00EDC39BFDEF9E8D82F58322B1
:20206C007800E84400600A790075A001E4F309D8FC7893E84413600C7914900100E4F0A3B8
:04208C00D8FCD9FAA9
:2063C800C01C85811C7E008E83125C2FD01C22AFF0AE83E58290105DF0EEA3F0EFA3F090C6
:2063E800105DE0FDA3E0FEA3E0FF90105CE0FC901071E4F0A3F0A3F0901074EDF0EEA3F0F3
:20640800EFA3F0901077ECF09063C802651CC01CE581F51C24FBFF901071E4F0A3F0A3F045
:20642800E51C24FBF8901074E6F008E6A3F008E6A3F0901077EFF09063C812651CD01C22FE
:20644800E58290106DF0E0FF901063E0C0E0A3E0C0E0A3E0C0E0126463800D901061E0C021
:20646800E0A3E0C0E08F822215811581158190106BE02401F0A3E03400F022E58290106EDE
:20648800F0E02430FF24C6500D74072FFF901060E060034307208F82026448E58290106FFF
:2064A800F0E0FFC4540FF582C007126483D00753070F8F82026483E582901070F090106600
:2064C800E0FCA3E0FDA3E0FEA3E0FF90106AE0FB901070E0FA79208B00E828F545EF2354B2
:2064E800014545FBEC2CFCED33FDEE33FEEF33FFC3EB9A4007EBC39AFB43040119E970D73A
:20650800901066ECF0EDA3F0EEA3F0EFA3F090106AEBF022AF83E582901078F0EFA3F09054
:206528001078E0FEA3E0FF901061EEF0EFA3F0901071E0FDA3E0FEA3E0FF901063EDF0EE4B
:20654800A3F0EFA3F090106BE4F0A3F0901074E0FDA3E0FEA3E0FF8D828E838FF0126E3861
:20656800FC90107474012DF0E43EA3F0EFA3F0EC7003026E14BC25028003026E0C90107A5B
:20658800E4F090107BF090107CF090107DF090107EF090107FF0901080F0901081F090101D
:2065A80083F0901084F0A3F090108614F0A3F0901074E0FDA3E0FEA3E0FF8D828E838FF069
:2065C800126E38FBA3AD82AE83901074EDF0EEA3F0EFA3F090108AEBF0BB25088B82126499
:2065E80048026554BB300050030266B5EB24C650030266B5901086E0F53BA3E0F53C74FF93
:20660800B53B63B53C60C005C006C007901084E0FAA3E0FF901052EAF0EFA3F090000AC054
:2066280005C0031262C9AE82AF83D003D0058B057A00ED2EFEEA3FFFEE24D0FEEF34FFFFF7
:20664800901084EEF0EFA3F0D007D006D005901084E0F5F0A3E045F060030265C290107BE4
:206668007401F00265C2C005C006C007901052E53BF0E53CA3F090000AC006C005C0031282
:2066880062C9AA82AF83D003D005D0067E00EB2AFAEE3FFFEA24D0FAEF34FFFF901086EA29
:2066A800F0EFA3F0D007D006D0050265C290108AE0FBBB2E2FC005C006C007901086E0FA46
:2066C800A3E0FFBAFF05BFFF028009D007D006D0050265C2D007D006D005901086E4F0A35F
:2066E800F00265C2BB61004014EB2485400F90108A74DF5BF09010607401F0800590106074
:20670800E4F090108AE0FBBB20028075BB2B028067BB2D028059BB4202806FBB4302807C4A
:20672800BB44030269ACBB46030269D2BB48030265C2BB49030269ACBB4A030265C2BB4C72
:20674800028050BB4F030269BABB500302691ABB53028077BB54030265C2BB55030269C218
:20676800BB58030269CABB5A030265C20269DA90107A7401F00265C290107C7401F00265B0
:20678800C290107D7401F00265C290107F7401F00265C29010807401F00265C290107FE02A
:2067A800600E901077E014F9F090108AE7F0800F901077E024FEFFF08F0190108AE7F090B6
:2067C800108AE0F5821264480269E9901077E024FDFFF08F0187050987060987071919909C
:2067E8001066EDF0EEA3F0EFA3F08D828E838FF0126E2085823B85833C901086E0FAA3E0F3
:20680800FDBAFF0DBDFF0A901086E53BF0E53CA3F090107AE0704B901084E0FAA3E0FDC307
:20682800E53B9AE53C9D503A901084EAC3953BF0ED953CA3F0901084E0FAA3E0FD8A068DD1
:20684800071ABAFF011DEE4F6010758220C005C002126448D002D00580E3901084EAF0ED3A
:20686800A3F0901086E0F53EA3E0F53F901066E0FAA3E0FDA3E0FF8A828D838FF0126E3858
:20688800F53D603CC3E4953E7480853FF063F08095F0502C153E74FFB53E02153F853D82D9
:2068A800126448901066E0FAA3E0FDA3E0FF0ABA00010D901066EAF0EDA3F0EFA3F080AC50
:2068C80090107AE070030269E9901084E0FEA3E0FFC3E53B9EE53C9F40030269E99010846F
:2068E800EEC3953BF0EF953CA3F0901084E0FEA3E0FF8E028F051EBEFF011FEA4D7003027D
:2069080069E1758220C007C006126448D006D00780E0901077E024FDFDF08D0187400987CC
:20692800410987421919901066E540F0E541A3F0E542A3F0901068E0FDBD80004008901072
:206948008A7443F08020BD6000400890108A7450F08013BD4000400890108A7449F08006E6
:2069680090108A7458F090108AE0FDF582C00512644875823A12644875823012644875825D
:2069880078126448D005BD4902800EBD50028009901067E0F5821264A3901066E0F58212D0
:2069A80064A3803D90107E7401F0901083740AF0802F9010837408F08027901083740AF081
:2069C800801F9010837410F080179010817401F0800F8B821264488008901084EEF0EFA3E6
:2069E800F0901081E06071901077E024FCFFF08F0187030987050987060987071919199010
:206A08001066EBF0EDA3F0EEA3F0EFA3F09010667470F0747DA3F07480A3F0901066E0F5DA
:206A280040A3E0F541A3E0F54274012540FAE43541FBAF42901066EAF0EBA3F0EFA3F0851C
:206A480040828541838542F0126E38FF70030265548F8212644880C3901083E07003026598
:206A68005490107FE06047901077E014F9F087077E007D007B00901066EFF0EEA3F0EDA326
:206A8800F0EBA3F090107EE06003026B2C901066E0FBA3E0A3E0A3E07D007E007F00901002
:206AA80066EBF0EDA3F0EEA3F0EFA3F08076901080E06028901077E024FCFFF08F0187036C
:206AC800098705098706098707191919901066EBF0EDA3F0EEA3F0EFA3F08048901077E07E
:206AE80024FEFFF08F01870609870719EF3395E0FDFB901066EEF0EFA3F0EDA3F0EBA3F0BD
:206B080090107EE0701E901066E0FBA3E0FDA3E0A3E07E007F00901066EBF0EDA3F0EEA38B
:206B2800F0EFA3F090107EE0603D901066E0A3E0A3E0A3E030E72B901066E0FBA3E0FDA38B
:206B4800E0FEA3E0FFC3E49BFBE49DFDE49EFEE49FFF901066EBF0EDA3F0EEA3F0EFA3F0AC
:206B6800800590107EE4F09010827401F0901083E0F53E754390754410E4F53BF53C9010E3
:206B88006AE4F0853E821264BF901082E0703390106AE0C454F0F54090106AE0C4540F4513
:206BA80040F540854382854483E0FFE5404207854382854483EFF0154374FFB543021544E2
:206BC800800B90106AE0854382854483F0053BE4B53B02053C901082E0B40100E433F0900D
:206BE8001066E0FAA3E0FBA3E0FEA3E0FFEA4B4E4F708B901091E543F0E544A3F0901088C2
:206C0800E53BF0E53CA3F0901084E0F5F0A3E045F070099010847401F0E4A3F090107BE093
:206C2800FFE0704790107AE07041853B43853C44901084E0FAA3E0FBC007AF430F8F067FAB
:206C480000C3EE9AEF9BD0075019758220C007C003C002126448D002D003D0071ABAFF01A6
:206C68001B80D5901084EAF0EBA3F090107EE0602075822DC007126448D007901084E024FA
:206C8800FFFDA3E034FFFE901084EDF0EEA3F08056901088E0F5F0A3E045F0604A90107C79
:206CA800E0602075822BC007126448D007901084E024FFFDA3E034FFFE901084EDF0EEA384
:206CC800F0802490107DE0601E758220C007126448D007901084E024FFFDA3E034FFFE90C2
:206CE8001084EDF0EEA3F090107AE07044901088E0F543A3E0F544901084E0FAA3E0FBC0B4
:206D0800078A068B071ABAFF011BC3E5439EE5449FD007504FEF60047E3080027E208E825B
:206D2800C007C003C002126448D002D003D00780CE901084E0FEA3E0FF901088E0F543A310
:206D4800E0F544C3E5439EE5449F500F901084EEC39543F0EF9544A3F08011901084E4F0E1
:206D6800A3F08008901084EAF0EBA3F0901091E0FEA3E0FF901088E0F543A3E0F544AA43FA
:206D8800AD44154374FFB543021544EA4D6044901082E0B40100E433F0901082E070130EB0
:206DA800BE00010F8E828F83E0C4540F90106AF0800E8E828F83E0FD53050F90106AEDF0FF
:206DC80090106AE0F582C007C006126483D006D00780AB90107AE07003026554901084E0C0
:206DE800FEA3E0FF8E038F051EBEFF011FEB4D7003026554758220C007C006126448D0064D
:186E0800D00780E08C8212644802655490106BE0FEA3E08E82F583229E
:0B7D70003C4E4F20464C4F41543E005B
:027D7B00000402
:186E2000AA82AB83126E386003A380F8C3E5829AF582E5839BF58322F2
:20200900E58124FCC3C8C0E0C082E608467006E5824583601218E58296F58208E5839642A5
:1B2029008208E5F0964582D082C8D0E0C822758154126E54E58260030220061C
:1C6E380020F71430F6148883A88220F507E6A88375830022E280F7E49322E02269
:046E54007582002221
:00000001FF
